{
  "_format": "hh-sol-artifact-1",
  "contractName": "TroveManagerLiquidations",
  "sourceName": "src/main/TroveManagerLiquidations.sol",
  "abi": [
    {
      "anonymous": false,
      "inputs": [
        {
          "indexed": false,
          "internalType": "uint256",
          "name": "liquidatedAmount",
          "type": "uint256"
        },
        {
          "indexed": false,
          "internalType": "uint256",
          "name": "totalCUSDGasCompensation",
          "type": "uint256"
        },
        {
          "indexed": false,
          "internalType": "address[]",
          "name": "totalCollTokens",
          "type": "address[]"
        },
        {
          "indexed": false,
          "internalType": "uint256[]",
          "name": "totalCollAmounts",
          "type": "uint256[]"
        },
        {
          "indexed": false,
          "internalType": "address[]",
          "name": "totalCollGasCompTokens",
          "type": "address[]"
        },
        {
          "indexed": false,
          "internalType": "uint256[]",
          "name": "totalCollGasCompAmounts",
          "type": "uint256[]"
        }
      ],
      "name": "Liquidation",
      "type": "event"
    },
    {
      "anonymous": false,
      "inputs": [
        {
          "indexed": true,
          "internalType": "address",
          "name": "previousOwner",
          "type": "address"
        },
        {
          "indexed": true,
          "internalType": "address",
          "name": "newOwner",
          "type": "address"
        }
      ],
      "name": "OwnershipTransferred",
      "type": "event"
    },
    {
      "anonymous": false,
      "inputs": [
        {
          "indexed": true,
          "internalType": "address",
          "name": "_borrower",
          "type": "address"
        },
        {
          "indexed": false,
          "internalType": "uint256",
          "name": "_debt",
          "type": "uint256"
        },
        {
          "indexed": false,
          "internalType": "enum TroveManagerBase.TroveManagerOperation",
          "name": "_operation",
          "type": "uint8"
        }
      ],
      "name": "TroveLiquidated",
      "type": "event"
    },
    {
      "anonymous": false,
      "inputs": [
        {
          "indexed": true,
          "internalType": "address",
          "name": "_borrower",
          "type": "address"
        },
        {
          "indexed": false,
          "internalType": "uint256",
          "name": "_debt",
          "type": "uint256"
        },
        {
          "indexed": false,
          "internalType": "address[]",
          "name": "_tokens",
          "type": "address[]"
        },
        {
          "indexed": false,
          "internalType": "uint256[]",
          "name": "_amounts",
          "type": "uint256[]"
        },
        {
          "indexed": false,
          "internalType": "enum TroveManagerBase.TroveManagerOperation",
          "name": "operation",
          "type": "uint8"
        }
      ],
      "name": "TroveUpdated",
      "type": "event"
    },
    {
      "inputs": [],
      "name": "BORROWING_FEE_FLOOR",
      "outputs": [
        {
          "internalType": "uint256",
          "name": "",
          "type": "uint256"
        }
      ],
      "stateMutability": "view",
      "type": "function"
    },
    {
      "inputs": [],
      "name": "CCR",
      "outputs": [
        {
          "internalType": "uint256",
          "name": "",
          "type": "uint256"
        }
      ],
      "stateMutability": "view",
      "type": "function"
    },
    {
      "inputs": [],
      "name": "CUSD_GAS_COMPENSATION",
      "outputs": [
        {
          "internalType": "uint256",
          "name": "",
          "type": "uint256"
        }
      ],
      "stateMutability": "view",
      "type": "function"
    },
    {
      "inputs": [],
      "name": "DECIMAL_PRECISION",
      "outputs": [
        {
          "internalType": "uint256",
          "name": "",
          "type": "uint256"
        }
      ],
      "stateMutability": "view",
      "type": "function"
    },
    {
      "inputs": [],
      "name": "MCR",
      "outputs": [
        {
          "internalType": "uint256",
          "name": "",
          "type": "uint256"
        }
      ],
      "stateMutability": "view",
      "type": "function"
    },
    {
      "inputs": [],
      "name": "MIN_NET_DEBT",
      "outputs": [
        {
          "internalType": "uint256",
          "name": "",
          "type": "uint256"
        }
      ],
      "stateMutability": "view",
      "type": "function"
    },
    {
      "inputs": [],
      "name": "NAME",
      "outputs": [
        {
          "internalType": "bytes32",
          "name": "",
          "type": "bytes32"
        }
      ],
      "stateMutability": "view",
      "type": "function"
    },
    {
      "inputs": [],
      "name": "PERCENT_DIVISOR",
      "outputs": [
        {
          "internalType": "uint256",
          "name": "",
          "type": "uint256"
        }
      ],
      "stateMutability": "view",
      "type": "function"
    },
    {
      "inputs": [],
      "name": "REDEMPTION_FEE_FLOOR",
      "outputs": [
        {
          "internalType": "uint256",
          "name": "",
          "type": "uint256"
        }
      ],
      "stateMutability": "view",
      "type": "function"
    },
    {
      "inputs": [],
      "name": "_100pct",
      "outputs": [
        {
          "internalType": "uint256",
          "name": "",
          "type": "uint256"
        }
      ],
      "stateMutability": "view",
      "type": "function"
    },
    {
      "inputs": [
        {
          "internalType": "address[]",
          "name": "_troveArray",
          "type": "address[]"
        },
        {
          "internalType": "address",
          "name": "_liquidator",
          "type": "address"
        }
      ],
      "name": "batchLiquidateTroves",
      "outputs": [],
      "stateMutability": "nonpayable",
      "type": "function"
    },
    {
      "inputs": [],
      "name": "getEntireSystemColl",
      "outputs": [
        {
          "internalType": "uint256",
          "name": "",
          "type": "uint256"
        }
      ],
      "stateMutability": "view",
      "type": "function"
    },
    {
      "inputs": [],
      "name": "getEntireSystemDebt",
      "outputs": [
        {
          "internalType": "uint256",
          "name": "",
          "type": "uint256"
        }
      ],
      "stateMutability": "view",
      "type": "function"
    },
    {
      "inputs": [],
      "name": "owner",
      "outputs": [
        {
          "internalType": "address",
          "name": "",
          "type": "address"
        }
      ],
      "stateMutability": "view",
      "type": "function"
    },
    {
      "inputs": [],
      "name": "renounceOwnership",
      "outputs": [],
      "stateMutability": "nonpayable",
      "type": "function"
    },
    {
      "inputs": [
        {
          "internalType": "address",
          "name": "_borrowerOperationsAddress",
          "type": "address"
        },
        {
          "internalType": "address",
          "name": "_activePoolAddress",
          "type": "address"
        },
        {
          "internalType": "address",
          "name": "_defaultPoolAddress",
          "type": "address"
        },
        {
          "internalType": "address",
          "name": "_stabilityPoolAddress",
          "type": "address"
        },
        {
          "internalType": "address",
          "name": "_gasPoolAddress",
          "type": "address"
        },
        {
          "internalType": "address",
          "name": "_collSurplusPoolAddress",
          "type": "address"
        },
        {
          "internalType": "address",
          "name": "_CUSDTokenAddress",
          "type": "address"
        },
        {
          "internalType": "address",
          "name": "_sortedTrovesAddress",
          "type": "address"
        },
        {
          "internalType": "address",
          "name": "_BOCTreasuryAddress",
          "type": "address"
        },
        {
          "internalType": "address",
          "name": "_whitelistAddress",
          "type": "address"
        },
        {
          "internalType": "address",
          "name": "_troveManagerAddress",
          "type": "address"
        },
        {
          "internalType": "address",
          "name": "_bankOfCronosTreasury",
          "type": "address"
        }
      ],
      "name": "setAddresses",
      "outputs": [],
      "stateMutability": "nonpayable",
      "type": "function"
    },
    {
      "inputs": [],
      "name": "setUp",
      "outputs": [],
      "stateMutability": "nonpayable",
      "type": "function"
    },
    {
      "inputs": [
        {
          "internalType": "address",
          "name": "newOwner",
          "type": "address"
        }
      ],
      "name": "transferOwnership",
      "outputs": [],
      "stateMutability": "nonpayable",
      "type": "function"
    }
  ],
  "bytecode": "0x608060405234801561001057600080fd5b506145ef806100206000396000f3fe608060405234801561001057600080fd5b50600436106100f65760003560e01c8063794e572411610092578063794e5724146101d2578063795d26c3146101da578063887105d3146101e25780638da5cb5b146101ea578063a20baee614610147578063a3f4df7e1461020e578063e369e4ab14610216578063f2fde38b146102c2578063f92d343314610127576100f6565b80630a9254e4146100fb5780631795b405146101055780631bf435551461011f57806328d28b5b146101275780634870dd9a1461012f5780635733d58f14610137578063715018a61461013f57806372fe25aa14610147578063734f622d1461014f575b600080fd5b6101036102e8565b005b61010d6102f2565b60408051918252519081900360200190f35b61010d6102ff565b61010d61030c565b61010d610317565b61010d61031c565b610103610328565b61010d6103c2565b610103600480360361018081101561016657600080fd5b506001600160a01b038135811691602081013582169160408201358116916060810135821691608082013581169160a081013582169160c082013581169160e08101358216916101008201358116916101208101358216916101408201358116916101600135166103ce565b61010d6104fe565b61010d61050a565b61010d610617565b6101f261068d565b604080516001600160a01b039092168252519081900360200190f35b61010d61069c565b6101036004803603604081101561022c57600080fd5b810190602081018135600160201b81111561024657600080fd5b82018360208201111561025857600080fd5b803590602001918460208302840111600160201b8311171561027957600080fd5b919080806020026020016040519081016040528093929190818152602001838360200280828437600092019190915250929550505090356001600160a01b031691506106ba9050565b610103600480360360208110156102d857600080fd5b50356001600160a01b0316610e33565b6102f0610f24565b565b6801158e460913d0000081565b6809c2007651b250000081565b6611c37937e0800081565b60c881565b6714d1120d7b16000081565b610330610fed565b6001600160a01b031661034161068d565b6001600160a01b03161461038a576040805162461bcd60e51b8152602060048201819052602482015260008051602061453a833981519152604482015290519081900360640190fd5b6035546040516000916001600160a01b03169060008051602061455a833981519152908390a3603580546001600160a01b0319169055565b670de0b6b3a764000081565b6103d6610fed565b6001600160a01b03166103e761068d565b6001600160a01b031614610430576040805162461bcd60e51b8152602060048201819052602482015260008051602061453a833981519152604482015290519081900360640190fd5b606780546001600160a01b03199081166001600160a01b038f8116919091179092556001805482168e84161790556002805482168d84161790556068805482168c8416179055600080548216868416179055606d805482168b84161790556070805482168a8416179055606a80548216898416179055606f80548216888416179055606b80548216878416179055606980548216858416908117909155606e805483169091179055607180549091169183169190911790556104f0610328565b505050505050505050505050565b670f43fc2c04ee000081565b600080600160009054906101000a90046001600160a01b03166001600160a01b03166310ec1f526040518163ffffffff1660e01b815260040160206040518083038186803b15801561055b57600080fd5b505afa15801561056f573d6000803e3d6000fd5b505050506040513d602081101561058557600080fd5b5051600254604080516308760fa960e11b815290519293506000926001600160a01b03909216916310ec1f5291600480820192602092909190829003018186803b1580156105d257600080fd5b505afa1580156105e6573d6000803e3d6000fd5b505050506040513d60208110156105fc57600080fd5b50519050610610828263ffffffff610ff116565b9250505090565b60015460408051631944d03160e21b815290516000926001600160a01b03169163651340c4916004808301926020929190829003018186803b15801561065c57600080fd5b505afa158015610670573d6000803e3d6000fd5b505050506040513d602081101561068657600080fd5b5051905090565b6035546001600160a01b031690565b7654726f76654d616e61676572526564656d7074696f6e7360481b81565b6106c2611043565b8151610711576040805162461bcd60e51b81526020600482015260196024820152781513530e8813db99481d1c9bdd99481b5d5cdd08195e1a5cdd603a1b604482015290519081900360640190fd5b6001546002546068546001600160a01b03928316929182169116610733614394565b61073b6143b7565b826001600160a01b031663198d979c6040518163ffffffff1660e01b815260040160206040518083038186803b15801561077457600080fd5b505afa158015610788573d6000803e3d6000fd5b505050506040513d602081101561079e57600080fd5b505182526107aa611092565b15801560208401526107cd576107c6858584600001518a6110ab565b90506107e0565b6107dd858584600001518a611422565b90505b6020810151610832576040805162461bcd60e51b8152602060048201526019602482015278544d4c3a206e6f7468696e6720746f206c697175696461746560381b604482015290519081900360640190fd5b608081015160a0820151805160209182015160405163768cc57560e01b8152600481018581526060602483019081528451606484015284516001600160a01b038b169763768cc57597909695946044810192608490910191808801910280838360005b838110156108ad578181015183820152602001610895565b50505050905001838103825284818151815260200191508051906020019060200280838360005b838110156108ec5781810151838201526020016108d4565b5050505090500195505050505050600060405180830381600087803b15801561091457600080fd5b505af1158015610928573d6000803e3d6000fd5b505060695460c084015160e085015180516020918201516040516338d3db5160e21b81526001600160a01b038d8116600483019081528d821660248401526044830187905260a060648401908152855160a4850152855192909816995063e34f6d4498508e978e979691939092608482019260c490920191808801910280838360005b838110156109c35781810151838201526020016109ab565b50505050905001838103825284818151815260200191508051906020019060200280838360005b83811015610a025781810151838201526020016109ea565b50505050905001975050505050505050600060405180830381600087803b158015610a2c57600080fd5b505af1158015610a40573d6000803e3d6000fd5b50505050610a52816101000151611562565b15610b5957607054610100820151805160209182015160405163d0d8c20d60e01b81526001600160a01b0394851660048201818152606060248401908152855160648501528551978d169763d0d8c20d9793969594929391926044810192608490910191818801910280838360005b83811015610ad9578181015183820152602001610ac1565b50505050905001838103825284818151815260200191508051906020019060200280838360005b83811015610b18578181015183820152602001610b00565b5050505090500195505050505050600060405180830381600087803b158015610b4057600080fd5b505af1158015610b54573d6000803e3d6000fd5b505050505b60695460408083015180516020918201519251630e1f182560e41b81526001600160a01b038a811660048301908152606060248401908152845160648501528451929097169663e1f18250968d969094929391926044810192608490910191808801910280838360005b83811015610bdb578181015183820152602001610bc3565b50505050905001838103825284818151815260200191508051906020019060200280838360005b83811015610c1a578181015183820152602001610c02565b5050505090500195505050505050600060405180830381600087803b158015610c4257600080fd5b505af1158015610c56573d6000803e3d6000fd5b5050506020820151604084015250610c6c61441a565b610c7e8260a001518360e001516115b0565b9050610c8f818361010001516115b0565b90507ff9c8e708c82ad9ab70e0c58ca02ae4dceef6c9546eacbeb0b7ac025be81c460a83604001518360600151836000015184602001518660400151600001518760400151602001516040518087815260200186815260200180602001806020018060200180602001858103855289818151815260200191508051906020019060200280838360005b83811015610d30578181015183820152602001610d18565b50505050905001858103845288818151815260200191508051906020019060200280838360005b83811015610d6f578181015183820152602001610d57565b50505050905001858103835287818151815260200191508051906020019060200280838360005b83811015610dae578181015183820152602001610d96565b50505050905001858103825286818151815260200191508051906020019060200280838360005b83811015610ded578181015183820152602001610dd5565b505050509050019a505050505050505050505060405180910390a1610e2986888460600151856040015160000151866040015160200151611b11565b5050505050505050565b610e3b610fed565b6001600160a01b0316610e4c61068d565b6001600160a01b031614610e95576040805162461bcd60e51b8152602060048201819052602482015260008051602061453a833981519152604482015290519081900360640190fd5b6001600160a01b038116610eda5760405162461bcd60e51b81526004018080602001828103825260268152602001806144e66026913960400191505060405180910390fd5b6035546040516001600160a01b0380841692169060008051602061455a83398151915290600090a3603580546001600160a01b0319166001600160a01b0392909216919091179055565b600254600160a81b900460ff1680610f3f5750610f3f611c8f565b80610f545750600254600160a01b900460ff16155b610f8f5760405162461bcd60e51b815260040180806020018281038252602e81526020018061450c602e913960400191505060405180910390fd5b600254600160a81b900460ff16158015610fc6576002805460ff60a01b1960ff60a81b19909116600160a81b1716600160a01b1790555b610fce611ca0565b610fd6611d57565b8015610fea576002805460ff60a81b191690555b50565b3390565b60008282018381101561103a576040805162461bcd60e51b815260206004820152600c60248201526b616464206f766572666c6f7760a01b604482015290519081900360640190fd5b90505b92915050565b606e546001600160a01b031633146102f0576040805162461bcd60e51b815260206004820152600d60248201526c43616c6c6572206e6f7420544d60981b604482015290519081900360640190fd5b60006714d1120d7b1600006110a5611e55565b10905090565b6110b36143b7565b6110bb614434565b6110c361447c565b848252600060808301526110d561050a565b60a08301526110e2610617565b60c08301528351600060208401525b8083602001511015611417578483602001518151811061110d57fe5b6020908102919091018101516001600160a01b0390811660608601819052606954604080516321e3780160e01b815260048101939093525160009491909316926321e37801926024808201939291829003018186803b15801561116f57600080fd5b505afa158015611183573d6000803e3d6000fd5b505050506040513d602081101561119957600080fd5b505160048111156111a657fe5b905060018160048111156111b657fe5b146111c15750611407565b6069546060850151604080516327fb7d8960e01b81526001600160a01b039283166004820152905191909216916327fb7d89916024808301926020929190829003018186803b15801561121357600080fd5b505afa158015611227573d6000803e3d6000fd5b505050506040513d602081101561123d57600080fd5b50516040850152608084015161138857670f43fc2c04ee000084604001511015801561126857508351155b156112735750611407565b60006112878560c001518660a00151611edd565b90506112a38a8a87606001518860400151896000015186611f21565b608081015186519195506112bd919063ffffffff612e8f16565b8552604084015160608601516112d4919030612ec0565b608084015160a08601516112ed9163ffffffff612e8f16565b8560a001818152505060006113058560a00151613020565b905060006113168660400151613020565b90506000611328876101000151613020565b90506113558161134984611349878d60c00151612e8f90919063ffffffff16565b9063ffffffff612e8f16565b60c08901526113648988613122565b98506113788860c001518960a0015161320b565b1560808901525061140592505050565b836080015180156113a45750670f43fc2c04ee00008460400151105b156113ff576113bd89898660600151876000015161322a565b608081015185519194506113d7919063ffffffff612e8f16565b8452604083015160608501516113ee919030612ec0565b6113f88584613122565b9450611405565b50611407565b505b60208301805160010190526110f1565b505050949350505050565b61142a6143b7565b611432614434565b61143a61447c565b8482528351600060208401525b8083602001511015611417578483602001518151811061146357fe5b6020908102919091018101516001600160a01b0390811660608601819052606954604080516327fb7d8960e01b81526004810193909352519216926327fb7d8992602480840193829003018186803b1580156114be57600080fd5b505afa1580156114d2573d6000803e3d6000fd5b505050506040513d60208110156114e857600080fd5b505160408401819052670f43fc2c04ee000011156115525761151488888560600151866000015161322a565b6080810151845191935061152e919063ffffffff612e8f16565b835260408201516060840151611545919030612ec0565b61154f8483613122565b93505b6020830180516001019052611447565b805151600090815b818110156115a4578360200151818151811061158257fe5b602002602001015160001461159c576001925050506115ab565b60010161156a565b5060009150505b919050565b6115b861441a565b815151806115c9578391505061103d565b6115d161441a565b6000805460408051634eb5750560e11b815290516001600160a01b0390921692639d6aea0a92600480840193829003018186803b15801561161157600080fd5b505afa158015611625573d6000803e3d6000fd5b505050506040513d6000823e601f3d908101601f19168201604052602081101561164e57600080fd5b8101908080516040519392919084600160201b82111561166d57600080fd5b90830190602082018581111561168257600080fd5b82518660208202830111600160201b8211171561169e57600080fd5b82525081516020918201928201910280838360005b838110156116cb5781810151838201526020016116b3565b5050505091909101604052505050818352508551519051806001600160401b03811180156116f857600080fd5b50604051908082528060200260200182016040528015611722578160200160208202803683370190505b5060208401526000805b8381101561183c57600080548a5180516001600160a01b039092169163b31610db91908590811061175957fe5b60200260200101516040518263ffffffff1660e01b815260040180826001600160a01b03166001600160a01b0316815260200191505060206040518083038186803b1580156117a757600080fd5b505afa1580156117bb573d6000803e3d6000fd5b505050506040513d60208110156117d157600080fd5b505160208b0151805191925090839081106117e857fe5b60200260200101516000146118335760208a015180516001909401938390811061180e57fe5b60200260200101518660200151828151811061182657fe5b6020026020010181815250505b5060010161172c565b5060005b858110156119d05760008054895180516001600160a01b039092169163b31610db91908590811061186d57fe5b60200260200101516040518263ffffffff1660e01b815260040180826001600160a01b03166001600160a01b0316815260200191505060206040518083038186803b1580156118bb57600080fd5b505afa1580156118cf573d6000803e3d6000fd5b505050506040513d60208110156118e557600080fd5b505160208a0151805191925090839081106118fc57fe5b60200260200101516000146119c7578560200151818151811061191b57fe5b602002602001015160001415611969578860200151828151811061193b57fe5b60200260200101518660200151828151811061195357fe5b60209081029190910101526001909201916119c7565b6119aa8960200151838151811061197c57fe5b60200260200101518760200151838151811061199457fe5b6020026020010151610ff190919063ffffffff16565b866020015182815181106119ba57fe5b6020026020010181815250505b50600101611840565b506060816001600160401b03811180156119e957600080fd5b50604051908082528060200260200182016040528015611a13578160200160208202803683370190505b5090506060826001600160401b0381118015611a2e57600080fd5b50604051908082528060200260200182016040528015611a58578160200160208202803683370190505b5090506000805b85811015611afc5787602001518181518110611a7757fe5b6020026020010151600014611af4578751805182908110611a9457fe5b6020026020010151848381518110611aa857fe5b6001600160a01b03909216602092830291909101820152880151805182908110611ace57fe5b6020026020010151838381518110611ae257fe5b60209081029190910101526001909101905b600101611a5f565b50509087526020870152505050505092915050565b8215611b9057606a54606d5460408051631062c15f60e11b81526001600160a01b039283166004820152878316602482015260448101879052905191909216916320c582be91606480830192600092919082900301818387803b158015611b7757600080fd5b505af1158015611b8b573d6000803e3d6000fd5b505050505b604051633733a13360e01b815230600482018181526001600160a01b038781166024850152608060448501908152865160848601528651918a1694633733a13394938a93899389939091606482019160a401906020808801910280838360005b83811015611c08578181015183820152602001611bf0565b50505050905001838103825284818151815260200191508051906020019060200280838360005b83811015611c47578181015183820152602001611c2f565b505050509050019650505050505050600060405180830381600087803b158015611c7057600080fd5b505af1158015611c84573d6000803e3d6000fd5b505050505050505050565b6000611c9a30613a54565b15905090565b600254600160a81b900460ff1680611cbb5750611cbb611c8f565b80611cd05750600254600160a01b900460ff16155b611d0b5760405162461bcd60e51b815260040180806020018281038252602e81526020018061450c602e913960400191505060405180910390fd5b600254600160a81b900460ff16158015610fd6576002805460ff60a01b1960ff60a81b19909116600160a81b1716600160a01b1790558015610fea576002805460ff60a81b1916905550565b600254600160a81b900460ff1680611d725750611d72611c8f565b80611d875750600254600160a01b900460ff16155b611dc25760405162461bcd60e51b815260040180806020018281038252602e81526020018061450c602e913960400191505060405180910390fd5b600254600160a81b900460ff16158015611df9576002805460ff60a01b1960ff60a81b19909116600160a81b1716600160a01b1790555b6000611e03610fed565b603580546001600160a01b0319166001600160a01b0383169081179091556040519192509060009060008051602061455a833981519152908290a3508015610fea576002805460ff60a81b1916905550565b60015460408051632890851960e21b8152815160009384936001600160a01b039091169263a24214649260048083019392829003018186803b158015611e9a57600080fd5b505afa158015611eae573d6000803e3d6000fd5b505050506040513d6040811015611ec457600080fd5b506020015190506000611ed561050a565b905061061082825b60008115611f18576000611f0f83611f0386670de0b6b3a764000063ffffffff613a5a16565b9063ffffffff613ab816565b915061103d9050565b5060001961103d565b611f2961447c565b611f316144a4565b606954604080516324f77f7760e11b815290516001926001600160a01b0316916349eefeee916004808301926020929190829003018186803b158015611f7657600080fd5b505afa158015611f8a573d6000803e3d6000fd5b505050506040513d6020811015611fa057600080fd5b505111611fad5750612e85565b60695460408051630956f86160e11b81526001600160a01b038981166004830152915191909216916312adf0c2916024808301926000929190829003018186803b158015611ffa57600080fd5b505afa15801561200e573d6000803e3d6000fd5b505050506040513d6000823e601f3d908101601f1916820160405260c081101561203757600080fd5b815160208301805160405192949293830192919084600160201b82111561205d57600080fd5b90830190602082018581111561207257600080fd5b82518660208202830111600160201b8211171561208e57600080fd5b82525081516020918201928201910280838360005b838110156120bb5781810151838201526020016120a3565b5050505090500160405260200180516040519392919084600160201b8211156120e357600080fd5b9083019060208201858111156120f857600080fd5b82518660208202830111600160201b8211171561211457600080fd5b82525081516020918201928201910280838360005b83811015612141578181015183820152602001612129565b505050509050016040526020018051906020019092919080516040519392919084600160201b82111561217357600080fd5b90830190602082018581111561218857600080fd5b82518660208202830111600160201b821117156121a457600080fd5b82525081516020918201928201910280838360005b838110156121d15781810151838201526020016121b9565b5050505090500160405260200180516040519392919084600160201b8211156121f957600080fd5b90830190602082018581111561220e57600080fd5b82518660208202830111600160201b8211171561222a57600080fd5b82525081516020918201928201910280838360005b8381101561225757818101518382015260200161223f565b505050509190910160409081526020808e018051928e015180830198909852979096528b86019790975250505050820192909252919091529083525161229c90613ae5565b60408301526801158e460913d00000606083015260208201515181515280515151806001600160401b03811180156122d357600080fd5b506040519080825280602002602001820160405280156122fd578160200160208202803683370190505b5082516020015260005b8181101561237d57612358846040015160200151828151811061232657fe5b6020026020010151856020015160200151838151811061234257fe5b6020026020010151612e8f90919063ffffffff16565b83516020015180518390811061236a57fe5b6020908102919091010152600101612307565b50670de0b6b3a7640000861161271757606960009054906101000a90046001600160a01b03166001600160a01b0316637837eeeb8a8a85602001518660400151600001518760400151602001518d6040518763ffffffff1660e01b815260040180876001600160a01b03166001600160a01b03168152602001866001600160a01b03166001600160a01b031681526020018581526020018060200180602001846001600160a01b03166001600160a01b03168152602001838103835286818151815260200191508051906020019060200280838360005b8381101561246c578181015183820152602001612454565b50505050905001838103825285818151815260200191508051906020019060200280838360005b838110156124ab578181015183820152602001612493565b5050505090500198505050505050505050600060405180830381600087803b1580156124d657600080fd5b505af11580156124ea573d6000803e3d6000fd5b505060695460408051630bce3bf960e41b81526001600160a01b038c81166004830152915191909216935063bce3bf909250602480830192600092919082900301818387803b15801561253c57600080fd5b505af1158015612550573d6000803e3d6000fd5b50506000608086015250612564905061441a565b60a08401819052835160c0850152825160e0850181905260715461259391908a906001600160a01b0316612ec0565b606954604080516322962f6560e01b81526001600160a01b038b81166004830152915191909216916322962f6591602480830192600092919082900301818387803b1580156125e157600080fd5b505af11580156125f5573d6000803e3d6000fd5b50508551604080519182526002602083015280516001600160a01b038d16945060008051602061457a8339815191529350918290030190a261263561441a565b886001600160a01b031660008051602061459a833981519152600083600001518460200151600260405180858152602001806020018060200184600381111561267a57fe5b60ff168152602001838103835286818151815260200191508051906020019060200280838360005b838110156126ba5781810151838201526020016126a2565b50505050905001838103825285818151815260200191508051906020019060200280838360005b838110156126f95781810151838201526020016126e1565b50505050905001965050505050505060405180910390a25050612d6c565b670f43fc2c04ee0000861015612ace57606960009054906101000a90046001600160a01b03166001600160a01b0316637837eeeb8a8a85602001518660400151600001518760400151602001518d6040518763ffffffff1660e01b815260040180876001600160a01b03166001600160a01b03168152602001866001600160a01b03166001600160a01b031681526020018581526020018060200180602001846001600160a01b03166001600160a01b03168152602001838103835286818151815260200191508051906020019060200280838360005b838110156128065781810151838201526020016127ee565b50505050905001838103825285818151815260200191508051906020019060200280838360005b8381101561284557818101518382015260200161282d565b5050505090500198505050505050505050600060405180830381600087803b15801561287057600080fd5b505af1158015612884573d6000803e3d6000fd5b505060695460408051630bce3bf960e41b81526001600160a01b038c81166004830152915191909216935063bce3bf909250602480830192600092919082900301818387803b1580156128d657600080fd5b505af11580156128ea573d6000803e3d6000fd5b505050506128f66144cb565b83518351612905919088613be8565b905061290f61441a565b612921826020015183606001516115b0565b60715490915061293d9082908b906001600160a01b0316612ec0565b6129478286613f3e565b606954604080516322962f6560e01b81526001600160a01b038d8116600483015291519398509116916322962f659160248082019260009290919082900301818387803b15801561299757600080fd5b505af11580156129ab573d6000803e3d6000fd5b50508651604080519182526002602083015280516001600160a01b038e16945060008051602061457a8339815191529350918290030190a26129eb61441a565b896001600160a01b031660008051602061459a8339815191526000836000015184602001516002604051808581526020018060200180602001846003811115612a3057fe5b60ff168152602001838103835286818151815260200191508051906020019060200280838360005b83811015612a70578181015183820152602001612a58565b50505050905001838103825285818151815260200191508051906020019060200280838360005b83811015612aaf578181015183820152602001612a97565b50505050905001965050505050505060405180910390a2505050612d6c565b8386108015612ade575082518510155b15612d5a57606960009054906101000a90046001600160a01b03166001600160a01b0316637837eeeb8a8a85602001518660400151600001518760400151602001518d6040518763ffffffff1660e01b815260040180876001600160a01b03166001600160a01b03168152602001866001600160a01b03166001600160a01b031681526020018581526020018060200180602001846001600160a01b03166001600160a01b03168152602001838103835286818151815260200191508051906020019060200280838360005b83811015612bc2578181015183820152602001612baa565b50505050905001838103825285818151815260200191508051906020019060200280838360005b83811015612c01578181015183820152602001612be9565b5050505090500198505050505050505050600060405180830381600087803b158015612c2c57600080fd5b505af1158015612c40573d6000803e3d6000fd5b505050508460001415612c9a576040805162461bcd60e51b815260206004820152601b60248201527f544d4c3a207a65726f204355534420696e205374616220506f6f6c0000000000604482015290519081900360640190fd5b60695460408051630bce3bf960e41b81526001600160a01b038a811660048301529151919092169163bce3bf9091602480830192600092919082900301818387803b158015612ce857600080fd5b505af1158015612cfc573d6000803e3d6000fd5b505084516020808701518051910151612d22945091925090670f43fc2c04ee0000613f7d565b9250612d2c61441a565b612d3e8460a001518560e001516115b0565b6071549091506125939082908a906001600160a01b0316612ec0565b612d6261447c565b9250612e85915050565b612d7a836101000151611562565b15612e825760695461010084015180516020918201516040516396755e5560e01b81526001600160a01b038c81166004830190815260606024840190815285516064850152855192909716966396755e55968f969594929391926044810192608490910191808801910280838360005b83811015612e02578181015183820152602001612dea565b50505050905001838103825284818151815260200191508051906020019060200280838360005b83811015612e41578181015183820152602001612e29565b5050505090500195505050505050600060405180830381600087803b158015612e6957600080fd5b505af1158015612e7d573d6000803e3d6000fd5b505050505b50505b9695505050505050565b600061103a83836040518060400160405280600c81526020016b737562206f766572666c6f7760a01b815250614219565b82515160005b8181101561301957600085600001518281518110612ee057fe5b602090810291909101810151600054604080516324af709f60e11b81526001600160a01b038085166004830152915193955091169263495ee13e92602480840193829003018186803b158015612f3557600080fd5b505afa158015612f49573d6000803e3d6000fd5b505050506040513d6020811015612f5f57600080fd5b50511561301057806001600160a01b0316632c8e8dfa868689602001518681518110612f8757fe5b60200260200101516040518463ffffffff1660e01b815260040180846001600160a01b03166001600160a01b03168152602001836001600160a01b03166001600160a01b031681526020018281526020019350505050600060405180830381600087803b158015612ff757600080fd5b505af115801561300b573d6000803e3d6000fd5b505050505b50600101612ec6565b5050505050565b600080548251602080850151604080516397a4b9f760e01b8152600481019182528451604482015284516001600160a01b03909616956397a4b9f795948392602481019260649091019180880191028083838d5b8381101561308c578181015183820152602001613074565b50505050905001838103825284818151815260200191508051906020019060200280838360005b838110156130cb5781810151838201526020016130b3565b5050505090500194505050505060206040518083038186803b1580156130f057600080fd5b505afa158015613104573d6000803e3d6000fd5b505050506040513d602081101561311a57600080fd5b505192915050565b61312a6143b7565b61313c836040015183604001516115b0565b60408201526060808301519084015161315a9163ffffffff610ff116565b6060820152815160208401516131759163ffffffff610ff116565b6020820152608080830151908401516131939163ffffffff610ff116565b608082015260a080840151908301516131ac91906115b0565b60a082015260c080830151908401516131ca9163ffffffff610ff116565b60c082015260e080840151908301516131e391906115b0565b8160e001819052506131ff8361010001518361010001516115b0565b61010082015292915050565b6000806132188484611edd565b6714d1120d7b16000011949350505050565b61323261447c565b61323a6144a4565b60695460408051630956f86160e11b81526001600160a01b038781166004830152915191909216916312adf0c2916024808301926000929190829003018186803b15801561328757600080fd5b505afa15801561329b573d6000803e3d6000fd5b505050506040513d6000823e601f3d908101601f1916820160405260c08110156132c457600080fd5b815160208301805160405192949293830192919084600160201b8211156132ea57600080fd5b9083019060208201858111156132ff57600080fd5b82518660208202830111600160201b8211171561331b57600080fd5b82525081516020918201928201910280838360005b83811015613348578181015183820152602001613330565b5050505090500160405260200180516040519392919084600160201b82111561337057600080fd5b90830190602082018581111561338557600080fd5b82518660208202830111600160201b821117156133a157600080fd5b82525081516020918201928201910280838360005b838110156133ce5781810151838201526020016133b6565b505050509050016040526020018051906020019092919080516040519392919084600160201b82111561340057600080fd5b90830190602082018581111561341557600080fd5b82518660208202830111600160201b8211171561343157600080fd5b82525081516020918201928201910280838360005b8381101561345e578181015183820152602001613446565b5050505090500160405260200180516040519392919084600160201b82111561348657600080fd5b90830190602082018581111561349b57600080fd5b82518660208202830111600160201b821117156134b757600080fd5b82525081516020918201928201910280838360005b838110156134e45781810151838201526020016134cc565b505050509190910160409081526020808e01518d8301805180840199909952989097528c81019889528681019990995298909452505050948752606954915190518051908401519451637837eeeb60e01b81526001600160a01b038d8116600483019081528d82166024840152604483018590528c821660a484015260c060648401908152845160c48501528451929096169850637837eeeb978f978f9791948f94608482019260e490920191888101910280838360005b838110156135b457818101518382015260200161359c565b50505050905001838103825285818151815260200191508051906020019060200280838360005b838110156135f35781810151838201526020016135db565b5050505090500198505050505050505050600060405180830381600087803b15801561361e57600080fd5b505af1158015613632573d6000803e3d6000fd5b505060695460408051630bce3bf960e41b81526001600160a01b038981166004830152915191909216935063bce3bf909250602480830192600092919082900301818387803b15801561368457600080fd5b505af1158015613698573d6000803e3d6000fd5b505050506136a98260200151613ae5565b60408301526801158e460913d00000606083015260208201515181515280515151806001600160401b03811180156136e057600080fd5b5060405190808252806020026020018201604052801561370a578160200160208202803683370190505b5082516020015260005b8181101561375857613733846040015160200151828151811061232657fe5b83516020015180518390811061374557fe5b6020908102919091010152600101613714565b506137616144cb565b83518351613770919087613be8565b905061377a61441a565b61378c826020015183606001516115b0565b6071549091506137a890829089906001600160a01b0316612ec0565b6137b28286613f3e565b606954604080516322962f6560e01b81526001600160a01b038b8116600483015291519398509116916322962f659160248082019260009290919082900301818387803b15801561380257600080fd5b505af1158015613816573d6000803e3d6000fd5b50505050613828856101000151611562565b156139305760695461010086015180516020918201516040516396755e5560e01b81526001600160a01b038c81166004830190815260606024840190815285516064850152855192909716966396755e55968f969594929391926044810192608490910191808801910280838360005b838110156138b0578181015183820152602001613898565b50505050905001838103825284818151815260200191508051906020019060200280838360005b838110156138ef5781810151838201526020016138d7565b5050505090500195505050505050600060405180830381600087803b15801561391757600080fd5b505af115801561392b573d6000803e3d6000fd5b505050505b8451604080519182526001602083015280516001600160a01b038a169260008051602061457a83398151915292908290030190a261396c61441a565b876001600160a01b031660008051602061459a83398151915260008360000151846020015160016040518085815260200180602001806020018460038111156139b157fe5b60ff168152602001838103835286818151815260200191508051906020019060200280838360005b838110156139f15781810151838201526020016139d9565b50505050905001838103825285818151815260200191508051906020019060200280838360005b83811015613a30578181015183820152602001613a18565b50505050905001965050505050505060405180910390a25050505050949350505050565b3b151590565b600082613a695750600061103d565b82820282848281613a7657fe5b041461103a576040805162461bcd60e51b815260206004820152600c60248201526b6d756c206f766572666c6f7760a01b604482015290519081900360640190fd5b600061103a838360405180604001604052806008815260200167064697620627920360c41b8152506142b0565b613aed61441a565b60208201515182515114613b3a576040805162461bcd60e51b815260206004820152600f60248201526e09cdee840e6c2daca40d8cadccee8d608b1b604482015290519081900360640190fd5b8151516060906001600160401b0381118015613b5557600080fd5b50604051908082528060200260200182016040528015613b7f578160200160208202803683370190505b50905060005b835151811015613bd05760c884602001518281518110613ba157fe5b602002602001015181613bb057fe5b04828281518110613bbd57fe5b6020908102919091010152600101613b85565b50604080518082019091529251835260208301525090565b613bf06144cb565b8251606082015152825151806001600160401b0381118015613c1157600080fd5b50604051908082528060200260200182016040528015613c3b578160200160208202803683370190505b506060830151602001528215613ee0578351602083015152806001600160401b0381118015613c6957600080fd5b50604051908082528060200260200182016040528015613c93578160200160208202803683370190505b5060208084015101528351608083015152806001600160401b0381118015613cba57600080fd5b50604051908082528060200260200182016040528015613ce4578160200160208202803683370190505b50608083015160200152613cf88584614315565b808352613d0c90869063ffffffff612e8f16565b60408301526000613d1c8561432b565b90506000613d5387611f038660000151613d47670de0b6b3a764000080613a5a90919063ffffffff16565b9063ffffffff613a5a16565b90506000613d8683611f03670f43fc2c04ee0000613d47670de0b6b3a76400008a60000151613a5a90919063ffffffff16565b9050613d928282614315565b90506000613da6838363ffffffff612e8f16565b905060005b85811015613ed657613df5670de0b6b3a7640000611f03670de0b6b3a7640000611f03878e602001518781518110613ddf57fe5b6020026020010151613a5a90919063ffffffff16565b8760200151602001518281518110613e0957fe5b602002602001018181525050613e41670de0b6b3a7640000611f03670de0b6b3a7640000611f03868e602001518781518110613ddf57fe5b8760800151602001518281518110613e5557fe5b602002602001018181525050613eaf8760800151602001518281518110613e7857fe5b60200260200101516113498960200151602001518481518110613e9757fe5b60200260200101518c60200151858151811061234257fe5b8760600151602001518281518110613ec357fe5b6020908102919091010152600101613dab565b5050505050613f36565b60008083525b81811015613f2d5784602001518181518110613efe57fe5b60200260200101518360600151602001518281518110613f1a57fe5b6020908102919091010152600101613ee6565b50604082018590525b509392505050565b613f4661447c565b508151608082810191909152602083015160a0830152604083015160c0830152606083015160e08301529091015161010082015290565b613f8561447c565b613f8d61441a565b848152602081018490526000613fb5670de0b6b3a7640000611f03868a63ffffffff613a5a16565b90506000613fc28361432b565b90506000613fe282611f0385670de0b6b3a764000063ffffffff613a5a16565b9050613ff681670de0b6b3a7640000614315565b898652602086018590526801158e460913d000006060870152608086018a9052600060c087015260a08601518990528851909150806001600160401b038111801561404057600080fd5b5060405190808252806020026020018201604052801561406a578160200160208202803683370190505b5060a087015160200152610100860151899052806001600160401b038111801561409357600080fd5b506040519080825280602002602001820160405280156140bd578160200160208202803683370190505b50610100870151602001526040860151899052806001600160401b03811180156140e657600080fd5b50604051908082528060200260200182016040528015614110578160200160208202803683370190505b5060408701516020015260005b8181101561420b576000614159670de0b6b3a7640000611f038c858151811061414257fe5b602002602001015187613a5a90919063ffffffff16565b9050600061416e8260c863ffffffff613ab816565b90506000614182838363ffffffff612e8f16565b90506000614196848e878151811061234257fe5b9050828b604001516020015186815181106141ad57fe5b602002602001018181525050818b60a001516020015186815181106141ce57fe5b602002602001018181525050808b61010001516020015186815181106141f057fe5b6020026020010181815250505050505080600101905061411d565b505050505050949350505050565b600081848411156142a85760405162461bcd60e51b81526004018080602001828103825283818151815260200191508051906020019080838360005b8381101561426d578181015183820152602001614255565b50505050905090810190601f16801561429a5780820380516001836020036101000a031916815260200191505b509250505060405180910390fd5b505050900390565b600081836142ff5760405162461bcd60e51b815260206004820181815283516024840152835190928392604490910191908501908083836000831561426d578181015183820152602001614255565b50600083858161430b57fe5b0495945050505050565b6000818310614324578161103a565b5090919050565b60008054825160208085015160408051631d8e148360e11b8152600481019182528451604482015284516001600160a01b0390961695633b1c290695948392602481019260649091019180880191028083838d831561308c578181015183820152602001613074565b604051806060016040528060008152602001600015158152602001600081525090565b60405180610120016040528060008152602001600081526020016143d961441a565b815260200160008152602001600081526020016143f461441a565b81526020016000815260200161440861441a565b815260200161441561441a565b905290565b604051806040016040528060608152602001606081525090565b6040518060e0016040528060008152602001600081526020016000815260200160006001600160a01b0316815260200160001515815260200160008152602001600081525090565b6040518061012001604052806000815260200161449761441a565b81526020016143d961441a565b60405180606001604052806144b761441a565b81526020016000815260200161441561441a565b6040518060a00160405280600081526020016143f461441a56fe4f776e61626c653a206e6577206f776e657220697320746865207a65726f2061646472657373496e697469616c697a61626c653a20636f6e747261637420697320616c726561647920696e697469616c697a65644f776e61626c653a2063616c6c6572206973206e6f7420746865206f776e65728be0079c531659141344cd1fd0a4f28419497f9722a3daafe3b4186f6b6457e0679aef5b8c9f79ba6e1427981d7b06db55d0eadf337f8ed36e4ba5395a9111a398c96bbf8d2aa6be678259387225d169084fca483ed9598bde8ea258036bcacfa2646970667358221220de33a455b1d0e1be409859f8202cf2e8b96ca1191cb9e7107adb5c300b99b3e464736f6c634300060b0033",
  "linkReferences": {},
  "deployedLinkReferences": {}
}