{
  "_format": "hh-sol-artifact-1",
  "contractName": "StabilityPool",
  "sourceName": "src/main/StabilityPool.sol",
  "abi": [
    {
      "anonymous": false,
      "inputs": [
        {
          "indexed": false,
          "internalType": "address",
          "name": "_newActivePoolAddress",
          "type": "address"
        }
      ],
      "name": "ActivePoolAddressChanged",
      "type": "event"
    },
    {
      "anonymous": false,
      "inputs": [
        {
          "indexed": false,
          "internalType": "address",
          "name": "_newBorrowerOperationsAddress",
          "type": "address"
        }
      ],
      "name": "BorrowerOperationsAddressChanged",
      "type": "event"
    },
    {
      "anonymous": false,
      "inputs": [
        {
          "indexed": false,
          "internalType": "address",
          "name": "_newCUSDTokenAddress",
          "type": "address"
        }
      ],
      "name": "CUSDTokenAddressChanged",
      "type": "event"
    },
    {
      "anonymous": false,
      "inputs": [
        {
          "indexed": false,
          "internalType": "address",
          "name": "_to",
          "type": "address"
        },
        {
          "indexed": false,
          "internalType": "address[]",
          "name": "_collaterals",
          "type": "address[]"
        },
        {
          "indexed": false,
          "internalType": "uint256[]",
          "name": "_amounts",
          "type": "uint256[]"
        }
      ],
      "name": "CollateralSent",
      "type": "event"
    },
    {
      "anonymous": false,
      "inputs": [
        {
          "indexed": false,
          "internalType": "address",
          "name": "_newCommunityIssuanceAddress",
          "type": "address"
        }
      ],
      "name": "CommunityIssuanceAddressChanged",
      "type": "event"
    },
    {
      "anonymous": false,
      "inputs": [
        {
          "indexed": false,
          "internalType": "address",
          "name": "_newDefaultPoolAddress",
          "type": "address"
        }
      ],
      "name": "DefaultPoolAddressChanged",
      "type": "event"
    },
    {
      "anonymous": false,
      "inputs": [
        {
          "indexed": true,
          "internalType": "address",
          "name": "_depositor",
          "type": "address"
        },
        {
          "indexed": false,
          "internalType": "uint256",
          "name": "_P",
          "type": "uint256"
        },
        {
          "indexed": false,
          "internalType": "uint256",
          "name": "_G",
          "type": "uint256"
        }
      ],
      "name": "DepositSnapshotUpdated",
      "type": "event"
    },
    {
      "anonymous": false,
      "inputs": [
        {
          "indexed": true,
          "internalType": "address",
          "name": "_depositor",
          "type": "address"
        },
        {
          "indexed": false,
          "internalType": "uint256",
          "name": "_P",
          "type": "uint256"
        },
        {
          "indexed": false,
          "internalType": "uint256",
          "name": "_S",
          "type": "uint256"
        },
        {
          "indexed": false,
          "internalType": "uint256",
          "name": "_G",
          "type": "uint256"
        }
      ],
      "name": "DepositSnapshotUpdated",
      "type": "event"
    },
    {
      "anonymous": false,
      "inputs": [
        {
          "indexed": true,
          "internalType": "address",
          "name": "_depositor",
          "type": "address"
        },
        {
          "indexed": false,
          "internalType": "uint256",
          "name": "_ETH",
          "type": "uint256"
        },
        {
          "indexed": false,
          "internalType": "uint256",
          "name": "_CUSDLoss",
          "type": "uint256"
        }
      ],
      "name": "ETHGainWithdrawn",
      "type": "event"
    },
    {
      "anonymous": false,
      "inputs": [
        {
          "indexed": false,
          "internalType": "uint128",
          "name": "_currentEpoch",
          "type": "uint128"
        }
      ],
      "name": "EpochUpdated",
      "type": "event"
    },
    {
      "anonymous": false,
      "inputs": [
        {
          "indexed": false,
          "internalType": "address",
          "name": "_to",
          "type": "address"
        },
        {
          "indexed": false,
          "internalType": "uint256",
          "name": "_amount",
          "type": "uint256"
        }
      ],
      "name": "EtherSent",
      "type": "event"
    },
    {
      "anonymous": false,
      "inputs": [
        {
          "indexed": false,
          "internalType": "uint256",
          "name": "_G",
          "type": "uint256"
        },
        {
          "indexed": false,
          "internalType": "uint128",
          "name": "_epoch",
          "type": "uint128"
        },
        {
          "indexed": false,
          "internalType": "uint128",
          "name": "_scale",
          "type": "uint128"
        }
      ],
      "name": "G_Updated",
      "type": "event"
    },
    {
      "anonymous": false,
      "inputs": [
        {
          "indexed": true,
          "internalType": "address",
          "name": "_depositor",
          "type": "address"
        },
        {
          "indexed": false,
          "internalType": "address[]",
          "name": "collaterals",
          "type": "address[]"
        },
        {
          "indexed": false,
          "internalType": "uint256[]",
          "name": "_amounts",
          "type": "uint256[]"
        },
        {
          "indexed": false,
          "internalType": "uint256",
          "name": "_CUSDLoss",
          "type": "uint256"
        }
      ],
      "name": "GainsWithdrawn",
      "type": "event"
    },
    {
      "anonymous": false,
      "inputs": [
        {
          "indexed": true,
          "internalType": "address",
          "name": "previousOwner",
          "type": "address"
        },
        {
          "indexed": true,
          "internalType": "address",
          "name": "newOwner",
          "type": "address"
        }
      ],
      "name": "OwnershipTransferred",
      "type": "event"
    },
    {
      "anonymous": false,
      "inputs": [
        {
          "indexed": false,
          "internalType": "uint256",
          "name": "_P",
          "type": "uint256"
        }
      ],
      "name": "P_Updated",
      "type": "event"
    },
    {
      "anonymous": false,
      "inputs": [
        {
          "indexed": false,
          "internalType": "address",
          "name": "_newPriceFeedAddress",
          "type": "address"
        }
      ],
      "name": "PriceFeedAddressChanged",
      "type": "event"
    },
    {
      "anonymous": false,
      "inputs": [
        {
          "indexed": false,
          "internalType": "address",
          "name": "_asset",
          "type": "address"
        },
        {
          "indexed": false,
          "internalType": "uint256",
          "name": "_S",
          "type": "uint256"
        },
        {
          "indexed": false,
          "internalType": "uint128",
          "name": "_epoch",
          "type": "uint128"
        },
        {
          "indexed": false,
          "internalType": "uint128",
          "name": "_scale",
          "type": "uint128"
        }
      ],
      "name": "S_Updated",
      "type": "event"
    },
    {
      "anonymous": false,
      "inputs": [
        {
          "indexed": false,
          "internalType": "uint256",
          "name": "_S",
          "type": "uint256"
        },
        {
          "indexed": false,
          "internalType": "uint128",
          "name": "_epoch",
          "type": "uint128"
        },
        {
          "indexed": false,
          "internalType": "uint128",
          "name": "_scale",
          "type": "uint128"
        }
      ],
      "name": "S_Updated",
      "type": "event"
    },
    {
      "anonymous": false,
      "inputs": [
        {
          "indexed": false,
          "internalType": "uint128",
          "name": "_currentScale",
          "type": "uint128"
        }
      ],
      "name": "ScaleUpdated",
      "type": "event"
    },
    {
      "anonymous": false,
      "inputs": [
        {
          "indexed": false,
          "internalType": "address",
          "name": "_newSortedTrovesAddress",
          "type": "address"
        }
      ],
      "name": "SortedTrovesAddressChanged",
      "type": "event"
    },
    {
      "anonymous": false,
      "inputs": [
        {
          "indexed": false,
          "internalType": "address[]",
          "name": "assets",
          "type": "address[]"
        },
        {
          "indexed": false,
          "internalType": "uint256[]",
          "name": "amounts",
          "type": "uint256[]"
        }
      ],
      "name": "StabilityPoolBalanceUpdated",
      "type": "event"
    },
    {
      "anonymous": false,
      "inputs": [
        {
          "indexed": false,
          "internalType": "address[]",
          "name": "assets",
          "type": "address[]"
        },
        {
          "indexed": false,
          "internalType": "uint256[]",
          "name": "amounts",
          "type": "uint256[]"
        }
      ],
      "name": "StabilityPoolBalancesUpdated",
      "type": "event"
    },
    {
      "anonymous": false,
      "inputs": [
        {
          "indexed": false,
          "internalType": "uint256",
          "name": "_newBalance",
          "type": "uint256"
        }
      ],
      "name": "StabilityPoolCUSDBalanceUpdated",
      "type": "event"
    },
    {
      "anonymous": false,
      "inputs": [
        {
          "indexed": false,
          "internalType": "uint256",
          "name": "_newBalance",
          "type": "uint256"
        }
      ],
      "name": "StabilityPoolETHBalanceUpdated",
      "type": "event"
    },
    {
      "anonymous": false,
      "inputs": [
        {
          "indexed": false,
          "internalType": "address",
          "name": "_newTroveManagerAddress",
          "type": "address"
        }
      ],
      "name": "TroveManagerAddressChanged",
      "type": "event"
    },
    {
      "anonymous": false,
      "inputs": [
        {
          "indexed": true,
          "internalType": "address",
          "name": "_depositor",
          "type": "address"
        },
        {
          "indexed": false,
          "internalType": "uint256",
          "name": "_newDeposit",
          "type": "uint256"
        }
      ],
      "name": "UserDepositChanged",
      "type": "event"
    },
    {
      "inputs": [],
      "name": "BORROWING_FEE_FLOOR",
      "outputs": [
        {
          "internalType": "uint256",
          "name": "",
          "type": "uint256"
        }
      ],
      "stateMutability": "view",
      "type": "function"
    },
    {
      "inputs": [],
      "name": "CCR",
      "outputs": [
        {
          "internalType": "uint256",
          "name": "",
          "type": "uint256"
        }
      ],
      "stateMutability": "view",
      "type": "function"
    },
    {
      "inputs": [],
      "name": "CUSD_GAS_COMPENSATION",
      "outputs": [
        {
          "internalType": "uint256",
          "name": "",
          "type": "uint256"
        }
      ],
      "stateMutability": "view",
      "type": "function"
    },
    {
      "inputs": [],
      "name": "DECIMAL_PRECISION",
      "outputs": [
        {
          "internalType": "uint256",
          "name": "",
          "type": "uint256"
        }
      ],
      "stateMutability": "view",
      "type": "function"
    },
    {
      "inputs": [],
      "name": "MCR",
      "outputs": [
        {
          "internalType": "uint256",
          "name": "",
          "type": "uint256"
        }
      ],
      "stateMutability": "view",
      "type": "function"
    },
    {
      "inputs": [],
      "name": "MIN_NET_DEBT",
      "outputs": [
        {
          "internalType": "uint256",
          "name": "",
          "type": "uint256"
        }
      ],
      "stateMutability": "view",
      "type": "function"
    },
    {
      "inputs": [],
      "name": "NAME",
      "outputs": [
        {
          "internalType": "string",
          "name": "",
          "type": "string"
        }
      ],
      "stateMutability": "view",
      "type": "function"
    },
    {
      "inputs": [],
      "name": "P",
      "outputs": [
        {
          "internalType": "uint256",
          "name": "",
          "type": "uint256"
        }
      ],
      "stateMutability": "view",
      "type": "function"
    },
    {
      "inputs": [],
      "name": "REDEMPTION_FEE_FLOOR",
      "outputs": [
        {
          "internalType": "uint256",
          "name": "",
          "type": "uint256"
        }
      ],
      "stateMutability": "view",
      "type": "function"
    },
    {
      "inputs": [],
      "name": "SCALE_FACTOR",
      "outputs": [
        {
          "internalType": "uint256",
          "name": "",
          "type": "uint256"
        }
      ],
      "stateMutability": "view",
      "type": "function"
    },
    {
      "inputs": [
        {
          "internalType": "address",
          "name": "_collateral",
          "type": "address"
        }
      ],
      "name": "addCollateralType",
      "outputs": [],
      "stateMutability": "nonpayable",
      "type": "function"
    },
    {
      "inputs": [],
      "name": "currentEpoch",
      "outputs": [
        {
          "internalType": "uint128",
          "name": "",
          "type": "uint128"
        }
      ],
      "stateMutability": "view",
      "type": "function"
    },
    {
      "inputs": [],
      "name": "currentScale",
      "outputs": [
        {
          "internalType": "uint128",
          "name": "",
          "type": "uint128"
        }
      ],
      "stateMutability": "view",
      "type": "function"
    },
    {
      "inputs": [
        {
          "internalType": "address",
          "name": "",
          "type": "address"
        }
      ],
      "name": "depositSnapshots",
      "outputs": [
        {
          "internalType": "uint256",
          "name": "P",
          "type": "uint256"
        },
        {
          "internalType": "uint256",
          "name": "G",
          "type": "uint256"
        },
        {
          "internalType": "uint128",
          "name": "scale",
          "type": "uint128"
        },
        {
          "internalType": "uint128",
          "name": "epoch",
          "type": "uint128"
        }
      ],
      "stateMutability": "view",
      "type": "function"
    },
    {
      "inputs": [
        {
          "internalType": "address",
          "name": "",
          "type": "address"
        }
      ],
      "name": "deposits",
      "outputs": [
        {
          "internalType": "uint256",
          "name": "initialValue",
          "type": "uint256"
        },
        {
          "internalType": "address",
          "name": "frontEndTag",
          "type": "address"
        }
      ],
      "stateMutability": "view",
      "type": "function"
    },
    {
      "inputs": [
        {
          "internalType": "uint128",
          "name": "",
          "type": "uint128"
        },
        {
          "internalType": "uint128",
          "name": "",
          "type": "uint128"
        }
      ],
      "name": "epochToScaleToG",
      "outputs": [
        {
          "internalType": "uint256",
          "name": "",
          "type": "uint256"
        }
      ],
      "stateMutability": "view",
      "type": "function"
    },
    {
      "inputs": [
        {
          "internalType": "address",
          "name": "",
          "type": "address"
        },
        {
          "internalType": "uint128",
          "name": "",
          "type": "uint128"
        },
        {
          "internalType": "uint128",
          "name": "",
          "type": "uint128"
        }
      ],
      "name": "epochToScaleToSum",
      "outputs": [
        {
          "internalType": "uint256",
          "name": "",
          "type": "uint256"
        }
      ],
      "stateMutability": "view",
      "type": "function"
    },
    {
      "inputs": [],
      "name": "getAllCollateral",
      "outputs": [
        {
          "internalType": "address[]",
          "name": "",
          "type": "address[]"
        },
        {
          "internalType": "uint256[]",
          "name": "",
          "type": "uint256[]"
        }
      ],
      "stateMutability": "view",
      "type": "function"
    },
    {
      "inputs": [
        {
          "internalType": "address",
          "name": "_collateral",
          "type": "address"
        }
      ],
      "name": "getCollateral",
      "outputs": [
        {
          "internalType": "uint256",
          "name": "",
          "type": "uint256"
        }
      ],
      "stateMutability": "view",
      "type": "function"
    },
    {
      "inputs": [
        {
          "internalType": "address",
          "name": "_depositor",
          "type": "address"
        }
      ],
      "name": "getCompoundedCUSDDeposit",
      "outputs": [
        {
          "internalType": "uint256",
          "name": "",
          "type": "uint256"
        }
      ],
      "stateMutability": "view",
      "type": "function"
    },
    {
      "inputs": [
        {
          "internalType": "address",
          "name": "_depositor",
          "type": "address"
        },
        {
          "internalType": "address",
          "name": "_collateral",
          "type": "address"
        }
      ],
      "name": "getDepositSnapshotS",
      "outputs": [
        {
          "internalType": "uint256",
          "name": "",
          "type": "uint256"
        }
      ],
      "stateMutability": "view",
      "type": "function"
    },
    {
      "inputs": [
        {
          "internalType": "address",
          "name": "_depositor",
          "type": "address"
        }
      ],
      "name": "getDepositorGains",
      "outputs": [
        {
          "internalType": "address[]",
          "name": "",
          "type": "address[]"
        },
        {
          "internalType": "uint256[]",
          "name": "",
          "type": "uint256[]"
        }
      ],
      "stateMutability": "view",
      "type": "function"
    },
    {
      "inputs": [],
      "name": "getEntireSystemColl",
      "outputs": [
        {
          "internalType": "uint256",
          "name": "",
          "type": "uint256"
        }
      ],
      "stateMutability": "view",
      "type": "function"
    },
    {
      "inputs": [],
      "name": "getEntireSystemDebt",
      "outputs": [
        {
          "internalType": "uint256",
          "name": "",
          "type": "uint256"
        }
      ],
      "stateMutability": "view",
      "type": "function"
    },
    {
      "inputs": [],
      "name": "getTotalCUSDDeposits",
      "outputs": [
        {
          "internalType": "uint256",
          "name": "",
          "type": "uint256"
        }
      ],
      "stateMutability": "view",
      "type": "function"
    },
    {
      "inputs": [],
      "name": "getVC",
      "outputs": [
        {
          "internalType": "uint256",
          "name": "",
          "type": "uint256"
        }
      ],
      "stateMutability": "view",
      "type": "function"
    },
    {
      "inputs": [
        {
          "internalType": "uint256",
          "name": "",
          "type": "uint256"
        }
      ],
      "name": "lastAssetError_Offset",
      "outputs": [
        {
          "internalType": "uint256",
          "name": "",
          "type": "uint256"
        }
      ],
      "stateMutability": "view",
      "type": "function"
    },
    {
      "inputs": [],
      "name": "lastCUSDLossError_Offset",
      "outputs": [
        {
          "internalType": "uint256",
          "name": "",
          "type": "uint256"
        }
      ],
      "stateMutability": "view",
      "type": "function"
    },
    {
      "inputs": [
        {
          "internalType": "uint256",
          "name": "_debtToOffset",
          "type": "uint256"
        },
        {
          "internalType": "address[]",
          "name": "_tokens",
          "type": "address[]"
        },
        {
          "internalType": "uint256[]",
          "name": "_amountsAdded",
          "type": "uint256[]"
        }
      ],
      "name": "offset",
      "outputs": [],
      "stateMutability": "nonpayable",
      "type": "function"
    },
    {
      "inputs": [],
      "name": "owner",
      "outputs": [
        {
          "internalType": "address",
          "name": "",
          "type": "address"
        }
      ],
      "stateMutability": "view",
      "type": "function"
    },
    {
      "inputs": [
        {
          "internalType": "uint256",
          "name": "_amount",
          "type": "uint256"
        }
      ],
      "name": "provideToSP",
      "outputs": [],
      "stateMutability": "nonpayable",
      "type": "function"
    },
    {
      "inputs": [
        {
          "internalType": "address[]",
          "name": "_tokens",
          "type": "address[]"
        },
        {
          "internalType": "uint256[]",
          "name": "_amounts",
          "type": "uint256[]"
        }
      ],
      "name": "receiveCollateral",
      "outputs": [],
      "stateMutability": "nonpayable",
      "type": "function"
    },
    {
      "inputs": [],
      "name": "renounceOwnership",
      "outputs": [],
      "stateMutability": "nonpayable",
      "type": "function"
    },
    {
      "inputs": [
        {
          "internalType": "address",
          "name": "_borrowerOperationsAddress",
          "type": "address"
        },
        {
          "internalType": "address",
          "name": "_troveManagerAddress",
          "type": "address"
        },
        {
          "internalType": "address",
          "name": "_activePoolAddress",
          "type": "address"
        },
        {
          "internalType": "address",
          "name": "_CUSDTokenAddress",
          "type": "address"
        },
        {
          "internalType": "address",
          "name": "_sortedTrovesAddress",
          "type": "address"
        },
        {
          "internalType": "address",
          "name": "_whitelistAddress",
          "type": "address"
        },
        {
          "internalType": "address",
          "name": "_troveManagerLiquidationsAddress",
          "type": "address"
        }
      ],
      "name": "setAddresses",
      "outputs": [],
      "stateMutability": "nonpayable",
      "type": "function"
    },
    {
      "inputs": [],
      "name": "setUp",
      "outputs": [],
      "stateMutability": "nonpayable",
      "type": "function"
    },
    {
      "inputs": [
        {
          "internalType": "address",
          "name": "newOwner",
          "type": "address"
        }
      ],
      "name": "transferOwnership",
      "outputs": [],
      "stateMutability": "nonpayable",
      "type": "function"
    },
    {
      "inputs": [
        {
          "internalType": "uint256",
          "name": "_amount",
          "type": "uint256"
        }
      ],
      "name": "withdrawFromSP",
      "outputs": [],
      "stateMutability": "nonpayable",
      "type": "function"
    }
  ],
  "bytecode": "0x608060405234801561001057600080fd5b50614077806100206000396000f3fe608060405234801561001057600080fd5b50600436106101f75760003560e01c806382e0a57411610120578063a7a24edd116100b8578063eaa8ba7f1161007c578063eaa8ba7f146107fa578063ec0d5e0c14610852578063f2fde38b14610878578063f92d343314610238578063fc7e286d1461089e576101f7565b8063a7a24edd1461067c578063be35d3bd1461079f578063c5e1c9c3146107bc578063c6ba0936146107ea578063ce4b5bbe146107f2576101f7565b806382e0a5741461051257806386da082414610540578063887105d3146105955780638b8fbd921461059d5780638da5cb5b146105a55780639b56d6c9146105c9578063a20baee6146105ef578063a3f4df7e146105f7578063a4e59ac814610674576101f7565b8063715018a611610193578063715018a61461026d5780637667180814610275578063768cc5751461029957806376deefc8146103c357806378c77a24146103e9578063792b50e314610406578063794e5724146104c5578063795d26c3146104cd5780637ee4196b146104d5576101f7565b806301d40b63146101fc5780630a9254e4146102165780631795b40514610220578063198d979c146102285780631bf435551461023057806328d28b5b146102385780632e54bf951461024057806331ac7c5d1461025d5780635733d58f14610265575b600080fd5b6102046108e5565b60408051918252519081900360200190f35b61021e6109b3565b005b6102046109bd565b6102046109ca565b6102046109d0565b6102046109dd565b61021e6004803603602081101561025657600080fd5b50356109e8565b610204610b8e565b610204610b94565b61021e610ba0565b61027d610c3a565b604080516001600160801b039092168252519081900360200190f35b61021e600480360360608110156102af57600080fd5b81359190810190604081016020820135600160201b8111156102d057600080fd5b8201836020820111156102e257600080fd5b803590602001918460208302840111600160201b8311171561030357600080fd5b9190808060200260200160405190810160405280939291908181526020018383602002808284376000920191909152509295949360208101935035915050600160201b81111561035257600080fd5b82018360208201111561036457600080fd5b803590602001918460208302840111600160201b8311171561038557600080fd5b919080806020026020016040519081016040528093929190818152602001838360200280828437600092019190915250929550610c50945050505050565b610204600480360360208110156103d957600080fd5b50356001600160a01b0316610ca4565b61021e600480360360208110156103ff57600080fd5b5035610cfa565b61042c6004803603602081101561041c57600080fd5b50356001600160a01b0316610e86565b604051808060200180602001838103835285818151815260200191508051906020019060200280838360005b83811015610470578181015183820152602001610458565b50505050905001838103825284818151815260200191508051906020019060200280838360005b838110156104af578181015183820152602001610497565b5050505090500194505050505060405180910390f35b610204610ef6565b610204610f02565b610204600480360360608110156104eb57600080fd5b506001600160a01b03813516906001600160801b036020820135811691604001351661100f565b6102046004803603604081101561052857600080fd5b506001600160801b0381358116916020013516611032565b6105666004803603602081101561055657600080fd5b50356001600160a01b031661104f565b6040805194855260208501939093526001600160801b0391821684840152166060830152519081900360800190f35b610204611087565b6102046110fd565b6105ad611103565b604080516001600160a01b039092168252519081900360200190f35b610204600480360360208110156105df57600080fd5b50356001600160a01b0316611112565b6102046111b4565b6105ff6111c0565b6040805160208082528351818301528351919283929083019185019080838360005b83811015610639578181015183820152602001610621565b50505050905090810190601f1680156106665780820380516001836020036101000a031916815260200191505b509250505060405180910390f35b61027d6111e9565b61021e6004803603604081101561069257600080fd5b810190602081018135600160201b8111156106ac57600080fd5b8201836020820111156106be57600080fd5b803590602001918460208302840111600160201b831117156106df57600080fd5b9190808060200260200160405190810160405280939291908181526020018383602002808284376000920191909152509295949360208101935035915050600160201b81111561072e57600080fd5b82018360208201111561074057600080fd5b803590602001918460208302840111600160201b8311171561076157600080fd5b9190808060200260200160405190810160405280939291908181526020018383602002808284376000920191909152509295506111f8945050505050565b610204600480360360208110156107b557600080fd5b5035611397565b610204600480360360408110156107d257600080fd5b506001600160a01b03813581169160200135166113b5565b61042c6113e2565b6102046114a5565b61021e600480360360e081101561081057600080fd5b506001600160a01b038135811691602081013582169160408201358116916060810135821691608082013581169160a081013582169160c090910135166114ad565b61021e6004803603602081101561086857600080fd5b50356001600160a01b0316611701565b61021e6004803603602081101561088e57600080fd5b50356001600160a01b03166117b9565b6108c4600480360360208110156108b457600080fd5b50356001600160a01b03166118aa565b604080519283526001600160a01b0390911660208301528051918290030190f35b60408051606e80546060602082028401810185529383018181526000946109ad94939284929184919084018282801561094757602002820191906000526020600020905b81546001600160a01b03168152600190910190602001808311610929575b505050505081526020016001820180548060200260200160405190810160405280929190818152602001828054801561099f57602002820191906000526020600020905b81548152602001906001019080831161098b575b5050505050815250506118cc565b90505b90565b6109bb6119ce565b565b6801158e460913d0000081565b606d5490565b6809c2007651b250000081565b6611c37937e0800081565b80156109f6576109f6611a97565b33600090815260706020526040902054610a0f81611bea565b606080610a1b33610e86565b915091506000610a2a33610ca4565b90506000610a388683611c3c565b90506000610a4c868463ffffffff611c5416565b9050610a583383611c85565b6000610a6a848463ffffffff611c5416565b9050610a763382611d0b565b60408051828152905133917fbce78369dccab09eec1986f4d409ab09ffbb47d65423e5148fcf98411c5111c9919081900360200190a2336001600160a01b03167ff20651f7c9cd4e1c112f77cbf2a13a44f79d4165dd781c41b52052bfc888174a878785604051808060200180602001848152602001838103835286818151815260200191508051906020019060200280838360005b83811015610b24578181015183820152602001610b0c565b50505050905001838103825285818151815260200191508051906020019060200280838360005b83811015610b63578181015183820152602001610b4b565b505050509050019550505050505060405180910390a2610b84338787612189565b5050505050505050565b60775481565b6714d1120d7b16000081565b610ba861247a565b6001600160a01b0316610bb9611103565b6001600160a01b031614610c02576040805162461bcd60e51b81526020600482018190526024820152600080516020613f8b833981519152604482015290519081900360640190fd5b6035546040516000916001600160a01b031690600080516020613fab833981519152908390a3603580546001600160a01b0319169055565b607354600160801b90046001600160801b031681565b610c5861247e565b606d54801580610c66575083155b15610c715750610c9f565b60606000610c8185858886612498565b91509150610c9085838361288a565b610c9b858588612c6d565b5050505b505050565b6001600160a01b03811660009081526070602052604081205480610ccc576000915050610cf5565b6001600160a01b038316600090815260716020526040812090610cef8383612e32565b93505050505b919050565b610d0381612f2e565b33600081815260706020526040902054906060908190610d2290610e86565b915091506000610d3133610ca4565b90506000610d45858363ffffffff611c5416565b9050610d513387612f80565b6000610d63838863ffffffff61304a16565b9050610d6f3382611d0b565b60408051828152905133917fbce78369dccab09eec1986f4d409ab09ffbb47d65423e5148fcf98411c5111c9919081900360200190a2336001600160a01b03167ff20651f7c9cd4e1c112f77cbf2a13a44f79d4165dd781c41b52052bfc888174a868685604051808060200180602001848152602001838103835286818151815260200191508051906020019060200280838360005b83811015610e1d578181015183820152602001610e05565b50505050905001838103825285818151815260200191508051906020019060200280838360005b83811015610e5c578181015183820152602001610e44565b505050509050019550505050505060405180910390a2610e7d338686612189565b50505050505050565b6001600160a01b038116600090815260706020526040902054606090819080610ec8575050604080516000808252602082019081528183019092529150610ef1565b6001600160a01b0384166000908152607160205260409020610eea8282613093565b9350935050505b915091565b670f43fc2c04ee000081565b600080600160009054906101000a90046001600160a01b03166001600160a01b03166310ec1f526040518163ffffffff1660e01b815260040160206040518083038186803b158015610f5357600080fd5b505afa158015610f67573d6000803e3d6000fd5b505050506040513d6020811015610f7d57600080fd5b5051600254604080516308760fa960e11b815290519293506000926001600160a01b03909216916310ec1f5291600480820192602092909190829003018186803b158015610fca57600080fd5b505afa158015610fde573d6000803e3d6000fd5b505050506040513d6020811015610ff457600080fd5b50519050611008828263ffffffff61304a16565b9250505090565b607460209081526000938452604080852082529284528284209052825290205481565b607560209081526000928352604080842090915290825290205481565b6071602052600090815260409020600181015460028201546003909201549091906001600160801b0380821691600160801b90041684565b60015460408051631944d03160e21b815290516000926001600160a01b03169163651340c4916004808301926020929190829003018186803b1580156110cc57600080fd5b505afa1580156110e0573d6000803e3d6000fd5b505050506040513d60208110156110f657600080fd5b5051905090565b60725481565b6035546001600160a01b031690565b600080546040805163b31610db60e01b81526001600160a01b03858116600483015291518493929092169163b31610db91602480820192602092909190829003018186803b15801561116357600080fd5b505afa158015611177573d6000803e3d6000fd5b505050506040513d602081101561118d57600080fd5b5051606f805491925090829081106111a157fe5b9060005260206000200154915050919050565b670de0b6b3a764000081565b6040518060400160405280600d81526020016c14dd18589a5b1a5d1e541bdbdb609a1b81525081565b6073546001600160801b031681565b61120061323b565b60408051606e80546060602082028401810185529383018181526112c3948492849184018282801561125b57602002820191906000526020600020905b81546001600160a01b0316815260019091019060200180831161123d575b50505050508152602001600182018054806020026020016040519081016040528092919081815260200182805480156112b357602002820191906000526020600020905b81548152602001906001019080831161129f575b5050505050815250508383613255565b80516112d791606f91602090910190613eab565b507f3f96f1f718a2ea04656ba4d6bb360a9a2d44c91d3dda1153fdeeeabe7d5d46e28282604051808060200180602001838103835285818151815260200191508051906020019060200280838360005b8381101561133f578181015183820152602001611327565b50505050905001838103825284818151815260200191508051906020019060200280838360005b8381101561137e578181015183820152602001611366565b5050505090500194505050505060405180910390a15050565b607681815481106113a457fe5b600091825260209091200154905081565b6001600160a01b038083166000908152607160209081526040808320938516835292905220545b92915050565b606080606e600001606e6001018180548060200260200160405190810160405280929190818152602001828054801561144457602002820191906000526020600020905b81546001600160a01b03168152600190910190602001808311611426575b505050505091508080548060200260200160405190810160405280929190818152602001828054801561149657602002820191906000526020600020905b815481526020019060010190808311611482575b50505050509050915091509091565b633b9aca0081565b6114b561247a565b6001600160a01b03166114c6611103565b6001600160a01b03161461150f576040805162461bcd60e51b81526020600482018190526024820152600080516020613f8b833981519152604482015290519081900360640190fd5b61151887613393565b61152186613393565b61152a85613393565b61153384613393565b61153c83613393565b61154582613393565b61154e81613393565b606980546001600160a01b03199081166001600160a01b038a8116918217909355606a805483168a8516179055600180548316898516179055606b80548316888516179055606c8054831687851617905560008054831686851690811790915560678054841694861694909417909355606880549092169092179055670de0b6b3a764000060725560408051918252517f3ca631ffcd2a9b5d9ae18543fc82f58eb4ca33af9e6ab01b7a8e95331e6ed985916020908290030190a1604080516001600160a01b038816815290517f143219c9e69b09e07e095fcc889b43d8f46ca892bba65f08dc3a0050869a56789181900360200190a1604080516001600160a01b038716815290517f78f058b189175430c48dc02699e3a0031ea4ff781536dc2fab847de4babdd8829181900360200190a1604080516001600160a01b038616815290517f6bb5e9f660dc1d605401e0a1c517a5d272c2aaa58f10a3c0cf6d4be5d19667a09181900360200190a1604080516001600160a01b038516815290517f65f4cf077bc01e4742eb5ad98326f6e95b63548ea24b17f8d5e823111fe788009181900360200190a1610e7d610ba0565b611709613442565b60768054600180820190925560007fb5732705f5241370a28908c2fe1303cb223f03b90d857fd0573f003f79fefed4909101819055606e80548084019091557f9930d9ff0dee0ef5ca2f7710ea66b8f84dd0f5f5351ecffe72b952cd9db7142a0180546001600160a01b0319166001600160a01b039490941693909317909255606f8054918201815582527f39f2babe526038520877fc7c33d81accf578af4a06c5fa6b0d038cae36e127110155565b6117c161247a565b6001600160a01b03166117d2611103565b6001600160a01b03161461181b576040805162461bcd60e51b81526020600482018190526024820152600080516020613f8b833981519152604482015290519081900360640190fd5b6001600160a01b0381166118605760405162461bcd60e51b8152600401808060200182810382526026815260200180613f116026913960400191505060405180910390fd5b6035546040516001600160a01b03808416921690600080516020613fab83398151915290600090a3603580546001600160a01b0319166001600160a01b0392909216919091179055565b607060205260009081526040902080546001909101546001600160a01b031682565b600080548251602080850151604080516397a4b9f760e01b8152600481019182528451604482015284516001600160a01b03909616956397a4b9f795948392602481019260649091019180880191028083838d5b83811015611938578181015183820152602001611920565b50505050905001838103825284818151815260200191508051906020019060200280838360005b8381101561197757818101518382015260200161195f565b5050505090500194505050505060206040518083038186803b15801561199c57600080fd5b505afa1580156119b0573d6000803e3d6000fd5b505050506040513d60208110156119c657600080fd5b505192915050565b600254600160a81b900460ff16806119e957506119e961345c565b806119fe5750600254600160a01b900460ff16155b611a395760405162461bcd60e51b815260040180806020018281038252602e815260200180613f5d602e913960400191505060405180910390fd5b600254600160a81b900460ff16158015611a70576002805460ff60a01b1960ff60a81b19909116600160a81b1716600160a01b1790555b611a7861346d565b611a80613524565b8015611a94576002805460ff60a81b191690555b50565b606c5460408051634d62283160e01b815290516000926001600160a01b031691634d622831916004808301926020929190829003018186803b158015611adc57600080fd5b505afa158015611af0573d6000803e3d6000fd5b505050506040513d6020811015611b0657600080fd5b5051606a54604080516327fb7d8960e01b81526001600160a01b038085166004830152915193945060009391909216916327fb7d89916024808301926020929190829003018186803b158015611b5b57600080fd5b505afa158015611b6f573d6000803e3d6000fd5b505050506040513d6020811015611b8557600080fd5b50519050670f43fc2c04ee0000811015611be6576040805162461bcd60e51b815260206004820181905260248201527f53503a4e6f205769746864726177207768656e2074726f76654943523c4d4352604482015290519081900360640190fd5b5050565b80611a94576040805162461bcd60e51b815260206004820152601b60248201527f53503a2072657175697265206e6f6e7a65726f206465706f7369740000000000604482015290519081900360640190fd5b6000818310611c4b5781611c4d565b825b9392505050565b6000611c4d83836040518060400160405280600c81526020016b737562206f766572666c6f7760a01b815250613622565b80611c8f57611be6565b606b5460408051631062c15f60e11b81523060048201526001600160a01b03858116602483015260448201859052915191909216916320c582be91606480830192600092919082900301818387803b158015611cea57600080fd5b505af1158015611cfe573d6000803e3d6000fd5b50505050611be6816136b9565b6001600160a01b038216600090815260706020526040902081905580611f2d576001600160a01b0380831660009081526070602052604080822060010180546001600160a01b031916905581548151634eb5750560e11b815291516060949190911692639d6aea0a9260048082019391829003018186803b158015611d8f57600080fd5b505afa158015611da3573d6000803e3d6000fd5b505050506040513d6000823e601f3d908101601f191682016040526020811015611dcc57600080fd5b8101908080516040519392919084600160201b821115611deb57600080fd5b908301906020820185811115611e0057600080fd5b82518660208202830111600160201b82111715611e1c57600080fd5b82525081516020918201928201910280838360005b83811015611e49578181015183820152602001611e31565b50505050905001604052505050905060008151905060005b81811015611ebd576001600160a01b038516600090815260716020526040812084518290869085908110611e9157fe5b6020908102919091018101516001600160a01b0316825281019190915260400160002055600101611e61565b506001600160a01b0384166000818152607160209081526040808320600181018490556002810184905560030183905580518381529182019290925281517fc48943df4095f4f20d171fd2872eafdc0eed4d9014ac3672f3bde7fd425449d5929181900390910190a25050611be6565b6073546072546000805460408051634eb5750560e11b815290516001600160801b0380871696600160801b90041694936060936001600160a01b031692639d6aea0a9260048083019392829003018186803b158015611f8b57600080fd5b505afa158015611f9f573d6000803e3d6000fd5b505050506040513d6000823e601f3d908101601f191682016040526020811015611fc857600080fd5b8101908080516040519392919084600160201b821115611fe757600080fd5b908301906020820185811115611ffc57600080fd5b82518660208202830111600160201b8211171561201857600080fd5b82525081516020918201928201910280838360005b8381101561204557818101518382015260200161202d565b50505050905001604052505050905060008151905060005b818110156120d657600083828151811061207357fe5b6020908102919091018101516001600160a01b0390811660008181526074845260408082206001600160801b03808d168452908652818320908d168352855280822054938e1682526071855280822092825291909352909120555060010161205d565b506001600160801b0384811660008181526075602090815260408083208a8616808552908352818420546001600160a01b038e168086526071855294839020600181018b90556002810182905560030180546001600160801b031916909217909616600160801b909502949094179093558251878152908101849052825191927fc48943df4095f4f20d171fd2872eafdc0eed4d9014ac3672f3bde7fd425449d592918290030190a25050505050505050565b8151815181146121d5576040805162461bcd60e51b81526020600482015260126024820152710a6a07498cadccee8d040dad2e6dac2e8c6d60731b604482015290519081900360640190fd5b60005b8181101561239b5760008382815181106121ee57fe5b6020026020010151905080600014156122075750612393565b600085838151811061221557fe5b602090810291909101810151600054604080516324af709f60e11b81526001600160a01b038085166004830152915193955091169263495ee13e92602480840193829003018186803b15801561226a57600080fd5b505afa15801561227e573d6000803e3d6000fd5b505050506040513d602081101561229457600080fd5b50511561237657604080516365382b0560e11b81523060048201526024810184905290516001600160a01b0383169163ca70560a91604480830192600092919082900301818387803b1580156122e957600080fd5b505af11580156122fd573d6000803e3d6000fd5b50506040805163130e405b60e11b81523060048201526001600160a01b038b81166024830152604482018790529151918516935063261c80b6925060648082019260009290919082900301818387803b15801561235957600080fd5b505af115801561236d573d6000803e3d6000fd5b50505050612390565b6123906001600160a01b038216888463ffffffff61370f16565b50505b6001016121d8565b5060408051606e805460606020820284018101855293830181815261245f94849284918401828280156123f757602002820191906000526020600020905b81546001600160a01b031681526001909101906020018083116123d9575b505050505081526020016001820180548060200260200160405190810160405280929190818152602001828054801561244f57602002820191906000526020600020905b81548152602001906001019080831161243b575b5050505050815250508484613761565b805161247391606f91602090910190613eab565b5050505050565b3390565b6067546001600160a01b031633146109bb576109bb61387e565b8251606090600090828167ffffffffffffffff811180156124b857600080fd5b506040519080825280602002602001820160405280156124e2578160200160208202803683370190505b5060725490915060005b8381101561260c57600080548b516001600160a01b039091169063b31610db908d908590811061251857fe5b60200260200101516040518263ffffffff1660e01b815260040180826001600160a01b03166001600160a01b0316815260200191505060206040518083038186803b15801561256657600080fd5b505afa15801561257a573d6000803e3d6000fd5b505050506040513d602081101561259057600080fd5b5051607680549192506125ec91839081106125a757fe5b90600052602060002001546125e0670de0b6b3a76400008d86815181106125ca57fe5b60200260200101516138cb90919063ffffffff16565b9063ffffffff61304a16565b8483815181106125f857fe5b6020908102919091010152506001016124ec565b5085871115612662576040805162461bcd60e51b815260206004820181905260248201527f53503a546869732064656274206c657373207468616e20746f74616c43555344604482015290519081900360640190fd5b8587141561267f576000607755670de0b6b3a764000093506126df565b6077546000906126ad906126a18a670de0b6b3a764000063ffffffff6138cb16565b9063ffffffff611c5416565b90506126c460016125e0838a63ffffffff61392916565b94506126da816126a1878a63ffffffff6138cb16565b607755505b875167ffffffffffffffff811180156126f757600080fd5b50604051908082528060200260200182016040528015612721578160200160208202803683370190505b50945060005b8381101561276e5761274f87612743848685815181106125ca57fe5b9063ffffffff61392916565b86828151811061275b57fe5b6020908102919091010152600101612727565b5060005b8381101561287d57600080548b516001600160a01b039091169063b31610db908d908590811061279e57fe5b60200260200101516040518263ffffffff1660e01b815260040180826001600160a01b03166001600160a01b0316815260200191505060206040518083038186803b1580156127ec57600080fd5b505afa158015612800573d6000803e3d6000fd5b505050506040513d602081101561281657600080fd5b5051875190915061285b90612839908590612743908c908c90889081106125ca57fe5b85848151811061284557fe5b6020026020010151611c5490919063ffffffff16565b6076828154811061286857fe5b60009182526020909120015550600101612772565b5050505094509492505050565b6072546000670de0b6b3a76400008311156128df576040805162461bcd60e51b815260206004820152601060248201526f53503a20435553444c6f7373203c203160801b604482015290519081900360640190fd5b60006128f9670de0b6b3a76400008563ffffffff611c5416565b60735487519192506001600160801b0380821692600160801b909204169060005b81811015612a375760008a828151811061293057fe5b6020908102919091018101516001600160a01b03811660009081526074835260408082206001600160801b03808a168452908552818320908a168352909352918220548c5191935091906129a1908d908690811061298a57fe5b60200260200101518361304a90919063ffffffff16565b6001600160a01b03841660008181526074602090815260408083206001600160801b03808d16808652918452828520908e16808652908452938290208690558151948552918401859052838101919091526060830191909152519192507fe799d8213ffd47c58af0bad222f3f83a7bacf689130d897017d6c2cb9346e8cb919081900360800190a150505080600101905061291a565b5083612b0057612a576001600160801b038316600163ffffffff61395616565b607380546001600160801b03908116600160801b938216840217918290556040805193909204168252517fb50f0f59e7cb5b421dc77581c3a9919e3806e076e5fa78a874c3f120cb7d874d916020908290030190a1607380546001600160801b0319169055604080516000815290517f1f9dfc70cd666adb18a39d60a797518f7b4febf4b6e24ef37d44f6e1e7219fbe9181900360200190a1670de0b6b3a76400009450612bec565b633b9aca00612b21670de0b6b3a7640000612743898863ffffffff6138cb16565b1015612bcd57612b57670de0b6b3a7640000612743633b9aca00612b4b8a8963ffffffff6138cb16565b9063ffffffff6138cb16565b9450612b736001600160801b038416600163ffffffff61395616565b607380546001600160801b0319166001600160801b0392831617908190556040805191909216815290517f1f9dfc70cd666adb18a39d60a797518f7b4febf4b6e24ef37d44f6e1e7219fbe916020908290030190a1612bec565b612be9670de0b6b3a7640000612743888763ffffffff6138cb16565b94505b84612c2a576040805162461bcd60e51b8152602060048201526009602482015268053503a2050203d20360bc1b604482015290519081900360640190fd5b60728590556040805186815290517fc1a9618cb59ebca77cbdbc2949f126823c407ff13edb285fd0262519a9c18e8c9181900360200190a1505050505050505050565b60015460408051633b036ced60e01b81526004810184905290516001600160a01b03909216918291633b036ced91602480830192600092919082900301818387803b158015612cbb57600080fd5b505af1158015612ccf573d6000803e3d6000fd5b50505050612cdc826136b9565b606b5460408051632770a7eb60e21b81523060048201526024810185905290516001600160a01b0390921691639dc29fac9160448082019260009290919082900301818387803b158015612d2f57600080fd5b505af1158015612d43573d6000803e3d6000fd5b505060405163d0d8c20d60e01b815230600482018181526060602484019081528951606485015289516001600160a01b038816965063d0d8c20d955092938a938a93929160448101916084909101906020808801910280838360005b83811015612db7578181015183820152602001612d9f565b50505050905001838103825284818151815260200191508051906020019060200280838360005b83811015612df6578181015183820152602001612dde565b5050505090500195505050505050600060405180830381600087803b158015612e1e57600080fd5b505af1158015610b84573d6000803e3d6000fd5b60018101546003820154607354600092916001600160801b0380821692600160801b92839004821692900416811015612e7157600093505050506113dc565b6073546000908190612e92906001600160801b03168563ffffffff6139a616565b90506001600160801b038116612ec257612ebb856127436072548b6138cb90919063ffffffff16565b9150612efa565b806001600160801b031660011415612ef557612ebb633b9aca00612743876127436072548d6138cb90919063ffffffff16565b600091505b612f0e88633b9aca0063ffffffff61392916565b821015612f23576000955050505050506113dc565b509695505050505050565b80611a94576040805162461bcd60e51b815260206004820152601b60248201527f53503a20416d6f756e74206d757374206265206e6f6e2d7a65726f0000000000604482015290519081900360640190fd5b606b5460408051632ee65eeb60e21b81526001600160a01b038581166004830152306024830152604482018590529151919092169163bb997bac91606480830192600092919082900301818387803b158015612fdb57600080fd5b505af1158015612fef573d6000803e3d6000fd5b5050606d546000925061300991508363ffffffff61304a16565b606d8190556040805182815290519192507fbe259cdb2e2873da1ec7a66441f7cbecac02ee42ffba8beb74b914e4a47e14b8919081900360200190a1505050565b600082820183811015611c4d576040805162461bcd60e51b815260206004820152600c60248201526b616464206f766572666c6f7760a01b604482015290519081900360640190fd5b6000805460408051634eb5750560e11b8152905160609384936001600160a01b031692639d6aea0a9260048083019392829003018186803b1580156130d757600080fd5b505afa1580156130eb573d6000803e3d6000fd5b505050506040513d6000823e601f3d908101601f19168201604052602081101561311457600080fd5b8101908080516040519392919084600160201b82111561313357600080fd5b90830190602082018581111561314857600080fd5b82518660208202830111600160201b8211171561316457600080fd5b82525081516020918201928201910280838360005b83811015613191578181015183820152602001613179565b5050505090500160405250505091506000825190508067ffffffffffffffff811180156131bd57600080fd5b506040519080825280602002602001820160405280156131e7578160200160208202803683370190505b50915060005b8181101561323257613213868686848151811061320657fe5b60200260200101516139ff565b83828151811061321f57fe5b60209081029190910101526001016131ed565b50509250929050565b6001546001600160a01b031633146109bb576109bb61387e565b606081516000141561326c57506020830151611c4d565b606061327b8560200151613b25565b845190915060005b81811015613388576000805487516001600160a01b039091169063b31610db908990859081106132af57fe5b60200260200101516040518263ffffffff1660e01b815260040180826001600160a01b03166001600160a01b0316815260200191505060206040518083038186803b1580156132fd57600080fd5b505afa158015613311573d6000803e3d6000fd5b505050506040513d602081101561332757600080fd5b505186519091506133689087908490811061333e57fe5b602002602001015185838151811061335257fe5b602002602001015161304a90919063ffffffff16565b84828151811061337457fe5b602090810291909101015250600101613283565b509095945050505050565b6001600160a01b0381166133ee576040805162461bcd60e51b815260206004820152601e60248201527f4163636f756e742063616e6e6f74206265207a65726f20616464726573730000604482015290519081900360640190fd5b803b80611be6576040805162461bcd60e51b815260206004820181905260248201527f4163636f756e7420636f64652073697a652063616e6e6f74206265207a65726f604482015290519081900360640190fd5b6068546001600160a01b031633146109bb576109bb61387e565b600061346730613bb5565b15905090565b600254600160a81b900460ff1680613488575061348861345c565b8061349d5750600254600160a01b900460ff16155b6134d85760405162461bcd60e51b815260040180806020018281038252602e815260200180613f5d602e913960400191505060405180910390fd5b600254600160a81b900460ff16158015611a80576002805460ff60a01b1960ff60a81b19909116600160a81b1716600160a01b1790558015611a94576002805460ff60a81b1916905550565b600254600160a81b900460ff168061353f575061353f61345c565b806135545750600254600160a01b900460ff16155b61358f5760405162461bcd60e51b815260040180806020018281038252602e815260200180613f5d602e913960400191505060405180910390fd5b600254600160a81b900460ff161580156135c6576002805460ff60a01b1960ff60a81b19909116600160a81b1716600160a01b1790555b60006135d061247a565b603580546001600160a01b0319166001600160a01b03831690811790915560405191925090600090600080516020613fab833981519152908290a3508015611a94576002805460ff60a81b1916905550565b600081848411156136b15760405162461bcd60e51b81526004018080602001828103825283818151815260200191508051906020019080838360005b8381101561367657818101518382015260200161365e565b50505050905090810190601f1680156136a35780820380516001836020036101000a031916815260200191505b509250505060405180910390fd5b505050900390565b606d546000906136cf908363ffffffff611c5416565b606d8190556040805182815290519192507fbe259cdb2e2873da1ec7a66441f7cbecac02ee42ffba8beb74b914e4a47e14b8919081900360200190a15050565b604080516001600160a01b038416602482015260448082018490528251808303909101815260649091019091526020810180516001600160e01b031663a9059cbb60e01b179052610c9f908490613bbb565b606082516000141561377857506020830151611c4d565b60606137878560200151613b25565b845190915060005b81811015613388576000805487516001600160a01b039091169063b31610db908990859081106137bb57fe5b60200260200101516040518263ffffffff1660e01b815260040180826001600160a01b03166001600160a01b0316815260200191505060206040518083038186803b15801561380957600080fd5b505afa15801561381d573d6000803e3d6000fd5b505050506040513d602081101561383357600080fd5b5051865190915061385e9087908490811061384a57fe5b602002602001015185838151811061284557fe5b84828151811061386a57fe5b60209081029190910101525060010161378f565b6040805162461bcd60e51b815260206004820152601f60248201527f53503a2045787465726e616c2063616c6c6572206e6f7420616c6c6f77656400604482015290519081900360640190fd5b6000826138da575060006113dc565b828202828482816138e757fe5b0414611c4d576040805162461bcd60e51b815260206004820152600c60248201526b6d756c206f766572666c6f7760a01b604482015290519081900360640190fd5b6000611c4d838360405180604001604052806008815260200167064697620627920360c41b815250613c6d565b60008282016001600160801b038085169082161015611c4d5760405162461bcd60e51b815260040180806020018281038252602581526020018061401d6025913960400191505060405180910390fd5b6000826001600160801b0316826001600160801b031611156139f95760405162461bcd60e51b8152600401808060200182810382526028815260200180613ff56028913960400191505060405180910390fd5b50900390565b6001600160a01b0381166000908152602083815260408083205460018601546074845282852060038801546001600160801b03600160801b82048116885291865284872091168652909352908320549091908390613a63908463ffffffff611c5416565b6001600160a01b038616600090815260746020908152604080832060038b01546001600160801b03600160801b820481168652919093529083209394509192613ae692633b9aca00928591613ac09116600163ffffffff61395616565b6001600160801b031681526020810191909152604001600020549063ffffffff61392916565b90506000613b18670de0b6b3a76400006127438681613b0b888863ffffffff61304a16565b8e9063ffffffff6138cb16565b9998505050505050505050565b8051606090818167ffffffffffffffff81118015613b4257600080fd5b50604051908082528060200260200182016040528015613b6c578160200160208202803683370190505b50905060005b82811015613bad57848181518110613b8657fe5b6020026020010151828281518110613b9a57fe5b6020908102919091010152600101613b72565b509392505050565b3b151590565b6060613c10826040518060400160405280602081526020017f5361666545524332303a206c6f772d6c6576656c2063616c6c206661696c6564815250856001600160a01b0316613cd29092919063ffffffff16565b90508051600014610c9f57808060200190516020811015613c3057600080fd5b5051610c9f5760405162461bcd60e51b815260040180806020018281038252602a815260200180613fcb602a913960400191505060405180910390fd5b60008183613cbc5760405162461bcd60e51b815260206004820181815283516024840152835190928392604490910191908501908083836000831561367657818101518382015260200161365e565b506000838581613cc857fe5b0495945050505050565b6060613ce18484600085613ce9565b949350505050565b606082471015613d2a5760405162461bcd60e51b8152600401808060200182810382526026815260200180613f376026913960400191505060405180910390fd5b613d3385613bb5565b613d84576040805162461bcd60e51b815260206004820152601d60248201527f416464726573733a2063616c6c20746f206e6f6e2d636f6e7472616374000000604482015290519081900360640190fd5b60006060866001600160a01b031685876040518082805190602001908083835b60208310613dc35780518252601f199092019160209182019101613da4565b6001836020036101000a03801982511681845116808217855250505050505090500191505060006040518083038185875af1925050503d8060008114613e25576040519150601f19603f3d011682016040523d82523d6000602084013e613e2a565b606091505b5091509150613e3a828286613e45565b979650505050505050565b60608315613e54575081611c4d565b825115613e645782518084602001fd5b60405162461bcd60e51b815260206004820181815284516024840152845185939192839260440191908501908083836000831561367657818101518382015260200161365e565b828054828255906000526020600020908101928215613ee6579160200282015b82811115613ee6578251825591602001919060010190613ecb565b50613ef2929150613ef6565b5090565b6109b091905b80821115613ef25760008155600101613efc56fe4f776e61626c653a206e6577206f776e657220697320746865207a65726f2061646472657373416464726573733a20696e73756666696369656e742062616c616e636520666f722063616c6c496e697469616c697a61626c653a20636f6e747261637420697320616c726561647920696e697469616c697a65644f776e61626c653a2063616c6c6572206973206e6f7420746865206f776e65728be0079c531659141344cd1fd0a4f28419497f9722a3daafe3b4186f6b6457e05361666545524332303a204552433230206f7065726174696f6e20646964206e6f7420737563636565644c697175697479536166654d6174683132383a207375627472616374696f6e206f766572666c6f774c697175697479536166654d6174683132383a206164646974696f6e206f766572666c6f77a2646970667358221220684e9931b438991b8a269b3413be922f8a4e4a3cedb0f16469a07a071854cc1a64736f6c634300060b0033",
  "linkReferences": {},
  "deployedLinkReferences": {}
}