{
  "_format": "hh-sol-artifact-1",
  "contractName": "ThreePieceWiseLinearPriceCurve",
  "sourceName": "src/main/PriceCurves/ThreePieceWiseLinearPriceCurve.sol",
  "abi": [
    {
      "anonymous": false,
      "inputs": [
        {
          "indexed": true,
          "internalType": "address",
          "name": "previousOwner",
          "type": "address"
        },
        {
          "indexed": true,
          "internalType": "address",
          "name": "newOwner",
          "type": "address"
        }
      ],
      "name": "OwnershipTransferred",
      "type": "event"
    },
    {
      "inputs": [
        {
          "internalType": "string",
          "name": "_name",
          "type": "string"
        },
        {
          "internalType": "uint256",
          "name": "_m1",
          "type": "uint256"
        },
        {
          "internalType": "uint256",
          "name": "_b1",
          "type": "uint256"
        },
        {
          "internalType": "uint256",
          "name": "_m2",
          "type": "uint256"
        },
        {
          "internalType": "uint256",
          "name": "_cutoff1",
          "type": "uint256"
        },
        {
          "internalType": "uint256",
          "name": "_m3",
          "type": "uint256"
        },
        {
          "internalType": "uint256",
          "name": "_cutoff2",
          "type": "uint256"
        },
        {
          "internalType": "uint256",
          "name": "_dollarCap",
          "type": "uint256"
        },
        {
          "internalType": "uint256",
          "name": "_decayTime",
          "type": "uint256"
        }
      ],
      "name": "adjustParams",
      "outputs": [],
      "stateMutability": "nonpayable",
      "type": "function"
    },
    {
      "inputs": [],
      "name": "calculateDecayedFee",
      "outputs": [
        {
          "internalType": "uint256",
          "name": "fee",
          "type": "uint256"
        }
      ],
      "stateMutability": "view",
      "type": "function"
    },
    {
      "inputs": [
        {
          "internalType": "uint256",
          "name": "_collateralVCInput",
          "type": "uint256"
        },
        {
          "internalType": "uint256",
          "name": "_totalCollateralVCBalance",
          "type": "uint256"
        },
        {
          "internalType": "uint256",
          "name": "_totalVCBalancePre",
          "type": "uint256"
        },
        {
          "internalType": "uint256",
          "name": "_totalVCBalancePost",
          "type": "uint256"
        }
      ],
      "name": "getFee",
      "outputs": [
        {
          "internalType": "uint256",
          "name": "feeCalculated",
          "type": "uint256"
        }
      ],
      "stateMutability": "view",
      "type": "function"
    },
    {
      "inputs": [
        {
          "internalType": "uint256",
          "name": "_collateralVCInput",
          "type": "uint256"
        },
        {
          "internalType": "uint256",
          "name": "_totalCollateralVCBalance",
          "type": "uint256"
        },
        {
          "internalType": "uint256",
          "name": "_totalVCBalancePre",
          "type": "uint256"
        },
        {
          "internalType": "uint256",
          "name": "_totalVCBalancePost",
          "type": "uint256"
        }
      ],
      "name": "getFeeAndUpdate",
      "outputs": [
        {
          "internalType": "uint256",
          "name": "feeCalculated",
          "type": "uint256"
        }
      ],
      "stateMutability": "nonpayable",
      "type": "function"
    },
    {
      "inputs": [],
      "name": "getFeeCapAndTime",
      "outputs": [
        {
          "internalType": "uint256",
          "name": "",
          "type": "uint256"
        },
        {
          "internalType": "uint256",
          "name": "",
          "type": "uint256"
        }
      ],
      "stateMutability": "view",
      "type": "function"
    },
    {
      "inputs": [],
      "name": "owner",
      "outputs": [
        {
          "internalType": "address",
          "name": "",
          "type": "address"
        }
      ],
      "stateMutability": "view",
      "type": "function"
    },
    {
      "inputs": [],
      "name": "renounceOwnership",
      "outputs": [],
      "stateMutability": "nonpayable",
      "type": "function"
    },
    {
      "inputs": [
        {
          "internalType": "address",
          "name": "_whitelistAddress",
          "type": "address"
        }
      ],
      "name": "setAddresses",
      "outputs": [],
      "stateMutability": "nonpayable",
      "type": "function"
    },
    {
      "inputs": [
        {
          "internalType": "uint256",
          "name": "_decayTime",
          "type": "uint256"
        }
      ],
      "name": "setDecayTime",
      "outputs": [],
      "stateMutability": "nonpayable",
      "type": "function"
    },
    {
      "inputs": [
        {
          "internalType": "uint256",
          "name": "_dollarCap",
          "type": "uint256"
        }
      ],
      "name": "setDollarCap",
      "outputs": [],
      "stateMutability": "nonpayable",
      "type": "function"
    },
    {
      "inputs": [
        {
          "internalType": "uint256",
          "name": "_lastFeePercent",
          "type": "uint256"
        },
        {
          "internalType": "uint256",
          "name": "_lastFeeTime",
          "type": "uint256"
        }
      ],
      "name": "setFeeCapAndTime",
      "outputs": [],
      "stateMutability": "nonpayable",
      "type": "function"
    },
    {
      "inputs": [],
      "name": "setUp",
      "outputs": [],
      "stateMutability": "nonpayable",
      "type": "function"
    },
    {
      "inputs": [
        {
          "internalType": "address",
          "name": "newOwner",
          "type": "address"
        }
      ],
      "name": "transferOwnership",
      "outputs": [],
      "stateMutability": "nonpayable",
      "type": "function"
    }
  ],
  "bytecode": "0x608060405234801561001057600080fd5b5061125e806100206000396000f3fe608060405234801561001057600080fd5b50600436106100bf5760003560e01c80638da5cb5b1161007c5780638da5cb5b1461017d57806397498845146101a1578063b34b408e146101be578063d26e6aa41461028e578063e98f617614610296578063f2cfd551146102c5578063f2fde38b146102e6576100bf565b80630a9254e4146100c457806311cfe6a9146100ce5780632c3609a0146100eb578063715018a61461010e57806373ddaef41461011657806381d3c43514610157575b600080fd5b6100cc61030c565b005b6100cc600480360360208110156100e457600080fd5b5035610316565b6100cc6004803603604081101561010157600080fd5b508035906020013561037d565b6100cc6103e2565b6101456004803603608081101561012c57600080fd5b508035906020810135906040810135906060013561047c565b60408051918252519081900360200190f35b6100cc6004803603602081101561016d57600080fd5b50356001600160a01b0316610493565b61018561057c565b604080516001600160a01b039092168252519081900360200190f35b6100cc600480360360208110156101b757600080fd5b503561058c565b6100cc60048036036101208110156101d557600080fd5b8101906020810181356401000000008111156101f057600080fd5b82018360208201111561020257600080fd5b8035906020019184600183028401116401000000008311171561022457600080fd5b91908080601f0160208091040260200160405190810160405280939291908181526020018383808284376000920191909152509295505082359350505060208101359060408101359060608101359060808101359060a08101359060c08101359060e001356105f3565b610145610811565b610145600480360360808110156102ac57600080fd5b5080359060208101359060408101359060600135610872565b6102cd6108f2565b6040805192835260208301919091528051918290030190f35b6100cc600480360360208110156102fc57600080fd5b50356001600160a01b03166108fc565b6103146109ed565b565b61031e610a9f565b6001600160a01b031661032f61057c565b6001600160a01b031614610378576040805162461bcd60e51b815260206004820181905260248201526000805160206111e9833981519152604482015290519081900360640190fd5b607355565b6074546001600160a01b031633146103d7576040805162461bcd60e51b815260206004820152601860248201527718d85b1b195c881b5d5cdd081899481dda1a5d195b1a5cdd60421b604482015290519081900360640190fd5b607291909155607155565b6103ea610a9f565b6001600160a01b03166103fb61057c565b6001600160a01b031614610444576040805162461bcd60e51b815260206004820181905260248201526000805160206111e9833981519152604482015290519081900360640190fd5b6033546040516000916001600160a01b031690600080516020611209833981519152908390a3603380546001600160a01b0319169055565b600061048a85858585610aa3565b95945050505050565b61049b610a9f565b6001600160a01b03166104ac61057c565b6001600160a01b0316146104f5576040805162461bcd60e51b815260206004820181905260248201526000805160206111e9833981519152604482015290519081900360640190fd5b607454600160a01b900460ff161561054c576040805162461bcd60e51b81526020600482015260156024820152741859191c995cdcd95cc8185b1c9958591e481cd95d605a1b604482015290519081900360640190fd5b6074805460ff60a01b196001600160a01b039093166001600160a01b03199091161791909116600160a01b179055565b6033546001600160a01b03165b90565b610594610a9f565b6001600160a01b03166105a561057c565b6001600160a01b0316146105ee576040805162461bcd60e51b815260206004820181905260248201526000805160206111e9833981519152604482015290519081900360640190fd5b607055565b6105fb610a9f565b6001600160a01b031661060c61057c565b6001600160a01b031614610655576040805162461bcd60e51b815260206004820181905260248201526000805160206111e9833981519152604482015290519081900360640190fd5b828511156106aa576040805162461bcd60e51b815260206004820152601a60248201527f4375746f666673206d75737420626520696e6372656173696e67000000000000604482015290519081900360640190fd5b88516106bd9060659060208c01906110fc565b506066889055606787905560698690556000610707886106fb670de0b6b3a76400006106ef8d8b63ffffffff610b8616565b9063ffffffff610bed16565b9063ffffffff610c1a16565b90506000610727670de0b6b3a76400006106ef8a8a63ffffffff610b8616565b90508181111561075657606b805460ff1916600117905561074e818363ffffffff610c6316565b606a5561076a565b610766828263ffffffff610c6316565b606a555b6068879055606d869055606a54610797906106fb670de0b6b3a76400006106ef8c8a63ffffffff610b8616565b905060006107b7670de0b6b3a76400006106ef898963ffffffff610b8616565b9050818111156107e657606f805460ff191660011790556107de818363ffffffff610c6316565b606e556107fa565b6107f6828263ffffffff610c6316565b606e555b505050606c92909255607355607055505050505050565b60008061082960715442610c6390919063ffffffff16565b60705490915080821161086857610861610852826106ef85607254610b8690919063ffffffff16565b6072549063ffffffff610c6316565b925061086d565b600092505b505090565b6074546000906001600160a01b031633146108d4576040805162461bcd60e51b815260206004820152601d60248201527f4f6e6c792077686974656c6973742063616e2075706461746520666565000000604482015290519081900360640190fd5b6108e085858585610aa3565b42607155607281905595945050505050565b6072546071549091565b610904610a9f565b6001600160a01b031661091561057c565b6001600160a01b03161461095e576040805162461bcd60e51b815260206004820181905260248201526000805160206111e9833981519152604482015290519081900360640190fd5b6001600160a01b0381166109a35760405162461bcd60e51b81526004018080602001828103825260268152602001806111956026913960400191505060405180910390fd5b6033546040516001600160a01b0380841692169060008051602061120983398151915290600090a3603380546001600160a01b0319166001600160a01b0392909216919091179055565b600054610100900460ff1680610a065750610a06610c94565b80610a14575060005460ff16155b610a4f5760405162461bcd60e51b815260040180806020018281038252602e8152602001806111bb602e913960400191505060405180910390fd5b600054610100900460ff16158015610a7a576000805460ff1961ff0019909116610100171660011790555b610a82610ca5565b610a8a610d45565b8015610a9c576000805461ff00191690555b50565b3390565b6073546000908015610b135780610ac0868863ffffffff610c1a16565b1115610b13576040805162461bcd60e51b815260206004820152601c60248201527f436f6c6c61746572616c20696e70757420657863656564732063617000000000604482015290519081900360640190fd5b6000610b1f8686610e2c565b90506000610b3c610b36888a63ffffffff610c1a16565b86610e2c565b90506000610b48610811565b9050610b79670de0b6b3a7640000610b74610b6e60026106ef888863ffffffff610c1a16565b84610fd4565b610fea565b9998505050505050505050565b600082610b9557506000610be7565b82820282848281610ba257fe5b0414610be4576040805162461bcd60e51b815260206004820152600c60248201526b6d756c206f766572666c6f7760a01b604482015290519081900360640190fd5b90505b92915050565b6000610be4838360405180604001604052806008815260200167064697620627920360c41b815250610ffa565b600082820183811015610be4576040805162461bcd60e51b815260206004820152600c60248201526b616464206f766572666c6f7760a01b604482015290519081900360640190fd5b6000610be483836040518060400160405280600c81526020016b737562206f766572666c6f7760a01b81525061109c565b6000610c9f306110f6565b15905090565b600054610100900460ff1680610cbe5750610cbe610c94565b80610ccc575060005460ff16155b610d075760405162461bcd60e51b815260040180806020018281038252602e8152602001806111bb602e913960400191505060405180910390fd5b600054610100900460ff16158015610a8a576000805460ff1961ff0019909116610100171660011790558015610a9c576000805461ff001916905550565b600054610100900460ff1680610d5e5750610d5e610c94565b80610d6c575060005460ff16155b610da75760405162461bcd60e51b815260040180806020018281038252602e8152602001806111bb602e913960400191505060405180910390fd5b600054610100900460ff16158015610dd2576000805460ff1961ff0019909116610100171660011790555b6000610ddc610a9f565b603380546001600160a01b0319166001600160a01b03831690811790915560405191925090600090600080516020611209833981519152908290a3508015610a9c576000805461ff001916905550565b600081610e3b57506000610be7565b6000610e59836106ef86670de0b6b3a764000063ffffffff610b8616565b9050670de0b6b3a7640000811115610eb8576040805162461bcd60e51b815260206004820152601c60248201527f70657263656e74206261636b6564206f7574206f6620626f756e647300000000604482015290519081900360640190fd5b6068548111610f0157610ef9610eeb6067546106fb670de0b6b3a76400006106ef86606654610b8690919063ffffffff16565b670de0b6b3a7640000610fea565b915050610be7565b606c548111610f7557606b5460ff1615610f4b57610ef9610eeb606a54610f3f670de0b6b3a76400006106ef86606954610b8690919063ffffffff16565b9063ffffffff610c6316565b610ef9610eeb606a546106fb670de0b6b3a76400006106ef86606954610b8690919063ffffffff16565b606f5460ff1615610faa57610ef9610eeb606e54610f3f670de0b6b3a76400006106ef86606d54610b8690919063ffffffff16565b610ef9610eeb606e546106fb670de0b6b3a76400006106ef86606d54610b8690919063ffffffff16565b600081831115610fe45782610be4565b50919050565b600081831015610fe45782610be4565b600081836110865760405162461bcd60e51b81526004018080602001828103825283818151815260200191508051906020019080838360005b8381101561104b578181015183820152602001611033565b50505050905090810190601f1680156110785780820380516001836020036101000a031916815260200191505b509250505060405180910390fd5b50600083858161109257fe5b0495945050505050565b600081848411156110ee5760405162461bcd60e51b815260206004820181815283516024840152835190928392604490910191908501908083836000831561104b578181015183820152602001611033565b505050900390565b3b151590565b828054600181600116156101000203166002900490600052602060002090601f016020900481019282601f1061113d57805160ff191683800117855561116a565b8280016001018555821561116a579182015b8281111561116a57825182559160200191906001019061114f565b5061117692915061117a565b5090565b61058991905b80821115611176576000815560010161118056fe4f776e61626c653a206e6577206f776e657220697320746865207a65726f2061646472657373496e697469616c697a61626c653a20636f6e747261637420697320616c726561647920696e697469616c697a65644f776e61626c653a2063616c6c6572206973206e6f7420746865206f776e65728be0079c531659141344cd1fd0a4f28419497f9722a3daafe3b4186f6b6457e0a26469706673582212204483682854c64cadafc03d0896c2773aa9d2db5711a1138bf67577d7a9d4012b64736f6c634300060b0033",
  "linkReferences": {},
  "deployedLinkReferences": {}
}