{
  "_format": "hh-sol-artifact-1",
  "contractName": "PoolBase2",
  "sourceName": "src/main/Dependencies/PoolBase2.sol",
  "abi": [
    {
      "inputs": [],
      "name": "DECIMAL_PRECISION",
      "outputs": [
        {
          "internalType": "uint256",
          "name": "",
          "type": "uint256"
        }
      ],
      "stateMutability": "view",
      "type": "function"
    }
  ],
  "bytecode": "0x6080604052348015600f57600080fd5b5060878061001e6000396000f3fe6080604052348015600f57600080fd5b506004361060285760003560e01c8063a20baee614602d575b600080fd5b60336045565b60408051918252519081900360200190f35b670de0b6b3a76400008156fea2646970667358221220e190bc4702f85ebbd9578c121b3f75bd38ea2f1fed1a60662337df1c7fe0446164736f6c634300060b0033",
  "linkReferences": {},
  "deployedLinkReferences": {}
}