{
  "_format": "hh-sol-artifact-1",
  "contractName": "CollSurplusPool",
  "sourceName": "src/main/CollSurplusPool.sol",
  "abi": [
    {
      "anonymous": false,
      "inputs": [
        {
          "indexed": false,
          "internalType": "address",
          "name": "_newActivePoolAddress",
          "type": "address"
        }
      ],
      "name": "ActivePoolAddressChanged",
      "type": "event"
    },
    {
      "anonymous": false,
      "inputs": [
        {
          "indexed": false,
          "internalType": "address",
          "name": "_newBorrowerOperationsAddress",
          "type": "address"
        }
      ],
      "name": "BorrowerOperationsAddressChanged",
      "type": "event"
    },
    {
      "anonymous": false,
      "inputs": [
        {
          "indexed": true,
          "internalType": "address",
          "name": "_account",
          "type": "address"
        }
      ],
      "name": "CollBalanceUpdated",
      "type": "event"
    },
    {
      "anonymous": false,
      "inputs": [
        {
          "indexed": false,
          "internalType": "address",
          "name": "_to",
          "type": "address"
        }
      ],
      "name": "CollateralSent",
      "type": "event"
    },
    {
      "anonymous": false,
      "inputs": [
        {
          "indexed": true,
          "internalType": "address",
          "name": "previousOwner",
          "type": "address"
        },
        {
          "indexed": true,
          "internalType": "address",
          "name": "newOwner",
          "type": "address"
        }
      ],
      "name": "OwnershipTransferred",
      "type": "event"
    },
    {
      "anonymous": false,
      "inputs": [
        {
          "indexed": false,
          "internalType": "address",
          "name": "_newTroveManagerAddress",
          "type": "address"
        }
      ],
      "name": "TroveManagerAddressChanged",
      "type": "event"
    },
    {
      "inputs": [],
      "name": "BORROWING_FEE_FLOOR",
      "outputs": [
        {
          "internalType": "uint256",
          "name": "",
          "type": "uint256"
        }
      ],
      "stateMutability": "view",
      "type": "function"
    },
    {
      "inputs": [],
      "name": "CCR",
      "outputs": [
        {
          "internalType": "uint256",
          "name": "",
          "type": "uint256"
        }
      ],
      "stateMutability": "view",
      "type": "function"
    },
    {
      "inputs": [],
      "name": "CUSD_GAS_COMPENSATION",
      "outputs": [
        {
          "internalType": "uint256",
          "name": "",
          "type": "uint256"
        }
      ],
      "stateMutability": "view",
      "type": "function"
    },
    {
      "inputs": [],
      "name": "DECIMAL_PRECISION",
      "outputs": [
        {
          "internalType": "uint256",
          "name": "",
          "type": "uint256"
        }
      ],
      "stateMutability": "view",
      "type": "function"
    },
    {
      "inputs": [],
      "name": "MCR",
      "outputs": [
        {
          "internalType": "uint256",
          "name": "",
          "type": "uint256"
        }
      ],
      "stateMutability": "view",
      "type": "function"
    },
    {
      "inputs": [],
      "name": "MIN_NET_DEBT",
      "outputs": [
        {
          "internalType": "uint256",
          "name": "",
          "type": "uint256"
        }
      ],
      "stateMutability": "view",
      "type": "function"
    },
    {
      "inputs": [],
      "name": "NAME",
      "outputs": [
        {
          "internalType": "string",
          "name": "",
          "type": "string"
        }
      ],
      "stateMutability": "view",
      "type": "function"
    },
    {
      "inputs": [],
      "name": "REDEMPTION_FEE_FLOOR",
      "outputs": [
        {
          "internalType": "uint256",
          "name": "",
          "type": "uint256"
        }
      ],
      "stateMutability": "view",
      "type": "function"
    },
    {
      "inputs": [
        {
          "internalType": "address",
          "name": "_account",
          "type": "address"
        },
        {
          "internalType": "address[]",
          "name": "_tokens",
          "type": "address[]"
        },
        {
          "internalType": "uint256[]",
          "name": "_amounts",
          "type": "uint256[]"
        }
      ],
      "name": "accountSurplus",
      "outputs": [],
      "stateMutability": "nonpayable",
      "type": "function"
    },
    {
      "inputs": [
        {
          "internalType": "address",
          "name": "_collateral",
          "type": "address"
        }
      ],
      "name": "addCollateralType",
      "outputs": [],
      "stateMutability": "nonpayable",
      "type": "function"
    },
    {
      "inputs": [
        {
          "internalType": "address",
          "name": "_account",
          "type": "address"
        }
      ],
      "name": "claimColl",
      "outputs": [],
      "stateMutability": "nonpayable",
      "type": "function"
    },
    {
      "inputs": [],
      "name": "getAllCollateral",
      "outputs": [
        {
          "internalType": "address[]",
          "name": "",
          "type": "address[]"
        },
        {
          "internalType": "uint256[]",
          "name": "",
          "type": "uint256[]"
        }
      ],
      "stateMutability": "view",
      "type": "function"
    },
    {
      "inputs": [
        {
          "internalType": "address",
          "name": "_account",
          "type": "address"
        },
        {
          "internalType": "address",
          "name": "_collateral",
          "type": "address"
        }
      ],
      "name": "getAmountClaimable",
      "outputs": [
        {
          "internalType": "uint256",
          "name": "",
          "type": "uint256"
        }
      ],
      "stateMutability": "view",
      "type": "function"
    },
    {
      "inputs": [],
      "name": "getCollVC",
      "outputs": [
        {
          "internalType": "uint256",
          "name": "",
          "type": "uint256"
        }
      ],
      "stateMutability": "view",
      "type": "function"
    },
    {
      "inputs": [
        {
          "internalType": "address",
          "name": "_collateral",
          "type": "address"
        }
      ],
      "name": "getCollateral",
      "outputs": [
        {
          "internalType": "uint256",
          "name": "",
          "type": "uint256"
        }
      ],
      "stateMutability": "view",
      "type": "function"
    },
    {
      "inputs": [],
      "name": "getEntireSystemColl",
      "outputs": [
        {
          "internalType": "uint256",
          "name": "",
          "type": "uint256"
        }
      ],
      "stateMutability": "view",
      "type": "function"
    },
    {
      "inputs": [],
      "name": "getEntireSystemDebt",
      "outputs": [
        {
          "internalType": "uint256",
          "name": "",
          "type": "uint256"
        }
      ],
      "stateMutability": "view",
      "type": "function"
    },
    {
      "inputs": [],
      "name": "owner",
      "outputs": [
        {
          "internalType": "address",
          "name": "",
          "type": "address"
        }
      ],
      "stateMutability": "view",
      "type": "function"
    },
    {
      "inputs": [
        {
          "internalType": "address[]",
          "name": "_tokens",
          "type": "address[]"
        },
        {
          "internalType": "uint256[]",
          "name": "_amounts",
          "type": "uint256[]"
        }
      ],
      "name": "receiveCollateral",
      "outputs": [],
      "stateMutability": "nonpayable",
      "type": "function"
    },
    {
      "inputs": [],
      "name": "renounceOwnership",
      "outputs": [],
      "stateMutability": "nonpayable",
      "type": "function"
    },
    {
      "inputs": [
        {
          "internalType": "address",
          "name": "_borrowerOperationsAddress",
          "type": "address"
        },
        {
          "internalType": "address",
          "name": "_troveManagerAddress",
          "type": "address"
        },
        {
          "internalType": "address",
          "name": "_troveManagerRedemptionsAddress",
          "type": "address"
        },
        {
          "internalType": "address",
          "name": "_activePoolAddress",
          "type": "address"
        },
        {
          "internalType": "address",
          "name": "_whitelistAddress",
          "type": "address"
        }
      ],
      "name": "setAddresses",
      "outputs": [],
      "stateMutability": "nonpayable",
      "type": "function"
    },
    {
      "inputs": [],
      "name": "setUp",
      "outputs": [],
      "stateMutability": "nonpayable",
      "type": "function"
    },
    {
      "inputs": [
        {
          "internalType": "address",
          "name": "newOwner",
          "type": "address"
        }
      ],
      "name": "transferOwnership",
      "outputs": [],
      "stateMutability": "nonpayable",
      "type": "function"
    }
  ],
  "bytecode": "0x608060405234801561001057600080fd5b506129da806100206000396000f3fe608060405234801561001057600080fd5b506004361061014d5760003560e01c80638da5cb5b116100c3578063b32beb5b1161007c578063b32beb5b14610549578063c6ba09361461056f578063dd33cf0314610610578063ec0d5e0c14610618578063f2fde38b1461063e578063f92d34331461017e5761014d565b80638da5cb5b146102245780639b56d6c9146102485780639efc9e201461026e578063a20baee6146103a1578063a3f4df7e146103a9578063a7a24edd146104265761014d565b80635dd68acd116101155780635dd68acd1461018e57806361721554146101d6578063715018a614610204578063794e57241461020c578063795d26c314610214578063887105d31461021c5761014d565b80630a9254e4146101525780631795b4051461015c5780631bf435551461017657806328d28b5b1461017e5780635733d58f14610186575b600080fd5b61015a610664565b005b61016461066e565b60408051918252519081900360200190f35b61016461067b565b610164610688565b610164610693565b61015a600480360360a08110156101a457600080fd5b506001600160a01b0381358116916020810135821691604082013581169160608101358216916080909101351661069f565b610164600480360360408110156101ec57600080fd5b506001600160a01b038135811691602001351661083c565b61015a610923565b6101646109bd565b6101646109c9565b610164610ad7565b61022c610b4d565b604080516001600160a01b039092168252519081900360200190f35b6101646004803603602081101561025e57600080fd5b50356001600160a01b0316610b5c565b61015a6004803603606081101561028457600080fd5b6001600160a01b038235169190810190604081016020820135600160201b8111156102ae57600080fd5b8201836020820111156102c057600080fd5b803590602001918460208302840111600160201b831117156102e157600080fd5b9190808060200260200160405190810160405280939291908181526020018383602002808284376000920191909152509295949360208101935035915050600160201b81111561033057600080fd5b82018360208201111561034257600080fd5b803590602001918460208302840111600160201b8311171561036357600080fd5b919080806020026020016040519081016040528093929190818152602001838360200280828437600092019190915250929550610bfd945050505050565b610164610d79565b6103b1610d85565b6040805160208082528351818301528351919283929083019185019080838360005b838110156103eb5781810151838201526020016103d3565b50505050905090810190601f1680156104185780820380516001836020036101000a031916815260200191505b509250505060405180910390f35b61015a6004803603604081101561043c57600080fd5b810190602081018135600160201b81111561045657600080fd5b82018360208201111561046857600080fd5b803590602001918460208302840111600160201b8311171561048957600080fd5b9190808060200260200160405190810160405280939291908181526020018383602002808284376000920191909152509295949360208101935035915050600160201b8111156104d857600080fd5b8201836020820111156104ea57600080fd5b803590602001918460208302840111600160201b8311171561050b57600080fd5b919080806020026020016040519081016040528093929190818152602001838360200280828437600092019190915250929550610db0945050505050565b61015a6004803603602081101561055f57600080fd5b50356001600160a01b0316610e94565b6105776111a7565b604051808060200180602001838103835285818151815260200191508051906020019060200280838360005b838110156105bb5781810151838201526020016105a3565b50505050905001838103825284818151815260200191508051906020019060200280838360005b838110156105fa5781810151838201526020016105e2565b5050505090500194505050505060405180910390f35b61016461126a565b61015a6004803603602081101561062e57600080fd5b50356001600160a01b0316611337565b61015a6004803603602081101561065457600080fd5b50356001600160a01b03166113c1565b61066c6114b2565b565b6801158e460913d0000081565b6809c2007651b250000081565b6611c37937e0800081565b6714d1120d7b16000081565b6106a7611564565b6001600160a01b03166106b8610b4d565b6001600160a01b031614610701576040805162461bcd60e51b8152602060048201819052602482015260008051602061293b833981519152604482015290519081900360640190fd5b61070a85611568565b61071384611568565b61071c83611568565b61072582611568565b61072e81611568565b606880546001600160a01b038088166001600160a01b0319928316811790935560698054888316908416179055606a8054878316908416179055606b8054868316908416179055606580549185169190921617905560408051918252517f3ca631ffcd2a9b5d9ae18543fc82f58eb4ca33af9e6ab01b7a8e95331e6ed9859181900360200190a1604080516001600160a01b038616815290517f143219c9e69b09e07e095fcc889b43d8f46ca892bba65f08dc3a0050869a56789181900360200190a1604080516001600160a01b038416815290517f78f058b189175430c48dc02699e3a0031ea4ff781536dc2fab847de4babdd8829181900360200190a1610835610923565b5050505050565b6065546040805163b31610db60e01b81526001600160a01b03848116600483015291516000938493169163b31610db916024808301926020929190829003018186803b15801561088b57600080fd5b505afa15801561089f573d6000803e3d6000fd5b505050506040513d60208110156108b557600080fd5b50516001600160a01b0385166000908152606e6020526040902060010154909150811015610917576001600160a01b0384166000908152606e6020526040902060010180548290811061090457fe5b906000526020600020015491505061091d565b60009150505b92915050565b61092b611564565b6001600160a01b031661093c610b4d565b6001600160a01b031614610985576040805162461bcd60e51b8152602060048201819052602482015260008051602061293b833981519152604482015290519081900360640190fd5b6033546040516000916001600160a01b03169060008051602061295b833981519152908390a3603380546001600160a01b0319169055565b670f43fc2c04ee000081565b600080606660009054906101000a90046001600160a01b03166001600160a01b03166310ec1f526040518163ffffffff1660e01b815260040160206040518083038186803b158015610a1a57600080fd5b505afa158015610a2e573d6000803e3d6000fd5b505050506040513d6020811015610a4457600080fd5b5051606754604080516308760fa960e11b815290519293506000926001600160a01b03909216916310ec1f5291600480820192602092909190829003018186803b158015610a9157600080fd5b505afa158015610aa5573d6000803e3d6000fd5b505050506040513d6020811015610abb57600080fd5b50519050610acf828263ffffffff61161716565b925050505b90565b60665460408051631944d03160e21b815290516000926001600160a01b03169163651340c4916004808301926020929190829003018186803b158015610b1c57600080fd5b505afa158015610b30573d6000803e3d6000fd5b505050506040513d6020811015610b4657600080fd5b5051905090565b6033546001600160a01b031690565b6065546040805163b31610db60e01b81526001600160a01b03848116600483015291516000938493169163b31610db916024808301926020929190829003018186803b158015610bab57600080fd5b505afa158015610bbf573d6000803e3d6000fd5b505050506040513d6020811015610bd557600080fd5b5051606d80549192509082908110610be957fe5b90600052602060002001549150505b919050565b610c05611667565b6001600160a01b0383166000908152606e6020908152604091829020825181546060938102820184018552938101848152610cf494919384928491840182828015610c7957602002820191906000526020600020905b81546001600160a01b03168152600190910190602001808311610c5b575b5050505050815260200160018201805480602002602001604051908101604052809291908181526020018280548015610cd157602002820191906000526020600020905b815481526020019060010190808311610cbd575b50505050508152505060405180604001604052808581526020018481525061169a565b6001600160a01b0384166000908152606e60209081526040909120825180519192610d24928492909101906127bc565b506020828101518051610d3d9260018501920190612821565b50506040516001600160a01b03851691507f6b2ad5b68fc200b778014cdb888224cf17eb4dde84391e0664599b723958b84690600090a2505050565b670de0b6b3a764000081565b6040518060400160405280600f81526020016e10dbdb1b14dd5c9c1b1d5cd41bdbdb608a1b81525081565b610db8611c0a565b60408051606c8054606060208202840181018552938301818152610e7b9484928491840182828015610e1357602002820191906000526020600020905b81546001600160a01b03168152600190910190602001808311610df5575b5050505050815260200160018201805480602002602001604051908101604052809291908181526020018280548015610e6b57602002820191906000526020600020905b815481526020019060010190808311610e57575b5050505050815250508383611c24565b8051610e8f91606d91602090910190612821565b505050565b610e9c611d4c565b610ea4612868565b6001600160a01b0382166000908152606e60209081526040918290208251815460609381028201840185529381018481529093919284928491840182828015610f1657602002820191906000526020600020905b81546001600160a01b03168152600190910190602001808311610ef8575b5050505050815260200160018201805480602002602001604051908101604052809291908181526020018280548015610f6e57602002820191906000526020600020905b815481526020019060010190808311610f5a575b5050505050815250509050610f8281611d66565b610fd3576040805162461bcd60e51b815260206004820152601c60248201527f4353503a204e6f20636f6c6c61746572616c20617661696c61626c6500000000604482015290519081900360640190fd5b606c5467ffffffffffffffff81118015610fec57600080fd5b50604051908082528060200260200182016040528015611016578160200160208202803683370190505b506001600160a01b0383166000908152606e602090815260409091208251611048936001909201929190910190612821565b506040516001600160a01b038316907f6b2ad5b68fc200b778014cdb888224cf17eb4dde84391e0664599b723958b84690600090a260408051606c805460606020820284018101855293830181815261114894849284918401828280156110d857602002820191906000526020600020905b81546001600160a01b031681526001909101906020018083116110ba575b505050505081526020016001820180548060200260200160405190810160405280929190818152602001828054801561113057602002820191906000526020600020905b81548152602001906001019080831161111c575b50505050508152505082600001518360200151611db2565b805161115c91606d91602090910190612821565b50604080516001600160a01b038416815290517f7636482499a16d29b05db7b6a6f35d00f2df69ce1104c82d1f6d288e68ef15eb9181900360200190a16111a38282611ee5565b5050565b606080606c600001606c6001018180548060200260200160405190810160405280929190818152602001828054801561120957602002820191906000526020600020905b81546001600160a01b031681526001909101906020018083116111eb575b505050505091508080548060200260200160405190810160405280929190818152602001828054801561125b57602002820191906000526020600020905b815481526020019060010190808311611247575b50505050509050915091509091565b60408051606c80546060602082028401810185529383018181526000946113329493928492918491908401828280156112cc57602002820191906000526020600020905b81546001600160a01b031681526001909101906020018083116112ae575b505050505081526020016001820180548060200260200160405190810160405280929190818152602001828054801561132457602002820191906000526020600020905b815481526020019060010190808311611310575b50505050508152505061207d565b905090565b61133f612182565b606c805460018082019092557f2b4a51ab505fc96a0952efda2ba61bcd3078d4c02c39a186ec16f21883fbe0160180546001600160a01b0319166001600160a01b039390931692909217909155606d8054918201815560009081527f5006b838207c6a9ae9b84d68f467dd4bb5c305fbfb6b04eab8faaabeec1e18d890910155565b6113c9611564565b6001600160a01b03166113da610b4d565b6001600160a01b031614611423576040805162461bcd60e51b8152602060048201819052602482015260008051602061293b833981519152604482015290519081900360640190fd5b6001600160a01b0381166114685760405162461bcd60e51b81526004018080602001828103825260268152602001806128c16026913960400191505060405180910390fd5b6033546040516001600160a01b0380841692169060008051602061295b83398151915290600090a3603380546001600160a01b0319166001600160a01b0392909216919091179055565b600054610100900460ff16806114cb57506114cb61219c565b806114d9575060005460ff16155b6115145760405162461bcd60e51b815260040180806020018281038252602e81526020018061290d602e913960400191505060405180910390fd5b600054610100900460ff1615801561153f576000805460ff1961ff0019909116610100171660011790555b6115476121ad565b61154f61224d565b8015611561576000805461ff00191690555b50565b3390565b6001600160a01b0381166115c3576040805162461bcd60e51b815260206004820152601e60248201527f4163636f756e742063616e6e6f74206265207a65726f20616464726573730000604482015290519081900360640190fd5b803b806111a3576040805162461bcd60e51b815260206004820181905260248201527f4163636f756e7420636f64652073697a652063616e6e6f74206265207a65726f604482015290519081900360640190fd5b600082820183811015611660576040805162461bcd60e51b815260206004820152600c60248201526b616464206f766572666c6f7760a01b604482015290519081900360640190fd5b9392505050565b6069546001600160a01b0316331480159061168d5750606a546001600160a01b03163314155b1561066c5761066c612334565b6116a2612868565b815151806116b3578391505061091d565b6116bb612868565b606560009054906101000a90046001600160a01b03166001600160a01b0316639d6aea0a6040518163ffffffff1660e01b815260040160006040518083038186803b15801561170957600080fd5b505afa15801561171d573d6000803e3d6000fd5b505050506040513d6000823e601f3d908101601f19168201604052602081101561174657600080fd5b8101908080516040519392919084600160201b82111561176557600080fd5b90830190602082018581111561177a57600080fd5b82518660208202830111600160201b8211171561179657600080fd5b82525081516020918201928201910280838360005b838110156117c35781810151838201526020016117ab565b50505050919091016040525050508183525085515190518067ffffffffffffffff811180156117f157600080fd5b5060405190808252806020026020018201604052801561181b578160200160208202803683370190505b5060208401526000805b8381101561193457606554895180516000926001600160a01b03169163b31610db918590811061185157fe5b60200260200101516040518263ffffffff1660e01b815260040180826001600160a01b03166001600160a01b0316815260200191505060206040518083038186803b15801561189f57600080fd5b505afa1580156118b3573d6000803e3d6000fd5b505050506040513d60208110156118c957600080fd5b505160208b0151805191925090839081106118e057fe5b602002602001015160001461192b5760208a015180516001909401938390811061190657fe5b60200260200101518660200151828151811061191e57fe5b6020026020010181815250505b50600101611825565b5060005b85811015611ac757606554885180516000926001600160a01b03169163b31610db918590811061196457fe5b60200260200101516040518263ffffffff1660e01b815260040180826001600160a01b03166001600160a01b0316815260200191505060206040518083038186803b1580156119b257600080fd5b505afa1580156119c6573d6000803e3d6000fd5b505050506040513d60208110156119dc57600080fd5b505160208a0151805191925090839081106119f357fe5b6020026020010151600014611abe5785602001518181518110611a1257fe5b602002602001015160001415611a605788602001518281518110611a3257fe5b602002602001015186602001518281518110611a4a57fe5b6020908102919091010152600190920191611abe565b611aa189602001518381518110611a7357fe5b602002602001015187602001518381518110611a8b57fe5b602002602001015161161790919063ffffffff16565b86602001518281518110611ab157fe5b6020026020010181815250505b50600101611938565b5060608167ffffffffffffffff81118015611ae157600080fd5b50604051908082528060200260200182016040528015611b0b578160200160208202803683370190505b50905060608267ffffffffffffffff81118015611b2757600080fd5b50604051908082528060200260200182016040528015611b51578160200160208202803683370190505b5090506000805b85811015611bf55787602001518181518110611b7057fe5b6020026020010151600014611bed578751805182908110611b8d57fe5b6020026020010151848381518110611ba157fe5b6001600160a01b03909216602092830291909101820152880151805182908110611bc757fe5b6020026020010151838381518110611bdb57fe5b60209081029190910101526001909101905b600101611b58565b50509087526020870152505050505092915050565b606b546001600160a01b0316331461066c5761066c612334565b6060815160001415611c3b57506020830151611660565b6060611c4a8560200151612381565b845190915060005b81811015611d415760655486516000916001600160a01b03169063b31610db90899085908110611c7e57fe5b60200260200101516040518263ffffffff1660e01b815260040180826001600160a01b03166001600160a01b0316815260200191505060206040518083038186803b158015611ccc57600080fd5b505afa158015611ce0573d6000803e3d6000fd5b505050506040513d6020811015611cf657600080fd5b50518651909150611d2190879084908110611d0d57fe5b6020026020010151858381518110611a8b57fe5b848281518110611d2d57fe5b602090810291909101015250600101611c52565b509095945050505050565b6068546001600160a01b0316331461066c5761066c612334565b805151600090815b81811015611da85783602001518181518110611d8657fe5b6020026020010151600014611da057600192505050610bf8565b600101611d6e565b5060009392505050565b6060825160001415611dc957506020830151611660565b6060611dd88560200151612381565b845190915060005b81811015611d415760655486516000916001600160a01b03169063b31610db90899085908110611e0c57fe5b60200260200101516040518263ffffffff1660e01b815260040180826001600160a01b03166001600160a01b0316815260200191505060206040518083038186803b158015611e5a57600080fd5b505afa158015611e6e573d6000803e3d6000fd5b505050506040513d6020811015611e8457600080fd5b50518651909150611ec590879084908110611e9b57fe5b6020026020010151858381518110611eaf57fe5b602002602001015161241190919063ffffffff16565b848281518110611ed157fe5b602090810291909101015250600101611de0565b80515160005b8181101561207757600083600001518281518110611f0557fe5b602090810291909101810151606554604080516324af709f60e11b81526001600160a01b038085166004830152915193955091169263495ee13e92602480840193829003018186803b158015611f5a57600080fd5b505afa158015611f6e573d6000803e3d6000fd5b505050506040513d6020811015611f8457600080fd5b50511561203957806001600160a01b031663261c80b6868787602001518681518110611fac57fe5b60200260200101516040518463ffffffff1660e01b815260040180846001600160a01b03166001600160a01b03168152602001836001600160a01b03166001600160a01b031681526020018281526020019350505050600060405180830381600087803b15801561201c57600080fd5b505af1158015612030573d6000803e3d6000fd5b5050505061206e565b61206e858560200151848151811061204d57fe5b6020026020010151836001600160a01b03166124429092919063ffffffff16565b50600101611eeb565b50505050565b6065548151602080840151604080516397a4b9f760e01b8152600481019182528451604482015284516000966001600160a01b0316956397a4b9f795909493928392602482019260649092019180880191028083838d5b838110156120ec5781810151838201526020016120d4565b50505050905001838103825284818151815260200191508051906020019060200280838360005b8381101561212b578181015183820152602001612113565b5050505090500194505050505060206040518083038186803b15801561215057600080fd5b505afa158015612164573d6000803e3d6000fd5b505050506040513d602081101561217a57600080fd5b505192915050565b6065546001600160a01b0316331461066c5761066c612334565b60006121a730612494565b15905090565b600054610100900460ff16806121c657506121c661219c565b806121d4575060005460ff16155b61220f5760405162461bcd60e51b815260040180806020018281038252602e81526020018061290d602e913960400191505060405180910390fd5b600054610100900460ff1615801561154f576000805460ff1961ff0019909116610100171660011790558015611561576000805461ff001916905550565b600054610100900460ff1680612266575061226661219c565b80612274575060005460ff16155b6122af5760405162461bcd60e51b815260040180806020018281038252602e81526020018061290d602e913960400191505060405180910390fd5b600054610100900460ff161580156122da576000805460ff1961ff0019909116610100171660011790555b60006122e4611564565b603380546001600160a01b0319166001600160a01b0383169081179091556040519192509060009060008051602061295b833981519152908290a3508015611561576000805461ff001916905550565b6040805162461bcd60e51b815260206004820181905260248201527f4353503a2045787465726e616c2063616c6c6572206e6f7420616c6c6f776564604482015290519081900360640190fd5b8051606090818167ffffffffffffffff8111801561239e57600080fd5b506040519080825280602002602001820160405280156123c8578160200160208202803683370190505b50905060005b82811015612409578481815181106123e257fe5b60200260200101518282815181106123f657fe5b60209081029190910101526001016123ce565b509392505050565b600061166083836040518060400160405280600c81526020016b737562206f766572666c6f7760a01b81525061249a565b604080516001600160a01b038416602482015260448082018490528251808303909101815260649091019091526020810180516001600160e01b031663a9059cbb60e01b179052610e8f908490612531565b3b151590565b600081848411156125295760405162461bcd60e51b81526004018080602001828103825283818151815260200191508051906020019080838360005b838110156124ee5781810151838201526020016124d6565b50505050905090810190601f16801561251b5780820380516001836020036101000a031916815260200191505b509250505060405180910390fd5b505050900390565b6060612586826040518060400160405280602081526020017f5361666545524332303a206c6f772d6c6576656c2063616c6c206661696c6564815250856001600160a01b03166125e39092919063ffffffff16565b90508051600014610e8f578080602001905160208110156125a657600080fd5b5051610e8f5760405162461bcd60e51b815260040180806020018281038252602a81526020018061297b602a913960400191505060405180910390fd5b60606125f284846000856125fa565b949350505050565b60608247101561263b5760405162461bcd60e51b81526004018080602001828103825260268152602001806128e76026913960400191505060405180910390fd5b61264485612494565b612695576040805162461bcd60e51b815260206004820152601d60248201527f416464726573733a2063616c6c20746f206e6f6e2d636f6e7472616374000000604482015290519081900360640190fd5b60006060866001600160a01b031685876040518082805190602001908083835b602083106126d45780518252601f1990920191602091820191016126b5565b6001836020036101000a03801982511681845116808217855250505050505090500191505060006040518083038185875af1925050503d8060008114612736576040519150601f19603f3d011682016040523d82523d6000602084013e61273b565b606091505b509150915061274b828286612756565b979650505050505050565b60608315612765575081611660565b8251156127755782518084602001fd5b60405162461bcd60e51b81526020600482018181528451602484015284518593919283926044019190850190808383600083156124ee5781810151838201526020016124d6565b828054828255906000526020600020908101928215612811579160200282015b8281111561281157825182546001600160a01b0319166001600160a01b039091161782556020909201916001909101906127dc565b5061281d929150612882565b5090565b82805482825590600052602060002090810192821561285c579160200282015b8281111561285c578251825591602001919060010190612841565b5061281d9291506128a6565b604051806040016040528060608152602001606081525090565b610ad491905b8082111561281d5780546001600160a01b0319168155600101612888565b610ad491905b8082111561281d57600081556001016128ac56fe4f776e61626c653a206e6577206f776e657220697320746865207a65726f2061646472657373416464726573733a20696e73756666696369656e742062616c616e636520666f722063616c6c496e697469616c697a61626c653a20636f6e747261637420697320616c726561647920696e697469616c697a65644f776e61626c653a2063616c6c6572206973206e6f7420746865206f776e65728be0079c531659141344cd1fd0a4f28419497f9722a3daafe3b4186f6b6457e05361666545524332303a204552433230206f7065726174696f6e20646964206e6f742073756363656564a2646970667358221220fcf5a4a623af228410b2ba8193de787cd016e8aab9b984809da9ea6392222e0a64736f6c634300060b0033",
  "linkReferences": {},
  "deployedLinkReferences": {}
}