{
  "_format": "hh-sol-artifact-1",
  "contractName": "SortedTroves",
  "sourceName": "src/main/SortedTroves.sol",
  "abi": [
    {
      "anonymous": false,
      "inputs": [
        {
          "indexed": false,
          "internalType": "address",
          "name": "_borrowerOperationsAddress",
          "type": "address"
        }
      ],
      "name": "BorrowerOperationsAddressChanged",
      "type": "event"
    },
    {
      "anonymous": false,
      "inputs": [
        {
          "indexed": false,
          "internalType": "address",
          "name": "_id",
          "type": "address"
        },
        {
          "indexed": false,
          "internalType": "uint256",
          "name": "_ICR",
          "type": "uint256"
        }
      ],
      "name": "NodeAdded",
      "type": "event"
    },
    {
      "anonymous": false,
      "inputs": [
        {
          "indexed": false,
          "internalType": "address",
          "name": "_id",
          "type": "address"
        }
      ],
      "name": "NodeRemoved",
      "type": "event"
    },
    {
      "anonymous": false,
      "inputs": [
        {
          "indexed": true,
          "internalType": "address",
          "name": "previousOwner",
          "type": "address"
        },
        {
          "indexed": true,
          "internalType": "address",
          "name": "newOwner",
          "type": "address"
        }
      ],
      "name": "OwnershipTransferred",
      "type": "event"
    },
    {
      "anonymous": false,
      "inputs": [
        {
          "indexed": false,
          "internalType": "address",
          "name": "_sortedDoublyLLAddress",
          "type": "address"
        }
      ],
      "name": "SortedTrovesAddressChanged",
      "type": "event"
    },
    {
      "anonymous": false,
      "inputs": [
        {
          "indexed": false,
          "internalType": "address",
          "name": "_troveManagerAddress",
          "type": "address"
        }
      ],
      "name": "TroveManagerAddressChanged",
      "type": "event"
    },
    {
      "anonymous": false,
      "inputs": [
        {
          "indexed": false,
          "internalType": "address",
          "name": "_troveManagerRedemptionsAddress",
          "type": "address"
        }
      ],
      "name": "TroveManagerRedemptionsAddressChanged",
      "type": "event"
    },
    {
      "inputs": [],
      "name": "NAME",
      "outputs": [
        {
          "internalType": "bytes32",
          "name": "",
          "type": "bytes32"
        }
      ],
      "stateMutability": "view",
      "type": "function"
    },
    {
      "inputs": [
        {
          "internalType": "address",
          "name": "_id",
          "type": "address"
        }
      ],
      "name": "contains",
      "outputs": [
        {
          "internalType": "bool",
          "name": "",
          "type": "bool"
        }
      ],
      "stateMutability": "view",
      "type": "function"
    },
    {
      "inputs": [],
      "name": "data",
      "outputs": [
        {
          "internalType": "address",
          "name": "head",
          "type": "address"
        },
        {
          "internalType": "address",
          "name": "tail",
          "type": "address"
        },
        {
          "internalType": "uint256",
          "name": "maxSize",
          "type": "uint256"
        },
        {
          "internalType": "uint256",
          "name": "size",
          "type": "uint256"
        }
      ],
      "stateMutability": "view",
      "type": "function"
    },
    {
      "inputs": [
        {
          "internalType": "uint256",
          "name": "_ICR",
          "type": "uint256"
        },
        {
          "internalType": "address",
          "name": "_prevId",
          "type": "address"
        },
        {
          "internalType": "address",
          "name": "_nextId",
          "type": "address"
        }
      ],
      "name": "findInsertPosition",
      "outputs": [
        {
          "internalType": "address",
          "name": "",
          "type": "address"
        },
        {
          "internalType": "address",
          "name": "",
          "type": "address"
        }
      ],
      "stateMutability": "view",
      "type": "function"
    },
    {
      "inputs": [],
      "name": "getFirst",
      "outputs": [
        {
          "internalType": "address",
          "name": "",
          "type": "address"
        }
      ],
      "stateMutability": "view",
      "type": "function"
    },
    {
      "inputs": [],
      "name": "getLast",
      "outputs": [
        {
          "internalType": "address",
          "name": "",
          "type": "address"
        }
      ],
      "stateMutability": "view",
      "type": "function"
    },
    {
      "inputs": [],
      "name": "getMaxSize",
      "outputs": [
        {
          "internalType": "uint256",
          "name": "",
          "type": "uint256"
        }
      ],
      "stateMutability": "view",
      "type": "function"
    },
    {
      "inputs": [
        {
          "internalType": "address",
          "name": "_id",
          "type": "address"
        }
      ],
      "name": "getNext",
      "outputs": [
        {
          "internalType": "address",
          "name": "",
          "type": "address"
        }
      ],
      "stateMutability": "view",
      "type": "function"
    },
    {
      "inputs": [
        {
          "internalType": "address",
          "name": "_id",
          "type": "address"
        }
      ],
      "name": "getOldICR",
      "outputs": [
        {
          "internalType": "uint256",
          "name": "",
          "type": "uint256"
        }
      ],
      "stateMutability": "view",
      "type": "function"
    },
    {
      "inputs": [
        {
          "internalType": "address",
          "name": "_id",
          "type": "address"
        }
      ],
      "name": "getPrev",
      "outputs": [
        {
          "internalType": "address",
          "name": "",
          "type": "address"
        }
      ],
      "stateMutability": "view",
      "type": "function"
    },
    {
      "inputs": [],
      "name": "getSize",
      "outputs": [
        {
          "internalType": "uint256",
          "name": "",
          "type": "uint256"
        }
      ],
      "stateMutability": "view",
      "type": "function"
    },
    {
      "inputs": [
        {
          "internalType": "address",
          "name": "_id",
          "type": "address"
        },
        {
          "internalType": "uint256",
          "name": "_ICR",
          "type": "uint256"
        },
        {
          "internalType": "address",
          "name": "_prevId",
          "type": "address"
        },
        {
          "internalType": "address",
          "name": "_nextId",
          "type": "address"
        }
      ],
      "name": "insert",
      "outputs": [],
      "stateMutability": "nonpayable",
      "type": "function"
    },
    {
      "inputs": [],
      "name": "isEmpty",
      "outputs": [
        {
          "internalType": "bool",
          "name": "",
          "type": "bool"
        }
      ],
      "stateMutability": "view",
      "type": "function"
    },
    {
      "inputs": [],
      "name": "isFull",
      "outputs": [
        {
          "internalType": "bool",
          "name": "",
          "type": "bool"
        }
      ],
      "stateMutability": "view",
      "type": "function"
    },
    {
      "inputs": [],
      "name": "owner",
      "outputs": [
        {
          "internalType": "address",
          "name": "",
          "type": "address"
        }
      ],
      "stateMutability": "view",
      "type": "function"
    },
    {
      "inputs": [
        {
          "internalType": "address",
          "name": "_id",
          "type": "address"
        },
        {
          "internalType": "uint256",
          "name": "_newICR",
          "type": "uint256"
        },
        {
          "internalType": "address",
          "name": "_prevId",
          "type": "address"
        },
        {
          "internalType": "address",
          "name": "_nextId",
          "type": "address"
        }
      ],
      "name": "reInsert",
      "outputs": [],
      "stateMutability": "nonpayable",
      "type": "function"
    },
    {
      "inputs": [
        {
          "internalType": "address",
          "name": "_id",
          "type": "address"
        }
      ],
      "name": "remove",
      "outputs": [],
      "stateMutability": "nonpayable",
      "type": "function"
    },
    {
      "inputs": [],
      "name": "renounceOwnership",
      "outputs": [],
      "stateMutability": "nonpayable",
      "type": "function"
    },
    {
      "inputs": [
        {
          "internalType": "uint256",
          "name": "_size",
          "type": "uint256"
        },
        {
          "internalType": "address",
          "name": "_troveManagerAddress",
          "type": "address"
        },
        {
          "internalType": "address",
          "name": "_borrowerOperationsAddress",
          "type": "address"
        },
        {
          "internalType": "address",
          "name": "_troveManagerRedemptionsAddress",
          "type": "address"
        }
      ],
      "name": "setParams",
      "outputs": [],
      "stateMutability": "nonpayable",
      "type": "function"
    },
    {
      "inputs": [],
      "name": "setUp",
      "outputs": [],
      "stateMutability": "nonpayable",
      "type": "function"
    },
    {
      "inputs": [
        {
          "internalType": "address",
          "name": "newOwner",
          "type": "address"
        }
      ],
      "name": "transferOwnership",
      "outputs": [],
      "stateMutability": "nonpayable",
      "type": "function"
    },
    {
      "inputs": [
        {
          "internalType": "uint256",
          "name": "_ICR",
          "type": "uint256"
        },
        {
          "internalType": "address",
          "name": "_prevId",
          "type": "address"
        },
        {
          "internalType": "address",
          "name": "_nextId",
          "type": "address"
        }
      ],
      "name": "validInsertPosition",
      "outputs": [
        {
          "internalType": "bool",
          "name": "",
          "type": "bool"
        }
      ],
      "stateMutability": "view",
      "type": "function"
    }
  ],
  "bytecode": "0x608060405234801561001057600080fd5b50611961806100206000396000f3fe608060405234801561001057600080fd5b50600436106101425760003560e01c8063681fe70c116100b8578063a3f4df7e1161007c578063a3f4df7e146103b3578063b72703ac146103bb578063babd3d9a146103e1578063c3075044146103e9578063de8fa4311461040f578063f2fde38b1461041757610142565b8063681fe70c1461033b578063715018a61461034357806373d4a13a1461034b578063765e0159146103855780638da5cb5b146103ab57610142565b80633fce12d51161010a5780633fce12d514610215578063416980dc1461025d57806346f7cf87146102b75780634d622831146102f35780635dbe47e8146102fb57806363e1d57c1461032157610142565b80630a9254e4146101475780631e2231431461015157806329092d0e146101755780632be212601461019b5780632cf404dc146101d7575b600080fd5b61014f61043d565b005b610159610447565b604080516001600160a01b039092168252519081900360200190f35b61014f6004803603602081101561018b57600080fd5b50356001600160a01b0316610456565b61014f600480360360808110156101b157600080fd5b506001600160a01b0381358116916020810135916040820135811691606001351661046a565b61014f600480360360808110156101ed57600080fd5b508035906001600160a01b036020820135811691604081013582169160609091013516610536565b6102496004803603606081101561022b57600080fd5b508035906001600160a01b03602082013581169160400135166106e1565b604080519115158252519081900360200190f35b6102916004803603606081101561027357600080fd5b508035906001600160a01b03602082013581169160400135166106f8565b604080516001600160a01b03938416815291909216602082015281519081900390910190f35b61014f600480360360808110156102cd57600080fd5b506001600160a01b03813581169160208101359160408201358116916060013516610713565b61015961071b565b6102496004803603602081101561031157600080fd5b50356001600160a01b031661072a565b610329610748565b60408051918252519081900360200190f35b61024961074e565b61014f610755565b6103536107ef565b604080516001600160a01b03958616815293909416602084015282840191909152606082015290519081900360800190f35b6101596004803603602081101561039b57600080fd5b50356001600160a01b031661080e565b610159610831565b610329610840565b610159600480360360208110156103d157600080fd5b50356001600160a01b0316610853565b610249610874565b610329600480360360208110156103ff57600080fd5b50356001600160a01b031661087e565b61032961089c565b61014f6004803603602081101561042d57600080fd5b50356001600160a01b03166108a2565b610445610993565b565b6068546001600160a01b031690565b61045e610a44565b61046781610a5e565b50565b610472610cad565b61047b8461072a565b6104c9576040805162461bcd60e51b815260206004820152601a60248201527914dbdc9d1959151c9bdd995cce881259081b9bdd08199bdd5b9960321b604482015290519081900360640190fd5b8261051b576040805162461bcd60e51b815260206004820152601d60248201527f536f7274656454726f7665733a20494352206d75737420626520282b29000000604482015290519081900360640190fd5b61052484610a5e565b61053084848484610cf7565b50505050565b61053e6110bf565b6001600160a01b031661054f610831565b6001600160a01b031614610598576040805162461bcd60e51b815260206004820181905260248201526000805160206118ec833981519152604482015290519081900360640190fd5b836105d45760405162461bcd60e51b81526004018080602001828103825260228152602001806118766022913960400191505060405180910390fd5b6105dd836110c3565b6105e6826110c3565b6105ef816110c3565b606a849055606780546001600160a01b038086166001600160a01b0319928316811790935560658054868316908416179055606680549185169190921617905560408051918252517f143219c9e69b09e07e095fcc889b43d8f46ca892bba65f08dc3a0050869a56789181900360200190a1604080516001600160a01b038416815290517f3ca631ffcd2a9b5d9ae18543fc82f58eb4ca33af9e6ab01b7a8e95331e6ed9859181900360200190a1604080516001600160a01b038316815290517fa015fe269759ff678ebeb0a5f55330644b1a8f95eba9170688d8ec37fc47d1e49181900360200190a1610530610755565b60006106ee848484611176565b90505b9392505050565b6000806107068585856112b8565b915091505b935093915050565b610524610cad565b6069546001600160a01b031690565b6001600160a01b03166000908152606c602052604090205460ff1690565b606a5490565b606b541590565b61075d6110bf565b6001600160a01b031661076e610831565b6001600160a01b0316146107b7576040805162461bcd60e51b815260206004820181905260248201526000805160206118ec833981519152604482015290519081900360640190fd5b6033546040516000916001600160a01b03169060008051602061190c833981519152908390a3603380546001600160a01b0319169055565b606854606954606a54606b546001600160a01b03938416939092169184565b6001600160a01b039081166000908152606c602052604090205461010090041690565b6033546001600160a01b031690565b6b536f7274656454726f76657360a01b81565b6001600160a01b039081166000908152606c60205260409020600101541690565b606a54606b541490565b6001600160a01b03166000908152606c602052604090206002015490565b606b5490565b6108aa6110bf565b6001600160a01b03166108bb610831565b6001600160a01b031614610904576040805162461bcd60e51b815260206004820181905260248201526000805160206118ec833981519152604482015290519081900360640190fd5b6001600160a01b0381166109495760405162461bcd60e51b81526004018080602001828103825260268152602001806118986026913960400191505060405180910390fd5b6033546040516001600160a01b0380841692169060008051602061190c83398151915290600090a3603380546001600160a01b0319166001600160a01b0392909216919091179055565b600054610100900460ff16806109ac57506109ac6113cb565b806109ba575060005460ff16155b6109f55760405162461bcd60e51b815260040180806020018281038252602e8152602001806118be602e913960400191505060405180910390fd5b600054610100900460ff16158015610a20576000805460ff1961ff0019909116610100171660011790555b610a286113dc565b610a3061147c565b8015610467576000805461ff001916905550565b6067546001600160a01b0316331461044557610445611563565b610a678161072a565b610ab5576040805162461bcd60e51b815260206004820152601a60248201527914dbdc9d1959151c9bdd995cce881259081b9bdd08199bdd5b9960321b604482015290519081900360640190fd5b606b5460011015610bfb576068546001600160a01b0382811691161415610b24576001600160a01b038181166000908152606c6020526040808220546068805461010090920485166001600160a01b031992831617908190559093168252902060010180549091169055610bf6565b6069546001600160a01b0382811691161415610b8b576001600160a01b038082166000908152606c602052604080822060010154606980546001600160a01b03191691851691909117908190559092168152208054610100600160a81b0319169055610bf6565b6001600160a01b038082166000908152606c60205260408082208054600180830180548716865284862080546101009485900489168502610100600160a81b03199091161790555492549190910485168452919092200180546001600160a01b031916919092161790555b610c18565b606880546001600160a01b03199081169091556069805490911690555b6001600160a01b0381166000908152606c60205260408120600281019190915580546001600160a81b0319168155600190810180546001600160a01b0319169055606b54610c6b9163ffffffff6115b016565b606b55604080516001600160a01b038316815290517fcfc24166db4bb677e857cacabd1541fb2b30645021b27c5130419589b84db52b9181900360200190a150565b6065546001600160a01b03163314801590610cd357506067546001600160a01b03163314155b8015610cea57506066546001600160a01b03163314155b1561044557610445611563565b610cff610874565b15610d51576040805162461bcd60e51b815260206004820152601a60248201527f536f7274656454726f7665733a204c6973742069732066756c6c000000000000604482015290519081900360640190fd5b610d5a8461072a565b15610dac576040805162461bcd60e51b815260206004820152601c60248201527f536f7274656454726f7665733a206475706c6963617465206e6f646500000000604482015290519081900360640190fd5b6001600160a01b038416610e07576040805162461bcd60e51b815260206004820152601f60248201527f536f7274656454726f7665733a2049642063616e6e6f74206265207a65726f00604482015290519081900360640190fd5b82610e59576040805162461bcd60e51b815260206004820152601d60248201527f536f7274656454726f7665733a20494352206d75737420626520282b29000000604482015290519081900360640190fd5b8181610e66858383611176565b610e7b57610e758583836112b8565b90925090505b6001600160a01b038087166000908152606c60205260409020805460ff191660011790558216158015610eb557506001600160a01b038116155b15610eea57606880546001600160a01b0388166001600160a01b0319918216811790925560698054909116909117905561103e565b6001600160a01b038216610f5e57606880546001600160a01b038881166000818152606c6020526040808220805495851661010002610100600160a81b0319909616959095179094558454909216825291902060010180546001600160a01b0319908116831790915582541617905561103e565b6001600160a01b038116610fce57606980546001600160a01b038881166000818152606c602052604080822060010180549585166001600160a01b031996871617905585549093168152919091208054610100600160a81b0319166101008302179055825490911617905561103e565b6001600160a01b038087166000818152606c60205260408082208054858716610100818102610100600160a81b031993841617845560019384018054988b166001600160a01b0319998a168117909155865284862080549188029190931617909155835291200180549092161790555b6001600160a01b0386166000908152606c60205260409020600201859055606b5461107090600163ffffffff6115e116565b606b55604080516001600160a01b03881681526020810187905281517fe02b43adbee0c123de070a04554a71877a0007e2fc161466299cae3c094fe82f929181900390910190a1505050505050565b3390565b6001600160a01b03811661111e576040805162461bcd60e51b815260206004820152601e60248201527f4163636f756e742063616e6e6f74206265207a65726f20616464726573730000604482015290519081900360640190fd5b803b80611172576040805162461bcd60e51b815260206004820181905260248201527f4163636f756e7420636f64652073697a652063616e6e6f74206265207a65726f604482015290519081900360640190fd5b5050565b60006001600160a01b03831615801561119657506001600160a01b038216155b156111aa576111a361074e565b90506106f1565b6001600160a01b0383166111f5576068546001600160a01b0383811691161480156111a35750506001600160a01b0381166000908152606c60205260409020600201548310156106f1565b6001600160a01b038216611240576069546001600160a01b0384811691161480156111a35750506001600160a01b0382166000908152606c60205260409020600201548311156106f1565b6001600160a01b038381166000908152606c60205260409020546101009004811690831614801561128c57506001600160a01b0383166000908152606c60205260409020600201548411155b80156111a35750506001600160a01b0381166000908152606c60205260409020600201548310156106f1565b60008083836001600160a01b03821615611305576112d58261072a565b15806112fb57506001600160a01b0382166000908152606c602052604090206002015487115b1561130557600091505b6001600160a01b0381161561134c5761131d8161072a565b158061134357506001600160a01b0381166000908152606c602052604090206002015487105b1561134c575060005b6001600160a01b03821615801561136a57506001600160a01b038116155b15611391576068546113869088906001600160a01b031661162a565b93509350505061070b565b6001600160a01b0382166113a9576113868782611705565b6001600160a01b0381166113c157611386878361162a565b611386878361162a565b60006113d6306117d8565b15905090565b600054610100900460ff16806113f557506113f56113cb565b80611403575060005460ff16155b61143e5760405162461bcd60e51b815260040180806020018281038252602e8152602001806118be602e913960400191505060405180910390fd5b600054610100900460ff16158015610a30576000805460ff1961ff0019909116610100171660011790558015610467576000805461ff001916905550565b600054610100900460ff168061149557506114956113cb565b806114a3575060005460ff16155b6114de5760405162461bcd60e51b815260040180806020018281038252602e8152602001806118be602e913960400191505060405180910390fd5b600054610100900460ff16158015611509576000805460ff1961ff0019909116610100171660011790555b60006115136110bf565b603380546001600160a01b0319166001600160a01b0383169081179091556040519192509060009060008051602061190c833981519152908290a3508015610467576000805461ff001916905550565b6040805162461bcd60e51b815260206004820152601f60248201527f53543a2045787465726e616c2063616c6c6572206e6f7420616c6c6f77656400604482015290519081900360640190fd5b60006106f183836040518060400160405280600c81526020016b737562206f766572666c6f7760a01b8152506117de565b6000828201838110156106f1576040805162461bcd60e51b815260206004820152600c60248201526b616464206f766572666c6f7760a01b604482015290519081900360640190fd5b60685460009081906001600160a01b03848116911614801561166757506001600160a01b0383166000908152606c60205260409020600201548410155b15611677575060009050816116fe565b6001600160a01b038084166000908152606c60205260409020548491610100909104165b6001600160a01b038216158015906116bb57506116b9868383611176565b155b156116f857506001600160a01b039081166000908152606c602052604080822054610100908190048416808452919092205490929190041661169b565b90925090505b9250929050565b60695460009081906001600160a01b03848116911614801561174257506001600160a01b0383166000908152606c60205260409020600201548411155b15611752575081905060006116fe565b6001600160a01b038084166000908152606c60205260409020600101548491165b6001600160a01b038216158015906117935750611791868284611176565b155b156117ce57506001600160a01b039081166000908152606c602052604080822060019081015484168084529190922090910154909116611773565b9590945092505050565b3b151590565b6000818484111561186d5760405162461bcd60e51b81526004018080602001828103825283818151815260200191508051906020019080838360005b8381101561183257818101518382015260200161181a565b50505050905090810190601f16801561185f5780820380516001836020036101000a031916815260200191505b509250505060405180910390fd5b50505090039056fe536f7274656454726f7665733a2053697a652063616ee2809974206265207a65726f4f776e61626c653a206e6577206f776e657220697320746865207a65726f2061646472657373496e697469616c697a61626c653a20636f6e747261637420697320616c726561647920696e697469616c697a65644f776e61626c653a2063616c6c6572206973206e6f7420746865206f776e65728be0079c531659141344cd1fd0a4f28419497f9722a3daafe3b4186f6b6457e0a2646970667358221220eb0510aecbd0f461142a98f84abb76905f8d4c6b308fff54382918c0db11459f64736f6c634300060b0033",
  "linkReferences": {},
  "deployedLinkReferences": {}
}