{
  "_format": "hh-sol-artifact-1",
  "contractName": "TroveManagerRedemptions",
  "sourceName": "src/main/TroveManagerRedemptions.sol",
  "abi": [
    {
      "anonymous": false,
      "inputs": [
        {
          "indexed": true,
          "internalType": "address",
          "name": "previousOwner",
          "type": "address"
        },
        {
          "indexed": true,
          "internalType": "address",
          "name": "newOwner",
          "type": "address"
        }
      ],
      "name": "OwnershipTransferred",
      "type": "event"
    },
    {
      "anonymous": false,
      "inputs": [
        {
          "indexed": false,
          "internalType": "uint256",
          "name": "_attemptedCUSDAmount",
          "type": "uint256"
        },
        {
          "indexed": false,
          "internalType": "uint256",
          "name": "_actualCUSDAmount",
          "type": "uint256"
        },
        {
          "indexed": false,
          "internalType": "uint256",
          "name": "CUSDfee",
          "type": "uint256"
        },
        {
          "indexed": false,
          "internalType": "address[]",
          "name": "tokens",
          "type": "address[]"
        },
        {
          "indexed": false,
          "internalType": "uint256[]",
          "name": "amounts",
          "type": "uint256[]"
        }
      ],
      "name": "Redemption",
      "type": "event"
    },
    {
      "anonymous": false,
      "inputs": [
        {
          "indexed": true,
          "internalType": "address",
          "name": "_borrower",
          "type": "address"
        },
        {
          "indexed": false,
          "internalType": "uint256",
          "name": "_debt",
          "type": "uint256"
        },
        {
          "indexed": false,
          "internalType": "address[]",
          "name": "_tokens",
          "type": "address[]"
        },
        {
          "indexed": false,
          "internalType": "uint256[]",
          "name": "_amounts",
          "type": "uint256[]"
        },
        {
          "indexed": false,
          "internalType": "enum TroveManagerBase.TroveManagerOperation",
          "name": "operation",
          "type": "uint8"
        }
      ],
      "name": "TroveUpdated",
      "type": "event"
    },
    {
      "inputs": [],
      "name": "BETA",
      "outputs": [
        {
          "internalType": "uint256",
          "name": "",
          "type": "uint256"
        }
      ],
      "stateMutability": "view",
      "type": "function"
    },
    {
      "inputs": [],
      "name": "BOOTSTRAP_PERIOD",
      "outputs": [
        {
          "internalType": "uint256",
          "name": "",
          "type": "uint256"
        }
      ],
      "stateMutability": "view",
      "type": "function"
    },
    {
      "inputs": [],
      "name": "BORROWING_FEE_FLOOR",
      "outputs": [
        {
          "internalType": "uint256",
          "name": "",
          "type": "uint256"
        }
      ],
      "stateMutability": "view",
      "type": "function"
    },
    {
      "inputs": [],
      "name": "CCR",
      "outputs": [
        {
          "internalType": "uint256",
          "name": "",
          "type": "uint256"
        }
      ],
      "stateMutability": "view",
      "type": "function"
    },
    {
      "inputs": [],
      "name": "CUSD_GAS_COMPENSATION",
      "outputs": [
        {
          "internalType": "uint256",
          "name": "",
          "type": "uint256"
        }
      ],
      "stateMutability": "view",
      "type": "function"
    },
    {
      "inputs": [],
      "name": "DECIMAL_PRECISION",
      "outputs": [
        {
          "internalType": "uint256",
          "name": "",
          "type": "uint256"
        }
      ],
      "stateMutability": "view",
      "type": "function"
    },
    {
      "inputs": [],
      "name": "MCR",
      "outputs": [
        {
          "internalType": "uint256",
          "name": "",
          "type": "uint256"
        }
      ],
      "stateMutability": "view",
      "type": "function"
    },
    {
      "inputs": [],
      "name": "MIN_NET_DEBT",
      "outputs": [
        {
          "internalType": "uint256",
          "name": "",
          "type": "uint256"
        }
      ],
      "stateMutability": "view",
      "type": "function"
    },
    {
      "inputs": [],
      "name": "NAME",
      "outputs": [
        {
          "internalType": "bytes32",
          "name": "",
          "type": "bytes32"
        }
      ],
      "stateMutability": "view",
      "type": "function"
    },
    {
      "inputs": [],
      "name": "REDEMPTION_FEE_FLOOR",
      "outputs": [
        {
          "internalType": "uint256",
          "name": "",
          "type": "uint256"
        }
      ],
      "stateMutability": "view",
      "type": "function"
    },
    {
      "inputs": [],
      "name": "getEntireSystemColl",
      "outputs": [
        {
          "internalType": "uint256",
          "name": "",
          "type": "uint256"
        }
      ],
      "stateMutability": "view",
      "type": "function"
    },
    {
      "inputs": [],
      "name": "getEntireSystemDebt",
      "outputs": [
        {
          "internalType": "uint256",
          "name": "",
          "type": "uint256"
        }
      ],
      "stateMutability": "view",
      "type": "function"
    },
    {
      "inputs": [],
      "name": "owner",
      "outputs": [
        {
          "internalType": "address",
          "name": "",
          "type": "address"
        }
      ],
      "stateMutability": "view",
      "type": "function"
    },
    {
      "inputs": [
        {
          "internalType": "uint256",
          "name": "_CUSDamount",
          "type": "uint256"
        },
        {
          "internalType": "uint256",
          "name": "_CUSDMaxFee",
          "type": "uint256"
        },
        {
          "internalType": "address",
          "name": "_firstRedemptionHint",
          "type": "address"
        },
        {
          "internalType": "address",
          "name": "_upperPartialRedemptionHint",
          "type": "address"
        },
        {
          "internalType": "address",
          "name": "_lowerPartialRedemptionHint",
          "type": "address"
        },
        {
          "internalType": "uint256",
          "name": "_partialRedemptionHintICR",
          "type": "uint256"
        },
        {
          "internalType": "uint256",
          "name": "_maxIterations",
          "type": "uint256"
        },
        {
          "internalType": "address",
          "name": "_redeemer",
          "type": "address"
        }
      ],
      "name": "redeemCollateral",
      "outputs": [],
      "stateMutability": "nonpayable",
      "type": "function"
    },
    {
      "inputs": [
        {
          "internalType": "uint256",
          "name": "_CUSDamount",
          "type": "uint256"
        },
        {
          "internalType": "uint256",
          "name": "_CUSDMaxFee",
          "type": "uint256"
        },
        {
          "internalType": "address",
          "name": "_firstRedemptionHint",
          "type": "address"
        },
        {
          "internalType": "address",
          "name": "_upperPartialRedemptionHint",
          "type": "address"
        },
        {
          "internalType": "address",
          "name": "_lowerPartialRedemptionHint",
          "type": "address"
        },
        {
          "internalType": "uint256",
          "name": "_partialRedemptionHintRICR",
          "type": "uint256"
        },
        {
          "internalType": "address",
          "name": "_collToRedeem",
          "type": "address"
        }
      ],
      "name": "redeemCollateralSingle",
      "outputs": [],
      "stateMutability": "nonpayable",
      "type": "function"
    },
    {
      "inputs": [],
      "name": "renounceOwnership",
      "outputs": [],
      "stateMutability": "nonpayable",
      "type": "function"
    },
    {
      "inputs": [
        {
          "internalType": "address",
          "name": "_borrowerOperationsAddress",
          "type": "address"
        },
        {
          "internalType": "address",
          "name": "_activePoolAddress",
          "type": "address"
        },
        {
          "internalType": "address",
          "name": "_defaultPoolAddress",
          "type": "address"
        },
        {
          "internalType": "address",
          "name": "_stabilityPoolAddress",
          "type": "address"
        },
        {
          "internalType": "address",
          "name": "_gasPoolAddress",
          "type": "address"
        },
        {
          "internalType": "address",
          "name": "_collSurplusPoolAddress",
          "type": "address"
        },
        {
          "internalType": "address",
          "name": "_CUSDTokenAddress",
          "type": "address"
        },
        {
          "internalType": "address",
          "name": "_sortedTrovesAddress",
          "type": "address"
        },
        {
          "internalType": "address",
          "name": "_BOCTreasuryAddress",
          "type": "address"
        },
        {
          "internalType": "address",
          "name": "_whitelistAddress",
          "type": "address"
        },
        {
          "internalType": "address",
          "name": "_troveManagerAddress",
          "type": "address"
        }
      ],
      "name": "setAddresses",
      "outputs": [],
      "stateMutability": "nonpayable",
      "type": "function"
    },
    {
      "inputs": [],
      "name": "setUp",
      "outputs": [],
      "stateMutability": "nonpayable",
      "type": "function"
    },
    {
      "inputs": [
        {
          "internalType": "address",
          "name": "newOwner",
          "type": "address"
        }
      ],
      "name": "transferOwnership",
      "outputs": [],
      "stateMutability": "nonpayable",
      "type": "function"
    }
  ],
  "bytecode": "0x608060405234801561001057600080fd5b50614ae8806100206000396000f3fe608060405234801561001057600080fd5b50600436106101115760003560e01c8063795d26c3116100ad578063a3f4df7e11610071578063a3f4df7e14610274578063c2f6202d1461027c578063c35bc550146102d3578063f2fde38b146102db578063f92d34331461014a57610111565b8063795d26c3146101bc5780637985c5e4146101c4578063887105d3146102405780638da5cb5b14610248578063a20baee61461026c57610111565b8063071a7541146101165780630a9254e4146101305780631795b4051461013a5780631bf435551461014257806328d28b5b1461014a57806343338372146101525780635733d58f146101a4578063715018a6146101ac578063794e5724146101b4575b600080fd5b61011e610301565b60408051918252519081900360200190f35b610138610306565b005b61011e610310565b61011e61031d565b61011e61032a565b610138600480360360e081101561016857600080fd5b508035906020810135906001600160a01b0360408201358116916060810135821691608082013581169160a08101359160c09091013516610335565b61011e611422565b61013861142e565b61011e6114c8565b61011e6114d4565b61013860048036036101608110156101db57600080fd5b506001600160a01b038135811691602081013582169160408201358116916060810135821691608082013581169160a081013582169160c082013581169160e081013582169161010082013581169161012081013582169161014090910135166115e1565b61011e6116f6565b61025061176c565b604080516001600160a01b039092168252519081900360200190f35b61011e61177b565b61011e611787565b610138600480360361010081101561029357600080fd5b508035906020810135906001600160a01b0360408201358116916060810135821691608082013581169160a08101359160c08201359160e00135166117a5565b61011e6120b2565b610138600480360360208110156102f157600080fd5b50356001600160a01b03166120b9565b600281565b61030e6121aa565b565b6801158e460913d0000081565b6809c2007651b250000081565b6611c37937e0800081565b61033d61486a565b506040805160e0810182526001546001600160a01b03908116825260025481166020830152606a54811692820192909252606b5482166060820152606e5482166080820152606f54821660a0820152606d5490911660c082015261039f6148a6565b6103a76148e9565b6001600160a01b038089166040830152606082018690528781168252861660208201526103d48a8a612273565b6103dc612351565b6103e58a6123b5565b6103ed6114d4565b60a0830181905260408085015181516370a0823160e01b815233600482015291516001600160a01b03909116916370a08231916024808301926020929190829003018186803b15801561043f57600080fd5b505afa158015610453573d6000803e3d6000fd5b505050506040513d602081101561046957600080fd5b505111156104be576040805162461bcd60e51b815260206004820152601e60248201527f544d523a52656465656d657220435553442042616c20746f6f20686967680000604482015290519081900360640190fd5b898252608083015160408201516104d591906123fe565b6105105760405162461bcd60e51b81526004018080602001828103825260218152602001806149cc6021913960400191505060405180910390fd5b6069546040808301518151630b07655760e01b81526001600160a01b0391821660048201529151921691630b0765579160248082019260009290919082900301818387803b15801561056157600080fd5b505af1158015610575573d6000803e3d6000fd5b50505050610581614910565b606954604080840151815163d66a255360e01b81526001600160a01b0391821660048201529151600093919091169163d66a2553916024808301926020929190829003018186803b1580156105d557600080fd5b505afa1580156105e9573d6000803e3d6000fd5b505050506040513d60208110156105ff57600080fd5b5051845190915061062890610623836801158e460913d0000063ffffffff61265516565b61268d565b8252610632614937565b6069546040808601518151630d68162d60e21b81526001600160a01b03918216600482015291519216916335a058b491602480820192600092909190829003018186803b15801561068257600080fd5b505afa158015610696573d6000803e3d6000fd5b505050506040513d6000823e601f3d908101601f1916820160405260608110156106bf57600080fd5b8101908080516040519392919084600160201b8211156106de57600080fd5b9083019060208201858111156106f357600080fd5b82518660208202830111600160201b8211171561070f57600080fd5b82525081516020918201928201910280838360005b8381101561073c578181015183820152602001610724565b5050505090500160405260200180516040519392919084600160201b82111561076457600080fd5b90830190602082018581111561077957600080fd5b82518660208202830111600160201b8211171561079557600080fd5b82525081516020918201928201910280838360005b838110156107c25781810151838201526020016107aa565b505050509190910160405250505050602083015280825251600090815b8183101561082b57896001600160a01b03168460000151848151811061080157fe5b60200260200101516001600160a01b031614156108205750600161082b565b8260010192506107df565b80610875576040805162461bcd60e51b8152602060048201526015602482015274544d523a436f6c6c206e6f7420696e2074726f766560581b604482015290519081900360640190fd5b5060008054602085015180516001600160a01b039092169163cacabd27918d918790811061089f57fe5b60200260200101516040518363ffffffff1660e01b815260040180836001600160a01b03166001600160a01b031681526020018281526020019250505060206040518083038186803b1580156108f457600080fd5b505afa158015610908573d6000803e3d6000fd5b505050506040513d602081101561091e57600080fd5b5051865190915061093090829061268d565b865283516020870151528167ffffffffffffffff8111801561095157600080fd5b5060405190808252806020026020018201604052801561097b578160200160208202803683370190505b5086602001516020018190525060006109c8826109bc876020015187815181106109a157fe5b60200260200101518a600001516126a390919063ffffffff16565b9063ffffffff61270116565b90506109f481866020015186815181106109de57fe5b602002602001015161265590919063ffffffff16565b85602001518581518110610a0457fe5b602002602001018181525050808760200151602001518581518110610a2557fe5b602090810291909101015250508451610a4590859063ffffffff61265516565b93506801158e460913d00000841415610c385760695460408088015181516362a861b160e11b81526001600160a01b039182166004820152915192169163c550c3629160248082019260009290919082900301818387803b158015610aa957600080fd5b505af1158015610abd573d6000803e3d6000fd5b50506069546040808a0151815163bd5ef3f960e01b81526001600160a01b03918216600482015291519216935063bd5ef3f9925060248082019260009290919082900301818387803b158015610b1257600080fd5b505af1158015610b26573d6000803e3d6000fd5b50505050610b4c8887604001516801158e460913d000008660000151876020015161272e565b60408051600080825260208201818152828401808552938a0151828552929390926001600160a01b031691600080516020614a2d8339815191529185908590600390606084016080850160a086018460ff168152602001838103835286818151815260200191508051906020019060200280838360005b83811015610bdb578181015183820152602001610bc3565b50505050905001838103825285818151815260200191508051906020019060200280838360005b83811015610c1a578181015183820152602001610c02565b50505050905001965050505050505060405180910390a25050611022565b6000610c448486612a0a565b6060880151909150610c639066470de4df82000063ffffffff612a2216565b81101580610c8c57506060870151610c889066470de4df82000063ffffffff61265516565b8111155b80610ca757506809c2007651b2500000610ca586612a6b565b105b15610ce35760405162461bcd60e51b815260040180806020018281038252603c815260200180614a77603c913960400191505060405180910390fd5b6080890151604080890151895160208b0151835163015f109360e51b81526001600160a01b039384166004820152602481018790529183166044830152821660648201529151921691632be212609160848082019260009290919082900301818387803b158015610d5357600080fd5b505af1158015610d67573d6000803e3d6000fd5b50506069546040808b015181516331bafd9b60e01b81526001600160a01b039182166004820152602481018b90529151921693506331bafd9b925060448082019260009290919082900301818387803b158015610dc357600080fd5b505af1158015610dd7573d6000803e3d6000fd5b50506069546040808b015188516020808b0151935163030877f160e31b81526001600160a01b0384811660048301908152606060248401908152855160648501528551929098169950631843bf88985094969395949392604483019260840191818801910280838360005b83811015610e5a578181015183820152602001610e42565b50505050905001838103825284818151815260200191508051906020019060200280838360005b83811015610e99578181015183820152602001610e81565b5050505090500195505050505050600060405180830381600087803b158015610ec157600080fd5b505af1158015610ed5573d6000803e3d6000fd5b50506069546040808b01518151630c7940bd60e11b81526001600160a01b0391821660048201529151921693506318f2817a925060248082019260009290919082900301818387803b158015610f2a57600080fd5b505af1158015610f3e573d6000803e3d6000fd5b5050505086604001516001600160a01b0316600080516020614a2d83398151915286866000015187602001516003604051808581526020018060200180602001846003811115610f8a57fe5b60ff168152602001838103835286818151815260200191508051906020019060200280838360005b83811015610fca578181015183820152602001610fb2565b50505050905001838103825285818151815260200191508051906020019060200280838360005b83811015611009578181015183820152602001610ff1565b50505050905001965050505050505060405180910390a2505b84516020808901919091528501516040880181905261104090612a8e565b61108c576040805162461bcd60e51b81526020600482015260186024820152772a26a91d103737b7103d32b9379031b7b63639a23930bbb760411b604482015290519081900360640190fd5b61109e87602001518860a00151612add565b506110ac8760200151612c25565b60608801819052604089015188516110d49233916110cf9163ffffffff612a2216565b612caa565b6110e287606001518f612d80565b61110e33896060015189606001518b604001516001600160a01b0316612dd4909392919063ffffffff16565b7f7335fe3ff0d234203ba5c8aac0cb19ed9bc9651b015ffcbcca39e73531b32e8d8760000151886020015189606001518a60400151600001518b6040015160200151604051808681526020018581526020018481526020018060200180602001838103835285818151815260200191508051906020019060200280838360005b838110156111a657818101518382015260200161118e565b50505050905001838103825284818151815260200191508051906020019060200280838360005b838110156111e55781810151838201526020016111cd565b5050505090500197505050505050505060405180910390a187604001516001600160a01b0316639dc29fac3389602001516040518363ffffffff1660e01b815260040180836001600160a01b03166001600160a01b0316815260200182815260200192505050600060405180830381600087803b15801561126557600080fd5b505af1158015611279573d6000803e3d6000fd5b5050505087600001516001600160a01b0316633b036ced88602001516040518263ffffffff1660e01b815260040180828152602001915050600060405180830381600087803b1580156112cb57600080fd5b505af11580156112df573d6000803e3d6000fd5b5050505087600001516001600160a01b0316633733a1338760400151338a60400151600001518b60400151602001516040518563ffffffff1660e01b815260040180856001600160a01b03166001600160a01b03168152602001846001600160a01b03166001600160a01b031681526020018060200180602001838103835285818151815260200191508051906020019060200280838360005b83811015611391578181015183820152602001611379565b50505050905001838103825284818151815260200191508051906020019060200280838360005b838110156113d05781810151838201526020016113b8565b505050509050019650505050505050600060405180830381600087803b1580156113f957600080fd5b505af115801561140d573d6000803e3d6000fd5b50505050505050505050505050505050505050565b6714d1120d7b16000081565b611436612e34565b6001600160a01b031661144761176c565b6001600160a01b031614611490576040805162461bcd60e51b815260206004820181905260248201526000805160206149ed833981519152604482015290519081900360640190fd5b6035546040516000916001600160a01b031690600080516020614a0d833981519152908390a3603580546001600160a01b0319169055565b670f43fc2c04ee000081565b600080600160009054906101000a90046001600160a01b03166001600160a01b03166310ec1f526040518163ffffffff1660e01b815260040160206040518083038186803b15801561152557600080fd5b505afa158015611539573d6000803e3d6000fd5b505050506040513d602081101561154f57600080fd5b5051600254604080516308760fa960e11b815290519293506000926001600160a01b03909216916310ec1f5291600480820192602092909190829003018186803b15801561159c57600080fd5b505afa1580156115b0573d6000803e3d6000fd5b505050506040513d60208110156115c657600080fd5b505190506115da828263ffffffff612a2216565b9250505090565b6115e9612e34565b6001600160a01b03166115fa61176c565b6001600160a01b031614611643576040805162461bcd60e51b815260206004820181905260248201526000805160206149ed833981519152604482015290519081900360640190fd5b606780546001600160a01b03199081166001600160a01b038e8116919091179092556001805482168d84161790556002805482168c84161790556068805482168b8416179055600080548216858416179055606d805482168a8416179055606f80548216898416179055606a80548216888416179055606e80548216878416179055606b80548216868416179055606980549091169183169190911790556116e961142e565b5050505050505050505050565b60015460408051631944d03160e21b815290516000926001600160a01b03169163651340c4916004808301926020929190829003018186803b15801561173b57600080fd5b505afa15801561174f573d6000803e3d6000fd5b505050506040513d602081101561176557600080fd5b5051905090565b6035546001600160a01b031690565b670de0b6b3a764000081565b7654726f76654d616e61676572526564656d7074696f6e7360481b81565b6117ad612e38565b6117b561486a565b506040805160e0810182526001546001600160a01b03908116825260025481166020830152606a54811692820192909252606b5482166060820152606e5482166080820152606f54821660a0820152606d5490911660c08201526118176148a6565b6118218a8a612273565b611829612351565b6118328a6123b5565b61183a6114d4565b60a0820181905260408084015181516370a0823160e01b81526001600160a01b038781166004830152925192909116916370a0823191602480820192602092909190829003018186803b15801561189057600080fd5b505afa1580156118a4573d6000803e3d6000fd5b505050506040513d60208110156118ba57600080fd5b5051111561190f576040805162461bcd60e51b815260206004820152601e60248201527f544d523a2072656465656d65722062616c616e636520746f6f20686967680000604482015290519081900360640190fd5b8981526080820151600090611924908a6123fe565b15611930575087611ac7565b82608001516001600160a01b0316634d6228316040518163ffffffff1660e01b815260040160206040518083038186803b15801561196d57600080fd5b505afa158015611981573d6000803e3d6000fd5b505050506040513d602081101561199757600080fd5b505190505b6001600160a01b03811615801590611a35575060695460408051630ae817f360e11b81526001600160a01b0384811660048301529151670f43fc2c04ee00009392909216916315d02fe691602480820192602092909190829003018186803b158015611a0757600080fd5b505afa158015611a1b573d6000803e3d6000fd5b505050506040513d6020811015611a3157600080fd5b5051105b15611ac75782608001516001600160a01b031663b72703ac826040518263ffffffff1660e01b815260040180826001600160a01b03166001600160a01b0316815260200191505060206040518083038186803b158015611a9457600080fd5b505afa158015611aa8573d6000803e3d6000fd5b505050506040513d6020811015611abe57600080fd5b5051905061199c565b84611ad25760001994505b6001600160a01b03811615801590611aea5750815115155b8015611af557508415155b15611cfd57848060019003955050600083608001516001600160a01b031663b72703ac836040518263ffffffff1660e01b815260040180826001600160a01b03166001600160a01b0316815260200191505060206040518083038186803b158015611b5f57600080fd5b505afa158015611b73573d6000803e3d6000fd5b505050506040513d6020811015611b8957600080fd5b505160695460408051630ae817f360e11b81526001600160a01b0386811660048301529151939450670f43fc2c04ee00009391909216916315d02fe6916024808301926020929190829003018186803b158015611be557600080fd5b505afa158015611bf9573d6000803e3d6000fd5b505050506040513d6020811015611c0f57600080fd5b505110611cf65760695460408051630b07655760e01b81526001600160a01b03858116600483015291519190921691630b07655791602480830192600092919082900301818387803b158015611c6457600080fd5b505af1158015611c78573d6000803e3d6000fd5b50505050611c84614910565b611c96858486600001518d8d8d612e8b565b9050806040015115611ca9575050611cfd565b80516020850151611cbf9163ffffffff612a2216565b846020018181525050611cda84604001518260200151613a15565b604085015280518451611cf29163ffffffff61265516565b8452505b9050611ad2565b611d0a8260400151612a8e565b611d4e576040805162461bcd60e51b815260206004820152601060248201526f2a26a91d3737a1b7b63639a23930bbb760811b604482015290519081900360640190fd5b611d6082602001518360a00151612add565b50611d6e8260200151612c25565b606083018190526040840151611d919186906110cf908f9063ffffffff612a2216565b611d9f82606001518b612d80565b611dcb848460600151846060015186604001516001600160a01b0316612dd4909392919063ffffffff16565b7f7335fe3ff0d234203ba5c8aac0cb19ed9bc9651b015ffcbcca39e73531b32e8d8b83602001518460600151856040015160000151866040015160200151604051808681526020018581526020018481526020018060200180602001838103835285818151815260200191508051906020019060200280838360005b83811015611e5f578181015183820152602001611e47565b50505050905001838103825284818151815260200191508051906020019060200280838360005b83811015611e9e578181015183820152602001611e86565b5050505090500197505050505050505060405180910390a182604001516001600160a01b0316639dc29fac8584602001516040518363ffffffff1660e01b815260040180836001600160a01b03166001600160a01b0316815260200182815260200192505050600060405180830381600087803b158015611f1e57600080fd5b505af1158015611f32573d6000803e3d6000fd5b5050505082600001516001600160a01b0316633b036ced83602001516040518263ffffffff1660e01b815260040180828152602001915050600060405180830381600087803b158015611f8457600080fd5b505af1158015611f98573d6000803e3d6000fd5b5050845160408086015180516020918201519251633733a13360e01b815230600482018181526001600160a01b038d81166024850152608060448501908152855160848601528551919098169950633733a133985091968d96949591939092606482019260a490920191808801910280838360005b8381101561202557818101518382015260200161200d565b50505050905001838103825284818151815260200191508051906020019060200280838360005b8381101561206457818101518382015260200161204c565b505050509050019650505050505050600060405180830381600087803b15801561208d57600080fd5b505af11580156120a1573d6000803e3d6000fd5b505050505050505050505050505050565b6212750081565b6120c1612e34565b6001600160a01b03166120d261176c565b6001600160a01b03161461211b576040805162461bcd60e51b815260206004820181905260248201526000805160206149ed833981519152604482015290519081900360640190fd5b6001600160a01b0381166121605760405162461bcd60e51b81526004018080602001828103825260268152602001806149526026913960400191505060405180910390fd5b6035546040516001600160a01b03808416921690600080516020614a0d83398151915290600090a3603580546001600160a01b0319166001600160a01b0392909216919091179055565b600254600160a81b900460ff16806121c557506121c5613f79565b806121da5750600254600160a01b900460ff16155b6122155760405162461bcd60e51b815260040180806020018281038252602e81526020018061499e602e913960400191505060405180910390fd5b600254600160a81b900460ff1615801561224c576002805460ff60a01b1960ff60a81b19909116600160a81b1716600160a01b1790555b612254613f8a565b61225c614041565b8015612270576002805460ff60a81b191690555b50565b6000612291836109bc84670de0b6b3a764000063ffffffff6126a316565b90506611c37937e080008110156122ef576040805162461bcd60e51b815260206004820152601b60248201527f544d523a50617373656420696e206d617820666565203c302e35250000000000604482015290519081900360640190fd5b670de0b6b3a764000081111561234c576040805162461bcd60e51b815260206004820152601b60248201527f544d523a50617373656420696e206d617820666565203e313030250000000000604482015290519081900360640190fd5b505050565b670f43fc2c04ee000061236261413f565b101561030e576040805162461bcd60e51b815260206004820152601f60248201527f544d523a2043616e6e6f742072656465656d207768656e205443523c4d435200604482015290519081900360640190fd5b80612270576040805162461bcd60e51b81526020600482015260146024820152731513548e94995c539bdb9e995c9bd05b5bdd5b9d60621b604482015290519081900360640190fd5b60006001600160a01b03821615806124955750826001600160a01b0316635dbe47e8836040518263ffffffff1660e01b815260040180826001600160a01b03166001600160a01b0316815260200191505060206040518083038186803b15801561246757600080fd5b505afa15801561247b573d6000803e3d6000fd5b505050506040513d602081101561249157600080fd5b5051155b80612521575060695460408051630ae817f360e11b81526001600160a01b0385811660048301529151670f43fc2c04ee00009392909216916315d02fe691602480820192602092909190829003018186803b1580156124f357600080fd5b505afa158015612507573d6000803e3d6000fd5b505050506040513d602081101561251d57600080fd5b5051105b1561252e5750600061264f565b6000836001600160a01b031663765e0159846040518263ffffffff1660e01b815260040180826001600160a01b03166001600160a01b0316815260200191505060206040518083038186803b15801561258657600080fd5b505afa15801561259a573d6000803e3d6000fd5b505050506040513d60208110156125b057600080fd5b505190506001600160a01b038116158061264b5750606954604080516327fb7d8960e01b81526001600160a01b0384811660048301529151670f43fc2c04ee00009392909216916327fb7d8991602480820192602092909190829003018186803b15801561261d57600080fd5b505afa158015612631573d6000803e3d6000fd5b505050506040513d602081101561264757600080fd5b5051105b9150505b92915050565b600061268683836040518060400160405280600c81526020016b737562206f766572666c6f7760a01b8152506141cb565b9392505050565b600081831061269c5781612686565b5090919050565b6000826126b25750600061264f565b828202828482816126bf57fe5b0414612686576040805162461bcd60e51b815260206004820152600c60248201526b6d756c206f766572666c6f7760a01b604482015290519081900360640190fd5b6000612686838360405180604001604052806008815260200167064697620627920360c41b815250614262565b604080860151606d548251632770a7eb60e21b81526001600160a01b039182166004820152602481018790529251911691639dc29fac91604480830192600092919082900301818387803b15801561278557600080fd5b505af1158015612799573d6000803e3d6000fd5b5050505084600001516001600160a01b0316633b036ced846040518263ffffffff1660e01b815260040180828152602001915050600060405180830381600087803b1580156127e757600080fd5b505af11580156127fb573d6000803e3d6000fd5b505050508460a001516001600160a01b0316639efc9e208584846040518463ffffffff1660e01b815260040180846001600160a01b03166001600160a01b031681526020018060200180602001838103835285818151815260200191508051906020019060200280838360005b83811015612880578181015183820152602001612868565b50505050905001838103825284818151815260200191508051906020019060200280838360005b838110156128bf5781810151838201526020016128a7565b5050505090500195505050505050600060405180830381600087803b1580156128e757600080fd5b505af11580156128fb573d6000803e3d6000fd5b5050505084600001516001600160a01b031663d0d8c20d8660a0015184846040518463ffffffff1660e01b815260040180846001600160a01b03166001600160a01b031681526020018060200180602001838103835285818151815260200191508051906020019060200280838360005b8381101561298457818101518382015260200161296c565b50505050905001838103825284818151815260200191508051906020019060200280838360005b838110156129c35781810151838201526020016129ab565b5050505090500195505050505050600060405180830381600087803b1580156129eb57600080fd5b505af11580156129ff573d6000803e3d6000fd5b505050505050505050565b600080612a16846142c7565b905061264b81846143c9565b600082820183811015612686576040805162461bcd60e51b815260206004820152600c60248201526b616464206f766572666c6f7760a01b604482015290519081900360640190fd5b6000612a86826801158e460913d0000063ffffffff61265516565b90505b919050565b602081015151600090815b81811015612ad35783602001518181518110612ab157fe5b6020026020010151600014612acb57600192505050612a89565b600101612a99565b5060009392505050565b600080606960009054906101000a90046001600160a01b03166001600160a01b031663459799786040518163ffffffff1660e01b815260040160206040518083038186803b158015612b2e57600080fd5b505afa158015612b42573d6000803e3d6000fd5b505050506040513d6020811015612b5857600080fd5b505190506000612b7a846109bc87670de0b6b3a764000063ffffffff6126a316565b90506000612b9f612b9283600263ffffffff61270116565b849063ffffffff612a2216565b9050612bb381670de0b6b3a764000061268d565b6069546040805163198141d560e11b81526004810184905290519293506001600160a01b039091169163330283aa9160248082019260009290919082900301818387803b158015612c0357600080fd5b505af1158015612c17573d6000803e3d6000fd5b509298975050505050505050565b6000612a86606960009054906101000a90046001600160a01b03166001600160a01b0316632b11551a6040518163ffffffff1660e01b815260040160206040518083038186803b158015612c7857600080fd5b505afa158015612c8c573d6000803e3d6000fd5b505050506040513d6020811015612ca257600080fd5b505183614401565b80836001600160a01b03166370a08231846040518263ffffffff1660e01b815260040180826001600160a01b03166001600160a01b0316815260200191505060206040518083038186803b158015612d0157600080fd5b505afa158015612d15573d6000803e3d6000fd5b505050506040513d6020811015612d2b57600080fd5b5051101561234c576040805162461bcd60e51b815260206004820152601b60248201527f544d523a496e73756666696369656e744355534442616c616e63650000000000604482015290519081900360640190fd5b80821115612dd0576040805162461bcd60e51b8152602060048201526018602482015277544d523a55736572206d757374206163636570742066656560401b604482015290519081900360640190fd5b5050565b604080516001600160a01b0380861660248301528416604482015260648082018490528251808303909101815260849091019091526020810180516001600160e01b03166323b872dd60e01b179052612e2e908590614470565b50505050565b3390565b6069546001600160a01b0316331461030e576040805162461bcd60e51b8152602060048201526011602482015270544d523a43616c6c6572206e6f7420544d60781b604482015290519081900360640190fd5b612e93614910565b6069546040805163d66a255360e01b81526001600160a01b0389811660048301529151612f2d938993610623936801158e460913d0000093919092169163d66a2553916024808301926020929190829003018186803b158015612ef557600080fd5b505afa158015612f09573d6000803e3d6000fd5b505050506040513d6020811015612f1f57600080fd5b50519063ffffffff61265516565b8152612f37614937565b60695460408051630d68162d60e21b81526001600160a01b038a81166004830152915160009392909216916335a058b4916024808201928692909190829003018186803b158015612f8757600080fd5b505afa158015612f9b573d6000803e3d6000fd5b505050506040513d6000823e601f3d908101601f191682016040526060811015612fc457600080fd5b8101908080516040519392919084600160201b821115612fe357600080fd5b908301906020820185811115612ff857600080fd5b82518660208202830111600160201b8211171561301457600080fd5b82525081516020918201928201910280838360005b83811015613041578181015183820152602001613029565b5050505090500160405260200180516040519392919084600160201b82111561306957600080fd5b90830190602082018581111561307e57600080fd5b82518660208202830111600160201b8211171561309a57600080fd5b82525081516020918201928201910280838360005b838110156130c75781810151838201526020016130af565b505050509190910160405250602090810151908701939093525050818452905190915060608167ffffffffffffffff8111801561310357600080fd5b5060405190808252806020026020018201604052801561312d578160200160208202803683370190505b50845160208701515290508167ffffffffffffffff8111801561314f57600080fd5b50604051908082528060200260200182016040528015613179578160200160208202803683370190505b506020808701510152600061318d85614522565b86519091506000906131ad90670de0b6b3a764000063ffffffff6126a316565b905060005b848110156133985760006131f6670de0b6b3a76400006109bc866109bc8c6020015187815181106131df57fe5b6020026020010151886126a390919063ffffffff16565b905061320c81896020015184815181106109de57fe5b85838151811061321857fe5b60200260200101818152505080896020015160200151838151811061323957fe5b6020908102919091010152600054885180516001600160a01b039092169163495ee13e91908590811061326857fe5b60200260200101516040518263ffffffff1660e01b815260040180826001600160a01b03166001600160a01b0316815260200191505060206040518083038186803b1580156132b657600080fd5b505afa1580156132ca573d6000803e3d6000fd5b505050506040513d60208110156132e057600080fd5b50511561338f5787518051839081106132f557fe5b60200260200101516001600160a01b0316632c8e8dfa8f30846040518463ffffffff1660e01b815260040180846001600160a01b03166001600160a01b03168152602001836001600160a01b03166001600160a01b031681526020018281526020019350505050600060405180830381600087803b15801561337657600080fd5b505af115801561338a573d6000803e3d6000fd5b505050505b506001016131b2565b50508551600091506133b190859063ffffffff61265516565b90506801158e460913d000008114156135b157606954604080516362a861b160e11b81526001600160a01b038e811660048301529151919092169163c550c36291602480830192600092919082900301818387803b15801561341257600080fd5b505af1158015613426573d6000803e3d6000fd5b50505050606960009054906101000a90046001600160a01b03166001600160a01b031663bd5ef3f98c6040518263ffffffff1660e01b815260040180826001600160a01b03166001600160a01b03168152602001915050600060405180830381600087803b15801561349757600080fd5b505af11580156134ab573d6000803e3d6000fd5b505050506134c98c8c6801158e460913d0000088600001518661272e565b604080516000808252602082018181528284019384905281845291926001600160a01b038f1691600080516020614a2d8339815191529185908590600390606084016080850160a086018460ff168152602001838103835286818151815260200191508051906020019060200280838360005b8381101561355457818101518382015260200161353c565b50505050905001838103825285818151815260200191508051906020019060200280838360005b8381101561359357818101518382015260200161357b565b50505050905001965050505050505060405180910390a25050613a05565b60006135ca6135c487600001518561458b565b836143c9565b90506135e38866470de4df82000063ffffffff612a2216565b8110158061360757506136038866470de4df82000063ffffffff61265516565b8111155b8061362257506809c2007651b250000061362083612a6b565b105b1561363a5750506001604086015250613a0b92505050565b60808d01516040805163015f109360e51b81526001600160a01b038f81166004830152602482018590528d811660448301528c8116606483015291519190921691632be2126091608480830192600092919082900301818387803b1580156136a157600080fd5b505af11580156136b5573d6000803e3d6000fd5b50505050606960009054906101000a90046001600160a01b03166001600160a01b03166331bafd9b8d846040518363ffffffff1660e01b815260040180836001600160a01b03166001600160a01b0316815260200182815260200192505050600060405180830381600087803b15801561372e57600080fd5b505af1158015613742573d6000803e3d6000fd5b5050875151955060009150505b8481101561378e5783818151811061376357fe5b60200260200101518760200151828151811061377b57fe5b602090810291909101015260010161374f565b50606960009054906101000a90046001600160a01b03166001600160a01b0316631843bf888d886000015189602001516040518463ffffffff1660e01b815260040180846001600160a01b03166001600160a01b031681526020018060200180602001838103835285818151815260200191508051906020019060200280838360005b83811015613829578181015183820152602001613811565b50505050905001838103825284818151815260200191508051906020019060200280838360005b83811015613868578181015183820152602001613850565b5050505090500195505050505050600060405180830381600087803b15801561389057600080fd5b505af11580156138a4573d6000803e3d6000fd5b50505050606960009054906101000a90046001600160a01b03166001600160a01b03166318f2817a8d6040518263ffffffff1660e01b815260040180826001600160a01b03166001600160a01b03168152602001915050600060405180830381600087803b15801561391557600080fd5b505af1158015613929573d6000803e3d6000fd5b505050508b6001600160a01b0316600080516020614a2d83398151915283886000015186600360405180858152602001806020018060200184600381111561396d57fe5b60ff168152602001838103835286818151815260200191508051906020019060200280838360005b838110156139ad578181015183820152602001613995565b50505050905001838103825285818151815260200191508051906020019060200280838360005b838110156139ec5781810151838201526020016139d4565b50505050905001965050505050505060405180910390a2505b50505050505b9695505050505050565b613a1d614937565b81515180613a2e578391505061264f565b613a36614937565b6000805460408051634eb5750560e11b815290516001600160a01b0390921692639d6aea0a92600480840193829003018186803b158015613a7657600080fd5b505afa158015613a8a573d6000803e3d6000fd5b505050506040513d6000823e601f3d908101601f191682016040526020811015613ab357600080fd5b8101908080516040519392919084600160201b821115613ad257600080fd5b908301906020820185811115613ae757600080fd5b82518660208202830111600160201b82111715613b0357600080fd5b82525081516020918201928201910280838360005b83811015613b30578181015183820152602001613b18565b50505050919091016040525050508183525085515190518067ffffffffffffffff81118015613b5e57600080fd5b50604051908082528060200260200182016040528015613b88578160200160208202803683370190505b5060208401526000805b83811015613ca257600080548a5180516001600160a01b039092169163b31610db919085908110613bbf57fe5b60200260200101516040518263ffffffff1660e01b815260040180826001600160a01b03166001600160a01b0316815260200191505060206040518083038186803b158015613c0d57600080fd5b505afa158015613c21573d6000803e3d6000fd5b505050506040513d6020811015613c3757600080fd5b505160208b015180519192509083908110613c4e57fe5b6020026020010151600014613c995760208a0151805160019094019383908110613c7457fe5b602002602001015186602001518281518110613c8c57fe5b6020026020010181815250505b50600101613b92565b5060005b85811015613e365760008054895180516001600160a01b039092169163b31610db919085908110613cd357fe5b60200260200101516040518263ffffffff1660e01b815260040180826001600160a01b03166001600160a01b0316815260200191505060206040518083038186803b158015613d2157600080fd5b505afa158015613d35573d6000803e3d6000fd5b505050506040513d6020811015613d4b57600080fd5b505160208a015180519192509083908110613d6257fe5b6020026020010151600014613e2d5785602001518181518110613d8157fe5b602002602001015160001415613dcf5788602001518281518110613da157fe5b602002602001015186602001518281518110613db957fe5b6020908102919091010152600190920191613e2d565b613e1089602001518381518110613de257fe5b602002602001015187602001518381518110613dfa57fe5b6020026020010151612a2290919063ffffffff16565b86602001518281518110613e2057fe5b6020026020010181815250505b50600101613ca6565b5060608167ffffffffffffffff81118015613e5057600080fd5b50604051908082528060200260200182016040528015613e7a578160200160208202803683370190505b50905060608267ffffffffffffffff81118015613e9657600080fd5b50604051908082528060200260200182016040528015613ec0578160200160208202803683370190505b5090506000805b85811015613f645787602001518181518110613edf57fe5b6020026020010151600014613f5c578751805182908110613efc57fe5b6020026020010151848381518110613f1057fe5b6001600160a01b03909216602092830291909101820152880151805182908110613f3657fe5b6020026020010151838381518110613f4a57fe5b60209081029190910101526001909101905b600101613ec7565b50509087526020870152505050505092915050565b6000613f843061468b565b15905090565b600254600160a81b900460ff1680613fa55750613fa5613f79565b80613fba5750600254600160a01b900460ff16155b613ff55760405162461bcd60e51b815260040180806020018281038252602e81526020018061499e602e913960400191505060405180910390fd5b600254600160a81b900460ff1615801561225c576002805460ff60a01b1960ff60a81b19909116600160a81b1716600160a01b1790558015612270576002805460ff60a81b1916905550565b600254600160a81b900460ff168061405c575061405c613f79565b806140715750600254600160a01b900460ff16155b6140ac5760405162461bcd60e51b815260040180806020018281038252602e81526020018061499e602e913960400191505060405180910390fd5b600254600160a81b900460ff161580156140e3576002805460ff60a01b1960ff60a81b19909116600160a81b1716600160a01b1790555b60006140ed612e34565b603580546001600160a01b0319166001600160a01b03831690811790915560405191925090600090600080516020614a0d833981519152908290a3508015612270576002805460ff60a81b1916905550565b60015460408051632890851960e21b8152815160009384936001600160a01b039091169263a24214649260048083019392829003018186803b15801561418457600080fd5b505afa158015614198573d6000803e3d6000fd5b505050506040513d60408110156141ae57600080fd5b5060200151905060006141bf6114d4565b90506115da82826143c9565b6000818484111561425a5760405162461bcd60e51b81526004018080602001828103825283818151815260200191508051906020019080838360005b8381101561421f578181015183820152602001614207565b50505050905090810190601f16801561424c5780820380516001836020036101000a031916815260200191505b509250505060405180910390fd5b505050900390565b600081836142b15760405162461bcd60e51b815260206004820181815283516024840152835190928392604490910191908501908083836000831561421f578181015183820152602001614207565b5060008385816142bd57fe5b0495945050505050565b6000805482516020808501516040805163617ddfff60e01b8152600481019182528451604482015284516001600160a01b039096169563617ddfff95948392602481019260649091019180880191028083838d5b8381101561433357818101518382015260200161431b565b50505050905001838103825284818151815260200191508051906020019060200280838360005b8381101561437257818101518382015260200161435a565b5050505090500194505050505060206040518083038186803b15801561439757600080fd5b505afa1580156143ab573d6000803e3d6000fd5b505050506040513d60208110156143c157600080fd5b505192915050565b600081156143f85760006143ef836109bc86670de0b6b3a764000063ffffffff6126a316565b915061264f9050565b5060001961264f565b600080614420670de0b6b3a76400006109bc868663ffffffff6126a316565b9050828110612686576040805162461bcd60e51b815260206004820152601760248201527615134e88119959480f8810d554d10814995919595b5959604a1b604482015290519081900360640190fd5b60606144c5826040518060400160405280602081526020017f5361666545524332303a206c6f772d6c6576656c2063616c6c206661696c6564815250856001600160a01b03166146919092919063ffffffff16565b9050805160001461234c578080602001905160208110156144e557600080fd5b505161234c5760405162461bcd60e51b815260040180806020018281038252602a815260200180614a4d602a913960400191505060405180910390fd5b60008054825160208085015160408051631d8e148360e11b8152600481019182528451604482015284516001600160a01b0390961695633b1c290695948392602481019260649091019180880191028083838d831561433357818101518382015260200161431b565b600080546040805163617ddfff60e01b8152600481019182528551604482015285516001600160a01b039093169263617ddfff928792879282916024810191606490910190602080880191028083838d5b838110156145f45781810151838201526020016145dc565b50505050905001838103825284818151815260200191508051906020019060200280838360005b8381101561463357818101518382015260200161461b565b5050505090500194505050505060206040518083038186803b15801561465857600080fd5b505afa15801561466c573d6000803e3d6000fd5b505050506040513d602081101561468257600080fd5b50519392505050565b3b151590565b60606146a084846000856146a8565b949350505050565b6060824710156146e95760405162461bcd60e51b81526004018080602001828103825260268152602001806149786026913960400191505060405180910390fd5b6146f28561468b565b614743576040805162461bcd60e51b815260206004820152601d60248201527f416464726573733a2063616c6c20746f206e6f6e2d636f6e7472616374000000604482015290519081900360640190fd5b60006060866001600160a01b031685876040518082805190602001908083835b602083106147825780518252601f199092019160209182019101614763565b6001836020036101000a03801982511681845116808217855250505050505090500191505060006040518083038185875af1925050503d80600081146147e4576040519150601f19603f3d011682016040523d82523d6000602084013e6147e9565b606091505b50915091506147f9828286614804565b979650505050505050565b60608315614813575081612686565b8251156148235782518084602001fd5b60405162461bcd60e51b815260206004820181815284516024840152845185939192839260440191908501908083836000831561421f578181015183820152602001614207565b6040805160e081018252600080825260208201819052918101829052606081018290526080810182905260a0810182905260c081019190915290565b6040518060e0016040528060008152602001600081526020016148c7614937565b8152602001600081526020016000815260200160008152602001600081525090565b60408051608081018252600080825260208201819052918101829052606081019190915290565b60405180606001604052806000815260200161492a614937565b8152600060209091015290565b60405180604001604052806060815260200160608152509056fe4f776e61626c653a206e6577206f776e657220697320746865207a65726f2061646472657373416464726573733a20696e73756666696369656e742062616c616e636520666f722063616c6c496e697469616c697a61626c653a20636f6e747261637420697320616c726561647920696e697469616c697a6564544d523a496e76616c696420666972737420726564656d7074696f6e2068696e744f776e61626c653a2063616c6c6572206973206e6f7420746865206f776e65728be0079c531659141344cd1fd0a4f28419497f9722a3daafe3b4186f6b6457e098c96bbf8d2aa6be678259387225d169084fca483ed9598bde8ea258036bcacf5361666545524332303a204552433230206f7065726174696f6e20646964206e6f742073756363656564496e76616c6964207061727469616c20726564656d7074696f6e2068696e74206f722072656d61696e696e67206465627420697320746f6f206c6f77a2646970667358221220524cdc9406100832b4bea059e1e6536fed9a61fce525183da97e1034734ebc3d64736f6c634300060b0033",
  "linkReferences": {},
  "deployedLinkReferences": {}
}