{
  "_format": "hh-sol-artifact-1",
  "contractName": "PoolBase",
  "sourceName": "src/main/Dependencies/PoolBase.sol",
  "abi": [
    {
      "inputs": [],
      "name": "BORROWING_FEE_FLOOR",
      "outputs": [
        {
          "internalType": "uint256",
          "name": "",
          "type": "uint256"
        }
      ],
      "stateMutability": "view",
      "type": "function"
    },
    {
      "inputs": [],
      "name": "CCR",
      "outputs": [
        {
          "internalType": "uint256",
          "name": "",
          "type": "uint256"
        }
      ],
      "stateMutability": "view",
      "type": "function"
    },
    {
      "inputs": [],
      "name": "CUSD_GAS_COMPENSATION",
      "outputs": [
        {
          "internalType": "uint256",
          "name": "",
          "type": "uint256"
        }
      ],
      "stateMutability": "view",
      "type": "function"
    },
    {
      "inputs": [],
      "name": "DECIMAL_PRECISION",
      "outputs": [
        {
          "internalType": "uint256",
          "name": "",
          "type": "uint256"
        }
      ],
      "stateMutability": "view",
      "type": "function"
    },
    {
      "inputs": [],
      "name": "MCR",
      "outputs": [
        {
          "internalType": "uint256",
          "name": "",
          "type": "uint256"
        }
      ],
      "stateMutability": "view",
      "type": "function"
    },
    {
      "inputs": [],
      "name": "MIN_NET_DEBT",
      "outputs": [
        {
          "internalType": "uint256",
          "name": "",
          "type": "uint256"
        }
      ],
      "stateMutability": "view",
      "type": "function"
    },
    {
      "inputs": [],
      "name": "REDEMPTION_FEE_FLOOR",
      "outputs": [
        {
          "internalType": "uint256",
          "name": "",
          "type": "uint256"
        }
      ],
      "stateMutability": "view",
      "type": "function"
    },
    {
      "inputs": [],
      "name": "getEntireSystemColl",
      "outputs": [
        {
          "internalType": "uint256",
          "name": "",
          "type": "uint256"
        }
      ],
      "stateMutability": "view",
      "type": "function"
    },
    {
      "inputs": [],
      "name": "getEntireSystemDebt",
      "outputs": [
        {
          "internalType": "uint256",
          "name": "",
          "type": "uint256"
        }
      ],
      "stateMutability": "view",
      "type": "function"
    }
  ],
  "bytecode": "0x608060405234801561001057600080fd5b5061032c806100206000396000f3fe608060405234801561001057600080fd5b50600436106100835760003560e01c80631795b405146100885780631bf43555146100a257806328d28b5b146100aa5780635733d58f146100b2578063794e5724146100ba578063795d26c3146100c2578063887105d3146100ca578063a20baee6146100d2578063f92d3433146100aa575b600080fd5b6100906100da565b60408051918252519081900360200190f35b6100906100e7565b6100906100f4565b6100906100ff565b61009061010b565b610090610117565b610090610224565b61009061029a565b680ad78ebc5ac620000081565b686194049f30f720000081565b6611c37937e0800081565b6714d1120d7b16000081565b670f43fc2c04ee000081565b600080600160009054906101000a90046001600160a01b03166001600160a01b03166310ec1f526040518163ffffffff1660e01b815260040160206040518083038186803b15801561016857600080fd5b505afa15801561017c573d6000803e3d6000fd5b505050506040513d602081101561019257600080fd5b5051600254604080516308760fa960e11b815290519293506000926001600160a01b03909216916310ec1f5291600480820192602092909190829003018186803b1580156101df57600080fd5b505afa1580156101f3573d6000803e3d6000fd5b505050506040513d602081101561020957600080fd5b5051905061021d828263ffffffff6102a616565b9250505090565b60015460408051631944d03160e21b815290516000926001600160a01b03169163651340c4916004808301926020929190829003018186803b15801561026957600080fd5b505afa15801561027d573d6000803e3d6000fd5b505050506040513d602081101561029357600080fd5b5051905090565b670de0b6b3a764000081565b6000828201838110156102ef576040805162461bcd60e51b815260206004820152600c60248201526b616464206f766572666c6f7760a01b604482015290519081900360640190fd5b939250505056fea264697066735822122078298bc1c5dd91f9a6ee397e3bd9baebd44a029cd56098dafc136ebed1a02f5a64736f6c634300060b0033",
  "linkReferences": {},
  "deployedLinkReferences": {}
}