{
  "_format": "hh-sol-artifact-1",
  "contractName": "BorrowerOperations",
  "sourceName": "src/main/BorrowerOperations.sol",
  "abi": [
    {
      "anonymous": false,
      "inputs": [
        {
          "indexed": false,
          "internalType": "address",
          "name": "_activePoolAddress",
          "type": "address"
        }
      ],
      "name": "ActivePoolAddressChanged",
      "type": "event"
    },
    {
      "anonymous": false,
      "inputs": [
        {
          "indexed": false,
          "internalType": "address",
          "name": "_BOCTreasuryAddress",
          "type": "address"
        }
      ],
      "name": "BOCTreasuryChanged",
      "type": "event"
    },
    {
      "anonymous": false,
      "inputs": [
        {
          "indexed": true,
          "internalType": "address",
          "name": "_borrower",
          "type": "address"
        },
        {
          "indexed": false,
          "internalType": "uint256",
          "name": "_CUSDFee",
          "type": "uint256"
        }
      ],
      "name": "CUSDBorrowingFeePaid",
      "type": "event"
    },
    {
      "anonymous": false,
      "inputs": [
        {
          "indexed": false,
          "internalType": "address",
          "name": "_CUSDTokenAddress",
          "type": "address"
        }
      ],
      "name": "CUSDTokenAddressChanged",
      "type": "event"
    },
    {
      "anonymous": false,
      "inputs": [
        {
          "indexed": false,
          "internalType": "address",
          "name": "_collSurplusPoolAddress",
          "type": "address"
        }
      ],
      "name": "CollSurplusPoolAddressChanged",
      "type": "event"
    },
    {
      "anonymous": false,
      "inputs": [
        {
          "indexed": false,
          "internalType": "address",
          "name": "_defaultPoolAddress",
          "type": "address"
        }
      ],
      "name": "DefaultPoolAddressChanged",
      "type": "event"
    },
    {
      "anonymous": false,
      "inputs": [
        {
          "indexed": false,
          "internalType": "address",
          "name": "_gasPoolAddress",
          "type": "address"
        }
      ],
      "name": "GasPoolAddressChanged",
      "type": "event"
    },
    {
      "anonymous": false,
      "inputs": [
        {
          "indexed": true,
          "internalType": "address",
          "name": "previousOwner",
          "type": "address"
        },
        {
          "indexed": true,
          "internalType": "address",
          "name": "newOwner",
          "type": "address"
        }
      ],
      "name": "OwnershipTransferred",
      "type": "event"
    },
    {
      "anonymous": false,
      "inputs": [
        {
          "indexed": false,
          "internalType": "address",
          "name": "_newPriceFeedAddress",
          "type": "address"
        }
      ],
      "name": "PriceFeedAddressChanged",
      "type": "event"
    },
    {
      "anonymous": false,
      "inputs": [
        {
          "indexed": false,
          "internalType": "address",
          "name": "_sortedTrovesAddress",
          "type": "address"
        }
      ],
      "name": "SortedTrovesAddressChanged",
      "type": "event"
    },
    {
      "anonymous": false,
      "inputs": [
        {
          "indexed": false,
          "internalType": "address",
          "name": "_stabilityPoolAddress",
          "type": "address"
        }
      ],
      "name": "StabilityPoolAddressChanged",
      "type": "event"
    },
    {
      "anonymous": false,
      "inputs": [
        {
          "indexed": true,
          "internalType": "address",
          "name": "_borrower",
          "type": "address"
        },
        {
          "indexed": false,
          "internalType": "uint256",
          "name": "arrayIndex",
          "type": "uint256"
        }
      ],
      "name": "TroveCreated",
      "type": "event"
    },
    {
      "anonymous": false,
      "inputs": [
        {
          "indexed": false,
          "internalType": "address",
          "name": "_newTroveManagerAddress",
          "type": "address"
        }
      ],
      "name": "TroveManagerAddressChanged",
      "type": "event"
    },
    {
      "anonymous": false,
      "inputs": [
        {
          "indexed": true,
          "internalType": "address",
          "name": "_borrower",
          "type": "address"
        },
        {
          "indexed": false,
          "internalType": "uint256",
          "name": "_debt",
          "type": "uint256"
        },
        {
          "indexed": false,
          "internalType": "address[]",
          "name": "_tokens",
          "type": "address[]"
        },
        {
          "indexed": false,
          "internalType": "uint256[]",
          "name": "_amounts",
          "type": "uint256[]"
        },
        {
          "indexed": false,
          "internalType": "enum BorrowerOperations.BorrowerOperation",
          "name": "operation",
          "type": "uint8"
        }
      ],
      "name": "TroveUpdated",
      "type": "event"
    },
    {
      "anonymous": false,
      "inputs": [
        {
          "indexed": true,
          "internalType": "address",
          "name": "_borrower",
          "type": "address"
        },
        {
          "indexed": false,
          "internalType": "uint256",
          "name": "_debt",
          "type": "uint256"
        },
        {
          "indexed": false,
          "internalType": "uint256",
          "name": "_coll",
          "type": "uint256"
        },
        {
          "indexed": false,
          "internalType": "uint8",
          "name": "operation",
          "type": "uint8"
        }
      ],
      "name": "TroveUpdated",
      "type": "event"
    },
    {
      "inputs": [],
      "name": "BORROWING_FEE_FLOOR",
      "outputs": [
        {
          "internalType": "uint256",
          "name": "",
          "type": "uint256"
        }
      ],
      "stateMutability": "view",
      "type": "function"
    },
    {
      "inputs": [],
      "name": "CCR",
      "outputs": [
        {
          "internalType": "uint256",
          "name": "",
          "type": "uint256"
        }
      ],
      "stateMutability": "view",
      "type": "function"
    },
    {
      "inputs": [],
      "name": "CUSD_GAS_COMPENSATION",
      "outputs": [
        {
          "internalType": "uint256",
          "name": "",
          "type": "uint256"
        }
      ],
      "stateMutability": "view",
      "type": "function"
    },
    {
      "inputs": [],
      "name": "DECIMAL_PRECISION",
      "outputs": [
        {
          "internalType": "uint256",
          "name": "",
          "type": "uint256"
        }
      ],
      "stateMutability": "view",
      "type": "function"
    },
    {
      "inputs": [],
      "name": "MCR",
      "outputs": [
        {
          "internalType": "uint256",
          "name": "",
          "type": "uint256"
        }
      ],
      "stateMutability": "view",
      "type": "function"
    },
    {
      "inputs": [],
      "name": "MIN_NET_DEBT",
      "outputs": [
        {
          "internalType": "uint256",
          "name": "",
          "type": "uint256"
        }
      ],
      "stateMutability": "view",
      "type": "function"
    },
    {
      "inputs": [],
      "name": "NAME",
      "outputs": [
        {
          "internalType": "string",
          "name": "",
          "type": "string"
        }
      ],
      "stateMutability": "view",
      "type": "function"
    },
    {
      "inputs": [],
      "name": "REDEMPTION_FEE_FLOOR",
      "outputs": [
        {
          "internalType": "uint256",
          "name": "",
          "type": "uint256"
        }
      ],
      "stateMutability": "view",
      "type": "function"
    },
    {
      "inputs": [
        {
          "internalType": "address[]",
          "name": "_collsIn",
          "type": "address[]"
        },
        {
          "internalType": "uint256[]",
          "name": "_amountsIn",
          "type": "uint256[]"
        },
        {
          "internalType": "address",
          "name": "_upperHint",
          "type": "address"
        },
        {
          "internalType": "address",
          "name": "_lowerHint",
          "type": "address"
        },
        {
          "internalType": "uint256",
          "name": "_maxFeePercentage",
          "type": "uint256"
        }
      ],
      "name": "addColl",
      "outputs": [],
      "stateMutability": "nonpayable",
      "type": "function"
    },
    {
      "inputs": [
        {
          "internalType": "address[]",
          "name": "_collsIn",
          "type": "address[]"
        },
        {
          "internalType": "uint256[]",
          "name": "_amountsIn",
          "type": "uint256[]"
        },
        {
          "internalType": "address[]",
          "name": "_collsOut",
          "type": "address[]"
        },
        {
          "internalType": "uint256[]",
          "name": "_amountsOut",
          "type": "uint256[]"
        },
        {
          "internalType": "uint256",
          "name": "_CUSDChange",
          "type": "uint256"
        },
        {
          "internalType": "bool",
          "name": "_isDebtIncrease",
          "type": "bool"
        },
        {
          "internalType": "address",
          "name": "_upperHint",
          "type": "address"
        },
        {
          "internalType": "address",
          "name": "_lowerHint",
          "type": "address"
        },
        {
          "internalType": "uint256",
          "name": "_maxFeePercentage",
          "type": "uint256"
        }
      ],
      "name": "adjustTrove",
      "outputs": [],
      "stateMutability": "nonpayable",
      "type": "function"
    },
    {
      "inputs": [],
      "name": "closeTrove",
      "outputs": [],
      "stateMutability": "nonpayable",
      "type": "function"
    },
    {
      "inputs": [
        {
          "internalType": "uint256",
          "name": "_debt",
          "type": "uint256"
        }
      ],
      "name": "getCompositeDebt",
      "outputs": [
        {
          "internalType": "uint256",
          "name": "",
          "type": "uint256"
        }
      ],
      "stateMutability": "pure",
      "type": "function"
    },
    {
      "inputs": [],
      "name": "getEntireSystemColl",
      "outputs": [
        {
          "internalType": "uint256",
          "name": "",
          "type": "uint256"
        }
      ],
      "stateMutability": "view",
      "type": "function"
    },
    {
      "inputs": [],
      "name": "getEntireSystemDebt",
      "outputs": [
        {
          "internalType": "uint256",
          "name": "",
          "type": "uint256"
        }
      ],
      "stateMutability": "view",
      "type": "function"
    },
    {
      "inputs": [
        {
          "internalType": "uint256",
          "name": "_maxFeePercentage",
          "type": "uint256"
        },
        {
          "internalType": "uint256",
          "name": "_CUSDAmount",
          "type": "uint256"
        },
        {
          "internalType": "address",
          "name": "_upperHint",
          "type": "address"
        },
        {
          "internalType": "address",
          "name": "_lowerHint",
          "type": "address"
        },
        {
          "internalType": "address[]",
          "name": "_colls",
          "type": "address[]"
        },
        {
          "internalType": "uint256[]",
          "name": "_amounts",
          "type": "uint256[]"
        }
      ],
      "name": "openTrove",
      "outputs": [],
      "stateMutability": "nonpayable",
      "type": "function"
    },
    {
      "inputs": [],
      "name": "owner",
      "outputs": [
        {
          "internalType": "address",
          "name": "",
          "type": "address"
        }
      ],
      "stateMutability": "view",
      "type": "function"
    },
    {
      "inputs": [],
      "name": "renounceOwnership",
      "outputs": [],
      "stateMutability": "nonpayable",
      "type": "function"
    },
    {
      "inputs": [
        {
          "internalType": "uint256",
          "name": "_CUSDAmount",
          "type": "uint256"
        },
        {
          "internalType": "address",
          "name": "_upperHint",
          "type": "address"
        },
        {
          "internalType": "address",
          "name": "_lowerHint",
          "type": "address"
        }
      ],
      "name": "repayCUSD",
      "outputs": [],
      "stateMutability": "nonpayable",
      "type": "function"
    },
    {
      "inputs": [
        {
          "internalType": "address",
          "name": "_troveManagerAddress",
          "type": "address"
        },
        {
          "internalType": "address",
          "name": "_activePoolAddress",
          "type": "address"
        },
        {
          "internalType": "address",
          "name": "_defaultPoolAddress",
          "type": "address"
        },
        {
          "internalType": "address",
          "name": "_stabilityPoolAddress",
          "type": "address"
        },
        {
          "internalType": "address",
          "name": "_gasPoolAddress",
          "type": "address"
        },
        {
          "internalType": "address",
          "name": "_collSurplusPoolAddress",
          "type": "address"
        },
        {
          "internalType": "address",
          "name": "_sortedTrovesAddress",
          "type": "address"
        },
        {
          "internalType": "address",
          "name": "_CUSDTokenAddress",
          "type": "address"
        },
        {
          "internalType": "address",
          "name": "_BOCTreasuryAddress",
          "type": "address"
        },
        {
          "internalType": "address",
          "name": "_whitelistAddress",
          "type": "address"
        }
      ],
      "name": "setAddresses",
      "outputs": [],
      "stateMutability": "nonpayable",
      "type": "function"
    },
    {
      "inputs": [
        {
          "internalType": "address",
          "name": "newOwner",
          "type": "address"
        }
      ],
      "name": "transferOwnership",
      "outputs": [],
      "stateMutability": "nonpayable",
      "type": "function"
    },
    {
      "inputs": [
        {
          "internalType": "uint256",
          "name": "_maxFeePercentage",
          "type": "uint256"
        },
        {
          "internalType": "uint256",
          "name": "_CUSDAmount",
          "type": "uint256"
        },
        {
          "internalType": "address",
          "name": "_upperHint",
          "type": "address"
        },
        {
          "internalType": "address",
          "name": "_lowerHint",
          "type": "address"
        }
      ],
      "name": "withdrawCUSD",
      "outputs": [],
      "stateMutability": "nonpayable",
      "type": "function"
    },
    {
      "inputs": [
        {
          "internalType": "address[]",
          "name": "_collsOut",
          "type": "address[]"
        },
        {
          "internalType": "uint256[]",
          "name": "_amountsOut",
          "type": "uint256[]"
        },
        {
          "internalType": "address",
          "name": "_upperHint",
          "type": "address"
        },
        {
          "internalType": "address",
          "name": "_lowerHint",
          "type": "address"
        }
      ],
      "name": "withdrawColl",
      "outputs": [],
      "stateMutability": "nonpayable",
      "type": "function"
    }
  ],
  "bytecode": "0x608060405234801561001057600080fd5b50615f8280620000216000396000f3fe608060405234801561001057600080fd5b50600436106101425760003560e01c8063887105d3116100b8578063a3f4df7e1161007c578063a3f4df7e1461039a578063c49f843a14610417578063e63ce3c0146105cf578063f2fde38b146106a6578063f92d343314610173578063fe442cff146106cc57610142565b8063887105d3146102f85780638da5cb5b146103005780639690d280146103245780639c1e9b7c1461035e578063a20baee61461039257610142565b80634ff814431161010a5780634ff814431461024a5780635733d58f146102675780636c37a4af1461026f578063715018a6146102e0578063794e5724146102e8578063795d26c3146102f057610142565b80630e704d50146101475780631795b405146101515780631bf435551461016b57806328d28b5b14610173578063454a7efd1461017b575b600080fd5b61014f6107af565b005b610159610809565b60408051918252519081900360200190f35b610159610816565b610159610823565b61014f6004803603608081101561019157600080fd5b810190602081018135600160201b8111156101ab57600080fd5b8201836020820111156101bd57600080fd5b803590602001918460208302840111600160201b831117156101de57600080fd5b919390929091602081019035600160201b8111156101fb57600080fd5b82018360208201111561020d57600080fd5b803590602001918460208302840111600160201b8311171561022e57600080fd5b91935091506001600160a01b038135811691602001351661082e565b6101596004803603602081101561026057600080fd5b50356109d5565b6101596109e6565b61014f600480360361014081101561028657600080fd5b506001600160a01b038135811691602081013582169160408201358116916060810135821691608082013581169160a081013582169160c082013581169160e08101358216916101008201358116916101200135166109f2565b61014f610b4b565b610159610c09565b610159610c15565b610159610d22565b610308610d98565b604080516001600160a01b039092168252519081900360200190f35b61014f6004803603608081101561033a57600080fd5b508035906020810135906001600160a01b0360408201358116916060013516610da7565b61014f6004803603606081101561037457600080fd5b508035906001600160a01b0360208201358116916040013516610e84565b610159610f58565b6103a2610f64565b6040805160208082528351818301528351919283929083019185019080838360005b838110156103dc5781810151838201526020016103c4565b50505050905090810190601f1680156104095780820380516001836020036101000a031916815260200191505b509250505060405180910390f35b61014f600480360361012081101561042e57600080fd5b810190602081018135600160201b81111561044857600080fd5b82018360208201111561045a57600080fd5b803590602001918460208302840111600160201b8311171561047b57600080fd5b919390929091602081019035600160201b81111561049857600080fd5b8201836020820111156104aa57600080fd5b803590602001918460208302840111600160201b831117156104cb57600080fd5b9190808060200260200160405190810160405280939291908181526020018383602002808284376000920191909152509295949360208101935035915050600160201b81111561051a57600080fd5b82018360208201111561052c57600080fd5b803590602001918460208302840111600160201b8311171561054d57600080fd5b919390929091602081019035600160201b81111561056a57600080fd5b82018360208201111561057c57600080fd5b803590602001918460208302840111600160201b8311171561059d57600080fd5b919350915080359060208101351515906001600160a01b03604082013581169160608101359091169060800135610f97565b61014f600480360360a08110156105e557600080fd5b810190602081018135600160201b8111156105ff57600080fd5b82018360208201111561061157600080fd5b803590602001918460208302840111600160201b8311171561063257600080fd5b919390929091602081019035600160201b81111561064f57600080fd5b82018360208201111561066157600080fd5b803590602001918460208302840111600160201b8311171561068257600080fd5b91935091506001600160a01b038135811691602081013590911690604001356112a1565b61014f600480360360208110156106bc57600080fd5b50356001600160a01b03166114be565b61014f600480360360c08110156106e257600080fd5b8135916020810135916001600160a01b03604083013581169260608101359091169181019060a081016080820135600160201b81111561072157600080fd5b82018360208201111561073357600080fd5b803590602001918460208302840111600160201b8311171561075457600080fd5b919390929091602081019035600160201b81111561077157600080fd5b82018360208201111561078357600080fd5b803590602001918460208302840111600160201b831117156107a457600080fd5b5090925090506115d3565b600260675414156107f5576040805162461bcd60e51b815260206004820152601f6024820152600080516020615e69833981519152604482015290519081900360640190fd5b6002606755610802611807565b6001606755565b6801158e460913d0000081565b6809c2007651b250000081565b6611c37937e0800081565b60026067541415610874576040805162461bcd60e51b815260206004820152601f6024820152600080516020615e69833981519152604482015290519081900360640190fd5b6002606755610881615c30565b50604080516080810182526099546001600160a01b03908116825260015481166020830152609e5481169282019290925260005490911660608201526108c5615c57565b878780806020026020016040519081016040528093929190818152602001838360200280828437600092019190915250505050604080830191909152805160208088028281018201909352878252909188918891829185019084908082843760009201919091525050505060608201526001600160a01b038085166101008301528316610120820152604080516020808a0282810182019093528982526109bc928b918b91829185019084908082843760009201919091525050604080516020808c0282810182019093528b82529093508b92508a9182918501908490808284376000920191909152505050506060850151611f00565b6109c681836120e5565b50506001606755505050505050565b60006109e082612e40565b92915050565b6714d1120d7b16000081565b600254600160a81b900460ff1680610a0d5750610a0d612e5b565b80610a225750600254600160a01b900460ff16155b610a5d5760405162461bcd60e51b815260040180806020018281038252602e815260200180615ed5602e913960400191505060405180910390fd5b600254600160a81b900460ff16158015610a94576002805460ff60a01b1960ff60a81b19909116600160a81b1716600160a01b1790555b42609f55609980546001600160a01b03199081166001600160a01b038e8116919091179092556001805482168d84161790556002805482168c8416179055600080548216858416179055609a805482168b8416179055609b805482168a8416179055609c8054821689841617905560a080548216888416179055609e80548216878416179055609d80549091169185169190911790558015610b3e576002805460ff60a81b191690555b5050505050505050505050565b610b53612e6c565b6001600160a01b0316610b64610d98565b6001600160a01b031614610bbf576040805162461bcd60e51b815260206004820181905260248201527f4f776e61626c653a2063616c6c6572206973206e6f7420746865206f776e6572604482015290519081900360640190fd5b6035546040516000916001600160a01b0316907f8be0079c531659141344cd1fd0a4f28419497f9722a3daafe3b4186f6b6457e0908390a3603580546001600160a01b0319169055565b670f43fc2c04ee000081565b600080600160009054906101000a90046001600160a01b03166001600160a01b03166310ec1f526040518163ffffffff1660e01b815260040160206040518083038186803b158015610c6657600080fd5b505afa158015610c7a573d6000803e3d6000fd5b505050506040513d6020811015610c9057600080fd5b5051600254604080516308760fa960e11b815290519293506000926001600160a01b03909216916310ec1f5291600480820192602092909190829003018186803b158015610cdd57600080fd5b505afa158015610cf1573d6000803e3d6000fd5b505050506040513d6020811015610d0757600080fd5b50519050610d1b828263ffffffff612e7016565b9250505090565b60015460408051631944d03160e21b815290516000926001600160a01b03169163651340c4916004808301926020929190829003018186803b158015610d6757600080fd5b505afa158015610d7b573d6000803e3d6000fd5b505050506040513d6020811015610d9157600080fd5b5051905090565b6035546001600160a01b031690565b60026067541415610ded576040805162461bcd60e51b815260206004820152601f6024820152600080516020615e69833981519152604482015290519081900360640190fd5b6002606755610dfa615c30565b50604080516080810182526099546001600160a01b03908116825260015481166020830152609e548116928201929092526000549091166060820152610e3e615c57565b60a0810185905261014081018690526001600160a01b038085166101008301528316610120820152600160c0820152610e7781836120e5565b5050600160675550505050565b60026067541415610eca576040805162461bcd60e51b815260206004820152601f6024820152600080516020615e69833981519152604482015290519081900360640190fd5b6002606755610ed7615c30565b50604080516080810182526099546001600160a01b03908116825260015481166020830152609e548116928201929092526000549091166060820152610f1b615c57565b60a081018590526001600160a01b038085166101008301528316610120820152600060c0820152610f4c81836120e5565b50506001606755505050565b670de0b6b3a764000081565b60405180604001604052806017815260200176424f434c5f426f72726f7765724f7065726174696f6e7360481b81525081565b60026067541415610fdd576040805162461bcd60e51b815260206004820152601f6024820152600080516020615e69833981519152604482015290519081900360640190fd5b6002606755610fea615c30565b6040518060800160405280609960009054906101000a90046001600160a01b03166001600160a01b03168152602001600160009054906101000a90046001600160a01b03166001600160a01b03168152602001609e60009054906101000a90046001600160a01b03166001600160a01b031681526020016000809054906101000a90046001600160a01b03166001600160a01b031681525090506110c68d8d80806020026020016040519081016040528093929190818152602001838360200280828437600092019190915250505060608401518e9150611f00565b6111378a8a8080602002602001604051908101604052809392919081815260200183836020028082843760009201919091525050604080516020808e0282810182019093528d82529093508d92508c9182918501908490808284376000920191909152505050506060840151611f00565b6111438d8d8c8c612ec0565b6111818d8d808060200260200160405190810160405280939291908181526020018383602002808284376000920191909152508f9250612f6f915050565b611189615c57565b6040518061016001604052808f8f8080602002602001604051908101604052809392919081815260200183836020028082843760009201919091525050509082525060208082018f9052604080518e8302818101840183528f82529190930192918f918f918291908501908490808284376000920191909152505050908252506040805160208c810282810182019093528c82529283019290918d918d91829185019084908082843760009201829052509385525050604080518381526020808201835285015283018b905250881515606083015260808201526001600160a01b0387811660a0830152861660c082015260e001849052905061128c81836120e5565b50506001606755505050505050505050505050565b600260675414156112e7576040805162461bcd60e51b815260206004820152601f6024820152600080516020615e69833981519152604482015290519081900360640190fd5b60026067556112f4615c30565b50604080516080810182526099546001600160a01b03908116825260015481166020830152609e548116928201929092526000549091166060820152611338615c57565b888880806020026020016040519081016040528093929190818152602001838360200280828437600092019190915250505090825250604080516020808902828101820190935288825290918991899182918501908490808284376000920191909152505050506020808301919091526001600160a01b0380871661010084015285166101208301526101408201849052604080518a830281810184019092528a81526114379290918c918c91829185019084908082843760009201919091525050604080516020808d0282810182019093528c82529093508c92508b9182918501908490808284376000920191909152505050506060850151611f00565b6114a489898080602002602001604051908101604052809392919081815260200183836020028082843760009201919091525050604080516020808d0282810182019093528c82529093508c92508b918291850190849080828437600092019190915250612f6f92505050565b6114ae81836120e5565b5050600160675550505050505050565b6114c6612e6c565b6001600160a01b03166114d7610d98565b6001600160a01b031614611532576040805162461bcd60e51b815260206004820181905260248201527f4f776e61626c653a2063616c6c6572206973206e6f7420746865206f776e6572604482015290519081900360640190fd5b6001600160a01b0381166115775760405162461bcd60e51b8152600401808060200182810382526026815260200180615e896026913960400191505060405180910390fd5b6035546040516001600160a01b038084169216907f8be0079c531659141344cd1fd0a4f28419497f9722a3daafe3b4186f6b6457e090600090a3603580546001600160a01b0319166001600160a01b0392909216919091179055565b60026067541415611619576040805162461bcd60e51b815260206004820152601f6024820152600080516020615e69833981519152604482015290519081900360640190fd5b6002606755611626615c30565b50604080516080810182526099546001600160a01b03908116825260015481166020830152609e54811692820192909252600054909116606082015261166b82612fc6565b6116dc858580806020026020016040519081016040528093929190818152602001838360200280828437600092019190915250506040805160208089028281018201909352888252909350889250879182918501908490808284376000920191909152505050506060840151611f00565b61174985858080602002602001604051908101604052809392919081815260200183836020028082843760009201919091525050604080516020808902828101820190935288825290935088925087918291850190849080828437600092019190915250612f6f92505050565b611751615cc7565b60405180608001604052808b81526020018a8152602001896001600160a01b03168152602001886001600160a01b031681525090506117f68187878080602002602001604051908101604052809392919081815260200183836020028082843760009201919091525050604080516020808b0282810182019093528a82529093508a925089918291850190849080828437600092019190915250889250613004915050565b505060016067555050505050505050565b61180f615c30565b50604080516080810182526099546001600160a01b0390811680835260015482166020840152609e548216938301939093526000541660608201529061185590336138c4565b6000806000611862613988565b92509250925082156118a3576040805162461bcd60e51b8152602060048201526005602482015264436c52656360d81b604482015290519081900360640190fd5b835160408051630b07655760e01b815233600482015290516001600160a01b0390921691630b0765579160248082019260009290919082900301818387803b1580156118ee57600080fd5b505af1158015611902573d6000803e3d6000fd5b505085516040805163c617944560e01b81523360048201529051600094506001600160a01b03909216925063c6179445916024808301926020929190829003018186803b15801561195257600080fd5b505afa158015611966573d6000803e3d6000fd5b505050506040513d602081101561197c57600080fd5b505185516040805163265c8de160e21b8152336004820152905192935060609283926001600160a01b0316916399723784916024808301926000929190829003018186803b1580156119cd57600080fd5b505afa1580156119e1573d6000803e3d6000fd5b505050506040513d6000823e601f3d908101601f191682016040908152811015611a0a57600080fd5b8101908080516040519392919084600160201b821115611a2957600080fd5b908301906020820185811115611a3e57600080fd5b82518660208202830111600160201b82111715611a5a57600080fd5b82525081516020918201928201910280838360005b83811015611a87578181015183820152602001611a6f565b5050505090500160405260200180516040519392919084600160201b821115611aaf57600080fd5b908301906020820185811115611ac457600080fd5b82518660208202830111600160201b82111715611ae057600080fd5b82525081516020918201928201910280838360005b83811015611b0d578181015183820152602001611af5565b5050505090500160405250505091509150600087600001516001600160a01b031663d66a2553336040518263ffffffff1660e01b815260040180826001600160a01b03166001600160a01b0316815260200191505060206040518083038186803b158015611b7a57600080fd5b505afa158015611b8e573d6000803e3d6000fd5b505050506040513d6020811015611ba457600080fd5b50516040890151909150611bd19033611bcc846801158e460913d0000063ffffffff613a3916565b613a6a565b6000611be38787876000866000613b30565b9050611bee81613ba2565b885160408051631fc5750960e31b815233600482015290516001600160a01b039092169163fe2ba8489160248082019260009290919082900301818387803b158015611c3957600080fd5b505af1158015611c4d573d6000803e3d6000fd5b50508a51604080516365e89c5760e11b815233600482015290516001600160a01b03909216935063cbd138ae925060248082019260009290919082900301818387803b158015611c9c57600080fd5b505af1158015611cb0573d6000803e3d6000fd5b50505060208a015160408b0151611ce1925033611cdc866801158e460913d0000063ffffffff613a3916565b613bef565b602089015160408a0151609b54611d0c9291906001600160a01b03166801158e460913d00000613bef565b88602001516001600160a01b0316633733a133333387876040518563ffffffff1660e01b815260040180856001600160a01b03166001600160a01b03168152602001846001600160a01b03166001600160a01b031681526020018060200180602001838103835285818151815260200191508051906020019060200280838360005b83811015611da6578181015183820152602001611d8e565b50505050905001838103825284818151815260200191508051906020019060200280838360005b83811015611de5578181015183820152602001611dcd565b505050509050019650505050505050600060405180830381600087803b158015611e0e57600080fd5b505af1158015611e22573d6000803e3d6000fd5b5050604080516000808252602080830182815283850194859052828552600160a08501819052608060608601818152865160c08801819052339a50600080516020615f03833981519152995095979395929490929187019160e08801918791028083838c5b83811015611e9f578181015183820152602001611e87565b50505050905001838103825285818151815260200191508051906020019060200280838360005b83811015611ede578181015183820152602001611ec6565b50505050905001965050505050505060405180910390a2505050505050505050565b82518251611f0f908290613ccb565b60005b818110156120de57826001600160a01b03166317ae1fc5868381518110611f3557fe5b60200260200101516040518263ffffffff1660e01b815260040180826001600160a01b03166001600160a01b0316815260200191505060206040518083038186803b158015611f8357600080fd5b505afa158015611f97573d6000803e3d6000fd5b505050506040513d6020811015611fad57600080fd5b5051611fe8576040805162461bcd60e51b81526020600482015260056024820152640850dbdb1b60da1b604482015290519081900360640190fd5b838181518110611ff457fe5b60200260200101516000141561203a576040805162461bcd60e51b815260206004808301919091526024820152630c105b5d60e21b604482015290519081900360640190fd5b600061204d82600163ffffffff612e7016565b90505b828110156120d55785818151811061206457fe5b60200260200101516001600160a01b031686838151811061208157fe5b60200260200101516001600160a01b031614156120cd576040805162461bcd60e51b815260206004820152600560248201526413dd90dbdb60da1b604482015290519081900360640190fd5b600101612050565b50600101611f12565b5050505050565b6120ed615d01565b6120f5613988565b6102c08401526102a08301521515604082015260c083015115612132576121258361014001518260400151613d08565b6121328360a00151613d68565b612149836020015184606001518560a00151613da6565b815161215590336138c4565b815160408051630b07655760e01b815233600482015290516001600160a01b0390921691630b0765579160248082019260009290919082900301818387803b1580156121a057600080fd5b505af11580156121b4573d6000803e3d6000fd5b50505060a084015182525060608201518351602080860151604080516397a4b9f760e01b8152600481019182528451604482015284516001600160a01b03909616956397a4b9f7959483926024810192606490910191808801910280838360005b8381101561222d578181015183820152602001612215565b50505050905001838103825284818151815260200191508051906020019060200280838360005b8381101561226c578181015183820152602001612254565b5050505090500194505050505060206040518083038186803b15801561229157600080fd5b505afa1580156122a5573d6000803e3d6000fd5b505050506040513d60208110156122bb57600080fd5b50516102408201526060808301516040808601519286015181516397a4b9f760e01b8152600481019283528451604482015284516001600160a01b03909416946397a4b9f79490939182916024820191606401906020878101910280838360005b8381101561233457818101518382015260200161231c565b50505050905001838103825284818151815260200191508051906020019060200280838360005b8381101561237357818101518382015260200161235b565b5050505090500194505050505060206040518083038186803b15801561239857600080fd5b505afa1580156123ac573d6000803e3d6000fd5b505050506040513d60208110156123c257600080fd5b505161026082015260c0830151156123f2576123e78161024001518460a00151613df4565b6102808201526123ff565b6102408101516102808201525b8260c00151801561241257508060400151155b156124a75761243a826000015183604001518560a00151846102800151876101400151613e0b565b6101e0820181905261028082015161248791612475919061246990670de0b6b3a764000063ffffffff613f5716565b9063ffffffff613fb516565b6101408501519063ffffffff613a3916565b6101408401526101e081015181516124a49163ffffffff612e7016565b81525b81516040805163265c8de160e21b815233600482015290516001600160a01b0390921691639972378491602480820192600092909190829003018186803b1580156124f157600080fd5b505afa158015612505573d6000803e3d6000fd5b505050506040513d6000823e601f3d908101601f19168201604090815281101561252e57600080fd5b8101908080516040519392919084600160201b82111561254d57600080fd5b90830190602082018581111561256257600080fd5b82518660208202830111600160201b8211171561257e57600080fd5b82525081516020918201928201910280838360005b838110156125ab578181015183820152602001612593565b5050505090500160405260200180516040519392919084600160201b8211156125d357600080fd5b9083019060208201858111156125e857600080fd5b82518660208202830111600160201b8211171561260457600080fd5b82525081516020918201928201910280838360005b83811015612631578181015183820152602001612619565b50505050919091016040908152610100880186905260e08801879052606089015181516397a4b9f760e01b8152600481019283528851604482015288516001600160a01b03909216986397a4b9f79890975095509193508392506024820191606401906020808801910280838360005b838110156126b95781810151838201526020016126a1565b50505050905001838103825284818151815260200191508051906020019060200280838360005b838110156126f85781810151838201526020016126e0565b5050505090500194505050505060206040518083038186803b15801561271d57600080fd5b505afa158015612731573d6000803e3d6000fd5b505050506040513d602081101561274757600080fd5b5051608082015260e08101516101008201518451602086015160408701516060880151612778959493929190613fe2565b61014083015261012082015261026081015161024082015160808301516127b692916127aa919063ffffffff612e7016565b9063ffffffff613a3916565b60a082018190526080820151106020820181905260006060830152156127f957608081015160a08201516127ef9163ffffffff613a3916565b6060820152612818565b60a081015160808201516128129163ffffffff613a3916565b60608201525b81516040805163d66a255360e01b815233600482015290516001600160a01b039092169163d66a255391602480820192602092909190829003018186803b15801561286257600080fd5b505afa158015612876573d6000803e3d6000fd5b505050506040513d602081101561288c57600080fd5b505160c0820152825151156128d3576128cc83600001518460200151836102a001518461024001518561026001518661028001518961014001518961404d565b6102008201525b6128e581608001518260c001516143a3565b61016082015261020081015160c08201516129059163ffffffff612e7016565b60c080830182905260a0830151835191860151612924939192906143db565b610180820152606083015160c084015161293f919083614421565b8260e0015115801561295357508260c00151155b8015612962575060a083015115155b156129a95761298461297f82600001516127aa8460c001516144a4565b6144bf565b6129968160c001518260000151614507565b6129a98260400151338360000151613a6a565b82515115612a9c576020808301518451858301516040805163a7a24edd60e01b8152600481019182528351604482015283516001600160a01b039095169563a7a24edd9583926024810192606490910191878201910280838360005b83811015612a1d578181015183820152602001612a05565b50505050905001838103825284818151815260200191508051906020019060200280838360005b83811015612a5c578181015183820152602001612a44565b50505050905001945050505050600060405180830381600087803b158015612a8357600080fd5b505af1158015612a97573d6000803e3d6000fd5b505050505b612ac682600001513383610120015184610140015185600001518860c00151876102000151614561565b610220820152815160408051630c7940bd60e11b815233600482015290516001600160a01b03909216916318f2817a9160248082019260009290919082900301818387803b158015612b1757600080fd5b505af1158015612b2b573d6000803e3d6000fd5b50505050612b51612b468261012001518361014001516147f1565b8261022001516143a3565b6101a0820181905260a0546101008501516101208601516040805163015f109360e51b815233600482015260248101959095526001600160a01b039283166044860152908216606485015251911691632be2126091608480830192600092919082900301818387803b158015612bc657600080fd5b505af1158015612bda573d6000803e3d6000fd5b50505050336001600160a01b0316600080516020615f038339815191528261022001518361012001518461014001516002604051808581526020018060200180602001846002811115612c2957fe5b60ff168152602001838103835286818151815260200191508051906020019060200280838360005b83811015612c69578181015183820152602001612c51565b50505050905001838103825285818151815260200191508051906020019060200280838360005b83811015612ca8578181015183820152602001612c90565b50505050905001965050505050505060405180910390a26101e0810151604080519182525133917fb6a54ba379ac69eaabd5ae030a60113aa99aa74a905620000bec72eb0c2417d8919081900360200190a2612d1c82602001518360400151338660a001518760c0015186600001516148f1565b612d378260200151836040015133600085610200015161491d565b60015460408085015160608601519151633733a13360e01b81523360048201818152602483018290526080604484019081528451608485015284516001600160a01b0390971696633733a13396939586959094939291606482019160a401906020808801910280838360005b83811015612dbb578181015183820152602001612da3565b50505050905001838103825284818151815260200191508051906020019060200280838360005b83811015612dfa578181015183820152602001612de2565b505050509050019650505050505050600060405180830381600087803b158015612e2357600080fd5b505af1158015612e37573d6000803e3d6000fd5b50505050505050565b60006109e0826801158e460913d0000063ffffffff612e7016565b6000612e66306149fa565b15905090565b3390565b600082820183811015612eb9576040805162461bcd60e51b815260206004820152600c60248201526b616464206f766572666c6f7760a01b604482015290519081900360640190fd5b9392505050565b828160005b82811015612e375760005b82811015612f6657858582818110612ee457fe5b905060200201356001600160a01b03166001600160a01b0316888884818110612f0957fe5b905060200201356001600160a01b03166001600160a01b03161415612f5e576040805162461bcd60e51b81526020600482015260066024820152650c93dd90dbdb60d21b604482015290519081900360640190fd5b600101612ed0565b50600101612ec5565b805160005b81811015612fc0576000848281518110612f8a57fe5b602002602001015190506000848381518110612fa257fe5b60200260200101519050612fb68282614a00565b5050600101612f74565b50505050565b80613001576040805162461bcd60e51b8152602060048083019190915260248201526304c656e360e41b604482015290519081900360640190fd5b50565b61300c615db3565b613014613988565b61012084015261010083015215156101408201819052855161303591613d08565b81516130419033614b1f565b602080860151828201526060830151604080516397a4b9f760e01b8152600481019182528751604482015287516001600160a01b03909316936397a4b9f7938993899390928392602483019260640191878101910280838360005b838110156130b457818101518382015260200161309c565b50505050905001838103825284818151815260200191508051906020019060200280838360005b838110156130f35781810151838201526020016130db565b5050505090500194505050505060206040518083038186803b15801561311857600080fd5b505afa15801561312c573d6000803e3d6000fd5b505050506040513d602081101561314257600080fd5b505160c08201526101408101516131ae576131748260000151836040015187602001518460c001518960000151613e0b565b80825260c08201516131ab9161319d919061246990670de0b6b3a764000063ffffffff613f5716565b86519063ffffffff613a3916565b85525b6131e16131d385858461010001518560c0015160008760c001518c600001518a61404d565b82519063ffffffff612e7016565b80825260208201516131f89163ffffffff612e7016565b60208201819052613208906144bf565b6132158160200151612e40565b6040820181905260c082015161322a916143a3565b60808201526101408101511561324c576132478160800151614bde565b61328b565b6132598160800151614c28565b61327b8161010001518261012001518360c00151600185604001516001613b30565b60e0820181905261328b90613ba2565b815160408051635d6b480f60e01b81523360048201526001602482015290516001600160a01b0390921691635d6b480f9160448082019260009290919082900301818387803b1580156132dd57600080fd5b505af11580156132f1573d6000803e3d6000fd5b50508351604051634e9de63560e01b815233600482018181526060602484019081528a5160648501528a516001600160a01b039095169650634e9de635955091938a938a93916044820191608401906020808801910280838360005b8381101561336557818101518382015260200161334d565b50505050905001838103825284818151815260200191508051906020019060200280838360005b838110156133a457818101518382015260200161338c565b5050505090500195505050505050600060405180830381600087803b1580156133cc57600080fd5b505af11580156133e0573d6000803e3d6000fd5b505083516040808501518151639976cf4560e01b8152336004820152602481019190915290516001600160a01b039092169350639976cf4592506044808201926020929091908290030181600087803b15801561343c57600080fd5b505af1158015613450573d6000803e3d6000fd5b505050506040513d602081101561346657600080fd5b50508151604080516382fe3eb960e01b815233600482015290516001600160a01b03909216916382fe3eb99160248082019260009290919082900301818387803b1580156134b357600080fd5b505af11580156134c7573d6000803e3d6000fd5b5050835160408051630c7940bd60e11b815233600482015290516001600160a01b0390921693506318f2817a925060248082019260009290919082900301818387803b15801561351657600080fd5b505af115801561352a573d6000803e3d6000fd5b5050505061354561353b85856147f1565b82604001516143a3565b606080830182905260a0546040808901519289015181516346f7cf8760e01b815233600482015260248101959095526001600160a01b03938416604486015283166064850152519116916346f7cf8791608480830192600092919082900301818387803b1580156135b557600080fd5b505af11580156135c9573d6000803e3d6000fd5b50508351604080516315d549f160e01b815233600482015290516001600160a01b0390921693506315d549f192506024808201926020929091908290030181600087803b15801561361957600080fd5b505af115801561362d573d6000803e3d6000fd5b505050506040513d602081101561364357600080fd5b505160a08201819052604080519182525133917f59cfd0cd754bc5748b6770e94a4ffa5f678d885cb899dcfadc5734edb97c67ab919081900360200190a281602001516001600160a01b031663a7a24edd85856040518363ffffffff1660e01b8152600401808060200180602001838103835285818151815260200191508051906020019060200280838360005b838110156136e95781810151838201526020016136d1565b50505050905001838103825284818151815260200191508051906020019060200280838360005b83811015613728578181015183820152602001613710565b50505050905001945050505050600060405180830381600087803b15801561374f57600080fd5b505af1158015613763573d6000803e3d6000fd5b5050505061378482602001518360400151338860200151856020015161491d565b60208201516040830151609b546137b09291906001600160a01b03166801158e460913d000008061491d565b336001600160a01b0316600080516020615f038339815191528260400151868660006040518085815260200180602001806020018460028111156137f057fe5b60ff168152602001838103835286818151815260200191508051906020019060200280838360005b83811015613830578181015183820152602001613818565b50505050905001838103825285818151815260200191508051906020019060200280838360005b8381101561386f578181015183820152602001613857565b50505050905001965050505050505060405180910390a28051604080519182525133917fb6a54ba379ac69eaabd5ae030a60113aa99aa74a905620000bec72eb0c2417d8919081900360200190a25050505050565b816001600160a01b0316633735aa20826040518263ffffffff1660e01b815260040180826001600160a01b03166001600160a01b0316815260200191505060206040518083038186803b15801561391a57600080fd5b505afa15801561392e573d6000803e3d6000fd5b505050506040513d602081101561394457600080fd5b5051613984576040805162461bcd60e51b815260206004820152600a602482015269151c9bdd99525b9858dd60b21b604482015290519081900360640190fd5b5050565b600080600080600160009054906101000a90046001600160a01b03166001600160a01b031663a24214646040518163ffffffff1660e01b8152600401604080518083038186803b1580156139db57600080fd5b505afa1580156139ef573d6000803e3d6000fd5b505050506040513d6040811015613a0557600080fd5b5080516020909101519093509050613a1b610c15565b91506714d1120d7b160000613a3082846143a3565b10935050909192565b6000612eb983836040518060400160405280600c81526020016b737562206f766572666c6f7760a01b815250614c72565b80836001600160a01b03166370a08231846040518263ffffffff1660e01b815260040180826001600160a01b03166001600160a01b0316815260200191505060206040518083038186803b158015613ac157600080fd5b505afa158015613ad5573d6000803e3d6000fd5b505050506040513d6020811015613aeb57600080fd5b50511015613b2b576040805162461bcd60e51b815260206004820152600860248201526710d554d110985b0f60c21b604482015290519081900360640190fd5b505050565b600083613b4c57613b47878663ffffffff613a3916565b613b5c565b613b5c878663ffffffff612e7016565b965081613b7857613b73868463ffffffff613a3916565b613b88565b613b88868463ffffffff612e7016565b95506000613b9688886143a3565b98975050505050505050565b6714d1120d7b160000811015613001576040805162461bcd60e51b815260206004820152600d60248201526c21279d2932b8aa21a91f21a1a960991b604482015290519081900360640190fd5b836001600160a01b0316633b036ced826040518263ffffffff1660e01b815260040180828152602001915050600060405180830381600087803b158015613c3557600080fd5b505af1158015613c49573d6000803e3d6000fd5b50505050826001600160a01b0316639dc29fac83836040518363ffffffff1660e01b815260040180836001600160a01b03166001600160a01b0316815260200182815260200192505050600060405180830381600087803b158015613cad57600080fd5b505af1158015613cc1573d6000803e3d6000fd5b5050505050505050565b808214613984576040805162461bcd60e51b81526020600482015260066024820152654c656e4d697360d01b604482015290519081900360640190fd5b670de0b6b3a7640000821180613d2d575080158015613d2d57506611c37937e0800082105b15613984576040805162461bcd60e51b81526020600482015260066024820152654d617846656560d01b604482015290519081900360640190fd5b80613001576040805162461bcd60e51b81526020600482015260096024820152684e6f4465627443686760b81b604482015290519081900360640190fd5b80613b2b578251151580613dba5750815115155b613b2b576040805162461bcd60e51b815260206004808301919091526024820152631820b23560e11b604482015290519081900360640190fd5b600081831015613e045781612eb9565b5090919050565b6000856001600160a01b0316635dba4c4a6040518163ffffffff1660e01b8152600401600060405180830381600087803b158015613e4857600080fd5b505af1158015613e5c573d6000803e3d6000fd5b505050506000866001600160a01b031663631203b0866040518263ffffffff1660e01b81526004018082815260200191505060206040518083038186803b158015613ea657600080fd5b505afa158015613eba573d6000803e3d6000fd5b505050506040513d6020811015613ed057600080fd5b50519050613edf818585614d09565b609d54604080516340c10f1960e01b81526001600160a01b039283166004820152602481018490529051918816916340c10f199160448082019260009290919082900301818387803b158015613f3457600080fd5b505af1158015613f48573d6000803e3d6000fd5b50929998505050505050505050565b600082613f66575060006109e0565b82820282848281613f7357fe5b0414612eb9576040805162461bcd60e51b815260206004820152600c60248201526b6d756c206f766572666c6f7760a01b604482015290519081900360640190fd5b6000612eb9838360405180604001604052806008815260200167064697620627920360c41b815250614d6a565b606080613fed615e0f565b61401f60405180604001604052808b81526020018a81525060405180604001604052808a815260200189815250614dcf565b9050614029615e0f565b614034828787615333565b8051602090910151909b909a5098505050505050505050565b60008561405c57506000613b96565b614064615e29565b614078866127aa8a8a63ffffffff612e7016565b60a0820152895160005b8181101561437b578b818151811061409657fe5b602002602001015183608001906001600160a01b031690816001600160a01b03168152505084606001516001600160a01b0316632e2b1a8884608001518d84815181106140df57fe5b60200260200101516040518363ffffffff1660e01b815260040180836001600160a01b03166001600160a01b031681526020018281526020019250505060206040518083038186803b15801561413457600080fd5b505afa158015614148573d6000803e3d6000fd5b505050506040513d602081101561415e57600080fd5b505160408085019190915260025460808501518251630193854f60e51b81526001600160a01b0391821660048201529251614273939190921691633270a9e091602480820192602092909190829003018186803b1580156141be57600080fd5b505afa1580156141d2573d6000803e3d6000fd5b505050506040513d60208110156141e857600080fd5b5051602087810151608087015160408051630193854f60e51b81526001600160a01b03928316600482015290519190921692633270a9e09260248082019391829003018186803b15801561423b57600080fd5b505afa15801561424f573d6000803e3d6000fd5b505050506040513d602081101561426557600080fd5b50519063ffffffff612e7016565b836020018181525050600085606001516001600160a01b0316638d3f82988560800151866040015187602001518f8960a001516040518663ffffffff1660e01b815260040180866001600160a01b03166001600160a01b0316815260200185815260200184815260200183815260200182815260200195505050505050602060405180830381600087803b15801561430a57600080fd5b505af115801561431e573d6000803e3d6000fd5b505050506040513d602081101561433457600080fd5b5051604085015190915061435c90670de0b6b3a764000090612469908463ffffffff613f5716565b80855261437090869063ffffffff612e7016565b945050600101614082565b50614387838787614d09565b614395846040015184615842565b505098975050505050505050565b600081156143d25760006143c98361246986670de0b6b3a764000063ffffffff613f5716565b91506109e09050565b506000196109e0565b600080826143f8576143f3858563ffffffff613a3916565b614408565b614408858563ffffffff612e7016565b9050600061441687836143a3565b979650505050505050565b80604001511561446157614434836158ab565b811561445c57614448816101800151614bde565b61445c816101800151826101600151615916565b613b2b565b61446f816101800151614c28565b614493816102a00151826102c0015183606001518460200151856000015187613b30565b6101c08201819052613b2b90613ba2565b60006109e0826801158e460913d0000063ffffffff613a3916565b6809c2007651b2500000811015613001576040805162461bcd60e51b815260206004820152600760248201526606e443c323030360cc1b604482015290519081900360640190fd5b614520826801158e460913d0000063ffffffff613a3916565b811115613984576040805162461bcd60e51b815260206004820152600a60248201526910d554d114995c185e4f60b21b604482015290519081900360640190fd5b600080886001600160a01b0316634e9de6358989896040518463ffffffff1660e01b815260040180846001600160a01b03166001600160a01b031681526020018060200180602001838103835285818151815260200191508051906020019060200280838360005b838110156145e15781810151838201526020016145c9565b50505050905001838103825284818151815260200191508051906020019060200280838360005b83811015614620578181015183820152602001614608565b5050505090500195505050505050600060405180830381600087803b15801561464857600080fd5b505af115801561465c573d6000803e3d6000fd5b505050508315614708576001600160a01b038916639976cf4589614686888763ffffffff612e7016565b6040518363ffffffff1660e01b815260040180836001600160a01b03166001600160a01b0316815260200182815260200192505050602060405180830381600087803b1580156146d557600080fd5b505af11580156146e9573d6000803e3d6000fd5b505050506040513d60208110156146ff57600080fd5b50519050613b96565b828511156147645760408051630930874960e11b81526001600160a01b038a8116600483015285880360248301529151918b16916312610e92916044808201926020929091908290030181600087803b1580156146d557600080fd5b60408051639976cf4560e01b81526001600160a01b038a8116600483015287860360248301529151918b1691639976cf45916044808201926020929091908290030181600087803b1580156147b857600080fd5b505af11580156147cc573d6000803e3d6000fd5b505050506040513d60208110156147e257600080fd5b50519998505050505050505050565b600080546040805163617ddfff60e01b8152600481019182528551604482015285516001600160a01b039093169263617ddfff928792879282916024810191606490910190602080880191028083838d5b8381101561485a578181015183820152602001614842565b50505050905001838103825284818151815260200191508051906020019060200280838360005b83811015614899578181015183820152602001614881565b5050505090500194505050505060206040518083038186803b1580156148be57600080fd5b505afa1580156148d2573d6000803e3d6000fd5b505050506040513d60208110156148e857600080fd5b50519392505050565b811561490957614904868686868561491d565b614915565b61491586868686613bef565b505050505050565b846001600160a01b0316633f02d91f826040518263ffffffff1660e01b815260040180828152602001915050600060405180830381600087803b15801561496357600080fd5b505af1158015614977573d6000803e3d6000fd5b50505050836001600160a01b03166340c10f1984846040518363ffffffff1660e01b815260040180836001600160a01b03166001600160a01b0316815260200182815260200192505050600060405180830381600087803b1580156149db57600080fd5b505af11580156149ef573d6000803e3d6000fd5b505050505050505050565b3b151590565b600054604080516324af709f60e11b81526001600160a01b0385811660048301529151919092169163495ee13e916024808301926020929190829003018186803b158015614a4d57600080fd5b505afa158015614a61573d6000803e3d6000fd5b505050506040513d6020811015614a7757600080fd5b505115614afd5760015460408051634997777f60e11b81526004810184905233602482018190526001600160a01b039384166044830152606482015290519184169163932eeefe9160848082019260009290919082900301818387803b158015614ae057600080fd5b505af1158015614af4573d6000803e3d6000fd5b50505050613984565b600154613984906001600160a01b03848116913391168463ffffffff61596016565b816001600160a01b0316633735aa20826040518263ffffffff1660e01b815260040180826001600160a01b03166001600160a01b0316815260200191505060206040518083038186803b158015614b7557600080fd5b505afa158015614b89573d6000803e3d6000fd5b505050506040513d6020811015614b9f57600080fd5b505115613984576040805162461bcd60e51b8152602060048201526008602482015267151c9bdd995058dd60c21b604482015290519081900360640190fd5b6714d1120d7b160000811015613001576040805162461bcd60e51b815260206004820152600a6024820152692932b8a4a1a91f21a1a960b11b604482015290519081900360640190fd5b670f43fc2c04ee0000811015613001576040805162461bcd60e51b815260206004820152600a6024820152692932b8a4a1a91f26a1a960b11b604482015290519081900360640190fd5b60008184841115614d015760405162461bcd60e51b81526004018080602001828103825283818151815260200191508051906020019080838360005b83811015614cc6578181015183820152602001614cae565b50505050905090810190601f168015614cf35780820380516001836020036101000a031916815260200191505b509250505060405180910390fd5b505050900390565b6000614d278361246986670de0b6b3a764000063ffffffff613f5716565b905081811115612fc0576040805162461bcd60e51b815260206004820152600960248201526808ccaca407c40dac2f60bb1b604482015290519081900360640190fd5b60008183614db95760405162461bcd60e51b8152602060048201818152835160248401528351909283926044909101919085019080838360008315614cc6578181015183820152602001614cae565b506000838581614dc557fe5b0495945050505050565b614dd7615e0f565b81515180614de857839150506109e0565b614df0615e0f565b6000805460408051634eb5750560e11b815290516001600160a01b0390921692639d6aea0a92600480840193829003018186803b158015614e3057600080fd5b505afa158015614e44573d6000803e3d6000fd5b505050506040513d6000823e601f3d908101601f191682016040526020811015614e6d57600080fd5b8101908080516040519392919084600160201b821115614e8c57600080fd5b908301906020820185811115614ea157600080fd5b82518660208202830111600160201b82111715614ebd57600080fd5b82525081516020918201928201910280838360005b83811015614eea578181015183820152602001614ed2565b50505050919091016040525050508183525085515190518067ffffffffffffffff81118015614f1857600080fd5b50604051908082528060200260200182016040528015614f42578160200160208202803683370190505b5060208401526000805b8381101561505c57600080548a5180516001600160a01b039092169163b31610db919085908110614f7957fe5b60200260200101516040518263ffffffff1660e01b815260040180826001600160a01b03166001600160a01b0316815260200191505060206040518083038186803b158015614fc757600080fd5b505afa158015614fdb573d6000803e3d6000fd5b505050506040513d6020811015614ff157600080fd5b505160208b01518051919250908390811061500857fe5b60200260200101516000146150535760208a015180516001909401938390811061502e57fe5b60200260200101518660200151828151811061504657fe5b6020026020010181815250505b50600101614f4c565b5060005b858110156151f05760008054895180516001600160a01b039092169163b31610db91908590811061508d57fe5b60200260200101516040518263ffffffff1660e01b815260040180826001600160a01b03166001600160a01b0316815260200191505060206040518083038186803b1580156150db57600080fd5b505afa1580156150ef573d6000803e3d6000fd5b505050506040513d602081101561510557600080fd5b505160208a01518051919250908390811061511c57fe5b60200260200101516000146151e7578560200151818151811061513b57fe5b602002602001015160001415615189578860200151828151811061515b57fe5b60200260200101518660200151828151811061517357fe5b60209081029190910101526001909201916151e7565b6151ca8960200151838151811061519c57fe5b6020026020010151876020015183815181106151b457fe5b6020026020010151612e7090919063ffffffff16565b866020015182815181106151da57fe5b6020026020010181815250505b50600101615060565b5060608167ffffffffffffffff8111801561520a57600080fd5b50604051908082528060200260200182016040528015615234578160200160208202803683370190505b50905060608267ffffffffffffffff8111801561525057600080fd5b5060405190808252806020026020018201604052801561527a578160200160208202803683370190505b5090506000805b8581101561531e578760200151818151811061529957fe5b60200260200101516000146153165787518051829081106152b657fe5b60200260200101518483815181106152ca57fe5b6001600160a01b039092166020928302919091018201528801518051829081106152f057fe5b602002602001015183838151811061530457fe5b60209081029190910101526001909101905b600101615281565b50509087526020870152505050505092915050565b61533b615e0f565b82518061534b5784915050612eb9565b845151615356615e0f565b6000805460408051634eb5750560e11b815290516001600160a01b0390921692639d6aea0a92600480840193829003018186803b15801561539657600080fd5b505afa1580156153aa573d6000803e3d6000fd5b505050506040513d6000823e601f3d908101601f1916820160405260208110156153d357600080fd5b8101908080516040519392919084600160201b8211156153f257600080fd5b90830190602082018581111561540757600080fd5b82518660208202830111600160201b8211171561542357600080fd5b82525081516020918201928201910280838360005b83811015615450578181015183820152602001615438565b505050509190910160405250505081835250518067ffffffffffffffff8111801561547a57600080fd5b506040519080825280602002602001820160405280156154a4578160200160208202803683370190505b5060208301526000805b848110156155bc57896020015181815181106154c657fe5b60200260200101516000146155b457600080548b5180516001600160a01b039092169163b31610db9190859081106154fa57fe5b60200260200101516040518263ffffffff1660e01b815260040180826001600160a01b03166001600160a01b0316815260200191505060206040518083038186803b15801561554857600080fd5b505afa15801561555c573d6000803e3d6000fd5b505050506040513d602081101561557257600080fd5b505160208c01518051919250908390811061558957fe5b6020026020010151856020015182815181106155a157fe5b6020908102919091010152506001909101905b6001016154ae565b5060005b858110156156f657600080548a516001600160a01b039091169063b31610db908c90859081106155ec57fe5b60200260200101516040518263ffffffff1660e01b815260040180826001600160a01b03166001600160a01b0316815260200191505060206040518083038186803b15801561563a57600080fd5b505afa15801561564e573d6000803e3d6000fd5b505050506040513d602081101561566457600080fd5b505189519091506156a9908a908490811061567b57fe5b60200260200101518660200151838151811061569357fe5b6020026020010151613a3990919063ffffffff16565b856020015182815181106156b957fe5b602002602001018181525050846020015181815181106156d557fe5b6020026020010151600014156156ed57600019909201915b506001016155c0565b5060608167ffffffffffffffff8111801561571057600080fd5b5060405190808252806020026020018201604052801561573a578160200160208202803683370190505b50905060608267ffffffffffffffff8111801561575657600080fd5b50604051908082528060200260200182016040528015615780578160200160208202803683370190505b509050821561582e576000805b8581101561582b57866020015181815181106157a557fe5b60200260200101516000146158235786518051829081106157c257fe5b60200260200101518483815181106157d657fe5b6001600160a01b039092166020928302919091018201528701518051829081106157fc57fe5b602002602001015183838151811061581057fe5b6020026020010181815250508160010191505b60010161578d565b50505b908752602087015250505050509392505050565b609d54604080516340c10f1960e01b81526001600160a01b039283166004820152602481018490529051918416916340c10f199160448082019260009290919082900301818387803b15801561589757600080fd5b505af1158015614915573d6000803e3d6000fd5b805160005b81811015613b2b578281815181106158c457fe5b602002602001015160001461590e576040805162461bcd60e51b815260206004820152600b60248201526a4e6f436f6c6c575265634d60a81b604482015290519081900360640190fd5b6001016158b0565b80821015613984576040805162461bcd60e51b81526020600482015260126024820152712932b1a6b7b2329d24a1a91e37b63224a1a960711b604482015290519081900360640190fd5b604080516001600160a01b0380861660248301528416604482015260648082018490528251808303909101815260849091019091526020810180516001600160e01b03166323b872dd60e01b179052612fc09085906060615a0a826040518060400160405280602081526020017f5361666545524332303a206c6f772d6c6576656c2063616c6c206661696c6564815250856001600160a01b0316615a679092919063ffffffff16565b90508051600014613b2b57808060200190516020811015615a2a57600080fd5b5051613b2b5760405162461bcd60e51b815260040180806020018281038252602a815260200180615f23602a913960400191505060405180910390fd5b6060615a768484600085615a7e565b949350505050565b606082471015615abf5760405162461bcd60e51b8152600401808060200182810382526026815260200180615eaf6026913960400191505060405180910390fd5b615ac8856149fa565b615b19576040805162461bcd60e51b815260206004820152601d60248201527f416464726573733a2063616c6c20746f206e6f6e2d636f6e7472616374000000604482015290519081900360640190fd5b60006060866001600160a01b031685876040518082805190602001908083835b60208310615b585780518252601f199092019160209182019101615b39565b6001836020036101000a03801982511681845116808217855250505050505090500191505060006040518083038185875af1925050503d8060008114615bba576040519150601f19603f3d011682016040523d82523d6000602084013e615bbf565b606091505b509150915061441682828660608315615bd9575081612eb9565b825115615be95782518084602001fd5b60405162461bcd60e51b8152602060048201818152845160248401528451859391928392604401919085019080838360008315614cc6578181015183820152602001614cae565b60408051608081018252600080825260208201819052918101829052606081019190915290565b60405180610160016040528060608152602001606081526020016060815260200160608152602001606081526020016000815260200160001515815260200160001515815260200160006001600160a01b0316815260200160006001600160a01b03168152602001600081525090565b6040518060800160405280600081526020016000815260200160006001600160a01b0316815260200160006001600160a01b031681525090565b604051806102e001604052806000815260200160001515815260200160001515815260200160008152602001600081526020016000815260200160008152602001606081526020016060815260200160608152602001606081526020016000815260200160008152602001600081526020016000815260200160008152602001600081526020016000815260200160008152602001600081526020016000815260200160008152602001600081525090565b604051806101600160405280600081526020016000815260200160008152602001600081526020016000815260200160008152602001600081526020016000815260200160008152602001600081526020016000151581525090565b604051806040016040528060608152602001606081525090565b6040518060c001604052806000815260200160008152602001600081526020016000815260200160006001600160a01b0316815260200160008152509056fe5265656e7472616e637947756172643a207265656e7472616e742063616c6c004f776e61626c653a206e6577206f776e657220697320746865207a65726f2061646472657373416464726573733a20696e73756666696369656e742062616c616e636520666f722063616c6c496e697469616c697a61626c653a20636f6e747261637420697320616c726561647920696e697469616c697a656498c96bbf8d2aa6be678259387225d169084fca483ed9598bde8ea258036bcacf5361666545524332303a204552433230206f7065726174696f6e20646964206e6f742073756363656564a26469706673582212206ad826113780b147ff96febb9430ecff7c83122694909346c6cd2a7da797618e64736f6c634300060b0033",
  "linkReferences": {},
  "deployedLinkReferences": {}
}