{
  "_format": "hh-sol-artifact-1",
  "contractName": "DefaultPool",
  "sourceName": "src/main/DefaultPool.sol",
  "abi": [
    {
      "anonymous": false,
      "inputs": [
        {
          "indexed": false,
          "internalType": "address",
          "name": "_newActivePoolAddress",
          "type": "address"
        }
      ],
      "name": "ActivePoolAddressChanged",
      "type": "event"
    },
    {
      "anonymous": false,
      "inputs": [
        {
          "indexed": false,
          "internalType": "uint256",
          "name": "_newBalance",
          "type": "uint256"
        }
      ],
      "name": "CUSDBalanceUpdated",
      "type": "event"
    },
    {
      "anonymous": false,
      "inputs": [
        {
          "indexed": false,
          "internalType": "address",
          "name": "_collateral",
          "type": "address"
        },
        {
          "indexed": false,
          "internalType": "address",
          "name": "_to",
          "type": "address"
        },
        {
          "indexed": false,
          "internalType": "uint256",
          "name": "_amount",
          "type": "uint256"
        }
      ],
      "name": "CollateralSent",
      "type": "event"
    },
    {
      "anonymous": false,
      "inputs": [
        {
          "indexed": false,
          "internalType": "address",
          "name": "_newDefaultPoolAddress",
          "type": "address"
        }
      ],
      "name": "DefaultPoolAddressChanged",
      "type": "event"
    },
    {
      "anonymous": false,
      "inputs": [
        {
          "indexed": false,
          "internalType": "address",
          "name": "_collateral",
          "type": "address"
        },
        {
          "indexed": false,
          "internalType": "uint256",
          "name": "_amount",
          "type": "uint256"
        }
      ],
      "name": "DefaultPoolBalanceUpdated",
      "type": "event"
    },
    {
      "anonymous": false,
      "inputs": [
        {
          "indexed": false,
          "internalType": "address[]",
          "name": "_collaterals",
          "type": "address[]"
        },
        {
          "indexed": false,
          "internalType": "uint256[]",
          "name": "_amounts",
          "type": "uint256[]"
        }
      ],
      "name": "DefaultPoolBalancesUpdated",
      "type": "event"
    },
    {
      "anonymous": false,
      "inputs": [
        {
          "indexed": false,
          "internalType": "uint256",
          "name": "_CUSDDebt",
          "type": "uint256"
        }
      ],
      "name": "DefaultPoolCUSDDebtUpdated",
      "type": "event"
    },
    {
      "anonymous": false,
      "inputs": [
        {
          "indexed": false,
          "internalType": "uint256",
          "name": "_ETH",
          "type": "uint256"
        }
      ],
      "name": "DefaultPoolETHBalanceUpdated",
      "type": "event"
    },
    {
      "anonymous": false,
      "inputs": [
        {
          "indexed": false,
          "internalType": "uint256",
          "name": "_VSTDebt",
          "type": "uint256"
        }
      ],
      "name": "DefaultPoolVSTDebtUpdated",
      "type": "event"
    },
    {
      "anonymous": false,
      "inputs": [
        {
          "indexed": false,
          "internalType": "uint256",
          "name": "_newBalance",
          "type": "uint256"
        }
      ],
      "name": "ETHBalanceUpdated",
      "type": "event"
    },
    {
      "anonymous": false,
      "inputs": [
        {
          "indexed": false,
          "internalType": "address",
          "name": "_to",
          "type": "address"
        },
        {
          "indexed": false,
          "internalType": "uint256",
          "name": "_amount",
          "type": "uint256"
        }
      ],
      "name": "EtherSent",
      "type": "event"
    },
    {
      "anonymous": false,
      "inputs": [
        {
          "indexed": true,
          "internalType": "address",
          "name": "previousOwner",
          "type": "address"
        },
        {
          "indexed": true,
          "internalType": "address",
          "name": "newOwner",
          "type": "address"
        }
      ],
      "name": "OwnershipTransferred",
      "type": "event"
    },
    {
      "anonymous": false,
      "inputs": [
        {
          "indexed": false,
          "internalType": "address",
          "name": "_newStabilityPoolAddress",
          "type": "address"
        }
      ],
      "name": "StabilityPoolAddressChanged",
      "type": "event"
    },
    {
      "anonymous": false,
      "inputs": [
        {
          "indexed": false,
          "internalType": "address",
          "name": "_newTroveManagerAddress",
          "type": "address"
        }
      ],
      "name": "TroveManagerAddressChanged",
      "type": "event"
    },
    {
      "anonymous": false,
      "inputs": [
        {
          "indexed": false,
          "internalType": "address",
          "name": "_newWhitelistAddress",
          "type": "address"
        }
      ],
      "name": "WhitelistAddressChanged",
      "type": "event"
    },
    {
      "inputs": [],
      "name": "DECIMAL_PRECISION",
      "outputs": [
        {
          "internalType": "uint256",
          "name": "",
          "type": "uint256"
        }
      ],
      "stateMutability": "view",
      "type": "function"
    },
    {
      "inputs": [],
      "name": "NAME",
      "outputs": [
        {
          "internalType": "string",
          "name": "",
          "type": "string"
        }
      ],
      "stateMutability": "view",
      "type": "function"
    },
    {
      "inputs": [
        {
          "internalType": "address",
          "name": "_collateral",
          "type": "address"
        }
      ],
      "name": "addCollateralType",
      "outputs": [],
      "stateMutability": "nonpayable",
      "type": "function"
    },
    {
      "inputs": [
        {
          "internalType": "uint256",
          "name": "_amount",
          "type": "uint256"
        }
      ],
      "name": "decreaseCUSDDebt",
      "outputs": [],
      "stateMutability": "nonpayable",
      "type": "function"
    },
    {
      "inputs": [],
      "name": "getAllAmounts",
      "outputs": [
        {
          "internalType": "uint256[]",
          "name": "",
          "type": "uint256[]"
        }
      ],
      "stateMutability": "view",
      "type": "function"
    },
    {
      "inputs": [],
      "name": "getAllCollateral",
      "outputs": [
        {
          "internalType": "address[]",
          "name": "",
          "type": "address[]"
        },
        {
          "internalType": "uint256[]",
          "name": "",
          "type": "uint256[]"
        }
      ],
      "stateMutability": "view",
      "type": "function"
    },
    {
      "inputs": [],
      "name": "getCUSDDebt",
      "outputs": [
        {
          "internalType": "uint256",
          "name": "",
          "type": "uint256"
        }
      ],
      "stateMutability": "view",
      "type": "function"
    },
    {
      "inputs": [
        {
          "internalType": "address",
          "name": "_collateral",
          "type": "address"
        }
      ],
      "name": "getCollateral",
      "outputs": [
        {
          "internalType": "uint256",
          "name": "",
          "type": "uint256"
        }
      ],
      "stateMutability": "view",
      "type": "function"
    },
    {
      "inputs": [
        {
          "internalType": "address",
          "name": "_collateral",
          "type": "address"
        }
      ],
      "name": "getCollateralVC",
      "outputs": [
        {
          "internalType": "uint256",
          "name": "",
          "type": "uint256"
        }
      ],
      "stateMutability": "view",
      "type": "function"
    },
    {
      "inputs": [],
      "name": "getVC",
      "outputs": [
        {
          "internalType": "uint256",
          "name": "totalVC",
          "type": "uint256"
        }
      ],
      "stateMutability": "view",
      "type": "function"
    },
    {
      "inputs": [],
      "name": "getVCforTCR",
      "outputs": [
        {
          "internalType": "uint256",
          "name": "totalVC",
          "type": "uint256"
        },
        {
          "internalType": "uint256",
          "name": "totalVCforTCR",
          "type": "uint256"
        }
      ],
      "stateMutability": "view",
      "type": "function"
    },
    {
      "inputs": [
        {
          "internalType": "uint256",
          "name": "_amount",
          "type": "uint256"
        }
      ],
      "name": "increaseCUSDDebt",
      "outputs": [],
      "stateMutability": "nonpayable",
      "type": "function"
    },
    {
      "inputs": [],
      "name": "owner",
      "outputs": [
        {
          "internalType": "address",
          "name": "",
          "type": "address"
        }
      ],
      "stateMutability": "view",
      "type": "function"
    },
    {
      "inputs": [
        {
          "internalType": "address[]",
          "name": "_tokens",
          "type": "address[]"
        },
        {
          "internalType": "uint256[]",
          "name": "_amounts",
          "type": "uint256[]"
        }
      ],
      "name": "receiveCollateral",
      "outputs": [],
      "stateMutability": "nonpayable",
      "type": "function"
    },
    {
      "inputs": [],
      "name": "renounceOwnership",
      "outputs": [],
      "stateMutability": "nonpayable",
      "type": "function"
    },
    {
      "inputs": [
        {
          "internalType": "address[]",
          "name": "_tokens",
          "type": "address[]"
        },
        {
          "internalType": "uint256[]",
          "name": "_amounts",
          "type": "uint256[]"
        },
        {
          "internalType": "address",
          "name": "_borrower",
          "type": "address"
        }
      ],
      "name": "sendCollsToActivePool",
      "outputs": [],
      "stateMutability": "nonpayable",
      "type": "function"
    },
    {
      "inputs": [
        {
          "internalType": "address",
          "name": "_troveManagerAddress",
          "type": "address"
        },
        {
          "internalType": "address",
          "name": "_activePoolAddress",
          "type": "address"
        },
        {
          "internalType": "address",
          "name": "_whitelistAddress",
          "type": "address"
        },
        {
          "internalType": "address",
          "name": "_bocTreasuryAddress",
          "type": "address"
        }
      ],
      "name": "setAddresses",
      "outputs": [],
      "stateMutability": "nonpayable",
      "type": "function"
    },
    {
      "inputs": [],
      "name": "setUp",
      "outputs": [],
      "stateMutability": "nonpayable",
      "type": "function"
    },
    {
      "inputs": [
        {
          "internalType": "address",
          "name": "newOwner",
          "type": "address"
        }
      ],
      "name": "transferOwnership",
      "outputs": [],
      "stateMutability": "nonpayable",
      "type": "function"
    }
  ],
  "bytecode": "0x608060405234801561001057600080fd5b50612006806100206000396000f3fe608060405234801561001057600080fd5b50600436106101115760003560e01c8063715018a6116100ad578063a7a24edd11610071578063a7a24edd14610406578063c6ba093614610529578063caf14b95146105ca578063ec0d5e0c14610622578063f2fde38b1461064857610111565b8063715018a61461032f5780638da5cb5b146103375780639b56d6c91461035b578063a20baee614610381578063a3f4df7e1461038957610111565b806301d40b63146101165780630a9254e41461013057806310ec1f521461013a5780633270a9e0146101425780633b036ced146101685780633f02d91f146101855780634a574e33146101a25780634a945f8d146101c357806361ccca5814610201575b600080fd5b61011e61066e565b60408051918252519081900360200190f35b610138610769565b005b61011e610773565b61011e6004803603602081101561015857600080fd5b50356001600160a01b031661077a565b6101386004803603602081101561017e57600080fd5b5035610817565b6101386004803603602081101561019b57600080fd5b503561086c565b6101aa610887565b6040805192835260208301919091528051918290030190f35b610138600480360360808110156101d957600080fd5b506001600160a01b0381358116916020810135821691604082013581169160600135166109a3565b6101386004803603606081101561021757600080fd5b810190602081018135600160201b81111561023157600080fd5b82018360208201111561024357600080fd5b803590602001918460208302840111600160201b8311171561026457600080fd5b9190808060200260200160405190810160405280939291908181526020018383602002808284376000920191909152509295949360208101935035915050600160201b8111156102b357600080fd5b8201836020820111156102c557600080fd5b803590602001918460208302840111600160201b831117156102e657600080fd5b919080806020026020016040519081016040528093929190818152602001838360200280828437600092019190915250929550505090356001600160a01b03169150610afa9050565b610138610df5565b61033f610e8f565b604080516001600160a01b039092168252519081900360200190f35b61011e6004803603602081101561037157600080fd5b50356001600160a01b0316610e9e565b61011e610f36565b610391610f42565b6040805160208082528351818301528351919283929083019185019080838360005b838110156103cb5781810151838201526020016103b3565b50505050905090810190601f1680156103f85780820380516001836020036101000a031916815260200191505b509250505060405180910390f35b6101386004803603604081101561041c57600080fd5b810190602081018135600160201b81111561043657600080fd5b82018360208201111561044857600080fd5b803590602001918460208302840111600160201b8311171561046957600080fd5b9190808060200260200160405190810160405280939291908181526020018383602002808284376000920191909152509295949360208101935035915050600160201b8111156104b857600080fd5b8201836020820111156104ca57600080fd5b803590602001918460208302840111600160201b831117156104eb57600080fd5b919080806020026020016040519081016040528093929190818152602001838360200280828437600092019190915250929550610f69945050505050565b610531611108565b604051808060200180602001838103835285818151815260200191508051906020019060200280838360005b8381101561057557818101518382015260200161055d565b50505050905001838103825284818151815260200191508051906020019060200280838360005b838110156105b457818101518382015260200161059c565b5050505090500194505050505060405180910390f35b6105d26111cb565b60408051602080825283518183015283519192839290830191858101910280838360005b8381101561060e5781810151838201526020016105f6565b505050509050019250505060405180910390f35b6101386004803603602081101561063857600080fd5b50356001600160a01b0316611226565b6101386004803603602081101561065e57600080fd5b50356001600160a01b03166112b0565b606a54600090815b81811015610764576000606a600001828154811061069057fe5b6000918252602082200154606b80546001600160a01b03909216935090849081106106b757fe5b60009182526020918290200154606554604080516305c5635160e31b81526001600160a01b038781166004830152602482018590529151939550610755949190921692632e2b1a88926044808201939291829003018186803b15801561071c57600080fd5b505afa158015610730573d6000803e3d6000fd5b505050506040513d602081101561074657600080fd5b5051869063ffffffff6113a116565b94505050806001019050610676565b505090565b6107716113f1565b565b606c545b90565b6065546000906001600160a01b0316632e2b1a888361079881610e9e565b6040518363ffffffff1660e01b815260040180836001600160a01b03166001600160a01b031681526020018281526020019250505060206040518083038186803b1580156107e557600080fd5b505afa1580156107f9573d6000803e3d6000fd5b505050506040513d602081101561080f57600080fd5b505192915050565b61081f6114a3565b606c54610832908263ffffffff6114bd16565b606c81905560408051918252517f19cc524aeecacc677a9cfb6829d18318eb3e94de310b81165dd13daef365a6979181900360200190a150565b6108746114a3565b606c54610832908263ffffffff6113a116565b606a546000908190815b8181101561099d576000606a60000182815481106108ab57fe5b6000918252602082200154606b80546001600160a01b03909216935090849081106108d257fe5b600091825260208220015460655460408051631576b9d360e21b81526001600160a01b03878116600483015260248201859052825194965085949316926355dae74c92604480840193919291829003018186803b15801561093257600080fd5b505afa158015610946573d6000803e3d6000fd5b505050506040513d604081101561095c57600080fd5b508051602090910151909250905061097a888363ffffffff6113a116565b975061098c878263ffffffff6113a116565b965050505050806001019050610891565b50509091565b6109ab6114ee565b6001600160a01b03166109bc610e8f565b6001600160a01b031614610a05576040805162461bcd60e51b81526020600482018190526024820152600080516020611f67833981519152604482015290519081900360640190fd5b610a0e846114f2565b610a17836114f2565b610a20826114f2565b610a29816114f2565b606680546001600160a01b038087166001600160a01b03199283168117909355606780548783169084161790556065805486831690841681179091556068805484169091179055606980549185169190921617905560408051918252517f143219c9e69b09e07e095fcc889b43d8f46ca892bba65f08dc3a0050869a56789181900360200190a1604080516001600160a01b038516815290517f78f058b189175430c48dc02699e3a0031ea4ff781536dc2fab847de4babdd8829181900360200190a1610af4610df5565b50505050565b610b026114a3565b825182518114610b4e576040805162461bcd60e51b8152602060048201526012602482015271088a07498cadccee8d040dad2e6dac2e8c6d60731b604482015290519081900360640190fd5b60005b81811015610d07576000848281518110610b6757fe5b6020026020010151905080600014610cfe576000868381518110610b8757fe5b602090810291909101810151606554604080516324af709f60e11b81526001600160a01b038085166004830152915193955091169263495ee13e92602480840193829003018186803b158015610bdc57600080fd5b505afa158015610bf0573d6000803e3d6000fd5b505050506040513d6020811015610c0657600080fd5b505115610cf257604080516365382b0560e11b81523060048201526024810184905290516001600160a01b0383169163ca70560a91604480830192600092919082900301818387803b158015610c5b57600080fd5b505af1158015610c6f573d6000803e3d6000fd5b50505050610c7d81836115a5565b6040805163164746fd60e11b81523060048201526001600160a01b03878116602483015260448201859052915191831691632c8e8dfa9160648082019260009290919082900301818387803b158015610cd557600080fd5b505af1158015610ce9573d6000803e3d6000fd5b50505050610cfc565b610cfc81836115a5565b505b50600101610b51565b506067546040805163a7a24edd60e01b8152600481019182528651604482015286516001600160a01b039093169263a7a24edd9288928892829160248101916064909101906020808801910280838360005b83811015610d71578181015183820152602001610d59565b50505050905001838103825284818151815260200191508051906020019060200280838360005b83811015610db0578181015183820152602001610d98565b50505050905001945050505050600060405180830381600087803b158015610dd757600080fd5b505af1158015610deb573d6000803e3d6000fd5b5050505050505050565b610dfd6114ee565b6001600160a01b0316610e0e610e8f565b6001600160a01b031614610e57576040805162461bcd60e51b81526020600482018190526024820152600080516020611f67833981519152604482015290519081900360640190fd5b6033546040516000916001600160a01b031690600080516020611f87833981519152908390a3603380546001600160a01b0319169055565b6033546001600160a01b031690565b6065546040805163b31610db60e01b81526001600160a01b0384811660048301529151600093606b93169163b31610db916024808301926020929190829003018186803b158015610eee57600080fd5b505afa158015610f02573d6000803e3d6000fd5b505050506040513d6020811015610f1857600080fd5b505181548110610f2457fe5b90600052602060002001549050919050565b670de0b6b3a764000081565b6040518060400160405280600b81526020016a111959985d5b1d141bdbdb60aa1b81525081565b610f71611721565b60408051606a80546060602082028401810185529383018181526110349484928491840182828015610fcc57602002820191906000526020600020905b81546001600160a01b03168152600190910190602001808311610fae575b505050505081526020016001820180548060200260200160405190810160405280929190818152602001828054801561102457602002820191906000526020600020905b815481526020019060010190808311611010575b505050505081525050838361173b565b805161104891606b91602090910190611e87565b507f6391fbe8d7e4cc90b439d4e8d3dc07b9cbb23b914d46148b61b246bd9f638c5e8282604051808060200180602001838103835285818151815260200191508051906020019060200280838360005b838110156110b0578181015183820152602001611098565b50505050905001838103825284818151815260200191508051906020019060200280838360005b838110156110ef5781810151838201526020016110d7565b5050505090500194505050505060405180910390a15050565b606080606a600001606a6001018180548060200260200160405190810160405280929190818152602001828054801561116a57602002820191906000526020600020905b81546001600160a01b0316815260019091019060200180831161114c575b50505050509150808054806020026020016040519081016040528092919081815260200182805480156111bc57602002820191906000526020600020905b8154815260200190600101908083116111a8575b50505050509050915091509091565b6060606a60010180548060200260200160405190810160405280929190818152602001828054801561121c57602002820191906000526020600020905b815481526020019060010190808311611208575b5050505050905090565b61122e611879565b606a805460018082019092557f116fea137db6e131133e7f2bab296045d8f41cc5607279db17b218cab0929a510180546001600160a01b0319166001600160a01b039390931692909217909155606b8054918201815560009081527fbd43cb8ece8cd1863bcd6082d65c5b0d25665b1ce17980f0da43c0ed545f98b490910155565b6112b86114ee565b6001600160a01b03166112c9610e8f565b6001600160a01b031614611312576040805162461bcd60e51b81526020600482018190526024820152600080516020611f67833981519152604482015290519081900360640190fd5b6001600160a01b0381166113575760405162461bcd60e51b8152600401808060200182810382526026815260200180611eed6026913960400191505060405180910390fd5b6033546040516001600160a01b03808416921690600080516020611f8783398151915290600090a3603380546001600160a01b0319166001600160a01b0392909216919091179055565b6000828201838110156113ea576040805162461bcd60e51b815260206004820152600c60248201526b616464206f766572666c6f7760a01b604482015290519081900360640190fd5b9392505050565b600054610100900460ff168061140a575061140a611893565b80611418575060005460ff16155b6114535760405162461bcd60e51b815260040180806020018281038252602e815260200180611f39602e913960400191505060405180910390fd5b600054610100900460ff1615801561147e576000805460ff1961ff0019909116610100171660011790555b6114866118a4565b61148e611944565b80156114a0576000805461ff00191690555b50565b6066546001600160a01b0316331461077157610771611a2b565b60006113ea83836040518060400160405280600c81526020016b737562206f766572666c6f7760a01b815250611a78565b3390565b6001600160a01b03811661154d576040805162461bcd60e51b815260206004820152601e60248201527f4163636f756e742063616e6e6f74206265207a65726f20616464726573730000604482015290519081900360640190fd5b803b806115a1576040805162461bcd60e51b815260206004820181905260248201527f4163636f756e7420636f64652073697a652063616e6e6f74206265207a65726f604482015290519081900360640190fd5b5050565b6067546065546040805163b31610db60e01b81526001600160a01b0386811660048301529151938216936000939092169163b31610db91602480820192602092909190829003018186803b1580156115fc57600080fd5b505afa158015611610573d6000803e3d6000fd5b505050506040513d602081101561162657600080fd5b5051606b8054919250611659918591908490811061164057fe5b90600052602060002001546114bd90919063ffffffff16565b606b80548390811061166757fe5b60009182526020909120015561168d6001600160a01b038516838563ffffffff611b0f16565b604080516001600160a01b03861681526020810185905281517fcafa306d97bbac7bcdcb03e1b58c2624b7aaa17a5a85a70e04dd4a7a22b4e93d929181900390910190a1604080516001600160a01b0380871682528416602082015280820185905290517fe664153eb516123e000bb334869ec912418f6fe4c1abb53fe2f848c947a8405d9181900360600190a150505050565b6067546001600160a01b0316331461077157610771611a2b565b6060815160001415611752575060208301516113ea565b60606117618560200151611b66565b845190915060005b8181101561186e5760655486516000916001600160a01b03169063b31610db9089908590811061179557fe5b60200260200101516040518263ffffffff1660e01b815260040180826001600160a01b03166001600160a01b0316815260200191505060206040518083038186803b1580156117e357600080fd5b505afa1580156117f7573d6000803e3d6000fd5b505050506040513d602081101561180d57600080fd5b5051865190915061184e9087908490811061182457fe5b602002602001015185838151811061183857fe5b60200260200101516113a190919063ffffffff16565b84828151811061185a57fe5b602090810291909101015250600101611769565b509095945050505050565b6068546001600160a01b0316331461077157610771611a2b565b600061189e30611bf6565b15905090565b600054610100900460ff16806118bd57506118bd611893565b806118cb575060005460ff16155b6119065760405162461bcd60e51b815260040180806020018281038252602e815260200180611f39602e913960400191505060405180910390fd5b600054610100900460ff1615801561148e576000805460ff1961ff00199091166101001716600117905580156114a0576000805461ff001916905550565b600054610100900460ff168061195d575061195d611893565b8061196b575060005460ff16155b6119a65760405162461bcd60e51b815260040180806020018281038252602e815260200180611f39602e913960400191505060405180910390fd5b600054610100900460ff161580156119d1576000805460ff1961ff0019909116610100171660011790555b60006119db6114ee565b603380546001600160a01b0319166001600160a01b03831690811790915560405191925090600090600080516020611f87833981519152908290a35080156114a0576000805461ff001916905550565b6040805162461bcd60e51b815260206004820152601f60248201527f44503a2045787465726e616c2063616c6c6572206e6f7420616c6c6f77656400604482015290519081900360640190fd5b60008184841115611b075760405162461bcd60e51b81526004018080602001828103825283818151815260200191508051906020019080838360005b83811015611acc578181015183820152602001611ab4565b50505050905090810190601f168015611af95780820380516001836020036101000a031916815260200191505b509250505060405180910390fd5b505050900390565b604080516001600160a01b038416602482015260448082018490528251808303909101815260649091019091526020810180516001600160e01b031663a9059cbb60e01b179052611b61908490611bfc565b505050565b8051606090818167ffffffffffffffff81118015611b8357600080fd5b50604051908082528060200260200182016040528015611bad578160200160208202803683370190505b50905060005b82811015611bee57848181518110611bc757fe5b6020026020010151828281518110611bdb57fe5b6020908102919091010152600101611bb3565b509392505050565b3b151590565b6060611c51826040518060400160405280602081526020017f5361666545524332303a206c6f772d6c6576656c2063616c6c206661696c6564815250856001600160a01b0316611cae9092919063ffffffff16565b90508051600014611b6157808060200190516020811015611c7157600080fd5b5051611b615760405162461bcd60e51b815260040180806020018281038252602a815260200180611fa7602a913960400191505060405180910390fd5b6060611cbd8484600085611cc5565b949350505050565b606082471015611d065760405162461bcd60e51b8152600401808060200182810382526026815260200180611f136026913960400191505060405180910390fd5b611d0f85611bf6565b611d60576040805162461bcd60e51b815260206004820152601d60248201527f416464726573733a2063616c6c20746f206e6f6e2d636f6e7472616374000000604482015290519081900360640190fd5b60006060866001600160a01b031685876040518082805190602001908083835b60208310611d9f5780518252601f199092019160209182019101611d80565b6001836020036101000a03801982511681845116808217855250505050505090500191505060006040518083038185875af1925050503d8060008114611e01576040519150601f19603f3d011682016040523d82523d6000602084013e611e06565b606091505b5091509150611e16828286611e21565b979650505050505050565b60608315611e305750816113ea565b825115611e405782518084602001fd5b60405162461bcd60e51b8152602060048201818152845160248401528451859391928392604401919085019080838360008315611acc578181015183820152602001611ab4565b828054828255906000526020600020908101928215611ec2579160200282015b82811115611ec2578251825591602001919060010190611ea7565b50611ece929150611ed2565b5090565b61077791905b80821115611ece5760008155600101611ed856fe4f776e61626c653a206e6577206f776e657220697320746865207a65726f2061646472657373416464726573733a20696e73756666696369656e742062616c616e636520666f722063616c6c496e697469616c697a61626c653a20636f6e747261637420697320616c726561647920696e697469616c697a65644f776e61626c653a2063616c6c6572206973206e6f7420746865206f776e65728be0079c531659141344cd1fd0a4f28419497f9722a3daafe3b4186f6b6457e05361666545524332303a204552433230206f7065726174696f6e20646964206e6f742073756363656564a2646970667358221220d934dd2d9c71282fee14e412420a7bfaa61f5cb59e7653b4791280bc8c53c19364736f6c634300060b0033",
  "linkReferences": {},
  "deployedLinkReferences": {}
}