{
  "_format": "hh-sol-artifact-1",
  "contractName": "VestaCustomBase",
  "sourceName": "src/main/Dependencies/VestaCustomBase.sol",
  "abi": [
    {
      "inputs": [],
      "name": "DECIMAL_PRECISION",
      "outputs": [
        {
          "internalType": "uint256",
          "name": "",
          "type": "uint256"
        }
      ],
      "stateMutability": "view",
      "type": "function"
    }
  ],
  "bytecode": "0x6080604052348015600f57600080fd5b5060878061001e6000396000f3fe6080604052348015600f57600080fd5b506004361060285760003560e01c8063a20baee614602d575b600080fd5b60336045565b60408051918252519081900360200190f35b670de0b6b3a76400008156fea26469706673582212203d8cdbd67d3225c867d2852ce78ba1d3126fb516dfc4bb3637cf9f4eef87dc8d64736f6c634300060b0033",
  "linkReferences": {},
  "deployedLinkReferences": {}
}