{
  "_format": "hh-sol-artifact-1",
  "contractName": "Whitelist",
  "sourceName": "src/main/Dependencies/Whitelist.sol",
  "abi": [
    {
      "anonymous": false,
      "inputs": [
        {
          "indexed": false,
          "internalType": "address",
          "name": "_collateral",
          "type": "address"
        }
      ],
      "name": "CollateralAdded",
      "type": "event"
    },
    {
      "anonymous": false,
      "inputs": [
        {
          "indexed": false,
          "internalType": "address",
          "name": "_collateral",
          "type": "address"
        }
      ],
      "name": "CollateralDeprecated",
      "type": "event"
    },
    {
      "anonymous": false,
      "inputs": [
        {
          "indexed": false,
          "internalType": "address",
          "name": "_collateral",
          "type": "address"
        }
      ],
      "name": "CollateralUndeprecated",
      "type": "event"
    },
    {
      "anonymous": false,
      "inputs": [
        {
          "indexed": false,
          "internalType": "address",
          "name": "_collateral",
          "type": "address"
        },
        {
          "indexed": false,
          "internalType": "address",
          "name": "_newOracle",
          "type": "address"
        }
      ],
      "name": "OracleChanged",
      "type": "event"
    },
    {
      "anonymous": false,
      "inputs": [
        {
          "indexed": true,
          "internalType": "address",
          "name": "previousOwner",
          "type": "address"
        },
        {
          "indexed": true,
          "internalType": "address",
          "name": "newOwner",
          "type": "address"
        }
      ],
      "name": "OwnershipTransferred",
      "type": "event"
    },
    {
      "anonymous": false,
      "inputs": [
        {
          "indexed": false,
          "internalType": "address",
          "name": "_collateral",
          "type": "address"
        },
        {
          "indexed": false,
          "internalType": "address",
          "name": "_newPriceCurve",
          "type": "address"
        }
      ],
      "name": "PriceCurveChanged",
      "type": "event"
    },
    {
      "anonymous": false,
      "inputs": [
        {
          "indexed": false,
          "internalType": "address",
          "name": "_collateral",
          "type": "address"
        },
        {
          "indexed": false,
          "internalType": "uint256",
          "name": "_newRecoveryRatio",
          "type": "uint256"
        }
      ],
      "name": "RecoveryRatioChanged",
      "type": "event"
    },
    {
      "anonymous": false,
      "inputs": [
        {
          "indexed": false,
          "internalType": "address",
          "name": "_collateral",
          "type": "address"
        },
        {
          "indexed": false,
          "internalType": "uint256",
          "name": "_newSafetyRatio",
          "type": "uint256"
        }
      ],
      "name": "SafetyRatioChanged",
      "type": "event"
    },
    {
      "inputs": [
        {
          "internalType": "address",
          "name": "_collateral",
          "type": "address"
        },
        {
          "internalType": "uint256",
          "name": "_safetyRatio",
          "type": "uint256"
        },
        {
          "internalType": "uint256",
          "name": "_recoveryRatio",
          "type": "uint256"
        },
        {
          "internalType": "address",
          "name": "_oracle",
          "type": "address"
        },
        {
          "internalType": "uint256",
          "name": "_decimals",
          "type": "uint256"
        },
        {
          "internalType": "address",
          "name": "_priceCurve",
          "type": "address"
        },
        {
          "internalType": "bool",
          "name": "_isWrapped",
          "type": "bool"
        },
        {
          "internalType": "address",
          "name": "_routerAddress",
          "type": "address"
        }
      ],
      "name": "addCollateral",
      "outputs": [],
      "stateMutability": "nonpayable",
      "type": "function"
    },
    {
      "inputs": [
        {
          "internalType": "address",
          "name": "_collateral",
          "type": "address"
        },
        {
          "internalType": "address",
          "name": "_oracle",
          "type": "address"
        }
      ],
      "name": "changeOracle",
      "outputs": [],
      "stateMutability": "nonpayable",
      "type": "function"
    },
    {
      "inputs": [
        {
          "internalType": "address",
          "name": "_collateral",
          "type": "address"
        },
        {
          "internalType": "address",
          "name": "_priceCurve",
          "type": "address"
        }
      ],
      "name": "changePriceCurve",
      "outputs": [],
      "stateMutability": "nonpayable",
      "type": "function"
    },
    {
      "inputs": [
        {
          "internalType": "address",
          "name": "_collateral",
          "type": "address"
        },
        {
          "internalType": "uint256",
          "name": "_newRecoveryRatio",
          "type": "uint256"
        }
      ],
      "name": "changeRecoveryRatio",
      "outputs": [],
      "stateMutability": "nonpayable",
      "type": "function"
    },
    {
      "inputs": [
        {
          "internalType": "address",
          "name": "_collateral",
          "type": "address"
        },
        {
          "internalType": "uint256",
          "name": "_newSafetyRatio",
          "type": "uint256"
        }
      ],
      "name": "changeSafetyRatio",
      "outputs": [],
      "stateMutability": "nonpayable",
      "type": "function"
    },
    {
      "inputs": [
        {
          "internalType": "address",
          "name": "",
          "type": "address"
        }
      ],
      "name": "collateralParams",
      "outputs": [
        {
          "internalType": "uint256",
          "name": "safetyRatio",
          "type": "uint256"
        },
        {
          "internalType": "uint256",
          "name": "recoveryRatio",
          "type": "uint256"
        },
        {
          "internalType": "address",
          "name": "oracle",
          "type": "address"
        },
        {
          "internalType": "uint256",
          "name": "decimals",
          "type": "uint256"
        },
        {
          "internalType": "address",
          "name": "priceCurve",
          "type": "address"
        },
        {
          "internalType": "uint256",
          "name": "index",
          "type": "uint256"
        },
        {
          "internalType": "address",
          "name": "defaultRouter",
          "type": "address"
        },
        {
          "internalType": "bool",
          "name": "active",
          "type": "bool"
        },
        {
          "internalType": "bool",
          "name": "isWrapped",
          "type": "bool"
        }
      ],
      "stateMutability": "view",
      "type": "function"
    },
    {
      "inputs": [
        {
          "internalType": "address",
          "name": "_collateral",
          "type": "address"
        }
      ],
      "name": "deprecateCollateral",
      "outputs": [],
      "stateMutability": "nonpayable",
      "type": "function"
    },
    {
      "inputs": [
        {
          "internalType": "address",
          "name": "_collateral",
          "type": "address"
        }
      ],
      "name": "getDecimals",
      "outputs": [
        {
          "internalType": "uint256",
          "name": "",
          "type": "uint256"
        }
      ],
      "stateMutability": "view",
      "type": "function"
    },
    {
      "inputs": [
        {
          "internalType": "address",
          "name": "_collateral",
          "type": "address"
        }
      ],
      "name": "getDefaultRouterAddress",
      "outputs": [
        {
          "internalType": "address",
          "name": "",
          "type": "address"
        }
      ],
      "stateMutability": "view",
      "type": "function"
    },
    {
      "inputs": [
        {
          "internalType": "address",
          "name": "_collateral",
          "type": "address"
        },
        {
          "internalType": "uint256",
          "name": "_collateralVCInput",
          "type": "uint256"
        },
        {
          "internalType": "uint256",
          "name": "_collateralVCSystemBalance",
          "type": "uint256"
        },
        {
          "internalType": "uint256",
          "name": "_totalVCBalancePre",
          "type": "uint256"
        },
        {
          "internalType": "uint256",
          "name": "_totalVCBalancePost",
          "type": "uint256"
        }
      ],
      "name": "getFee",
      "outputs": [
        {
          "internalType": "uint256",
          "name": "fee",
          "type": "uint256"
        }
      ],
      "stateMutability": "view",
      "type": "function"
    },
    {
      "inputs": [
        {
          "internalType": "address",
          "name": "_collateral",
          "type": "address"
        },
        {
          "internalType": "uint256",
          "name": "_collateralVCInput",
          "type": "uint256"
        },
        {
          "internalType": "uint256",
          "name": "_collateralVCSystemBalance",
          "type": "uint256"
        },
        {
          "internalType": "uint256",
          "name": "_totalVCBalancePre",
          "type": "uint256"
        },
        {
          "internalType": "uint256",
          "name": "_totalVCBalancePost",
          "type": "uint256"
        }
      ],
      "name": "getFeeAndUpdate",
      "outputs": [
        {
          "internalType": "uint256",
          "name": "fee",
          "type": "uint256"
        }
      ],
      "stateMutability": "nonpayable",
      "type": "function"
    },
    {
      "inputs": [
        {
          "internalType": "address",
          "name": "_collateral",
          "type": "address"
        }
      ],
      "name": "getIndex",
      "outputs": [
        {
          "internalType": "uint256",
          "name": "",
          "type": "uint256"
        }
      ],
      "stateMutability": "view",
      "type": "function"
    },
    {
      "inputs": [
        {
          "internalType": "address",
          "name": "_collateral",
          "type": "address"
        }
      ],
      "name": "getIsActive",
      "outputs": [
        {
          "internalType": "bool",
          "name": "",
          "type": "bool"
        }
      ],
      "stateMutability": "view",
      "type": "function"
    },
    {
      "inputs": [
        {
          "internalType": "address",
          "name": "_collateral",
          "type": "address"
        }
      ],
      "name": "getOracle",
      "outputs": [
        {
          "internalType": "address",
          "name": "",
          "type": "address"
        }
      ],
      "stateMutability": "view",
      "type": "function"
    },
    {
      "inputs": [
        {
          "internalType": "address",
          "name": "_collateral",
          "type": "address"
        }
      ],
      "name": "getPrice",
      "outputs": [
        {
          "internalType": "uint256",
          "name": "",
          "type": "uint256"
        }
      ],
      "stateMutability": "view",
      "type": "function"
    },
    {
      "inputs": [
        {
          "internalType": "address",
          "name": "_collateral",
          "type": "address"
        }
      ],
      "name": "getPriceCurve",
      "outputs": [
        {
          "internalType": "address",
          "name": "",
          "type": "address"
        }
      ],
      "stateMutability": "view",
      "type": "function"
    },
    {
      "inputs": [
        {
          "internalType": "address",
          "name": "_collateral",
          "type": "address"
        }
      ],
      "name": "getRecoveryRatio",
      "outputs": [
        {
          "internalType": "uint256",
          "name": "",
          "type": "uint256"
        }
      ],
      "stateMutability": "view",
      "type": "function"
    },
    {
      "inputs": [
        {
          "internalType": "address",
          "name": "_collateral",
          "type": "address"
        }
      ],
      "name": "getSafetyRatio",
      "outputs": [
        {
          "internalType": "uint256",
          "name": "",
          "type": "uint256"
        }
      ],
      "stateMutability": "view",
      "type": "function"
    },
    {
      "inputs": [
        {
          "internalType": "address",
          "name": "_contract",
          "type": "address"
        }
      ],
      "name": "getValidCaller",
      "outputs": [
        {
          "internalType": "address",
          "name": "",
          "type": "address"
        }
      ],
      "stateMutability": "view",
      "type": "function"
    },
    {
      "inputs": [],
      "name": "getValidCollateral",
      "outputs": [
        {
          "internalType": "address[]",
          "name": "",
          "type": "address[]"
        }
      ],
      "stateMutability": "view",
      "type": "function"
    },
    {
      "inputs": [
        {
          "internalType": "address",
          "name": "_collateral",
          "type": "address"
        },
        {
          "internalType": "uint256",
          "name": "_amount",
          "type": "uint256"
        }
      ],
      "name": "getValueRVC",
      "outputs": [
        {
          "internalType": "uint256",
          "name": "",
          "type": "uint256"
        }
      ],
      "stateMutability": "view",
      "type": "function"
    },
    {
      "inputs": [
        {
          "internalType": "address",
          "name": "_collateral",
          "type": "address"
        },
        {
          "internalType": "uint256",
          "name": "_amount",
          "type": "uint256"
        }
      ],
      "name": "getValueUSD",
      "outputs": [
        {
          "internalType": "uint256",
          "name": "",
          "type": "uint256"
        }
      ],
      "stateMutability": "view",
      "type": "function"
    },
    {
      "inputs": [
        {
          "internalType": "address",
          "name": "_collateral",
          "type": "address"
        },
        {
          "internalType": "uint256",
          "name": "_amount",
          "type": "uint256"
        }
      ],
      "name": "getValueVC",
      "outputs": [
        {
          "internalType": "uint256",
          "name": "",
          "type": "uint256"
        }
      ],
      "stateMutability": "view",
      "type": "function"
    },
    {
      "inputs": [
        {
          "internalType": "address",
          "name": "_collateral",
          "type": "address"
        },
        {
          "internalType": "uint256",
          "name": "_amount",
          "type": "uint256"
        }
      ],
      "name": "getValueVCforTCR",
      "outputs": [
        {
          "internalType": "uint256",
          "name": "",
          "type": "uint256"
        },
        {
          "internalType": "uint256",
          "name": "",
          "type": "uint256"
        }
      ],
      "stateMutability": "view",
      "type": "function"
    },
    {
      "inputs": [
        {
          "internalType": "address[]",
          "name": "_collaterals",
          "type": "address[]"
        },
        {
          "internalType": "uint256[]",
          "name": "_amounts",
          "type": "uint256[]"
        }
      ],
      "name": "getValuesRVC",
      "outputs": [
        {
          "internalType": "uint256",
          "name": "RVCValue",
          "type": "uint256"
        }
      ],
      "stateMutability": "view",
      "type": "function"
    },
    {
      "inputs": [
        {
          "internalType": "address[]",
          "name": "_collaterals",
          "type": "address[]"
        },
        {
          "internalType": "uint256[]",
          "name": "_amounts",
          "type": "uint256[]"
        }
      ],
      "name": "getValuesUSD",
      "outputs": [
        {
          "internalType": "uint256",
          "name": "USDValue",
          "type": "uint256"
        }
      ],
      "stateMutability": "view",
      "type": "function"
    },
    {
      "inputs": [
        {
          "internalType": "address[]",
          "name": "_collaterals",
          "type": "address[]"
        },
        {
          "internalType": "uint256[]",
          "name": "_amounts",
          "type": "uint256[]"
        }
      ],
      "name": "getValuesVC",
      "outputs": [
        {
          "internalType": "uint256",
          "name": "VCValue",
          "type": "uint256"
        }
      ],
      "stateMutability": "view",
      "type": "function"
    },
    {
      "inputs": [
        {
          "internalType": "address[]",
          "name": "_collaterals",
          "type": "address[]"
        },
        {
          "internalType": "uint256[]",
          "name": "_amounts",
          "type": "uint256[]"
        }
      ],
      "name": "getValuesVCforTCR",
      "outputs": [
        {
          "internalType": "uint256",
          "name": "VCValue",
          "type": "uint256"
        },
        {
          "internalType": "uint256",
          "name": "RVCValue",
          "type": "uint256"
        }
      ],
      "stateMutability": "view",
      "type": "function"
    },
    {
      "inputs": [
        {
          "internalType": "address",
          "name": "_caller",
          "type": "address"
        }
      ],
      "name": "isValidCaller",
      "outputs": [
        {
          "internalType": "bool",
          "name": "",
          "type": "bool"
        }
      ],
      "stateMutability": "view",
      "type": "function"
    },
    {
      "inputs": [
        {
          "internalType": "address",
          "name": "_collateral",
          "type": "address"
        }
      ],
      "name": "isWrapped",
      "outputs": [
        {
          "internalType": "bool",
          "name": "",
          "type": "bool"
        }
      ],
      "stateMutability": "view",
      "type": "function"
    },
    {
      "inputs": [
        {
          "internalType": "address",
          "name": "_contract",
          "type": "address"
        }
      ],
      "name": "lockCaller",
      "outputs": [],
      "stateMutability": "nonpayable",
      "type": "function"
    },
    {
      "inputs": [],
      "name": "owner",
      "outputs": [
        {
          "internalType": "address",
          "name": "",
          "type": "address"
        }
      ],
      "stateMutability": "view",
      "type": "function"
    },
    {
      "inputs": [],
      "name": "renounceOwnership",
      "outputs": [],
      "stateMutability": "nonpayable",
      "type": "function"
    },
    {
      "inputs": [
        {
          "internalType": "address",
          "name": "_activePoolAddress",
          "type": "address"
        },
        {
          "internalType": "address",
          "name": "_defaultPoolAddress",
          "type": "address"
        },
        {
          "internalType": "address",
          "name": "_stabilityPoolAddress",
          "type": "address"
        },
        {
          "internalType": "address",
          "name": "_collSurplusPoolAddress",
          "type": "address"
        },
        {
          "internalType": "address",
          "name": "_borrowerOperationsAddress",
          "type": "address"
        }
      ],
      "name": "setAddresses",
      "outputs": [],
      "stateMutability": "nonpayable",
      "type": "function"
    },
    {
      "inputs": [
        {
          "internalType": "address",
          "name": "_collateral",
          "type": "address"
        },
        {
          "internalType": "address",
          "name": "_router",
          "type": "address"
        }
      ],
      "name": "setDefaultRouter",
      "outputs": [],
      "stateMutability": "nonpayable",
      "type": "function"
    },
    {
      "inputs": [],
      "name": "setUp",
      "outputs": [],
      "stateMutability": "nonpayable",
      "type": "function"
    },
    {
      "inputs": [
        {
          "internalType": "address",
          "name": "newOwner",
          "type": "address"
        }
      ],
      "name": "transferOwnership",
      "outputs": [],
      "stateMutability": "nonpayable",
      "type": "function"
    },
    {
      "inputs": [
        {
          "internalType": "address",
          "name": "_collateral",
          "type": "address"
        }
      ],
      "name": "undeprecateCollateral",
      "outputs": [],
      "stateMutability": "nonpayable",
      "type": "function"
    },
    {
      "inputs": [
        {
          "internalType": "uint256",
          "name": "_newMax",
          "type": "uint256"
        }
      ],
      "name": "updateMaxCollsInTrove",
      "outputs": [],
      "stateMutability": "nonpayable",
      "type": "function"
    },
    {
      "inputs": [
        {
          "internalType": "address",
          "name": "_contract",
          "type": "address"
        },
        {
          "internalType": "bool",
          "name": "_lock",
          "type": "bool"
        }
      ],
      "name": "updatePendingLockCaller",
      "outputs": [],
      "stateMutability": "nonpayable",
      "type": "function"
    },
    {
      "inputs": [
        {
          "internalType": "address",
          "name": "_contract",
          "type": "address"
        },
        {
          "internalType": "address",
          "name": "_caller",
          "type": "address"
        }
      ],
      "name": "updateValidCaller",
      "outputs": [],
      "stateMutability": "nonpayable",
      "type": "function"
    },
    {
      "inputs": [
        {
          "internalType": "uint256",
          "name": "",
          "type": "uint256"
        }
      ],
      "name": "validCollateral",
      "outputs": [
        {
          "internalType": "address",
          "name": "",
          "type": "address"
        }
      ],
      "stateMutability": "view",
      "type": "function"
    }
  ],
  "bytecode": "0x608060405234801561001057600080fd5b50612ef4806100206000396000f3fe608060405234801561001057600080fd5b506004361061025e5760003560e01c806374b472ba1161014657806398be9e34116100c3578063cacabd2711610087578063cacabd2714610cef578063cf54aaa014610d1b578063d98bb5b114610d41578063efda2a3a14610d67578063f088b70114610d95578063f2fde38b14610dbb5761025e565b806398be9e3414610bf75780639d6aea0a14610c25578063b31610db14610c7d578063bb1010e914610ca3578063c3b7f9fb14610cc95761025e565b806389f121b11161010a57806389f121b114610a3c5780638d3f829814610a625780638da5cb5b14610aa05780639160f5f914610aa857806397a4b9f714610ad45761025e565b806374b472ba146108fe5780637d26a2691461092457806380d4ab9b14610952578063885db070146109d257806388bfbdcb14610a105761025e565b80633b1c2906116101df5780634dc809ce116101a35780634dc809ce1461070557806350f5be911461073357806355dae74c1461075f5780635dd68acd1461078b578063617ddfff146107d3578063715018a6146108f65761025e565b80633b1c29061461054a5780633b6678651461066d57806341976e0914610693578063459dd8bd146106b9578063495ee13e146106df5761025e565b80631f7e74cf116102265780631f7e74cf1461035f578063246eae921461049b5780632a6e7603146104c15780632a979a98146104de5780632e2b1a881461050c5761025e565b80630a9254e41461026357806310d3d22e1461026d57806315d2c23a146102af57806317ae1fc5146102cc5780631ee2d29e14610306575b600080fd5b61026b610de1565b005b6102936004803603602081101561028357600080fd5b50356001600160a01b0316610deb565b604080516001600160a01b039092168252519081900360200190f35b61026b600480360360208110156102c557600080fd5b5035610e1a565b6102f2600480360360208110156102e257600080fd5b50356001600160a01b0316610e81565b604080519115158252519081900360200190f35b61026b600480360361010081101561031d57600080fd5b506001600160a01b038135811691602081013591604082013591606081013582169160808201359160a081013582169160c082013515159160e0013516610eb7565b6104826004803603604081101561037557600080fd5b810190602081018135600160201b81111561038f57600080fd5b8201836020820111156103a157600080fd5b803590602001918460208302840111600160201b831117156103c257600080fd5b9190808060200260200160405190810160405280939291908181526020018383602002808284376000920191909152509295949360208101935035915050600160201b81111561041157600080fd5b82018360208201111561042357600080fd5b803590602001918460208302840111600160201b8311171561044457600080fd5b9190808060200260200160405190810160405280939291908181526020018383602002808284376000920191909152509295506113d2945050505050565b6040805192835260208301919091528051918290030190f35b610293600480360360208110156104b157600080fd5b50356001600160a01b0316611455565b610293600480360360208110156104d757600080fd5b5035611484565b61026b600480360360408110156104f457600080fd5b506001600160a01b03813516906020013515156114ab565b6105386004803603604081101561052257600080fd5b506001600160a01b038135169060200135611538565b60408051918252519081900360200190f35b6105386004803603604081101561056057600080fd5b810190602081018135600160201b81111561057a57600080fd5b82018360208201111561058c57600080fd5b803590602001918460208302840111600160201b831117156105ad57600080fd5b9190808060200260200160405190810160405280939291908181526020018383602002808284376000920191909152509295949360208101935035915050600160201b8111156105fc57600080fd5b82018360208201111561060e57600080fd5b803590602001918460208302840111600160201b8311171561062f57600080fd5b91908080602002602001604051908101604052809392919081815260200183836020028082843760009201919091525092955061154d945050505050565b6102936004803603602081101561068357600080fd5b50356001600160a01b03166115ae565b610538600480360360208110156106a957600080fd5b50356001600160a01b03166115dd565b610538600480360360208110156106cf57600080fd5b50356001600160a01b0316611665565b6102f2600480360360208110156106f557600080fd5b50356001600160a01b0316611691565b61026b6004803603604081101561071b57600080fd5b506001600160a01b03813581169160200135166116b9565b61026b6004803603604081101561074957600080fd5b506001600160a01b0381351690602001356117a8565b6104826004803603604081101561077557600080fd5b506001600160a01b038135169060200135611920565b61026b600480360360a08110156107a157600080fd5b506001600160a01b03813581169160208101358216916040820135811691606081013582169160809091013516611938565b610538600480360360408110156107e957600080fd5b810190602081018135600160201b81111561080357600080fd5b82018360208201111561081557600080fd5b803590602001918460208302840111600160201b8311171561083657600080fd5b9190808060200260200160405190810160405280939291908181526020018383602002808284376000920191909152509295949360208101935035915050600160201b81111561088557600080fd5b82018360208201111561089757600080fd5b803590602001918460208302840111600160201b831117156108b857600080fd5b919080806020026020016040519081016040528093929190818152602001838360200280828437600092019190915250929550611a8d945050505050565b61026b611ad9565b61026b6004803603602081101561091457600080fd5b50356001600160a01b0316611b73565b61026b6004803603604081101561093a57600080fd5b506001600160a01b0381358116916020013516611cc5565b6109786004803603602081101561096857600080fd5b50356001600160a01b0316611eac565b60408051998a5260208a01989098526001600160a01b03968716898901526060890195909552928516608088015260a087019190915290921660c085015290151560e0840152151561010083015251908190036101200190f35b610538600480360360a08110156109e857600080fd5b506001600160a01b038135169060208101359060408101359060608101359060800135611f0c565b61026b60048036036040811015610a2657600080fd5b506001600160a01b038135169060200135611fc6565b61026b60048036036020811015610a5257600080fd5b50356001600160a01b031661208f565b610538600480360360a0811015610a7857600080fd5b506001600160a01b038135169060208101359060408101359060608101359060800135612129565b610293612215565b61053860048036036040811015610abe57600080fd5b506001600160a01b038135169060200135612224565b61053860048036036040811015610aea57600080fd5b810190602081018135600160201b811115610b0457600080fd5b820183602082011115610b1657600080fd5b803590602001918460208302840111600160201b83111715610b3757600080fd5b9190808060200260200160405190810160405280939291908181526020018383602002808284376000920191909152509295949360208101935035915050600160201b811115610b8657600080fd5b820183602082011115610b9857600080fd5b803590602001918460208302840111600160201b83111715610bb957600080fd5b919080806020026020016040519081016040528093929190818152602001838360200280828437600092019190915250929550612230945050505050565b61026b60048036036040811015610c0d57600080fd5b506001600160a01b038135811691602001351661227c565b610c2d612364565b60408051602080825283518183015283519192839290830191858101910280838360005b83811015610c69578181015183820152602001610c51565b505050509050019250505060405180910390f35b61053860048036036020811015610c9357600080fd5b50356001600160a01b03166123c6565b6102f260048036036020811015610cb957600080fd5b50356001600160a01b03166123f2565b61026b60048036036020811015610cdf57600080fd5b50356001600160a01b0316612413565b61053860048036036040811015610d0557600080fd5b506001600160a01b03813516906020013561255e565b61053860048036036020811015610d3157600080fd5b50356001600160a01b031661256a565b61053860048036036020811015610d5757600080fd5b50356001600160a01b0316612596565b61026b60048036036040811015610d7d57600080fd5b506001600160a01b03813581169160200135166125b1565b61029360048036036020811015610dab57600080fd5b50356001600160a01b0316612658565b61026b60048036036020811015610dd157600080fd5b50356001600160a01b0316612676565b610de9612767565b565b600081610df781612819565b50506001600160a01b039081166000908152606d60205260409020600201541690565b610e226128b4565b6001600160a01b0316610e33612215565b6001600160a01b031614610e7c576040805162461bcd60e51b81526020600482018190526024820152600080516020612e2d833981519152604482015290519081900360640190fd5b606f55565b600081610e8d81612819565b50506001600160a01b03166000908152606d6020526040902060060154600160a01b900460ff1690565b610ebf6128b4565b6001600160a01b0316610ed0612215565b6001600160a01b031614610f19576040805162461bcd60e51b81526020600482018190526024820152600080516020612e2d833981519152604482015290519081900360640190fd5b610f22886128b8565b610f2b856128b8565b610f34836128b8565b610f3d816128b8565b670f43fc2c04ee00008710610f99576040805162461bcd60e51b815260206004820152601c60248201527f726174696f206d757374206265206c657373207468616e20312e313000000000604482015290519081900360640190fd5b606e541561103c57876001600160a01b0316606e600081548110610fb957fe5b6000918252602090912001546001600160a01b031614801590610ff557506001600160a01b0388166000908152606d6020526040902060050154155b61103c576040805162461bcd60e51b8152602060048201526013602482015272636f6c6c61746572616c20202065786973747360681b604482015290519081900360640190fd5b606e8054600180820183557f9930d9ff0dee0ef5ca2f7710ea66b8f84dd0f5f5351ecffe72b952cd9db7142a90910180546001600160a01b03199081166001600160a01b038d811691821790935560408051610120810182528d815260208082018e81528d8716838501908152606084018e81528d8916608086019081529a546000190160a086019081528c8a1660c0870190815260e087018c81528f1515610100890190815260008b8152606d9098528988209851895595519c88019c909c5592516002870180548b16918c16919091179055905160038601559951600480860180548a16928b169290921790915599516005850155516006909301805498519151989096169287169290921760ff60a01b1916600160a01b921515929092029190911760ff60a81b1916600160a81b96151596909602959095179092556065548251633b03578360e21b815295860191909152905191169263ec0d5e0c92602480830193919282900301818387803b1580156111b957600080fd5b505af11580156111cd573d6000803e3d6000fd5b505060665460408051633b03578360e21b81526001600160a01b038d81166004830152915191909216935063ec0d5e0c9250602480830192600092919082900301818387803b15801561121f57600080fd5b505af1158015611233573d6000803e3d6000fd5b505060675460408051633b03578360e21b81526001600160a01b038d81166004830152915191909216935063ec0d5e0c9250602480830192600092919082900301818387803b15801561128557600080fd5b505af1158015611299573d6000803e3d6000fd5b505060685460408051633b03578360e21b81526001600160a01b038d81166004830152915191909216935063ec0d5e0c9250602480830192600092919082900301818387803b1580156112eb57600080fd5b505af11580156112ff573d6000803e3d6000fd5b5050604080516001600160a01b038c16815290517f7db05e63d635a68c62fd7fd8f3107ae8ab584a383e102d1bd8a40f4c977e465f9350908190036020019150a1604080516001600160a01b038a1681526020810189905281517ff6ae66b8b8a2c280dea3d848e11ca05d93d43fd60af2bbfbd95626e9f7555f14929181900390910190a1604080516001600160a01b038a1681526020810188905281517fd19d8a7e8c72d051b3257649d28e9dfc396f83b51ee2280b712ec3e1e9b028c6929181900390910190a15050505050505050565b81516000908190815b8181101561144c576000806114168884815181106113f557fe5b602002602001015188858151811061140957fe5b602002602001015161296b565b909250905061142b868363ffffffff612a0516565b955061143d858263ffffffff612a0516565b945050508060010190506113db565b50509250929050565b60008161146181612819565b50506001600160a01b039081166000908152606d60205260409020600401541690565b606e818154811061149157fe5b6000918252602090912001546001600160a01b0316905081565b6114b36128b4565b6001600160a01b03166114c4612215565b6001600160a01b03161461150d576040805162461bcd60e51b81526020600482018190526024820152600080516020612e2d833981519152604482015290519081900360640190fd5b6001600160a01b03919091166000908152606b60205260409020805460ff1916911515919091179055565b60006115448383612a4e565b90505b92915050565b8151600090815b818110156115a65761159c61158f86838151811061156e57fe5b602002602001015186848151811061158257fe5b6020026020010151612a87565b849063ffffffff612a0516565b9250600101611554565b505092915050565b6000816115ba81612819565b50506001600160a01b039081166000908152606d60205260409020600601541690565b6001600160a01b038082166000908152606d60209081526040808320600201548151634e1de1f360e11b81529151939416928392639c3bc3e69260048082019391829003018186803b15801561163257600080fd5b505afa158015611646573d6000803e3d6000fd5b505050506040513d602081101561165c57600080fd5b50519392505050565b60008161167181612819565b50506001600160a01b03166000908152606d602052604090206001015490565b6001600160a01b03166000908152606d6020526040902060060154600160a81b900460ff1690565b816116c381612819565b6116cb6128b4565b6001600160a01b03166116dc612215565b6001600160a01b031614611725576040805162461bcd60e51b81526020600482018190526024820152600080516020612e2d833981519152604482015290519081900360640190fd5b61172e836128b8565b611737826128b8565b6001600160a01b038381166000818152606d602090815260409182902060020180546001600160a01b0319169487169485179055815192835282019290925281517f05cd89403c6bdeac21c2ff33de395121a31fa1bc2bf3adf4825f1f86e79969dd929181900390910190a1505050565b816117b281612819565b6117ba6128b4565b6001600160a01b03166117cb612215565b6001600160a01b031614611814576040805162461bcd60e51b81526020600482018190526024820152600080516020612e2d833981519152604482015290519081900360640190fd5b670f43fc2c04ee00008210611870576040805162461bcd60e51b815260206004820152601c60248201527f726174696f206d757374206265206c657373207468616e20312e313000000000604482015290519081900360640190fd5b6001600160a01b0383166000908152606d602052604090205482116118c65760405162461bcd60e51b8152600401808060200182810382526027815260200180612e6d6027913960400191505060405180910390fd5b6001600160a01b0383166000818152606d60209081526040918290208590558151928352820184905280517ff6ae66b8b8a2c280dea3d848e11ca05d93d43fd60af2bbfbd95626e9f7555f149281900390910190a1505050565b60008061192d848461296b565b915091509250929050565b6119406128b4565b6001600160a01b0316611951612215565b6001600160a01b03161461199a576040805162461bcd60e51b81526020600482018190526024820152600080516020612e2d833981519152604482015290519081900360640190fd5b606954600160a01b900460ff16156119f1576040805162461bcd60e51b81526020600482015260156024820152741859191c995cdcd95cc8185b1c9958591e481cd95d605a1b604482015290519081900360640190fd5b6119fa856128b8565b611a03846128b8565b611a0c836128b8565b611a15826128b8565b611a1e816128b8565b606580546001600160a01b03199081166001600160a01b0397881617909155606680548216958716959095179094556067805485169386169390931790925560688054841691851691909117905560698054600160a01b9316919093161760ff60a01b19161790556032606f55565b8151600090815b818110156115a657611acf61158f868381518110611aae57fe5b6020026020010151868481518110611ac257fe5b6020026020010151612ad0565b9250600101611a94565b611ae16128b4565b6001600160a01b0316611af2612215565b6001600160a01b031614611b3b576040805162461bcd60e51b81526020600482018190526024820152600080516020612e2d833981519152604482015290519081900360640190fd5b6033546040516000916001600160a01b031690600080516020612e4d833981519152908390a3603380546001600160a01b0319169055565b80611b7d81612819565b611b856128b4565b6001600160a01b0316611b96612215565b6001600160a01b031614611bdf576040805162461bcd60e51b81526020600482018190526024820152600080516020612e2d833981519152604482015290519081900360640190fd5b611be8826128b8565b6001600160a01b0382166000908152606d6020526040902060060154600160a01b900460ff1615611c60576040805162461bcd60e51b815260206004820152601c60248201527f636f6c6c61746572616c20697320616c72656164792061637469766500000000604482015290519081900360640190fd5b6001600160a01b0382166000818152606d6020908152604091829020600601805460ff60a01b1916600160a01b179055815192835290517f075d7641153b3cf9af121a3c31a038deb6bcd961e86618d9a224d1a79e960a709281900390910190a15050565b81611ccf81612819565b611cd76128b4565b6001600160a01b0316611ce8612215565b6001600160a01b031614611d31576040805162461bcd60e51b81526020600482018190526024820152600080516020612e2d833981519152604482015290519081900360640190fd5b611d3a836128b8565b611d43826128b8565b6001600160a01b038084166000908152606d6020526040808220600490810154825163f2cfd55160e01b815283519495869592169363f2cfd55193828101939192829003018186803b158015611d9857600080fd5b505afa158015611dac573d6000803e3d6000fd5b505050506040513d6040811015611dc257600080fd5b50805160209091015160408051630161b04d60e51b8152600481018490526024810183905290519294509092506001600160a01b03861691632c3609a09160448082019260009290919082900301818387803b158015611e2157600080fd5b505af1158015611e35573d6000803e3d6000fd5b505050506001600160a01b038581166000818152606d602090815260409182902060040180546001600160a01b0319169489169485179055815192835282019290925281517f7a04be6ecf4910d06bdc1ab858a788b152c4dda61d6a6b3d7bb665f98dd0df60929181900390910190a15050505050565b606d602052600090815260409020805460018201546002830154600384015460048501546005860154600690960154949593946001600160a01b03938416949293918216929181169060ff600160a01b8204811691600160a81b90041689565b600085611f1881612819565b6001600160a01b038088166000908152606d60209081526040918290206004908101548351631cf76bbd60e21b81529182018b9052602482018a905260448201899052606482018890529251929093169283926373ddaef492608480840193919291829003018186803b158015611f8e57600080fd5b505afa158015611fa2573d6000803e3d6000fd5b505050506040513d6020811015611fb857600080fd5b505198975050505050505050565b81611fd081612819565b611fd86128b4565b6001600160a01b0316611fe9612215565b6001600160a01b031614612032576040805162461bcd60e51b81526020600482018190526024820152600080516020612e2d833981519152604482015290519081900360640190fd5b6001600160a01b0383166000818152606d60209081526040918290206001018590558151928352820184905280517fd19d8a7e8c72d051b3257649d28e9dfc396f83b51ee2280b712ec3e1e9b028c69281900390910190a1505050565b6120976128b4565b6001600160a01b03166120a8612215565b6001600160a01b0316146120f1576040805162461bcd60e51b81526020600482018190526024820152600080516020612e2d833981519152604482015290519081900360640190fd5b6001600160a01b03166000908152606b6020908152604080832054606c909252909120805460ff191660ff9092161515919091179055565b60008561213581612819565b6069546001600160a01b03163314612188576040805162461bcd60e51b815260206004820152601160248201527063616c6c6572206d75737420626520424f60781b604482015290519081900360640190fd5b6001600160a01b038088166000908152606d6020908152604080832060049081015482516374c7b0bb60e11b81529182018c9052602482018b9052604482018a90526064820189905291519190941693849363e98f61769360848084019491939192918390030190829087803b15801561220157600080fd5b505af1158015611fa2573d6000803e3d6000fd5b6033546001600160a01b031690565b60006115448383612ad0565b8151600090815b818110156115a65761227261158f86838151811061225157fe5b602002602001015186848151811061226557fe5b6020026020010151612a4e565b9250600101612237565b6122846128b4565b6001600160a01b0316612295612215565b6001600160a01b0316146122de576040805162461bcd60e51b81526020600482018190526024820152600080516020612e2d833981519152604482015290519081900360640190fd5b6001600160a01b0382166000908152606c602052604090205460ff16156123365760405162461bcd60e51b815260040180806020018281038252602b815260200180612e94602b913960400191505060405180910390fd5b6001600160a01b039182166000908152606a6020526040902080546001600160a01b03191691909216179055565b6060606e8054806020026020016040519081016040528092919081815260200182805480156123bc57602002820191906000526020600020905b81546001600160a01b0316815260019091019060200180831161239e575b5050505050905090565b6000816123d281612819565b50506001600160a01b03166000908152606d602052604090206005015490565b336000908152606a60205260409020546001600160a01b0391821691161490565b8061241d81612819565b6124256128b4565b6001600160a01b0316612436612215565b6001600160a01b03161461247f576040805162461bcd60e51b81526020600482018190526024820152600080516020612e2d833981519152604482015290519081900360640190fd5b612488826128b8565b6001600160a01b0382166000908152606d6020526040902060060154600160a01b900460ff166124ff576040805162461bcd60e51b815260206004820152601d60248201527f636f6c6c61746572616c20616c72656164792064657072656361746564000000604482015290519081900360640190fd5b6001600160a01b0382166000818152606d6020908152604091829020600601805460ff60a01b19169055815192835290517f97cc48cf2f097cb5786b83cfac928f0b821dea349f79ae098db30ab260b834589281900390910190a15050565b60006115448383612a87565b60008161257681612819565b50506001600160a01b03166000908152606d602052604090206003015490565b6001600160a01b03166000908152606d602052604090205490565b6125b96128b4565b6001600160a01b03166125ca612215565b6001600160a01b031614612613576040805162461bcd60e51b81526020600482018190526024820152600080516020612e2d833981519152604482015290519081900360640190fd5b8161261d81612819565b612626826128b8565b506001600160a01b039182166000908152606d6020526040902060060180546001600160a01b03191691909216179055565b6001600160a01b039081166000908152606a60205260409020541690565b61267e6128b4565b6001600160a01b031661268f612215565b6001600160a01b0316146126d8576040805162461bcd60e51b81526020600482018190526024820152600080516020612e2d833981519152604482015290519081900360640190fd5b6001600160a01b03811661271d5760405162461bcd60e51b8152600401808060200182810382526026815260200180612dd96026913960400191505060405180910390fd5b6033546040516001600160a01b03808416921690600080516020612e4d83398151915290600090a3603380546001600160a01b0319166001600160a01b0392909216919091179055565b600054610100900460ff16806127805750612780612b0d565b8061278e575060005460ff16155b6127c95760405162461bcd60e51b815260040180806020018281038252602e815260200180612dff602e913960400191505060405180910390fd5b600054610100900460ff161580156127f4576000805460ff1961ff0019909116610100171660011790555b6127fc612b1e565b612804612bbe565b8015612816576000805461ff00191690555b50565b806001600160a01b0316606e60008154811061283157fe5b6000918252602090912001546001600160a01b031614612816576001600160a01b0381166000908152606d6020526040902060050154612816576040805162461bcd60e51b815260206004820152601960248201527818dbdb1b185d195c985b08191bd95cc81b9bdd08195e1a5cdd603a1b604482015290519081900360640190fd5b3390565b6001600160a01b038116612913576040805162461bcd60e51b815260206004820152601e60248201527f4163636f756e742063616e6e6f74206265207a65726f20616464726573730000604482015290519081900360640190fd5b803b80612967576040805162461bcd60e51b815260206004820181905260248201527f4163636f756e7420636f64652073697a652063616e6e6f74206265207a65726f604482015290519081900360640190fd5b5050565b6000806000612979856115dd565b6001600160a01b0386166000908152606d6020526040902060038101548154600190920154929350916129d860128401600a0a6129cc846129c0888c63ffffffff612ca516565b9063ffffffff612ca516565b9063ffffffff612d0316565b95506129f860128401600a0a6129cc836129c0888c63ffffffff612ca516565b9450505050509250929050565b600082820183811015611544576040805162461bcd60e51b815260206004820152600c60248201526b616464206f766572666c6f7760a01b604482015290519081900360640190fd5b6001600160a01b0382166000908152606d602052604081206003810154905461154491601201600a0a906129cc906129c08681896115dd565b6001600160a01b0382166000908152606d602052604081206003015481612aad856115dd565b9050612ac7600a83900a6129cc838763ffffffff612ca516565b95945050505050565b6001600160a01b0382166000908152606d60205260408120600381015460019091015461154491601201600a0a906129cc906129c08681896115dd565b6000612b1830612d30565b15905090565b600054610100900460ff1680612b375750612b37612b0d565b80612b45575060005460ff16155b612b805760405162461bcd60e51b815260040180806020018281038252602e815260200180612dff602e913960400191505060405180910390fd5b600054610100900460ff16158015612804576000805460ff1961ff0019909116610100171660011790558015612816576000805461ff001916905550565b600054610100900460ff1680612bd75750612bd7612b0d565b80612be5575060005460ff16155b612c205760405162461bcd60e51b815260040180806020018281038252602e815260200180612dff602e913960400191505060405180910390fd5b600054610100900460ff16158015612c4b576000805460ff1961ff0019909116610100171660011790555b6000612c556128b4565b603380546001600160a01b0319166001600160a01b03831690811790915560405191925090600090600080516020612e4d833981519152908290a3508015612816576000805461ff001916905550565b600082612cb457506000611547565b82820282848281612cc157fe5b0414611544576040805162461bcd60e51b815260206004820152600c60248201526b6d756c206f766572666c6f7760a01b604482015290519081900360640190fd5b6000611544838360405180604001604052806008815260200167064697620627920360c41b815250612d36565b3b151590565b60008183612dc25760405162461bcd60e51b81526004018080602001828103825283818151815260200191508051906020019080838360005b83811015612d87578181015183820152602001612d6f565b50505050905090810190601f168015612db45780820380516001836020036101000a031916815260200191505b509250505060405180910390fd5b506000838581612dce57fe5b049594505050505056fe4f776e61626c653a206e6577206f776e657220697320746865207a65726f2061646472657373496e697469616c697a61626c653a20636f6e747261637420697320616c726561647920696e697469616c697a65644f776e61626c653a2063616c6c6572206973206e6f7420746865206f776e65728be0079c531659141344cd1fd0a4f28419497f9722a3daafe3b4186f6b6457e04e6577205352206d7573742062652067726561746572207468616e2070726576696f757320535263616e6e6f74207570646174652076616c69642063616c6c6572206f66207468697320636f6e7472616374a264697066735822122014339f4e39d5d3854587e47102a0e1329829e5a8ce933677d94c656f14f2816064736f6c634300060b0033",
  "linkReferences": {},
  "deployedLinkReferences": {}
}