{
  "_format": "hh-sol-artifact-1",
  "contractName": "ActivePool",
  "sourceName": "src/main/ActivePool.sol",
  "abi": [
    {
      "anonymous": false,
      "inputs": [
        {
          "indexed": false,
          "internalType": "address",
          "name": "_newActivePoolAddress",
          "type": "address"
        }
      ],
      "name": "ActivePoolAddressChanged",
      "type": "event"
    },
    {
      "anonymous": false,
      "inputs": [
        {
          "indexed": false,
          "internalType": "address",
          "name": "_collateral",
          "type": "address"
        },
        {
          "indexed": false,
          "internalType": "uint256",
          "name": "_amount",
          "type": "uint256"
        }
      ],
      "name": "ActivePoolBalanceUpdated",
      "type": "event"
    },
    {
      "anonymous": false,
      "inputs": [
        {
          "indexed": false,
          "internalType": "address[]",
          "name": "_collaterals",
          "type": "address[]"
        },
        {
          "indexed": false,
          "internalType": "uint256[]",
          "name": "_amounts",
          "type": "uint256[]"
        }
      ],
      "name": "ActivePoolBalancesUpdated",
      "type": "event"
    },
    {
      "anonymous": false,
      "inputs": [
        {
          "indexed": false,
          "internalType": "uint256",
          "name": "_CUSDDebt",
          "type": "uint256"
        }
      ],
      "name": "ActivePoolCUSDDebtUpdated",
      "type": "event"
    },
    {
      "anonymous": false,
      "inputs": [
        {
          "indexed": false,
          "internalType": "address",
          "name": "_collateral",
          "type": "address"
        },
        {
          "indexed": false,
          "internalType": "uint256",
          "name": "_amount",
          "type": "uint256"
        }
      ],
      "name": "ActivePoolCollateralBalanceUpdated",
      "type": "event"
    },
    {
      "anonymous": false,
      "inputs": [
        {
          "indexed": false,
          "internalType": "address",
          "name": "_newBorrowerOperationsAddress",
          "type": "address"
        }
      ],
      "name": "BorrowerOperationsAddressChanged",
      "type": "event"
    },
    {
      "anonymous": false,
      "inputs": [
        {
          "indexed": false,
          "internalType": "uint256",
          "name": "_newBalance",
          "type": "uint256"
        }
      ],
      "name": "CUSDBalanceUpdated",
      "type": "event"
    },
    {
      "anonymous": false,
      "inputs": [
        {
          "indexed": false,
          "internalType": "address",
          "name": "_collateral",
          "type": "address"
        },
        {
          "indexed": false,
          "internalType": "address",
          "name": "_to",
          "type": "address"
        },
        {
          "indexed": false,
          "internalType": "uint256",
          "name": "_amount",
          "type": "uint256"
        }
      ],
      "name": "CollateralSent",
      "type": "event"
    },
    {
      "anonymous": false,
      "inputs": [
        {
          "indexed": false,
          "internalType": "address[]",
          "name": "_collaterals",
          "type": "address[]"
        },
        {
          "indexed": false,
          "internalType": "uint256[]",
          "name": "_amounts",
          "type": "uint256[]"
        },
        {
          "indexed": false,
          "internalType": "address",
          "name": "_to",
          "type": "address"
        }
      ],
      "name": "CollateralsSent",
      "type": "event"
    },
    {
      "anonymous": false,
      "inputs": [
        {
          "indexed": false,
          "internalType": "address",
          "name": "_newDefaultPoolAddress",
          "type": "address"
        }
      ],
      "name": "DefaultPoolAddressChanged",
      "type": "event"
    },
    {
      "anonymous": false,
      "inputs": [
        {
          "indexed": false,
          "internalType": "uint256",
          "name": "_newBalance",
          "type": "uint256"
        }
      ],
      "name": "ETHBalanceUpdated",
      "type": "event"
    },
    {
      "anonymous": false,
      "inputs": [
        {
          "indexed": false,
          "internalType": "address",
          "name": "_to",
          "type": "address"
        },
        {
          "indexed": false,
          "internalType": "uint256",
          "name": "_amount",
          "type": "uint256"
        }
      ],
      "name": "EtherSent",
      "type": "event"
    },
    {
      "anonymous": false,
      "inputs": [
        {
          "indexed": true,
          "internalType": "address",
          "name": "previousOwner",
          "type": "address"
        },
        {
          "indexed": true,
          "internalType": "address",
          "name": "newOwner",
          "type": "address"
        }
      ],
      "name": "OwnershipTransferred",
      "type": "event"
    },
    {
      "anonymous": false,
      "inputs": [
        {
          "indexed": false,
          "internalType": "address",
          "name": "_newStabilityPoolAddress",
          "type": "address"
        }
      ],
      "name": "StabilityPoolAddressChanged",
      "type": "event"
    },
    {
      "anonymous": false,
      "inputs": [
        {
          "indexed": false,
          "internalType": "address",
          "name": "_newTroveManagerAddress",
          "type": "address"
        }
      ],
      "name": "TroveManagerAddressChanged",
      "type": "event"
    },
    {
      "anonymous": false,
      "inputs": [
        {
          "indexed": false,
          "internalType": "address",
          "name": "_newWhitelistAddress",
          "type": "address"
        }
      ],
      "name": "WhitelistAddressChanged",
      "type": "event"
    },
    {
      "inputs": [],
      "name": "DECIMAL_PRECISION",
      "outputs": [
        {
          "internalType": "uint256",
          "name": "",
          "type": "uint256"
        }
      ],
      "stateMutability": "view",
      "type": "function"
    },
    {
      "inputs": [],
      "name": "NAME",
      "outputs": [
        {
          "internalType": "bytes32",
          "name": "",
          "type": "bytes32"
        }
      ],
      "stateMutability": "view",
      "type": "function"
    },
    {
      "inputs": [
        {
          "internalType": "address",
          "name": "_collateral",
          "type": "address"
        }
      ],
      "name": "addCollateralType",
      "outputs": [],
      "stateMutability": "nonpayable",
      "type": "function"
    },
    {
      "inputs": [
        {
          "internalType": "uint256",
          "name": "_amount",
          "type": "uint256"
        }
      ],
      "name": "decreaseCUSDDebt",
      "outputs": [],
      "stateMutability": "nonpayable",
      "type": "function"
    },
    {
      "inputs": [],
      "name": "getAllCollateral",
      "outputs": [
        {
          "internalType": "address[]",
          "name": "",
          "type": "address[]"
        },
        {
          "internalType": "uint256[]",
          "name": "",
          "type": "uint256[]"
        }
      ],
      "stateMutability": "view",
      "type": "function"
    },
    {
      "inputs": [],
      "name": "getCUSDDebt",
      "outputs": [
        {
          "internalType": "uint256",
          "name": "",
          "type": "uint256"
        }
      ],
      "stateMutability": "view",
      "type": "function"
    },
    {
      "inputs": [
        {
          "internalType": "address",
          "name": "_collateral",
          "type": "address"
        }
      ],
      "name": "getCollateral",
      "outputs": [
        {
          "internalType": "uint256",
          "name": "",
          "type": "uint256"
        }
      ],
      "stateMutability": "view",
      "type": "function"
    },
    {
      "inputs": [
        {
          "internalType": "address",
          "name": "_collateral",
          "type": "address"
        }
      ],
      "name": "getCollateralVC",
      "outputs": [
        {
          "internalType": "uint256",
          "name": "",
          "type": "uint256"
        }
      ],
      "stateMutability": "view",
      "type": "function"
    },
    {
      "inputs": [],
      "name": "getVC",
      "outputs": [
        {
          "internalType": "uint256",
          "name": "totalVC",
          "type": "uint256"
        }
      ],
      "stateMutability": "view",
      "type": "function"
    },
    {
      "inputs": [],
      "name": "getVCSystem",
      "outputs": [
        {
          "internalType": "uint256",
          "name": "totalVCSystem",
          "type": "uint256"
        }
      ],
      "stateMutability": "view",
      "type": "function"
    },
    {
      "inputs": [],
      "name": "getVCforTCR",
      "outputs": [
        {
          "internalType": "uint256",
          "name": "totalVC",
          "type": "uint256"
        },
        {
          "internalType": "uint256",
          "name": "totalVCforTCR",
          "type": "uint256"
        }
      ],
      "stateMutability": "view",
      "type": "function"
    },
    {
      "inputs": [],
      "name": "getVCforTCRSystem",
      "outputs": [
        {
          "internalType": "uint256",
          "name": "totalVC",
          "type": "uint256"
        },
        {
          "internalType": "uint256",
          "name": "totalVCforTCR",
          "type": "uint256"
        }
      ],
      "stateMutability": "view",
      "type": "function"
    },
    {
      "inputs": [
        {
          "internalType": "uint256",
          "name": "_amount",
          "type": "uint256"
        }
      ],
      "name": "increaseCUSDDebt",
      "outputs": [],
      "stateMutability": "nonpayable",
      "type": "function"
    },
    {
      "inputs": [],
      "name": "owner",
      "outputs": [
        {
          "internalType": "address",
          "name": "",
          "type": "address"
        }
      ],
      "stateMutability": "view",
      "type": "function"
    },
    {
      "inputs": [
        {
          "internalType": "address[]",
          "name": "_tokens",
          "type": "address[]"
        },
        {
          "internalType": "uint256[]",
          "name": "_amounts",
          "type": "uint256[]"
        }
      ],
      "name": "receiveCollateral",
      "outputs": [],
      "stateMutability": "nonpayable",
      "type": "function"
    },
    {
      "inputs": [],
      "name": "renounceOwnership",
      "outputs": [],
      "stateMutability": "nonpayable",
      "type": "function"
    },
    {
      "inputs": [
        {
          "internalType": "address",
          "name": "_to",
          "type": "address"
        },
        {
          "internalType": "address[]",
          "name": "_tokens",
          "type": "address[]"
        },
        {
          "internalType": "uint256[]",
          "name": "_amounts",
          "type": "uint256[]"
        }
      ],
      "name": "sendCollaterals",
      "outputs": [],
      "stateMutability": "nonpayable",
      "type": "function"
    },
    {
      "inputs": [
        {
          "internalType": "address",
          "name": "_from",
          "type": "address"
        },
        {
          "internalType": "address",
          "name": "_to",
          "type": "address"
        },
        {
          "internalType": "address[]",
          "name": "_tokens",
          "type": "address[]"
        },
        {
          "internalType": "uint256[]",
          "name": "_amounts",
          "type": "uint256[]"
        }
      ],
      "name": "sendCollateralsUnwrap",
      "outputs": [],
      "stateMutability": "nonpayable",
      "type": "function"
    },
    {
      "inputs": [
        {
          "internalType": "address",
          "name": "_to",
          "type": "address"
        },
        {
          "internalType": "address",
          "name": "_token",
          "type": "address"
        },
        {
          "internalType": "uint256",
          "name": "_amount",
          "type": "uint256"
        }
      ],
      "name": "sendSingleCollateral",
      "outputs": [],
      "stateMutability": "nonpayable",
      "type": "function"
    },
    {
      "inputs": [
        {
          "internalType": "address",
          "name": "_from",
          "type": "address"
        },
        {
          "internalType": "address",
          "name": "_to",
          "type": "address"
        },
        {
          "internalType": "address",
          "name": "_token",
          "type": "address"
        },
        {
          "internalType": "uint256",
          "name": "_amount",
          "type": "uint256"
        }
      ],
      "name": "sendSingleCollateralUnwrap",
      "outputs": [],
      "stateMutability": "nonpayable",
      "type": "function"
    },
    {
      "inputs": [
        {
          "internalType": "address",
          "name": "_borrowerOperationsAddress",
          "type": "address"
        },
        {
          "internalType": "address",
          "name": "_troveManagerAddress",
          "type": "address"
        },
        {
          "internalType": "address",
          "name": "_stabilityPoolAddress",
          "type": "address"
        },
        {
          "internalType": "address",
          "name": "_defaultPoolAddress",
          "type": "address"
        },
        {
          "internalType": "address",
          "name": "_whitelistAddress",
          "type": "address"
        },
        {
          "internalType": "address",
          "name": "_troveManagerLiquidationsAddress",
          "type": "address"
        },
        {
          "internalType": "address",
          "name": "_troveManagerRedemptionsAddress",
          "type": "address"
        },
        {
          "internalType": "address",
          "name": "_collSurplusPoolAddress",
          "type": "address"
        }
      ],
      "name": "setAddresses",
      "outputs": [],
      "stateMutability": "nonpayable",
      "type": "function"
    },
    {
      "inputs": [],
      "name": "setUp",
      "outputs": [],
      "stateMutability": "nonpayable",
      "type": "function"
    },
    {
      "inputs": [
        {
          "internalType": "address",
          "name": "newOwner",
          "type": "address"
        }
      ],
      "name": "transferOwnership",
      "outputs": [],
      "stateMutability": "nonpayable",
      "type": "function"
    }
  ],
  "bytecode": "0x608060405234801561001057600080fd5b506128ec806100206000396000f3fe608060405234801561001057600080fd5b506004361061014d5760003560e01c80638da5cb5b116100c3578063c6ba09361161007c578063c6ba09361461043c578063d0d8c20d146104dd578063d733cfd0146105ab578063ec0d5e0c1461060a578063f2fde38b14610630578063fde3efe0146106565761014d565b80638da5cb5b1461031c5780639b56d6c914610340578063a20baee614610366578063a24214641461036e578063a3f4df7e14610376578063a7a24edd1461037e5761014d565b80633b036ced116101155780633b036ced1461027b5780633f02d91f146102985780634a574e33146102b557806362f6105b146102d6578063651340c41461030c578063715018a6146103145761014d565b806301d40b63146101525780630a9254e41461016c57806310ec1f52146101765780633270a9e01461017e5780633733a133146101a4575b600080fd5b61015a610692565b60408051918252519081900360200190f35b610174610789565b005b61015a610793565b61015a6004803603602081101561019457600080fd5b50356001600160a01b031661079a565b610174600480360360808110156101ba57600080fd5b6001600160a01b038235811692602081013590911691810190606081016040820135600160201b8111156101ed57600080fd5b8201836020820111156101ff57600080fd5b803590602001918460208302840111600160201b8311171561022057600080fd5b919390929091602081019035600160201b81111561023d57600080fd5b82018360208201111561024f57600080fd5b803590602001918460208302840111600160201b8311171561027057600080fd5b509092509050610837565b6101746004803603602081101561029157600080fd5b5035610a3e565b610174600480360360208110156102ae57600080fd5b5035610a93565b6102bd610aae565b6040805192835260208301919091528051918290030190f35b610174600480360360608110156102ec57600080fd5b506001600160a01b03813581169160208101359091169060400135610bca565b61015a610be2565b610174610e10565b610324610eaa565b604080516001600160a01b039092168252519081900360200190f35b61015a6004803603602081101561035657600080fd5b50356001600160a01b0316610eb9565b61015a610f51565b6102bd610f5d565b61015a611181565b6101746004803603604081101561039457600080fd5b810190602081018135600160201b8111156103ae57600080fd5b8201836020820111156103c057600080fd5b803590602001918460208302840111600160201b831117156103e157600080fd5b919390929091602081019035600160201b8111156103fe57600080fd5b82018360208201111561041057600080fd5b803590602001918460208302840111600160201b8311171561043157600080fd5b509092509050611192565b61044461136e565b604051808060200180602001838103835285818151815260200191508051906020019060200280838360005b83811015610488578181015183820152602001610470565b50505050905001838103825284818151815260200191508051906020019060200280838360005b838110156104c75781810151838201526020016104af565b5050505090500194505050505060405180910390f35b610174600480360360608110156104f357600080fd5b6001600160a01b038235169190810190604081016020820135600160201b81111561051d57600080fd5b82018360208201111561052f57600080fd5b803590602001918460208302840111600160201b8311171561055057600080fd5b919390929091602081019035600160201b81111561056d57600080fd5b82018360208201111561057f57600080fd5b803590602001918460208302840111600160201b831117156105a057600080fd5b509092509050611431565b61017460048036036101008110156105c257600080fd5b506001600160a01b038135811691602081013582169160408201358116916060810135821691608082013581169160a081013582169160c082013581169160e0013516611656565b6101746004803603602081101561062057600080fd5b50356001600160a01b03166118a4565b6101746004803603602081101561064657600080fd5b50356001600160a01b031661192e565b6101746004803603608081101561066c57600080fd5b506001600160a01b03813581169160208101358216916040820135169060600135611a1f565b606d54600090815b81811015610784576000606d60010182815481106106b457fe5b600091825260209091200154606554606d8054929350610779926001600160a01b0390921691632e2b1a889190869081106106eb57fe5b60009182526020918290200154604080516001600160e01b031960e086901b1681526001600160a01b039092166004830152602482018790525160448083019392829003018186803b15801561074057600080fd5b505afa158015610754573d6000803e3d6000fd5b505050506040513d602081101561076a57600080fd5b5051859063ffffffff611b2d16565b93505060010161069a565b505090565b610791611b7d565b565b606f545b90565b6065546000906001600160a01b0316632e2b1a88836107b881610eb9565b6040518363ffffffff1660e01b815260040180836001600160a01b03166001600160a01b031681526020018281526020019250505060206040518083038186803b15801561080557600080fd5b505afa158015610819573d6000803e3d6000fd5b505050506040513d602081101561082f57600080fd5b505192915050565b61083f611c2f565b82818114610881576040805162461bcd60e51b815260206004820152600a60248201526941503a4c656e6774687360b01b604482015290519081900360640190fd5b60005b81811015610a34576065546001600160a01b031663495ee13e8787848181106108a957fe5b905060200201356001600160a01b03166040518263ffffffff1660e01b815260040180826001600160a01b03166001600160a01b0316815260200191505060206040518083038186803b1580156108ff57600080fd5b505afa158015610913573d6000803e3d6000fd5b505050506040513d602081101561092957600080fd5b5051156109f45785858281811061093c57fe5b905060200201356001600160a01b03166001600160a01b031663261c80b6898987878681811061096857fe5b905060200201356040518463ffffffff1660e01b815260040180846001600160a01b03166001600160a01b03168152602001836001600160a01b03166001600160a01b031681526020018281526020019350505050600060405180830381600087803b1580156109d757600080fd5b505af11580156109eb573d6000803e3d6000fd5b50505050610a2c565b610a2c87878784818110610a0457fe5b905060200201356001600160a01b0316868685818110610a2057fe5b90506020020135611ca7565b600101610884565b5050505050505050565b610a46611e1d565b606f54610a59908263ffffffff611e7a16565b606f81905560408051918252517f1bc7e4c21728778161280653af1a9162f790ff6b5c51f4f7bb85ab2c212ce2039181900360200190a150565b610a9b611eab565b606f54610a59908263ffffffff611b2d16565b606d546000908190815b81811015610bc4576000606d6001018281548110610ad257fe5b6000918252602082200154606554606d805492945083926001600160a01b03909216916355dae74c919087908110610b0657fe5b600091825260209091200154604080516001600160e01b031960e085901b1681526001600160a01b039092166004830152602482018790528051604480840193829003018186803b158015610b5a57600080fd5b505afa158015610b6e573d6000803e3d6000fd5b505050506040513d6040811015610b8457600080fd5b5080516020909101519092509050610ba2878363ffffffff611b2d16565b9650610bb4868263ffffffff611b2d16565b9550505050806001019050610ab8565b50509091565b610bd2611edb565b610bdd838383611ca7565b505050565b606d546069546040805163caf14b9560e01b81529051600093926060926001600160a01b039091169163caf14b95916004808201928892909190829003018186803b158015610c3057600080fd5b505afa158015610c44573d6000803e3d6000fd5b505050506040513d6000823e601f3d908101601f191682016040526020811015610c6d57600080fd5b8101908080516040519392919084600160201b821115610c8c57600080fd5b908301906020820185811115610ca157600080fd5b82518660208202830111600160201b82111715610cbd57600080fd5b82525081516020918201928201910280838360005b83811015610cea578181015183820152602001610cd2565b50505050905001604052505050905060005b82811015610e0a576000610d46838381518110610d1557fe5b6020026020010151606d6001018481548110610d2d57fe5b9060005260206000200154611b2d90919063ffffffff16565b606554606d8054929350610dff926001600160a01b0390921691632e2b1a88919086908110610d7157fe5b60009182526020918290200154604080516001600160e01b031960e086901b1681526001600160a01b039092166004830152602482018790525160448083019392829003018186803b158015610dc657600080fd5b505afa158015610dda573d6000803e3d6000fd5b505050506040513d6020811015610df057600080fd5b5051869063ffffffff611b2d16565b945050600101610cfc565b50505090565b610e18611ef5565b6001600160a01b0316610e29610eaa565b6001600160a01b031614610e72576040805162461bcd60e51b8152602060048201819052602482015260008051602061284d833981519152604482015290519081900360640190fd5b6033546040516000916001600160a01b03169060008051602061286d833981519152908390a3603380546001600160a01b0319169055565b6033546001600160a01b031690565b6065546040805163b31610db60e01b81526001600160a01b0384811660048301529151600093606e93169163b31610db916024808301926020929190829003018186803b158015610f0957600080fd5b505afa158015610f1d573d6000803e3d6000fd5b505050506040513d6020811015610f3357600080fd5b505181548110610f3f57fe5b90600052602060002001549050919050565b670de0b6b3a764000081565b606d546069546040805163caf14b9560e01b81529051600093849390926060926001600160a01b039092169163caf14b95916004808201928892909190829003018186803b158015610fae57600080fd5b505afa158015610fc2573d6000803e3d6000fd5b505050506040513d6000823e601f3d908101601f191682016040526020811015610feb57600080fd5b8101908080516040519392919084600160201b82111561100a57600080fd5b90830190602082018581111561101f57600080fd5b82518660208202830111600160201b8211171561103b57600080fd5b82525081516020918201928201910280838360005b83811015611068578181015183820152602001611050565b50505050905001604052505050905060005b8281101561117a576000611093838381518110610d1557fe5b606554606d805492935060009283926001600160a01b0316916355dae74c91879081106110bc57fe5b600091825260209091200154604080516001600160e01b031960e085901b1681526001600160a01b039092166004830152602482018790528051604480840193829003018186803b15801561111057600080fd5b505afa158015611124573d6000803e3d6000fd5b505050506040513d604081101561113a57600080fd5b5080516020909101519092509050611158888363ffffffff611b2d16565b975061116a878263ffffffff611b2d16565b965050505080600101905061107a565b5050509091565b691058dd1a5d99541bdbdb60b21b81565b61119a611ef9565b60408051606d80546060602082028401810185529383018181526112c094849284918401828280156111f557602002820191906000526020600020905b81546001600160a01b031681526001909101906020018083116111d7575b505050505081526020016001820180548060200260200160405190810160405280929190818152602001828054801561124d57602002820191906000526020600020905b815481526020019060010190808311611239575b50505050508152505085858080602002602001604051908101604052809392919081815260200183836020028082843760009201919091525050604080516020808902828101820190935288825290935088925087918291850190849080828437600092019190915250611f2992505050565b80516112d491606e9160209091019061276d565b507f69501a4a15e1e049715f47d810bf093294f630bc55370497c63bff45f9f597f6848484846040518080602001806020018381038352878782818152602001925060200280828437600083820152601f01601f19169091018481038352858152602090810191508690860280828437600083820152604051601f909101601f19169092018290039850909650505050505050a150505050565b606080606d600001606d600101818054806020026020016040519081016040528092919081815260200182805480156113d057602002820191906000526020600020905b81546001600160a01b031681526001909101906020018083116113b2575b505050505091508080548060200260200160405190810160405280929190818152602001828054801561142257602002820191906000526020600020905b81548152602001906001019080831161140e575b50505050509050915091509091565b611439611c2f565b8281811461147b576040805162461bcd60e51b815260206004820152600a60248201526941503a4c656e6774687360b01b604482015290519081900360640190fd5b60005b818110156114d457600084848381811061149457fe5b905060200201359050806000146114cb576114cb888888858181106114b557fe5b905060200201356001600160a01b031683611ca7565b5060010161147e565b506114de86612067565b156115a157856001600160a01b031663a7a24edd868686866040518563ffffffff1660e01b81526004018080602001806020018381038352878782818152602001925060200280828437600083820152601f01601f19169091018481038352858152602090810191508690860280828437600081840152601f19601f8201169050808301925050509650505050505050600060405180830381600087803b15801561158857600080fd5b505af115801561159c573d6000803e3d6000fd5b505050505b7f6af4d451e7e64020cb8ce60425b898d22e0450313068d5897afc6df2afe7baf6858585858a604051808060200180602001846001600160a01b03166001600160a01b031681526020018381038352888882818152602001925060200280828437600083820152601f01601f19169091018481038352868152602090810191508790870280828437600083820152604051601f909101601f1916909201829003995090975050505050505050a1505050505050565b61165e611ef5565b6001600160a01b031661166f610eaa565b6001600160a01b0316146116b8576040805162461bcd60e51b8152602060048201819052602482015260008051602061284d833981519152604482015290519081900360640190fd5b6116c1886120b1565b6116ca876120b1565b6116d3866120b1565b6116dc856120b1565b6116e5846120b1565b6116ee836120b1565b6116f7826120b1565b611700816120b1565b606680546001600160a01b03199081166001600160a01b038b81169182179093556067805483168b85161790556068805483168a8516179055606980548316898516179055606580548316888516179055606a80548316878516179055606b80548316868516179055606c805490921692841692909217905560408051918252517f3ca631ffcd2a9b5d9ae18543fc82f58eb4ca33af9e6ab01b7a8e95331e6ed985916020908290030190a1604080516001600160a01b038916815290517f143219c9e69b09e07e095fcc889b43d8f46ca892bba65f08dc3a0050869a56789181900360200190a1604080516001600160a01b038816815290517f82966d27eea39b038ee0fa30cd16532bb24f6e65d31cb58fb227aa5766cdcc7f9181900360200190a1604080516001600160a01b038716815290517f5ee0cae2f063ed938bb55046f6a932fb6ae792bf43624806bb90abe68a50be9b9181900360200190a1604080516001600160a01b038616815290517f7d6c324a6caac2b03df779ee40edbef0a5410a7eec60184b142c1d4283f50ce19181900360200190a1610a34610e10565b6118ac612164565b606d805460018082019092557f5006b838207c6a9ae9b84d68f467dd4bb5c305fbfb6b04eab8faaabeec1e18d80180546001600160a01b0319166001600160a01b039390931692909217909155606e8054918201815560009081527f9930d9ff0dee0ef5ca2f7710ea66b8f84dd0f5f5351ecffe72b952cd9db7142a90910155565b611936611ef5565b6001600160a01b0316611947610eaa565b6001600160a01b031614611990576040805162461bcd60e51b8152602060048201819052602482015260008051602061284d833981519152604482015290519081900360640190fd5b6001600160a01b0381166119d55760405162461bcd60e51b81526004018080602001828103825260268152602001806127d36026913960400191505060405180910390fd5b6033546040516001600160a01b0380841692169060008051602061286d83398151915290600090a3603380546001600160a01b0319166001600160a01b0392909216919091179055565b611a27611edb565b606554604080516324af709f60e11b81526001600160a01b0385811660048301529151919092169163495ee13e916024808301926020929190829003018186803b158015611a7457600080fd5b505afa158015611a88573d6000803e3d6000fd5b505050506040513d6020811015611a9e57600080fd5b505115611b1c576040805163130e405b60e11b81526001600160a01b03868116600483015285811660248301526044820184905291519184169163261c80b69160648082019260009290919082900301818387803b158015611aff57600080fd5b505af1158015611b13573d6000803e3d6000fd5b50505050611b27565b611b27838383611ca7565b50505050565b600082820183811015611b76576040805162461bcd60e51b815260206004820152600c60248201526b616464206f766572666c6f7760a01b604482015290519081900360640190fd5b9392505050565b600054610100900460ff1680611b965750611b9661217e565b80611ba4575060005460ff16155b611bdf5760405162461bcd60e51b815260040180806020018281038252602e81526020018061281f602e913960400191505060405180910390fd5b600054610100900460ff16158015611c0a576000805460ff1961ff0019909116610100171660011790555b611c1261218f565b611c1a61222f565b8015611c2c576000805461ff00191690555b50565b6066546001600160a01b03163314801590611c5557506067546001600160a01b03163314155b8015611c6c57506068546001600160a01b03163314155b8015611c835750606a546001600160a01b03163314155b8015611c9a5750606b546001600160a01b03163314155b1561079157610791612316565b6065546040805163b31610db60e01b81526001600160a01b0385811660048301529151600093929092169163b31610db91602480820192602092909190829003018186803b158015611cf857600080fd5b505afa158015611d0c573d6000803e3d6000fd5b505050506040513d6020811015611d2257600080fd5b5051606e8054919250611d559184919084908110611d3c57fe5b9060005260206000200154611e7a90919063ffffffff16565b606e805483908110611d6357fe5b600091825260209091200155611d896001600160a01b038416858463ffffffff61236316565b604080516001600160a01b03851681526020810184905281517f380f306dd9bdd7d6dd695acb17985ed81b341c83579529030caf30bb5689bc19929181900390910190a1604080516001600160a01b0380861682528616602082015280820184905290517fe664153eb516123e000bb334869ec912418f6fe4c1abb53fe2f848c947a8405d9181900360600190a150505050565b6066546001600160a01b03163314801590611e4357506067546001600160a01b03163314155b8015611c8357506068546001600160a01b03163314801590611c9a5750606b546001600160a01b0316331461079157610791612316565b6000611b7683836040518060400160405280600c81526020016b737562206f766572666c6f7760a01b8152506123b5565b6066546001600160a01b03163314801590611c9a57506067546001600160a01b0316331461079157610791612316565b6066546001600160a01b0316331461079157610791612316565b3390565b6066546001600160a01b03163314801590611c9a57506069546001600160a01b0316331461079157610791612316565b6060815160001415611f4057506020830151611b76565b6060611f4f856020015161244c565b845190915060005b8181101561205c5760655486516000916001600160a01b03169063b31610db90899085908110611f8357fe5b60200260200101516040518263ffffffff1660e01b815260040180826001600160a01b03166001600160a01b0316815260200191505060206040518083038186803b158015611fd157600080fd5b505afa158015611fe5573d6000803e3d6000fd5b505050506040513d6020811015611ffb57600080fd5b5051865190915061203c9087908490811061201257fe5b602002602001015185838151811061202657fe5b6020026020010151611b2d90919063ffffffff16565b84828151811061204857fe5b602090810291909101015250600101611f57565b509095945050505050565b6069546000906001600160a01b038381169116148061209357506068546001600160a01b038381169116145b806120ab5750606c546001600160a01b038381169116145b92915050565b6001600160a01b03811661210c576040805162461bcd60e51b815260206004820152601e60248201527f4163636f756e742063616e6e6f74206265207a65726f20616464726573730000604482015290519081900360640190fd5b803b80612160576040805162461bcd60e51b815260206004820181905260248201527f4163636f756e7420636f64652073697a652063616e6e6f74206265207a65726f604482015290519081900360640190fd5b5050565b6065546001600160a01b0316331461079157610791612316565b6000612189306124dc565b15905090565b600054610100900460ff16806121a857506121a861217e565b806121b6575060005460ff16155b6121f15760405162461bcd60e51b815260040180806020018281038252602e81526020018061281f602e913960400191505060405180910390fd5b600054610100900460ff16158015611c1a576000805460ff1961ff0019909116610100171660011790558015611c2c576000805461ff001916905550565b600054610100900460ff1680612248575061224861217e565b80612256575060005460ff16155b6122915760405162461bcd60e51b815260040180806020018281038252602e81526020018061281f602e913960400191505060405180910390fd5b600054610100900460ff161580156122bc576000805460ff1961ff0019909116610100171660011790555b60006122c6611ef5565b603380546001600160a01b0319166001600160a01b0383169081179091556040519192509060009060008051602061286d833981519152908290a3508015611c2c576000805461ff001916905550565b6040805162461bcd60e51b815260206004820152601f60248201527f41503a2045787465726e616c2063616c6c6572206e6f7420616c6c6f77656400604482015290519081900360640190fd5b604080516001600160a01b038416602482015260448082018490528251808303909101815260649091019091526020810180516001600160e01b031663a9059cbb60e01b179052610bdd9084906124e2565b600081848411156124445760405162461bcd60e51b81526004018080602001828103825283818151815260200191508051906020019080838360005b838110156124095781810151838201526020016123f1565b50505050905090810190601f1680156124365780820380516001836020036101000a031916815260200191505b509250505060405180910390fd5b505050900390565b8051606090818167ffffffffffffffff8111801561246957600080fd5b50604051908082528060200260200182016040528015612493578160200160208202803683370190505b50905060005b828110156124d4578481815181106124ad57fe5b60200260200101518282815181106124c157fe5b6020908102919091010152600101612499565b509392505050565b3b151590565b6060612537826040518060400160405280602081526020017f5361666545524332303a206c6f772d6c6576656c2063616c6c206661696c6564815250856001600160a01b03166125949092919063ffffffff16565b90508051600014610bdd5780806020019051602081101561255757600080fd5b5051610bdd5760405162461bcd60e51b815260040180806020018281038252602a81526020018061288d602a913960400191505060405180910390fd5b60606125a384846000856125ab565b949350505050565b6060824710156125ec5760405162461bcd60e51b81526004018080602001828103825260268152602001806127f96026913960400191505060405180910390fd5b6125f5856124dc565b612646576040805162461bcd60e51b815260206004820152601d60248201527f416464726573733a2063616c6c20746f206e6f6e2d636f6e7472616374000000604482015290519081900360640190fd5b60006060866001600160a01b031685876040518082805190602001908083835b602083106126855780518252601f199092019160209182019101612666565b6001836020036101000a03801982511681845116808217855250505050505090500191505060006040518083038185875af1925050503d80600081146126e7576040519150601f19603f3d011682016040523d82523d6000602084013e6126ec565b606091505b50915091506126fc828286612707565b979650505050505050565b60608315612716575081611b76565b8251156127265782518084602001fd5b60405162461bcd60e51b81526020600482018181528451602484015284518593919283926044019190850190808383600083156124095781810151838201526020016123f1565b8280548282559060005260206000209081019282156127a8579160200282015b828111156127a857825182559160200191906001019061278d565b506127b49291506127b8565b5090565b61079791905b808211156127b457600081556001016127be56fe4f776e61626c653a206e6577206f776e657220697320746865207a65726f2061646472657373416464726573733a20696e73756666696369656e742062616c616e636520666f722063616c6c496e697469616c697a61626c653a20636f6e747261637420697320616c726561647920696e697469616c697a65644f776e61626c653a2063616c6c6572206973206e6f7420746865206f776e65728be0079c531659141344cd1fd0a4f28419497f9722a3daafe3b4186f6b6457e05361666545524332303a204552433230206f7065726174696f6e20646964206e6f742073756363656564a2646970667358221220e85e196404b7bfe138aad10328e19832f66173385cc251fcc5a81e0f67d91e1f64736f6c634300060b0033",
  "linkReferences": {},
  "deployedLinkReferences": {}
}