{
  "_format": "hh-sol-artifact-1",
  "contractName": "BOC_NFT_Premier",
  "sourceName": "contracts/BOCLaunchNftPremier.sol",
  "abi": [
    {
      "inputs": [
        {
          "internalType": "address",
          "name": "_artist",
          "type": "address"
        },
        {
          "internalType": "address",
          "name": "_txFeeToken",
          "type": "address"
        },
        {
          "internalType": "uint256",
          "name": "_txFeeAmount",
          "type": "uint256"
        }
      ],
      "stateMutability": "nonpayable",
      "type": "constructor"
    },
    {
      "anonymous": false,
      "inputs": [
        {
          "indexed": true,
          "internalType": "address",
          "name": "owner",
          "type": "address"
        },
        {
          "indexed": true,
          "internalType": "address",
          "name": "approved",
          "type": "address"
        },
        {
          "indexed": true,
          "internalType": "uint256",
          "name": "tokenId",
          "type": "uint256"
        }
      ],
      "name": "Approval",
      "type": "event"
    },
    {
      "anonymous": false,
      "inputs": [
        {
          "indexed": true,
          "internalType": "address",
          "name": "owner",
          "type": "address"
        },
        {
          "indexed": true,
          "internalType": "address",
          "name": "operator",
          "type": "address"
        },
        {
          "indexed": false,
          "internalType": "bool",
          "name": "approved",
          "type": "bool"
        }
      ],
      "name": "ApprovalForAll",
      "type": "event"
    },
    {
      "anonymous": false,
      "inputs": [
        {
          "indexed": true,
          "internalType": "uint256",
          "name": "tokenId",
          "type": "uint256"
        },
        {
          "indexed": false,
          "internalType": "string",
          "name": "tokenURI",
          "type": "string"
        }
      ],
      "name": "CreatedSVGNFT",
      "type": "event"
    },
    {
      "anonymous": false,
      "inputs": [
        {
          "indexed": true,
          "internalType": "address",
          "name": "previousOwner",
          "type": "address"
        },
        {
          "indexed": true,
          "internalType": "address",
          "name": "newOwner",
          "type": "address"
        }
      ],
      "name": "OwnershipTransferred",
      "type": "event"
    },
    {
      "anonymous": false,
      "inputs": [
        {
          "indexed": true,
          "internalType": "address",
          "name": "from",
          "type": "address"
        },
        {
          "indexed": true,
          "internalType": "address",
          "name": "to",
          "type": "address"
        },
        {
          "indexed": true,
          "internalType": "uint256",
          "name": "tokenId",
          "type": "uint256"
        }
      ],
      "name": "Transfer",
      "type": "event"
    },
    {
      "inputs": [
        {
          "internalType": "address",
          "name": "to",
          "type": "address"
        },
        {
          "internalType": "uint256",
          "name": "tokenId",
          "type": "uint256"
        }
      ],
      "name": "approve",
      "outputs": [],
      "stateMutability": "nonpayable",
      "type": "function"
    },
    {
      "inputs": [],
      "name": "artist",
      "outputs": [
        {
          "internalType": "address",
          "name": "",
          "type": "address"
        }
      ],
      "stateMutability": "view",
      "type": "function"
    },
    {
      "inputs": [
        {
          "internalType": "address",
          "name": "owner",
          "type": "address"
        }
      ],
      "name": "balanceOf",
      "outputs": [
        {
          "internalType": "uint256",
          "name": "",
          "type": "uint256"
        }
      ],
      "stateMutability": "view",
      "type": "function"
    },
    {
      "inputs": [],
      "name": "create",
      "outputs": [],
      "stateMutability": "nonpayable",
      "type": "function"
    },
    {
      "inputs": [
        {
          "internalType": "string",
          "name": "imageURI",
          "type": "string"
        },
        {
          "internalType": "uint256",
          "name": "_tokenCounter",
          "type": "uint256"
        }
      ],
      "name": "formatTokenURI",
      "outputs": [
        {
          "internalType": "string",
          "name": "",
          "type": "string"
        }
      ],
      "stateMutability": "pure",
      "type": "function"
    },
    {
      "inputs": [
        {
          "internalType": "uint256",
          "name": "tokenId",
          "type": "uint256"
        }
      ],
      "name": "getApproved",
      "outputs": [
        {
          "internalType": "address",
          "name": "",
          "type": "address"
        }
      ],
      "stateMutability": "view",
      "type": "function"
    },
    {
      "inputs": [
        {
          "internalType": "address",
          "name": "owner",
          "type": "address"
        },
        {
          "internalType": "address",
          "name": "operator",
          "type": "address"
        }
      ],
      "name": "isApprovedForAll",
      "outputs": [
        {
          "internalType": "bool",
          "name": "",
          "type": "bool"
        }
      ],
      "stateMutability": "view",
      "type": "function"
    },
    {
      "inputs": [],
      "name": "name",
      "outputs": [
        {
          "internalType": "string",
          "name": "",
          "type": "string"
        }
      ],
      "stateMutability": "view",
      "type": "function"
    },
    {
      "inputs": [],
      "name": "owner",
      "outputs": [
        {
          "internalType": "address",
          "name": "",
          "type": "address"
        }
      ],
      "stateMutability": "view",
      "type": "function"
    },
    {
      "inputs": [
        {
          "internalType": "uint256",
          "name": "tokenId",
          "type": "uint256"
        }
      ],
      "name": "ownerOf",
      "outputs": [
        {
          "internalType": "address",
          "name": "",
          "type": "address"
        }
      ],
      "stateMutability": "view",
      "type": "function"
    },
    {
      "inputs": [],
      "name": "renounceOwnership",
      "outputs": [],
      "stateMutability": "nonpayable",
      "type": "function"
    },
    {
      "inputs": [
        {
          "internalType": "address",
          "name": "from",
          "type": "address"
        },
        {
          "internalType": "address",
          "name": "to",
          "type": "address"
        },
        {
          "internalType": "uint256",
          "name": "tokenId",
          "type": "uint256"
        }
      ],
      "name": "safeTransferFrom",
      "outputs": [],
      "stateMutability": "nonpayable",
      "type": "function"
    },
    {
      "inputs": [
        {
          "internalType": "address",
          "name": "from",
          "type": "address"
        },
        {
          "internalType": "address",
          "name": "to",
          "type": "address"
        },
        {
          "internalType": "uint256",
          "name": "tokenId",
          "type": "uint256"
        },
        {
          "internalType": "bytes",
          "name": "_data",
          "type": "bytes"
        }
      ],
      "name": "safeTransferFrom",
      "outputs": [],
      "stateMutability": "nonpayable",
      "type": "function"
    },
    {
      "inputs": [
        {
          "internalType": "address",
          "name": "operator",
          "type": "address"
        },
        {
          "internalType": "bool",
          "name": "approved",
          "type": "bool"
        }
      ],
      "name": "setApprovalForAll",
      "outputs": [],
      "stateMutability": "nonpayable",
      "type": "function"
    },
    {
      "inputs": [
        {
          "internalType": "bytes4",
          "name": "interfaceId",
          "type": "bytes4"
        }
      ],
      "name": "supportsInterface",
      "outputs": [
        {
          "internalType": "bool",
          "name": "",
          "type": "bool"
        }
      ],
      "stateMutability": "view",
      "type": "function"
    },
    {
      "inputs": [],
      "name": "symbol",
      "outputs": [
        {
          "internalType": "string",
          "name": "",
          "type": "string"
        }
      ],
      "stateMutability": "view",
      "type": "function"
    },
    {
      "inputs": [],
      "name": "tokenCounter",
      "outputs": [
        {
          "internalType": "uint256",
          "name": "",
          "type": "uint256"
        }
      ],
      "stateMutability": "view",
      "type": "function"
    },
    {
      "inputs": [
        {
          "internalType": "uint256",
          "name": "tokenId",
          "type": "uint256"
        }
      ],
      "name": "tokenURI",
      "outputs": [
        {
          "internalType": "string",
          "name": "",
          "type": "string"
        }
      ],
      "stateMutability": "view",
      "type": "function"
    },
    {
      "inputs": [
        {
          "internalType": "address",
          "name": "from",
          "type": "address"
        },
        {
          "internalType": "address",
          "name": "to",
          "type": "address"
        },
        {
          "internalType": "uint256",
          "name": "tokenId",
          "type": "uint256"
        }
      ],
      "name": "transferFrom",
      "outputs": [],
      "stateMutability": "nonpayable",
      "type": "function"
    },
    {
      "inputs": [
        {
          "internalType": "address",
          "name": "newOwner",
          "type": "address"
        }
      ],
      "name": "transferOwnership",
      "outputs": [],
      "stateMutability": "nonpayable",
      "type": "function"
    },
    {
      "inputs": [],
      "name": "txFeeAmount",
      "outputs": [
        {
          "internalType": "uint256",
          "name": "",
          "type": "uint256"
        }
      ],
      "stateMutability": "view",
      "type": "function"
    },
    {
      "inputs": [],
      "name": "txFeeToken",
      "outputs": [
        {
          "internalType": "address",
          "name": "",
          "type": "address"
        }
      ],
      "stateMutability": "view",
      "type": "function"
    }
  ],
  "bytecode": "0x60806040523480156200001157600080fd5b5060405162003b3d38038062003b3d833981810160405281019062000037919062000321565b6040518060600160405280602d815260200162003b10602d91396040518060400160405280600e81526020017f626f634e46545f5072656d69657200000000000000000000000000000000000081525081600090805190602001906200009f92919062000243565b508060019080519060200190620000b892919062000243565b505050620000db620000cf6200017560201b60201c565b6200017d60201b60201c565b6000600b8190555082600860006101000a81548173ffffffffffffffffffffffffffffffffffffffff021916908373ffffffffffffffffffffffffffffffffffffffff16021790555081600960006101000a81548173ffffffffffffffffffffffffffffffffffffffff021916908373ffffffffffffffffffffffffffffffffffffffff16021790555080600a819055505050506200044e565b600033905090565b6000600760009054906101000a900473ffffffffffffffffffffffffffffffffffffffff16905081600760006101000a81548173ffffffffffffffffffffffffffffffffffffffff021916908373ffffffffffffffffffffffffffffffffffffffff1602179055508173ffffffffffffffffffffffffffffffffffffffff168173ffffffffffffffffffffffffffffffffffffffff167f8be0079c531659141344cd1fd0a4f28419497f9722a3daafe3b4186f6b6457e060405160405180910390a35050565b8280546200025190620003b5565b90600052602060002090601f016020900481019282620002755760008555620002c1565b82601f106200029057805160ff1916838001178555620002c1565b82800160010185558215620002c1579182015b82811115620002c0578251825591602001919060010190620002a3565b5b509050620002d09190620002d4565b5090565b5b80821115620002ef576000816000905550600101620002d5565b5090565b60008151905062000304816200041a565b92915050565b6000815190506200031b8162000434565b92915050565b6000806000606084860312156200033757600080fd5b60006200034786828701620002f3565b93505060206200035a86828701620002f3565b92505060406200036d868287016200030a565b9150509250925092565b600062000384826200038b565b9050919050565b600073ffffffffffffffffffffffffffffffffffffffff82169050919050565b6000819050919050565b60006002820490506001821680620003ce57607f821691505b60208210811415620003e557620003e4620003eb565b5b50919050565b7f4e487b7100000000000000000000000000000000000000000000000000000000600052602260045260246000fd5b620004258162000377565b81146200043157600080fd5b50565b6200043f81620003ab565b81146200044b57600080fd5b50565b6136b2806200045e6000396000f3fe608060405234801561001057600080fd5b50600436106101425760003560e01c80638da5cb5b116100b8578063c4d53dea1161007c578063c4d53dea14610351578063c87b56dd14610381578063d082e381146103b1578063e985e9c5146103cf578063efc81a8c146103ff578063f2fde38b1461040957610142565b80638da5cb5b146102bf5780638fbceaad146102dd57806395d89b41146102fb578063a22cb46514610319578063b88d4fde1461033557610142565b806342842e0e1161010a57806342842e0e146101fd57806343bc1612146102195780636352211e1461023757806370a0823114610267578063715018a61461029757806377c567a7146102a157610142565b806301ffc9a71461014757806306fdde0314610177578063081812fc14610195578063095ea7b3146101c557806323b872dd146101e1575b600080fd5b610161600480360381019061015c9190612397565b610425565b60405161016e9190612efb565b60405180910390f35b61017f610507565b60405161018c9190612f16565b60405180910390f35b6101af60048036038101906101aa919061243d565b610599565b6040516101bc9190612e5d565b60405180910390f35b6101df60048036038101906101da9190612332565b61061e565b005b6101fb60048036038101906101f6919061222c565b610736565b005b6102176004803603810190610212919061222c565b610796565b005b6102216107b6565b60405161022e9190612e5d565b60405180910390f35b610251600480360381019061024c919061243d565b6107dc565b60405161025e9190612e5d565b60405180910390f35b610281600480360381019061027c91906121c7565b61088e565b60405161028e9190613178565b60405180910390f35b61029f610946565b005b6102a96109ce565b6040516102b69190612e5d565b60405180910390f35b6102c76109f4565b6040516102d49190612e5d565b60405180910390f35b6102e5610a1e565b6040516102f29190613178565b60405180910390f35b610303610a24565b6040516103109190612f16565b60405180910390f35b610333600480360381019061032e91906122f6565b610ab6565b005b61034f600480360381019061034a919061227b565b610acc565b005b61036b600480360381019061036691906123e9565b610b2e565b6040516103789190612f16565b60405180910390f35b61039b6004803603810190610396919061243d565b610b89565b6040516103a89190612f16565b60405180910390f35b6103b9610cdb565b6040516103c69190613178565b60405180910390f35b6103e960048036038101906103e491906121f0565b610ce1565b6040516103f69190612efb565b60405180910390f35b610407610d75565b005b610423600480360381019061041e91906121c7565b610e2b565b005b60007f80ac58cd000000000000000000000000000000000000000000000000000000007bffffffffffffffffffffffffffffffffffffffffffffffffffffffff1916827bffffffffffffffffffffffffffffffffffffffffffffffffffffffff191614806104f057507f5b5e139f000000000000000000000000000000000000000000000000000000007bffffffffffffffffffffffffffffffffffffffffffffffffffffffff1916827bffffffffffffffffffffffffffffffffffffffffffffffffffffffff1916145b8061050057506104ff82610f23565b5b9050919050565b60606000805461051690613432565b80601f016020809104026020016040519081016040528092919081815260200182805461054290613432565b801561058f5780601f106105645761010080835404028352916020019161058f565b820191906000526020600020905b81548152906001019060200180831161057257829003601f168201915b5050505050905090565b60006105a482610f8d565b6105e3576040517f08c379a00000000000000000000000000000000000000000000000000000000081526004016105da906130b8565b60405180910390fd5b6004600083815260200190815260200160002060009054906101000a900473ffffffffffffffffffffffffffffffffffffffff169050919050565b6000610629826107dc565b90508073ffffffffffffffffffffffffffffffffffffffff168373ffffffffffffffffffffffffffffffffffffffff16141561069a576040517f08c379a000000000000000000000000000000000000000000000000000000000815260040161069190613138565b60405180910390fd5b8073ffffffffffffffffffffffffffffffffffffffff166106b9610ff9565b73ffffffffffffffffffffffffffffffffffffffff1614806106e857506106e7816106e2610ff9565b610ce1565b5b610727576040517f08c379a000000000000000000000000000000000000000000000000000000000815260040161071e90612ff8565b60405180910390fd5b6107318383611001565b505050565b610747610741610ff9565b826110ba565b610786576040517f08c379a000000000000000000000000000000000000000000000000000000000815260040161077d90613158565b60405180910390fd5b610791838383611198565b505050565b6107b183838360405180602001604052806000815250610acc565b505050565b600860009054906101000a900473ffffffffffffffffffffffffffffffffffffffff1681565b6000806002600084815260200190815260200160002060009054906101000a900473ffffffffffffffffffffffffffffffffffffffff169050600073ffffffffffffffffffffffffffffffffffffffff168173ffffffffffffffffffffffffffffffffffffffff161415610885576040517f08c379a000000000000000000000000000000000000000000000000000000000815260040161087c90613038565b60405180910390fd5b80915050919050565b60008073ffffffffffffffffffffffffffffffffffffffff168273ffffffffffffffffffffffffffffffffffffffff1614156108ff576040517f08c379a00000000000000000000000000000000000000000000000000000000081526004016108f690613018565b60405180910390fd5b600360008373ffffffffffffffffffffffffffffffffffffffff1673ffffffffffffffffffffffffffffffffffffffff168152602001908152602001600020549050919050565b61094e610ff9565b73ffffffffffffffffffffffffffffffffffffffff1661096c6109f4565b73ffffffffffffffffffffffffffffffffffffffff16146109c2576040517f08c379a00000000000000000000000000000000000000000000000000000000081526004016109b9906130d8565b60405180910390fd5b6109cc60006113f4565b565b600960009054906101000a900473ffffffffffffffffffffffffffffffffffffffff1681565b6000600760009054906101000a900473ffffffffffffffffffffffffffffffffffffffff16905090565b600a5481565b606060018054610a3390613432565b80601f0160208091040260200160405190810160405280929190818152602001828054610a5f90613432565b8015610aac5780601f10610a8157610100808354040283529160200191610aac565b820191906000526020600020905b815481529060010190602001808311610a8f57829003601f168201915b5050505050905090565b610ac8610ac1610ff9565b83836114ba565b5050565b610add610ad7610ff9565b836110ba565b610b1c576040517f08c379a0000000000000000000000000000000000000000000000000000000008152600401610b1390613158565b60405180910390fd5b610b2884848484611627565b50505050565b6060610b62610b3c83611683565b84604051602001610b4e929190612de0565b604051602081830303815290604052611830565b604051602001610b729190612e3b565b604051602081830303815290604052905092915050565b6060610b9482610f8d565b610bd3576040517f08c379a0000000000000000000000000000000000000000000000000000000008152600401610bca90613098565b60405180910390fd5b6000600660008481526020019081526020016000208054610bf390613432565b80601f0160208091040260200160405190810160405280929190818152602001828054610c1f90613432565b8015610c6c5780601f10610c4157610100808354040283529160200191610c6c565b820191906000526020600020905b815481529060010190602001808311610c4f57829003601f168201915b505050505090506000610c7d6119cf565b9050600081511415610c93578192505050610cd6565b600082511115610cc8578082604051602001610cb0929190612dbc565b60405160208183030381529060405292505050610cd6565b610cd1846119e6565b925050505b919050565b600b5481565b6000600560008473ffffffffffffffffffffffffffffffffffffffff1673ffffffffffffffffffffffffffffffffffffffff16815260200190815260200160002060008373ffffffffffffffffffffffffffffffffffffffff1673ffffffffffffffffffffffffffffffffffffffff16815260200190815260200160002060009054906101000a900460ff16905092915050565b612710600b5410610d8557600080fd5b610d8e33611a8d565b610d9a33600b54611b6c565b6000604051806060016040528060358152602001613608603591399050610dce600b54610dc983600b54610b2e565b611b8a565b600b547ff5acc616aa8ecd00e5d76674d7812f9c3c3571d662c9fba4499deefa6d0be12d610dfe83600b54610b2e565b604051610e0b9190612f16565b60405180910390a26001600b54610e229190613267565b600b8190555050565b610e33610ff9565b73ffffffffffffffffffffffffffffffffffffffff16610e516109f4565b73ffffffffffffffffffffffffffffffffffffffff1614610ea7576040517f08c379a0000000000000000000000000000000000000000000000000000000008152600401610e9e906130d8565b60405180910390fd5b600073ffffffffffffffffffffffffffffffffffffffff168173ffffffffffffffffffffffffffffffffffffffff161415610f17576040517f08c379a0000000000000000000000000000000000000000000000000000000008152600401610f0e90612f58565b60405180910390fd5b610f20816113f4565b50565b60007f01ffc9a7000000000000000000000000000000000000000000000000000000007bffffffffffffffffffffffffffffffffffffffffffffffffffffffff1916827bffffffffffffffffffffffffffffffffffffffffffffffffffffffff1916149050919050565b60008073ffffffffffffffffffffffffffffffffffffffff166002600084815260200190815260200160002060009054906101000a900473ffffffffffffffffffffffffffffffffffffffff1673ffffffffffffffffffffffffffffffffffffffff1614159050919050565b600033905090565b816004600083815260200190815260200160002060006101000a81548173ffffffffffffffffffffffffffffffffffffffff021916908373ffffffffffffffffffffffffffffffffffffffff160217905550808273ffffffffffffffffffffffffffffffffffffffff16611074836107dc565b73ffffffffffffffffffffffffffffffffffffffff167f8c5be1e5ebec7d5bd14f71427d1e84f3dd0314c0f7b2291e5b200ac8c7c3b92560405160405180910390a45050565b60006110c582610f8d565b611104576040517f08c379a00000000000000000000000000000000000000000000000000000000081526004016110fb90612fd8565b60405180910390fd5b600061110f836107dc565b90508073ffffffffffffffffffffffffffffffffffffffff168473ffffffffffffffffffffffffffffffffffffffff16148061117e57508373ffffffffffffffffffffffffffffffffffffffff1661116684610599565b73ffffffffffffffffffffffffffffffffffffffff16145b8061118f575061118e8185610ce1565b5b91505092915050565b8273ffffffffffffffffffffffffffffffffffffffff166111b8826107dc565b73ffffffffffffffffffffffffffffffffffffffff161461120e576040517f08c379a0000000000000000000000000000000000000000000000000000000008152600401611205906130f8565b60405180910390fd5b600073ffffffffffffffffffffffffffffffffffffffff168273ffffffffffffffffffffffffffffffffffffffff16141561127e576040517f08c379a000000000000000000000000000000000000000000000000000000000815260040161127590612f98565b60405180910390fd5b611289838383611bfe565b611294600082611001565b6001600360008573ffffffffffffffffffffffffffffffffffffffff1673ffffffffffffffffffffffffffffffffffffffff16815260200190815260200160002060008282546112e49190613348565b925050819055506001600360008473ffffffffffffffffffffffffffffffffffffffff1673ffffffffffffffffffffffffffffffffffffffff168152602001908152602001600020600082825461133b9190613267565b92505081905550816002600083815260200190815260200160002060006101000a81548173ffffffffffffffffffffffffffffffffffffffff021916908373ffffffffffffffffffffffffffffffffffffffff160217905550808273ffffffffffffffffffffffffffffffffffffffff168473ffffffffffffffffffffffffffffffffffffffff167fddf252ad1be2c89b69c2b068fc378daa952ba7f163c4a11628f55a4df523b3ef60405160405180910390a4505050565b6000600760009054906101000a900473ffffffffffffffffffffffffffffffffffffffff16905081600760006101000a81548173ffffffffffffffffffffffffffffffffffffffff021916908373ffffffffffffffffffffffffffffffffffffffff1602179055508173ffffffffffffffffffffffffffffffffffffffff168173ffffffffffffffffffffffffffffffffffffffff167f8be0079c531659141344cd1fd0a4f28419497f9722a3daafe3b4186f6b6457e060405160405180910390a35050565b8173ffffffffffffffffffffffffffffffffffffffff168373ffffffffffffffffffffffffffffffffffffffff161415611529576040517f08c379a000000000000000000000000000000000000000000000000000000000815260040161152090612fb8565b60405180910390fd5b80600560008573ffffffffffffffffffffffffffffffffffffffff1673ffffffffffffffffffffffffffffffffffffffff16815260200190815260200160002060008473ffffffffffffffffffffffffffffffffffffffff1673ffffffffffffffffffffffffffffffffffffffff16815260200190815260200160002060006101000a81548160ff0219169083151502179055508173ffffffffffffffffffffffffffffffffffffffff168373ffffffffffffffffffffffffffffffffffffffff167f17307eab39ab6107e8899845ad3d59bd9653f200f220920489ca2b5937696c318360405161161a9190612efb565b60405180910390a3505050565b611632848484611198565b61163e84848484611c03565b61167d576040517f08c379a000000000000000000000000000000000000000000000000000000000815260040161167490612f38565b60405180910390fd5b50505050565b606060008214156116cb576040518060400160405280600181526020017f3000000000000000000000000000000000000000000000000000000000000000815250905061182b565b600082905060005b600082146116fd5780806116e690613464565b915050600a826116f691906132bd565b91506116d3565b60008167ffffffffffffffff81111561173f577f4e487b7100000000000000000000000000000000000000000000000000000000600052604160045260246000fd5b6040519080825280601f01601f1916602001820160405280156117715781602001600182028036833780820191505090505b5090505b600085146118245760018261178a9190613348565b9150600a8561179991906134ad565b60306117a59190613267565b60f81b8183815181106117e1577f4e487b7100000000000000000000000000000000000000000000000000000000600052603260045260246000fd5b60200101907effffffffffffffffffffffffffffffffffffffffffffffffffffffffffffff1916908160001a905350600a8561181d91906132bd565b9450611775565b8093505050505b919050565b6060600082511415611853576040518060200160405280600081525090506119ca565b600060405180606001604052806040815260200161363d60409139905060006003600285516118829190613267565b61188c91906132bd565b600461189891906132ee565b905060006020826118a99190613267565b67ffffffffffffffff8111156118e8577f4e487b7100000000000000000000000000000000000000000000000000000000600052604160045260246000fd5b6040519080825280601f01601f19166020018201604052801561191a5781602001600182028036833780820191505090505b509050818152600183018586518101602084015b81831015611989576003830192508251603f8160121c168501518253600182019150603f81600c1c168501518253600182019150603f8160061c168501518253600182019150603f811685015182536001820191505061192e565b6003895106600181146119a357600281146119b3576119be565b613d3d60f01b60028303526119be565b603d60f81b60018303525b50505050508093505050505b919050565b606060405180602001604052806000815250905090565b60606119f182610f8d565b611a30576040517f08c379a0000000000000000000000000000000000000000000000000000000008152600401611a2790613118565b60405180910390fd5b6000611a3a6119cf565b90506000815111611a5a5760405180602001604052806000815250611a85565b80611a6484611683565b604051602001611a75929190612dbc565b6040516020818303038152906040525b915050919050565b6000600960009054906101000a900473ffffffffffffffffffffffffffffffffffffffff1690508073ffffffffffffffffffffffffffffffffffffffff166323b872dd83600860009054906101000a900473ffffffffffffffffffffffffffffffffffffffff16600a546040518463ffffffff1660e01b8152600401611b1593929190612e78565b602060405180830381600087803b158015611b2f57600080fd5b505af1158015611b43573d6000803e3d6000fd5b505050506040513d601f19601f82011682018060405250810190611b67919061236e565b505050565b611b86828260405180602001604052806000815250611d9a565b5050565b611b9382610f8d565b611bd2576040517f08c379a0000000000000000000000000000000000000000000000000000000008152600401611bc990613058565b60405180910390fd5b80600660008481526020019081526020016000209080519060200190611bf9929190611fd6565b505050565b505050565b6000611c248473ffffffffffffffffffffffffffffffffffffffff16611df5565b15611d8d578373ffffffffffffffffffffffffffffffffffffffff1663150b7a02611c4d610ff9565b8786866040518563ffffffff1660e01b8152600401611c6f9493929190612eaf565b602060405180830381600087803b158015611c8957600080fd5b505af1925050508015611cba57506040513d601f19601f82011682018060405250810190611cb791906123c0565b60015b611d3d573d8060008114611cea576040519150601f19603f3d011682016040523d82523d6000602084013e611cef565b606091505b50600081511415611d35576040517f08c379a0000000000000000000000000000000000000000000000000000000008152600401611d2c90612f38565b60405180910390fd5b805181602001fd5b63150b7a0260e01b7bffffffffffffffffffffffffffffffffffffffffffffffffffffffff1916817bffffffffffffffffffffffffffffffffffffffffffffffffffffffff191614915050611d92565b600190505b949350505050565b611da48383611e08565b611db16000848484611c03565b611df0576040517f08c379a0000000000000000000000000000000000000000000000000000000008152600401611de790612f38565b60405180910390fd5b505050565b600080823b905060008111915050919050565b600073ffffffffffffffffffffffffffffffffffffffff168273ffffffffffffffffffffffffffffffffffffffff161415611e78576040517f08c379a0000000000000000000000000000000000000000000000000000000008152600401611e6f90613078565b60405180910390fd5b611e8181610f8d565b15611ec1576040517f08c379a0000000000000000000000000000000000000000000000000000000008152600401611eb890612f78565b60405180910390fd5b611ecd60008383611bfe565b6001600360008473ffffffffffffffffffffffffffffffffffffffff1673ffffffffffffffffffffffffffffffffffffffff1681526020019081526020016000206000828254611f1d9190613267565b92505081905550816002600083815260200190815260200160002060006101000a81548173ffffffffffffffffffffffffffffffffffffffff021916908373ffffffffffffffffffffffffffffffffffffffff160217905550808273ffffffffffffffffffffffffffffffffffffffff16600073ffffffffffffffffffffffffffffffffffffffff167fddf252ad1be2c89b69c2b068fc378daa952ba7f163c4a11628f55a4df523b3ef60405160405180910390a45050565b828054611fe290613432565b90600052602060002090601f016020900481019282612004576000855561204b565b82601f1061201d57805160ff191683800117855561204b565b8280016001018555821561204b579182015b8281111561204a57825182559160200191906001019061202f565b5b509050612058919061205c565b5090565b5b8082111561207557600081600090555060010161205d565b5090565b600061208c612087846131c4565b613193565b9050828152602081018484840111156120a457600080fd5b6120af8482856133f0565b509392505050565b60006120ca6120c5846131f4565b613193565b9050828152602081018484840111156120e257600080fd5b6120ed8482856133f0565b509392505050565b600081359050612104816135ab565b92915050565b600081359050612119816135c2565b92915050565b60008151905061212e816135c2565b92915050565b600081359050612143816135d9565b92915050565b600081519050612158816135d9565b92915050565b600082601f83011261216f57600080fd5b813561217f848260208601612079565b91505092915050565b600082601f83011261219957600080fd5b81356121a98482602086016120b7565b91505092915050565b6000813590506121c1816135f0565b92915050565b6000602082840312156121d957600080fd5b60006121e7848285016120f5565b91505092915050565b6000806040838503121561220357600080fd5b6000612211858286016120f5565b9250506020612222858286016120f5565b9150509250929050565b60008060006060848603121561224157600080fd5b600061224f868287016120f5565b9350506020612260868287016120f5565b9250506040612271868287016121b2565b9150509250925092565b6000806000806080858703121561229157600080fd5b600061229f878288016120f5565b94505060206122b0878288016120f5565b93505060406122c1878288016121b2565b925050606085013567ffffffffffffffff8111156122de57600080fd5b6122ea8782880161215e565b91505092959194509250565b6000806040838503121561230957600080fd5b6000612317858286016120f5565b92505060206123288582860161210a565b9150509250929050565b6000806040838503121561234557600080fd5b6000612353858286016120f5565b9250506020612364858286016121b2565b9150509250929050565b60006020828403121561238057600080fd5b600061238e8482850161211f565b91505092915050565b6000602082840312156123a957600080fd5b60006123b784828501612134565b91505092915050565b6000602082840312156123d257600080fd5b60006123e084828501612149565b91505092915050565b600080604083850312156123fc57600080fd5b600083013567ffffffffffffffff81111561241657600080fd5b61242285828601612188565b9250506020612433858286016121b2565b9150509250929050565b60006020828403121561244f57600080fd5b600061245d848285016121b2565b91505092915050565b61246f8161337c565b82525050565b61247e8161338e565b82525050565b600061248f82613224565b612499818561323a565b93506124a98185602086016133ff565b6124b28161359a565b840191505092915050565b60006124c88261322f565b6124d2818561324b565b93506124e28185602086016133ff565b6124eb8161359a565b840191505092915050565b60006125018261322f565b61250b818561325c565b935061251b8185602086016133ff565b80840191505092915050565b600061253460098361325c565b91507f7b226e616d65223a2200000000000000000000000000000000000000000000006000830152600982019050919050565b600061257460328361324b565b91507f4552433732313a207472616e7366657220746f206e6f6e20455243373231526560008301527f63656976657220696d706c656d656e74657200000000000000000000000000006020830152604082019050919050565b60006125da60268361324b565b91507f4f776e61626c653a206e6577206f776e657220697320746865207a65726f206160008301527f64647265737300000000000000000000000000000000000000000000000000006020830152604082019050919050565b6000612640601c8361324b565b91507f4552433732313a20746f6b656e20616c7265616479206d696e746564000000006000830152602082019050919050565b600061268060248361324b565b91507f4552433732313a207472616e7366657220746f20746865207a65726f2061646460008301527f72657373000000000000000000000000000000000000000000000000000000006020830152604082019050919050565b60006126e660198361324b565b91507f4552433732313a20617070726f766520746f2063616c6c6572000000000000006000830152602082019050919050565b6000612726602c8361324b565b91507f4552433732313a206f70657261746f7220717565727920666f72206e6f6e657860008301527f697374656e7420746f6b656e00000000000000000000000000000000000000006020830152604082019050919050565b600061278c60388361324b565b91507f4552433732313a20617070726f76652063616c6c6572206973206e6f74206f7760008301527f6e6572206e6f7220617070726f76656420666f7220616c6c00000000000000006020830152604082019050919050565b60006127f2602a8361324b565b91507f4552433732313a2062616c616e636520717565727920666f7220746865207a6560008301527f726f2061646472657373000000000000000000000000000000000000000000006020830152604082019050919050565b600061285860298361324b565b91507f4552433732313a206f776e657220717565727920666f72206e6f6e657869737460008301527f656e7420746f6b656e00000000000000000000000000000000000000000000006020830152604082019050919050565b60006128be600c8361325c565b91507f222c2022696d616765223a2200000000000000000000000000000000000000006000830152600c82019050919050565b60006128fe602e8361324b565b91507f45524337323155524953746f726167653a2055524920736574206f66206e6f6e60008301527f6578697374656e7420746f6b656e0000000000000000000000000000000000006020830152604082019050919050565b6000612964605a8361325c565b91507f222c20226465736372697074696f6e223a22546865204f6666696369616c204260008301527f616e6b206f662043726f6e6f7320496e697469616c204e4654204f666665726960208301527f6e67202d205072656d696572222c202245646974696f6e223a220000000000006040830152605a82019050919050565b60006129f060028361325c565b91507f227d0000000000000000000000000000000000000000000000000000000000006000830152600282019050919050565b6000612a3060208361324b565b91507f4552433732313a206d696e7420746f20746865207a65726f20616464726573736000830152602082019050919050565b6000612a7060318361324b565b91507f45524337323155524953746f726167653a2055524920717565727920666f722060008301527f6e6f6e6578697374656e7420746f6b656e0000000000000000000000000000006020830152604082019050919050565b6000612ad6602c8361324b565b91507f4552433732313a20617070726f76656420717565727920666f72206e6f6e657860008301527f697374656e7420746f6b656e00000000000000000000000000000000000000006020830152604082019050919050565b6000612b3c60208361324b565b91507f4f776e61626c653a2063616c6c6572206973206e6f7420746865206f776e65726000830152602082019050919050565b6000612b7c60298361324b565b91507f4552433732313a207472616e73666572206f6620746f6b656e2074686174206960008301527f73206e6f74206f776e00000000000000000000000000000000000000000000006020830152604082019050919050565b6000612be2602f8361324b565b91507f4552433732314d657461646174613a2055524920717565727920666f72206e6f60008301527f6e6578697374656e7420746f6b656e00000000000000000000000000000000006020830152604082019050919050565b6000612c4860218361324b565b91507f4552433732313a20617070726f76616c20746f2063757272656e74206f776e6560008301527f72000000000000000000000000000000000000000000000000000000000000006020830152604082019050919050565b6000612cae601d8361325c565b91507f646174613a6170706c69636174696f6e2f6a736f6e3b6261736536342c0000006000830152601d82019050919050565b6000612cee60318361324b565b91507f4552433732313a207472616e736665722063616c6c6572206973206e6f74206f60008301527f776e6572206e6f7220617070726f7665640000000000000000000000000000006020830152604082019050919050565b6000612d54602d8361325c565b91507f42616e6b204f662043726f6e6f7320496e697469616c204e4654204f6666657260008301527f696e67202d205072656d696572000000000000000000000000000000000000006020830152602d82019050919050565b612db6816133e6565b82525050565b6000612dc882856124f6565b9150612dd482846124f6565b91508190509392505050565b6000612deb82612527565b9150612df682612d47565b9150612e0182612957565b9150612e0d82856124f6565b9150612e18826128b1565b9150612e2482846124f6565b9150612e2f826129e3565b91508190509392505050565b6000612e4682612ca1565b9150612e5282846124f6565b915081905092915050565b6000602082019050612e726000830184612466565b92915050565b6000606082019050612e8d6000830186612466565b612e9a6020830185612466565b612ea76040830184612dad565b949350505050565b6000608082019050612ec46000830187612466565b612ed16020830186612466565b612ede6040830185612dad565b8181036060830152612ef08184612484565b905095945050505050565b6000602082019050612f106000830184612475565b92915050565b60006020820190508181036000830152612f3081846124bd565b905092915050565b60006020820190508181036000830152612f5181612567565b9050919050565b60006020820190508181036000830152612f71816125cd565b9050919050565b60006020820190508181036000830152612f9181612633565b9050919050565b60006020820190508181036000830152612fb181612673565b9050919050565b60006020820190508181036000830152612fd1816126d9565b9050919050565b60006020820190508181036000830152612ff181612719565b9050919050565b600060208201905081810360008301526130118161277f565b9050919050565b60006020820190508181036000830152613031816127e5565b9050919050565b600060208201905081810360008301526130518161284b565b9050919050565b60006020820190508181036000830152613071816128f1565b9050919050565b6000602082019050818103600083015261309181612a23565b9050919050565b600060208201905081810360008301526130b181612a63565b9050919050565b600060208201905081810360008301526130d181612ac9565b9050919050565b600060208201905081810360008301526130f181612b2f565b9050919050565b6000602082019050818103600083015261311181612b6f565b9050919050565b6000602082019050818103600083015261313181612bd5565b9050919050565b6000602082019050818103600083015261315181612c3b565b9050919050565b6000602082019050818103600083015261317181612ce1565b9050919050565b600060208201905061318d6000830184612dad565b92915050565b6000604051905081810181811067ffffffffffffffff821117156131ba576131b961356b565b5b8060405250919050565b600067ffffffffffffffff8211156131df576131de61356b565b5b601f19601f8301169050602081019050919050565b600067ffffffffffffffff82111561320f5761320e61356b565b5b601f19601f8301169050602081019050919050565b600081519050919050565b600081519050919050565b600082825260208201905092915050565b600082825260208201905092915050565b600081905092915050565b6000613272826133e6565b915061327d836133e6565b9250827fffffffffffffffffffffffffffffffffffffffffffffffffffffffffffffffff038211156132b2576132b16134de565b5b828201905092915050565b60006132c8826133e6565b91506132d3836133e6565b9250826132e3576132e261350d565b5b828204905092915050565b60006132f9826133e6565b9150613304836133e6565b9250817fffffffffffffffffffffffffffffffffffffffffffffffffffffffffffffffff048311821515161561333d5761333c6134de565b5b828202905092915050565b6000613353826133e6565b915061335e836133e6565b925082821015613371576133706134de565b5b828203905092915050565b6000613387826133c6565b9050919050565b60008115159050919050565b60007fffffffff0000000000000000000000000000000000000000000000000000000082169050919050565b600073ffffffffffffffffffffffffffffffffffffffff82169050919050565b6000819050919050565b82818337600083830152505050565b60005b8381101561341d578082015181840152602081019050613402565b8381111561342c576000848401525b50505050565b6000600282049050600182168061344a57607f821691505b6020821081141561345e5761345d61353c565b5b50919050565b600061346f826133e6565b91507fffffffffffffffffffffffffffffffffffffffffffffffffffffffffffffffff8214156134a2576134a16134de565b5b600182019050919050565b60006134b8826133e6565b91506134c3836133e6565b9250826134d3576134d261350d565b5b828206905092915050565b7f4e487b7100000000000000000000000000000000000000000000000000000000600052601160045260246000fd5b7f4e487b7100000000000000000000000000000000000000000000000000000000600052601260045260246000fd5b7f4e487b7100000000000000000000000000000000000000000000000000000000600052602260045260246000fd5b7f4e487b7100000000000000000000000000000000000000000000000000000000600052604160045260246000fd5b6000601f19601f8301169050919050565b6135b48161337c565b81146135bf57600080fd5b50565b6135cb8161338e565b81146135d657600080fd5b50565b6135e28161339a565b81146135ed57600080fd5b50565b6135f9816133e6565b811461360457600080fd5b5056fe697066733a2f2f516d585a557547725543643759756e72727a6879377a6e786963784a36585738416758526f78784c5262384236444142434445464748494a4b4c4d4e4f505152535455565758595a6162636465666768696a6b6c6d6e6f707172737475767778797a303132333435363738392b2fa2646970667358221220e2ea3911e7cbda001de27080a51f0d983bc623669d44adb6ea0b472e37c6a77664736f6c6343000800003342616e6b206f662043726f6e6f7320496e697469616c204e4654204f66666572696e67202d205072656d696572",
  "linkReferences": {},
  "deployedLinkReferences": {}
}