{
  "_format": "hh-sol-artifact-1",
  "contractName": "PriceFeed",
  "sourceName": "src/main/PriceFeed.sol",
  "abi": [
    {
      "anonymous": false,
      "inputs": [
        {
          "indexed": false,
          "internalType": "uint256",
          "name": "_lastGoodPrice",
          "type": "uint256"
        }
      ],
      "name": "LastGoodPriceUpdated",
      "type": "event"
    },
    {
      "anonymous": false,
      "inputs": [
        {
          "indexed": true,
          "internalType": "address",
          "name": "previousOwner",
          "type": "address"
        },
        {
          "indexed": true,
          "internalType": "address",
          "name": "newOwner",
          "type": "address"
        }
      ],
      "name": "OwnershipTransferred",
      "type": "event"
    },
    {
      "inputs": [],
      "name": "DECIMAL_PRECISION",
      "outputs": [
        {
          "internalType": "uint256",
          "name": "",
          "type": "uint256"
        }
      ],
      "stateMutability": "view",
      "type": "function"
    },
    {
      "inputs": [],
      "name": "MAX_PRICE_DEVIATION_FROM_PREVIOUS_ROUND",
      "outputs": [
        {
          "internalType": "uint256",
          "name": "",
          "type": "uint256"
        }
      ],
      "stateMutability": "view",
      "type": "function"
    },
    {
      "inputs": [],
      "name": "NAME",
      "outputs": [
        {
          "internalType": "string",
          "name": "",
          "type": "string"
        }
      ],
      "stateMutability": "view",
      "type": "function"
    },
    {
      "inputs": [],
      "name": "TARGET_DIGITS",
      "outputs": [
        {
          "internalType": "uint256",
          "name": "",
          "type": "uint256"
        }
      ],
      "stateMutability": "view",
      "type": "function"
    },
    {
      "inputs": [],
      "name": "TIMEOUT",
      "outputs": [
        {
          "internalType": "uint256",
          "name": "",
          "type": "uint256"
        }
      ],
      "stateMutability": "view",
      "type": "function"
    },
    {
      "inputs": [],
      "name": "fetchPrice",
      "outputs": [
        {
          "internalType": "uint256",
          "name": "",
          "type": "uint256"
        }
      ],
      "stateMutability": "nonpayable",
      "type": "function"
    },
    {
      "inputs": [],
      "name": "fetchPrice_v",
      "outputs": [
        {
          "internalType": "uint256",
          "name": "",
          "type": "uint256"
        }
      ],
      "stateMutability": "view",
      "type": "function"
    },
    {
      "inputs": [],
      "name": "lastGoodPrice",
      "outputs": [
        {
          "internalType": "uint256",
          "name": "",
          "type": "uint256"
        }
      ],
      "stateMutability": "view",
      "type": "function"
    },
    {
      "inputs": [],
      "name": "owner",
      "outputs": [
        {
          "internalType": "address",
          "name": "",
          "type": "address"
        }
      ],
      "stateMutability": "view",
      "type": "function"
    },
    {
      "inputs": [],
      "name": "priceAggregator",
      "outputs": [
        {
          "internalType": "contract AggregatorV3Interface",
          "name": "",
          "type": "address"
        }
      ],
      "stateMutability": "view",
      "type": "function"
    },
    {
      "inputs": [],
      "name": "renounceOwnership",
      "outputs": [],
      "stateMutability": "nonpayable",
      "type": "function"
    },
    {
      "inputs": [
        {
          "internalType": "address",
          "name": "_priceAggregatorAddress",
          "type": "address"
        }
      ],
      "name": "setAddresses",
      "outputs": [],
      "stateMutability": "nonpayable",
      "type": "function"
    },
    {
      "inputs": [],
      "name": "setUp",
      "outputs": [],
      "stateMutability": "nonpayable",
      "type": "function"
    },
    {
      "inputs": [
        {
          "internalType": "address",
          "name": "newOwner",
          "type": "address"
        }
      ],
      "name": "transferOwnership",
      "outputs": [],
      "stateMutability": "nonpayable",
      "type": "function"
    }
  ],
  "bytecode": "0x608060405234801561001057600080fd5b50610f9a806100206000396000f3fe608060405234801561001057600080fd5b50600436106100ca5760003560e01c806381d3c4351161007c57806381d3c435146101375780638da5cb5b1461015d5780639c3bc3e614610165578063a20baee61461016d578063a3f4df7e14610175578063f2fde38b146101f2578063f56f48f214610218576100ca565b80630490be83146100cf5780630a9254e4146100e95780630fdb11cf146100f35780631be5c92f146100fb5780633078fff51461010357806358a6aa8814610127578063715018a61461012f575b600080fd5b6100d7610220565b60408051918252519081900360200190f35b6100f1610226565b005b6100d7610230565b6100d76102b9565b61010b6102be565b604080516001600160a01b039092168252519081900360200190f35b6100d76102cd565b6100f16102d9565b6100f16004803603602081101561014d57600080fd5b50356001600160a01b0316610373565b61010b6104a7565b6100d76104b6565b6100d761052e565b61017d61053a565b6040805160208082528351818301528351919283929083019185019080838360005b838110156101b757818101518382015260200161019f565b50505050905090810190601f1680156101e45780820380516001836020036101000a031916815260200191505b509250505060405180910390f35b6100f16004803603602081101561020857600080fd5b50356001600160a01b0316610562565b6100d7610653565b60665481565b61022e610659565b565b600061023a610e72565b61024261070b565b905061024c610e72565b61025e82600001518360800151610855565b905061026a828261092c565b8061027957506102798261094d565b1561028a57606654925050506102b6565b60006102a18360200151846080015160ff16610972565b90506102ac816109c3565b92506102b6915050565b90565b601281565b6065546001600160a01b031681565b6706f05b59d3b2000081565b6102e16109fe565b6001600160a01b03166102f26104a7565b6001600160a01b03161461033b576040805162461bcd60e51b81526020600482018190526024820152600080516020610ef5833981519152604482015290519081900360640190fd5b6033546040516000916001600160a01b031690600080516020610f15833981519152908390a3603380546001600160a01b0319169055565b61037b6109fe565b6001600160a01b031661038c6104a7565b6001600160a01b0316146103d5576040805162461bcd60e51b81526020600482018190526024820152600080516020610ef5833981519152604482015290519081900360640190fd5b6103de81610a02565b606580546001600160a01b0319166001600160a01b038316179055610401610e72565b61040961070b565b9050610413610e72565b61042582600001518360800151610855565b9050610431828261092c565b15801561044457506104428261094d565b155b61047f5760405162461bcd60e51b8152600401808060200182810382526030815260200180610f356030913960400191505060405180910390fd5b60006104968360200151846080015160ff16610972565b90506104a1816109c3565b50505050565b6033546001600160a01b031690565b60006104c0610e72565b6104c861070b565b90506104d2610e72565b6104e482600001518360800151610855565b90506104f0828261092c565b806104ff57506104ff8261094d565b1561051057606654925050506102b6565b6105258260200151836080015160ff16610972565b925050506102b6565b670de0b6b3a764000081565b6040518060400160405280600c81526020016b1093d0d41c9a58d95199595960a21b81525081565b61056a6109fe565b6001600160a01b031661057b6104a7565b6001600160a01b0316146105c4576040805162461bcd60e51b81526020600482018190526024820152600080516020610ef5833981519152604482015290519081900360640190fd5b6001600160a01b0381166106095760405162461bcd60e51b8152600401808060200182810382526026815260200180610ea16026913960400191505060405180910390fd5b6033546040516001600160a01b03808416921690600080516020610f1583398151915290600090a3603380546001600160a01b0319166001600160a01b0392909216919091179055565b61384081565b600054610100900460ff16806106725750610672610ab5565b80610680575060005460ff16155b6106bb5760405162461bcd60e51b815260040180806020018281038252602e815260200180610ec7602e913960400191505060405180910390fd5b600054610100900460ff161580156106e6576000805460ff1961ff0019909116610100171660011790555b6106ee610ac6565b6106f6610b66565b8015610708576000805461ff00191690555b50565b610713610e72565b606560009054906101000a90046001600160a01b03166001600160a01b031663313ce5676040518163ffffffff1660e01b815260040160206040518083038186803b15801561076157600080fd5b505afa92505050801561078657506040513d602081101561078157600080fd5b505160015b61078f576102b6565b60ff166080820152606560009054906101000a90046001600160a01b03166001600160a01b031663feaf968c6040518163ffffffff1660e01b815260040160a06040518083038186803b1580156107e557600080fd5b505afa92505050801561082757506040513d60a081101561080557600080fd5b5080516020820151604083015160608401516080909401519293919290919060015b610830576102b6565b50506001600160501b03909216835260208301526040820152600160608201526102b6565b61085d610e72565b60655460408051639a6fc8f560e01b81526001600160501b038616600482015290516001600160a01b0390921691639a6fc8f59160248082019260a092909190829003018186803b1580156108b157600080fd5b505afa9250505080156108f357506040513d60a08110156108d157600080fd5b5080516020820151604083015160608401516080909401519293919290919060015b6108fc57610926565b50506001600160501b0390921683526020830152604082015260ff82166080820152600160608201525b92915050565b600061093783610c4d565b80610946575061094682610c4d565b9392505050565b6000613840610969836040015142610cb490919063ffffffff16565b1190505b919050565b6000806012831061099b57610994846011198501600a0a63ffffffff610ce516565b9050610946565b6012831015610946576109bb846012859003600a0a63ffffffff610d1216565b949350505050565b60668190556040805182815290517f4d29de21de555af78a62fc82dd4bc05e9ae5b0660a37f04729527e0f22780cd39181900360200190a150565b3390565b6001600160a01b038116610a5d576040805162461bcd60e51b815260206004820152601e60248201527f4163636f756e742063616e6e6f74206265207a65726f20616464726573730000604482015290519081900360640190fd5b803b80610ab1576040805162461bcd60e51b815260206004820181905260248201527f4163636f756e7420636f64652073697a652063616e6e6f74206265207a65726f604482015290519081900360640190fd5b5050565b6000610ac030610d70565b15905090565b600054610100900460ff1680610adf5750610adf610ab5565b80610aed575060005460ff16155b610b285760405162461bcd60e51b815260040180806020018281038252602e815260200180610ec7602e913960400191505060405180910390fd5b600054610100900460ff161580156106f6576000805460ff1961ff0019909116610100171660011790558015610708576000805461ff001916905550565b600054610100900460ff1680610b7f5750610b7f610ab5565b80610b8d575060005460ff16155b610bc85760405162461bcd60e51b815260040180806020018281038252602e815260200180610ec7602e913960400191505060405180910390fd5b600054610100900460ff16158015610bf3576000805460ff1961ff0019909116610100171660011790555b6000610bfd6109fe565b603380546001600160a01b0319166001600160a01b03831690811790915560405191925090600090600080516020610f15833981519152908290a3508015610708576000805461ff001916905550565b60008160600151610c605750600161096d565b81516001600160501b0316610c775750600161096d565b60408201511580610c8b5750428260400151115b15610c985750600161096d565b6000826020015113610cac5750600161096d565b506000919050565b600061094683836040518060400160405280600c81526020016b737562206f766572666c6f7760a01b815250610d76565b6000610946838360405180604001604052806008815260200167064697620627920360c41b815250610e0d565b600082610d2157506000610926565b82820282848281610d2e57fe5b0414610946576040805162461bcd60e51b815260206004820152600c60248201526b6d756c206f766572666c6f7760a01b604482015290519081900360640190fd5b3b151590565b60008184841115610e055760405162461bcd60e51b81526004018080602001828103825283818151815260200191508051906020019080838360005b83811015610dca578181015183820152602001610db2565b50505050905090810190601f168015610df75780820380516001836020036101000a031916815260200191505b509250505060405180910390fd5b505050900390565b60008183610e5c5760405162461bcd60e51b8152602060048201818152835160248401528351909283926044909101919085019080838360008315610dca578181015183820152602001610db2565b506000838581610e6857fe5b0495945050505050565b6040805160a0810182526000808252602082018190529181018290526060810182905260808101919091529056fe4f776e61626c653a206e6577206f776e657220697320746865207a65726f2061646472657373496e697469616c697a61626c653a20636f6e747261637420697320616c726561647920696e697469616c697a65644f776e61626c653a2063616c6c6572206973206e6f7420746865206f776e65728be0079c531659141344cd1fd0a4f28419497f9722a3daafe3b4186f6b6457e05072696365466565643a20436861696e6c696e6b206d75737420626520776f726b696e6720616e642063757272656e74a26469706673582212208106bba4aa1b303c48e6742741aff885d1874d9a0c7451db9d1a509de85c246264736f6c634300060b0033",
  "linkReferences": {},
  "deployedLinkReferences": {}
}